{
	"28_event.sol": {
		"Events": {
			"abi": [
				{
					"anonymous": false,
					"inputs": [
						{
							"indexed": false,
							"internalType": "address",
							"name": "acc",
							"type": "address"
						},
						{
							"indexed": false,
							"internalType": "string",
							"name": "str",
							"type": "string"
						},
						{
							"indexed": false,
							"internalType": "uint256",
							"name": "bal",
							"type": "uint256"
						}
					],
					"name": "checkBalance",
					"type": "event"
				},
				{
					"inputs": [],
					"name": "func1",
					"outputs": [],
					"stateMutability": "nonpayable",
					"type": "function"
				}
			],
			"devdoc": {
				"kind": "dev",
				"methods": {},
				"version": 1
			},
			"evm": {
				"assembly": "    /* \"28_event.sol\":60:238  contract Events {... */\n  mstore(0x40, 0x80)\n  callvalue\n  dup1\n  iszero\n  tag_1\n  jumpi\n  0x00\n  dup1\n  revert\ntag_1:\n  pop\n  dataSize(sub_0)\n  dup1\n  dataOffset(sub_0)\n  0x00\n  codecopy\n  0x00\n  return\nstop\n\nsub_0: assembly {\n        /* \"28_event.sol\":60:238  contract Events {... */\n      mstore(0x40, 0x80)\n      callvalue\n      dup1\n      iszero\n      tag_1\n      jumpi\n      0x00\n      dup1\n      revert\n    tag_1:\n      pop\n      jumpi(tag_2, lt(calldatasize, 0x04))\n      shr(0xe0, calldataload(0x00))\n      dup1\n      0x74135154\n      eq\n      tag_3\n      jumpi\n    tag_2:\n      0x00\n      dup1\n      revert\n        /* \"28_event.sol\":143:235  function func1() public  {... */\n    tag_3:\n      tag_4\n      tag_5\n      jump\t// in\n    tag_4:\n      stop\n    tag_5:\n        /* \"28_event.sol\":184:227  checkBalance(msg.sender, \"Has Balance\", 99) */\n      0x2feb2eba46828e0b3efb5ac2a1e1a2a3116e6f1b99dfa003318f713bfc9182ec\n        /* \"28_event.sol\":197:207  msg.sender */\n      caller\n        /* \"28_event.sol\":224:226  99 */\n      0x63\n        /* \"28_event.sol\":184:227  checkBalance(msg.sender, \"Has Balance\", 99) */\n      mload(0x40)\n      tag_7\n      swap3\n      swap2\n      swap1\n      tag_8\n      jump\t// in\n    tag_7:\n      mload(0x40)\n      dup1\n      swap2\n      sub\n      swap1\n      log1\n        /* \"28_event.sol\":143:235  function func1() public  {... */\n      jump\t// out\n        /* \"#utility.yul\":7:133   */\n    tag_9:\n        /* \"#utility.yul\":44:51   */\n      0x00\n        /* \"#utility.yul\":84:126   */\n      0xffffffffffffffffffffffffffffffffffffffff\n        /* \"#utility.yul\":77:82   */\n      dup3\n        /* \"#utility.yul\":73:127   */\n      and\n        /* \"#utility.yul\":62:127   */\n      swap1\n      pop\n        /* \"#utility.yul\":7:133   */\n      swap2\n      swap1\n      pop\n      jump\t// out\n        /* \"#utility.yul\":139:235   */\n    tag_10:\n        /* \"#utility.yul\":176:183   */\n      0x00\n        /* \"#utility.yul\":205:229   */\n      tag_23\n        /* \"#utility.yul\":223:228   */\n      dup3\n        /* \"#utility.yul\":205:229   */\n      tag_9\n      jump\t// in\n    tag_23:\n        /* \"#utility.yul\":194:229   */\n      swap1\n      pop\n        /* \"#utility.yul\":139:235   */\n      swap2\n      swap1\n      pop\n      jump\t// out\n        /* \"#utility.yul\":241:359   */\n    tag_11:\n        /* \"#utility.yul\":328:352   */\n      tag_25\n        /* \"#utility.yul\":346:351   */\n      dup2\n        /* \"#utility.yul\":328:352   */\n      tag_10\n      jump\t// in\n    tag_25:\n        /* \"#utility.yul\":323:326   */\n      dup3\n        /* \"#utility.yul\":316:353   */\n      mstore\n        /* \"#utility.yul\":241:359   */\n      pop\n      pop\n      jump\t// out\n        /* \"#utility.yul\":365:534   */\n    tag_12:\n        /* \"#utility.yul\":449:460   */\n      0x00\n        /* \"#utility.yul\":483:489   */\n      dup3\n        /* \"#utility.yul\":478:481   */\n      dup3\n        /* \"#utility.yul\":471:490   */\n      mstore\n        /* \"#utility.yul\":523:527   */\n      0x20\n        /* \"#utility.yul\":518:521   */\n      dup3\n        /* \"#utility.yul\":514:528   */\n      add\n        /* \"#utility.yul\":499:528   */\n      swap1\n      pop\n        /* \"#utility.yul\":365:534   */\n      swap3\n      swap2\n      pop\n      pop\n      jump\t// out\n        /* \"#utility.yul\":540:701   */\n    tag_13:\n        /* \"#utility.yul\":680:693   */\n      0x4861732042616c616e6365000000000000000000000000000000000000000000\n        /* \"#utility.yul\":676:677   */\n      0x00\n        /* \"#utility.yul\":668:674   */\n      dup3\n        /* \"#utility.yul\":664:678   */\n      add\n        /* \"#utility.yul\":657:694   */\n      mstore\n        /* \"#utility.yul\":540:701   */\n      pop\n      jump\t// out\n        /* \"#utility.yul\":707:1073   */\n    tag_14:\n        /* \"#utility.yul\":849:852   */\n      0x00\n        /* \"#utility.yul\":870:937   */\n      tag_29\n        /* \"#utility.yul\":934:936   */\n      0x0b\n        /* \"#utility.yul\":929:932   */\n      dup4\n        /* \"#utility.yul\":870:937   */\n      tag_12\n      jump\t// in\n    tag_29:\n        /* \"#utility.yul\":863:937   */\n      swap2\n      pop\n        /* \"#utility.yul\":946:1039   */\n      tag_30\n        /* \"#utility.yul\":1035:1038   */\n      dup3\n        /* \"#utility.yul\":946:1039   */\n      tag_13\n      jump\t// in\n    tag_30:\n        /* \"#utility.yul\":1064:1066   */\n      0x20\n        /* \"#utility.yul\":1059:1062   */\n      dup3\n        /* \"#utility.yul\":1055:1067   */\n      add\n        /* \"#utility.yul\":1048:1067   */\n      swap1\n      pop\n        /* \"#utility.yul\":707:1073   */\n      swap2\n      swap1\n      pop\n      jump\t// out\n        /* \"#utility.yul\":1079:1165   */\n    tag_15:\n        /* \"#utility.yul\":1125:1132   */\n      0x00\n        /* \"#utility.yul\":1154:1159   */\n      dup2\n        /* \"#utility.yul\":1143:1159   */\n      swap1\n      pop\n        /* \"#utility.yul\":1079:1165   */\n      swap2\n      swap1\n      pop\n      jump\t// out\n        /* \"#utility.yul\":1171:1248   */\n    tag_16:\n        /* \"#utility.yul\":1208:1215   */\n      0x00\n        /* \"#utility.yul\":1237:1242   */\n      dup2\n        /* \"#utility.yul\":1226:1242   */\n      swap1\n      pop\n        /* \"#utility.yul\":1171:1248   */\n      swap2\n      swap1\n      pop\n      jump\t// out\n        /* \"#utility.yul\":1254:1314   */\n    tag_17:\n        /* \"#utility.yul\":1282:1285   */\n      0x00\n        /* \"#utility.yul\":1303:1308   */\n      dup2\n        /* \"#utility.yul\":1296:1308   */\n      swap1\n      pop\n        /* \"#utility.yul\":1254:1314   */\n      swap2\n      swap1\n      pop\n      jump\t// out\n        /* \"#utility.yul\":1320:1480   */\n    tag_18:\n        /* \"#utility.yul\":1379:1388   */\n      0x00\n        /* \"#utility.yul\":1412:1474   */\n      tag_35\n        /* \"#utility.yul\":1430:1473   */\n      tag_36\n        /* \"#utility.yul\":1439:1472   */\n      tag_37\n        /* \"#utility.yul\":1466:1471   */\n      dup5\n        /* \"#utility.yul\":1439:1472   */\n      tag_15\n      jump\t// in\n    tag_37:\n        /* \"#utility.yul\":1430:1473   */\n      tag_17\n      jump\t// in\n    tag_36:\n        /* \"#utility.yul\":1412:1474   */\n      tag_16\n      jump\t// in\n    tag_35:\n        /* \"#utility.yul\":1399:1474   */\n      swap1\n      pop\n        /* \"#utility.yul\":1320:1480   */\n      swap2\n      swap1\n      pop\n      jump\t// out\n        /* \"#utility.yul\":1486:1635   */\n    tag_19:\n        /* \"#utility.yul\":1582:1628   */\n      tag_39\n        /* \"#utility.yul\":1622:1627   */\n      dup2\n        /* \"#utility.yul\":1582:1628   */\n      tag_18\n      jump\t// in\n    tag_39:\n        /* \"#utility.yul\":1577:1580   */\n      dup3\n        /* \"#utility.yul\":1570:1629   */\n      mstore\n        /* \"#utility.yul\":1486:1635   */\n      pop\n      pop\n      jump\t// out\n        /* \"#utility.yul\":1641:2298   */\n    tag_8:\n        /* \"#utility.yul\":1872:1876   */\n      0x00\n        /* \"#utility.yul\":1910:1912   */\n      0x60\n        /* \"#utility.yul\":1899:1908   */\n      dup3\n        /* \"#utility.yul\":1895:1913   */\n      add\n        /* \"#utility.yul\":1887:1913   */\n      swap1\n      pop\n        /* \"#utility.yul\":1923:1994   */\n      tag_41\n        /* \"#utility.yul\":1991:1992   */\n      0x00\n        /* \"#utility.yul\":1980:1989   */\n      dup4\n        /* \"#utility.yul\":1976:1993   */\n      add\n        /* \"#utility.yul\":1967:1973   */\n      dup6\n        /* \"#utility.yul\":1923:1994   */\n      tag_11\n      jump\t// in\n    tag_41:\n        /* \"#utility.yul\":2041:2050   */\n      dup2\n        /* \"#utility.yul\":2035:2039   */\n      dup2\n        /* \"#utility.yul\":2031:2051   */\n      sub\n        /* \"#utility.yul\":2026:2028   */\n      0x20\n        /* \"#utility.yul\":2015:2024   */\n      dup4\n        /* \"#utility.yul\":2011:2029   */\n      add\n        /* \"#utility.yul\":2004:2052   */\n      mstore\n        /* \"#utility.yul\":2069:2200   */\n      tag_42\n        /* \"#utility.yul\":2195:2199   */\n      dup2\n        /* \"#utility.yul\":2069:2200   */\n      tag_14\n      jump\t// in\n    tag_42:\n        /* \"#utility.yul\":2061:2200   */\n      swap1\n      pop\n        /* \"#utility.yul\":2210:2291   */\n      tag_43\n        /* \"#utility.yul\":2287:2289   */\n      0x40\n        /* \"#utility.yul\":2276:2285   */\n      dup4\n        /* \"#utility.yul\":2272:2290   */\n      add\n        /* \"#utility.yul\":2263:2269   */\n      dup5\n        /* \"#utility.yul\":2210:2291   */\n      tag_19\n      jump\t// in\n    tag_43:\n        /* \"#utility.yul\":1641:2298   */\n      swap4\n      swap3\n      pop\n      pop\n      pop\n      jump\t// out\n\n    auxdata: 0xa264697066735822122072cbfca42bc105c000b927aff6d80d09e8b0d0bce03f2939a2cb07aff8296f0c64736f6c63430008120033\n}\n",
				"bytecode": {
					"linkReferences": {},
					"object": "608060405234801561001057600080fd5b506101d5806100206000396000f3fe608060405234801561001057600080fd5b506004361061002b5760003560e01c80637413515414610030575b600080fd5b61003861003a565b005b7f2feb2eba46828e0b3efb5ac2a1e1a2a3116e6f1b99dfa003318f713bfc9182ec33606360405161006c929190610163565b60405180910390a1565b600073ffffffffffffffffffffffffffffffffffffffff82169050919050565b60006100a182610076565b9050919050565b6100b181610096565b82525050565b600082825260208201905092915050565b7f4861732042616c616e6365000000000000000000000000000000000000000000600082015250565b60006100fe600b836100b7565b9150610109826100c8565b602082019050919050565b6000819050919050565b6000819050919050565b6000819050919050565b600061014d61014861014384610114565b610128565b61011e565b9050919050565b61015d81610132565b82525050565b600060608201905061017860008301856100a8565b8181036020830152610189816100f1565b90506101986040830184610154565b939250505056fea264697066735822122072cbfca42bc105c000b927aff6d80d09e8b0d0bce03f2939a2cb07aff8296f0c64736f6c63430008120033",
					"opcodes": "PUSH1 0x80 PUSH1 0x40 MSTORE CALLVALUE DUP1 ISZERO PUSH2 0x10 JUMPI PUSH1 0x0 DUP1 REVERT JUMPDEST POP PUSH2 0x1D5 DUP1 PUSH2 0x20 PUSH1 0x0 CODECOPY PUSH1 0x0 RETURN INVALID PUSH1 0x80 PUSH1 0x40 MSTORE CALLVALUE DUP1 ISZERO PUSH2 0x10 JUMPI PUSH1 0x0 DUP1 REVERT JUMPDEST POP PUSH1 0x4 CALLDATASIZE LT PUSH2 0x2B JUMPI PUSH1 0x0 CALLDATALOAD PUSH1 0xE0 SHR DUP1 PUSH4 0x74135154 EQ PUSH2 0x30 JUMPI JUMPDEST PUSH1 0x0 DUP1 REVERT JUMPDEST PUSH2 0x38 PUSH2 0x3A JUMP JUMPDEST STOP JUMPDEST PUSH32 0x2FEB2EBA46828E0B3EFB5AC2A1E1A2A3116E6F1B99DFA003318F713BFC9182EC CALLER PUSH1 0x63 PUSH1 0x40 MLOAD PUSH2 0x6C SWAP3 SWAP2 SWAP1 PUSH2 0x163 JUMP JUMPDEST PUSH1 0x40 MLOAD DUP1 SWAP2 SUB SWAP1 LOG1 JUMP JUMPDEST PUSH1 0x0 PUSH20 0xFFFFFFFFFFFFFFFFFFFFFFFFFFFFFFFFFFFFFFFF DUP3 AND SWAP1 POP SWAP2 SWAP1 POP JUMP JUMPDEST PUSH1 0x0 PUSH2 0xA1 DUP3 PUSH2 0x76 JUMP JUMPDEST SWAP1 POP SWAP2 SWAP1 POP JUMP JUMPDEST PUSH2 0xB1 DUP2 PUSH2 0x96 JUMP JUMPDEST DUP3 MSTORE POP POP JUMP JUMPDEST PUSH1 0x0 DUP3 DUP3 MSTORE PUSH1 0x20 DUP3 ADD SWAP1 POP SWAP3 SWAP2 POP POP JUMP JUMPDEST PUSH32 0x4861732042616C616E6365000000000000000000000000000000000000000000 PUSH1 0x0 DUP3 ADD MSTORE POP JUMP JUMPDEST PUSH1 0x0 PUSH2 0xFE PUSH1 0xB DUP4 PUSH2 0xB7 JUMP JUMPDEST SWAP2 POP PUSH2 0x109 DUP3 PUSH2 0xC8 JUMP JUMPDEST PUSH1 0x20 DUP3 ADD SWAP1 POP SWAP2 SWAP1 POP JUMP JUMPDEST PUSH1 0x0 DUP2 SWAP1 POP SWAP2 SWAP1 POP JUMP JUMPDEST PUSH1 0x0 DUP2 SWAP1 POP SWAP2 SWAP1 POP JUMP JUMPDEST PUSH1 0x0 DUP2 SWAP1 POP SWAP2 SWAP1 POP JUMP JUMPDEST PUSH1 0x0 PUSH2 0x14D PUSH2 0x148 PUSH2 0x143 DUP5 PUSH2 0x114 JUMP JUMPDEST PUSH2 0x128 JUMP JUMPDEST PUSH2 0x11E JUMP JUMPDEST SWAP1 POP SWAP2 SWAP1 POP JUMP JUMPDEST PUSH2 0x15D DUP2 PUSH2 0x132 JUMP JUMPDEST DUP3 MSTORE POP POP JUMP JUMPDEST PUSH1 0x0 PUSH1 0x60 DUP3 ADD SWAP1 POP PUSH2 0x178 PUSH1 0x0 DUP4 ADD DUP6 PUSH2 0xA8 JUMP JUMPDEST DUP2 DUP2 SUB PUSH1 0x20 DUP4 ADD MSTORE PUSH2 0x189 DUP2 PUSH2 0xF1 JUMP JUMPDEST SWAP1 POP PUSH2 0x198 PUSH1 0x40 DUP4 ADD DUP5 PUSH2 0x154 JUMP JUMPDEST SWAP4 SWAP3 POP POP POP JUMP INVALID LOG2 PUSH5 0x6970667358 0x22 SLT KECCAK256 PUSH19 0xCBFCA42BC105C000B927AFF6D80D09E8B0D0BC 0xE0 EXTCODEHASH 0x29 CODECOPY LOG2 0xCB SMOD 0xAF 0xF8 0x29 PUSH16 0xC64736F6C6343000812003300000000 "
				},
				"gasEstimates": {
					"creation": {
						"codeDepositCost": "93800",
						"executionCost": "141",
						"totalCost": "93941"
					},
					"external": {
						"func1()": "2819"
					}
				},
				"methodIdentifiers": {
					"func1()": "74135154"
				}
			},
			"storageLayout": {
				"storage": [],
				"types": null
			},
			"userdoc": {
				"kind": "user",
				"methods": {},
				"version": 1
			}
		}
	}
}