{
	"35_revert.sol": {
		"RevertXmpl": {
			"abi": [
				{
					"inputs": [
						{
							"internalType": "string",
							"name": "",
							"type": "string"
						}
					],
					"name": "throwError",
					"type": "error"
				},
				{
					"inputs": [],
					"name": "age",
					"outputs": [
						{
							"internalType": "uint256",
							"name": "",
							"type": "uint256"
						}
					],
					"stateMutability": "view",
					"type": "function"
				},
				{
					"inputs": [
						{
							"internalType": "uint16",
							"name": "_x",
							"type": "uint16"
						}
					],
					"name": "changeAge",
					"outputs": [],
					"stateMutability": "nonpayable",
					"type": "function"
				},
				{
					"inputs": [],
					"name": "onlyOwner",
					"outputs": [],
					"stateMutability": "nonpayable",
					"type": "function"
				},
				{
					"inputs": [],
					"name": "owner",
					"outputs": [
						{
							"internalType": "address",
							"name": "",
							"type": "address"
						}
					],
					"stateMutability": "view",
					"type": "function"
				}
			],
			"devdoc": {
				"kind": "dev",
				"methods": {},
				"version": 1
			},
			"evm": {
				"assembly": "    /* \"35_revert.sol\":60:504  contract RevertXmpl{... */\n  mstore(0x40, 0x80)\n    /* \"35_revert.sol\":109:119  msg.sender */\n  caller\n    /* \"35_revert.sol\":86:119  address public owner = msg.sender */\n  0x00\n  dup1\n  0x0100\n  exp\n  dup2\n  sload\n  dup2\n  0xffffffffffffffffffffffffffffffffffffffff\n  mul\n  not\n  and\n  swap1\n  dup4\n  0xffffffffffffffffffffffffffffffffffffffff\n  and\n  mul\n  or\n  swap1\n  sstore\n  pop\n    /* \"35_revert.sol\":144:146  25 */\n  0x19\n    /* \"35_revert.sol\":126:146  uint public age = 25 */\n  0x01\n  sstore\n    /* \"35_revert.sol\":60:504  contract RevertXmpl{... */\n  callvalue\n  dup1\n  iszero\n  tag_1\n  jumpi\n  0x00\n  dup1\n  revert\ntag_1:\n  pop\n  dataSize(sub_0)\n  dup1\n  dataOffset(sub_0)\n  0x00\n  codecopy\n  0x00\n  return\nstop\n\nsub_0: assembly {\n        /* \"35_revert.sol\":60:504  contract RevertXmpl{... */\n      mstore(0x40, 0x80)\n      callvalue\n      dup1\n      iszero\n      tag_1\n      jumpi\n      0x00\n      dup1\n      revert\n    tag_1:\n      pop\n      jumpi(tag_2, lt(calldatasize, 0x04))\n      shr(0xe0, calldataload(0x00))\n      dup1\n      0x1036e0a8\n      eq\n      tag_3\n      jumpi\n      dup1\n      0x262a9dff\n      eq\n      tag_4\n      jumpi\n      dup1\n      0x8da5cb5b\n      eq\n      tag_5\n      jumpi\n      dup1\n      0xb76c4433\n      eq\n      tag_6\n      jumpi\n    tag_2:\n      0x00\n      dup1\n      revert\n        /* \"35_revert.sol\":355:499  function onlyOwner() public {... */\n    tag_3:\n      tag_7\n      tag_8\n      jump\t// in\n    tag_7:\n      stop\n        /* \"35_revert.sol\":126:146  uint public age = 25 */\n    tag_4:\n      tag_9\n      tag_10\n      jump\t// in\n    tag_9:\n      mload(0x40)\n      tag_11\n      swap2\n      swap1\n      tag_12\n      jump\t// in\n    tag_11:\n      mload(0x40)\n      dup1\n      swap2\n      sub\n      swap1\n      return\n        /* \"35_revert.sol\":86:119  address public owner = msg.sender */\n    tag_5:\n      tag_13\n      tag_14\n      jump\t// in\n    tag_13:\n      mload(0x40)\n      tag_15\n      swap2\n      swap1\n      tag_16\n      jump\t// in\n    tag_15:\n      mload(0x40)\n      dup1\n      swap2\n      sub\n      swap1\n      return\n        /* \"35_revert.sol\":188:347  function changeAge(uint16 _x) public  {... */\n    tag_6:\n      tag_17\n      0x04\n      dup1\n      calldatasize\n      sub\n      dup2\n      add\n      swap1\n      tag_18\n      swap2\n      swap1\n      tag_19\n      jump\t// in\n    tag_18:\n      tag_20\n      jump\t// in\n    tag_17:\n      stop\n        /* \"35_revert.sol\":355:499  function onlyOwner() public {... */\n    tag_8:\n        /* \"35_revert.sol\":406:407  2 */\n      0x02\n        /* \"35_revert.sol\":400:403  age */\n      sload(0x01)\n        /* \"35_revert.sol\":400:407  age - 2 */\n      tag_22\n      swap2\n      swap1\n      tag_23\n      jump\t// in\n    tag_22:\n        /* \"35_revert.sol\":394:397  age */\n      0x01\n        /* \"35_revert.sol\":394:407  age = age - 2 */\n      dup2\n      swap1\n      sstore\n      pop\n        /* \"35_revert.sol\":437:442  owner */\n      0x00\n      dup1\n      sload\n      swap1\n      0x0100\n      exp\n      swap1\n      div\n      0xffffffffffffffffffffffffffffffffffffffff\n      and\n        /* \"35_revert.sol\":423:442  msg.sender != owner */\n      0xffffffffffffffffffffffffffffffffffffffff\n      and\n        /* \"35_revert.sol\":423:433  msg.sender */\n      caller\n        /* \"35_revert.sol\":423:442  msg.sender != owner */\n      0xffffffffffffffffffffffffffffffffffffffff\n      and\n      eq\n        /* \"35_revert.sol\":420:492  if(msg.sender != owner){... */\n      tag_24\n      jumpi\n        /* \"35_revert.sol\":458:480  revert('ur not owner') */\n      mload(0x40)\n      0x08c379a000000000000000000000000000000000000000000000000000000000\n      dup2\n      mstore\n      0x04\n      add\n      tag_25\n      swap1\n      tag_26\n      jump\t// in\n    tag_25:\n      mload(0x40)\n      dup1\n      swap2\n      sub\n      swap1\n      revert\n        /* \"35_revert.sol\":420:492  if(msg.sender != owner){... */\n    tag_24:\n        /* \"35_revert.sol\":355:499  function onlyOwner() public {... */\n      jump\t// out\n        /* \"35_revert.sol\":126:146  uint public age = 25 */\n    tag_10:\n      sload(0x01)\n      dup2\n      jump\t// out\n        /* \"35_revert.sol\":86:119  address public owner = msg.sender */\n    tag_14:\n      0x00\n      dup1\n      sload\n      swap1\n      0x0100\n      exp\n      swap1\n      div\n      0xffffffffffffffffffffffffffffffffffffffff\n      and\n      dup2\n      jump\t// out\n        /* \"35_revert.sol\":188:347  function changeAge(uint16 _x) public  {... */\n    tag_20:\n        /* \"35_revert.sol\":249:250  5 */\n      0x05\n        /* \"35_revert.sol\":243:246  age */\n      sload(0x01)\n        /* \"35_revert.sol\":243:250  age + 5 */\n      tag_28\n      swap2\n      swap1\n      tag_29\n      jump\t// in\n    tag_28:\n        /* \"35_revert.sol\":237:240  age */\n      0x01\n        /* \"35_revert.sol\":237:250  age = age + 5 */\n      dup2\n      swap1\n      sstore\n      pop\n        /* \"35_revert.sol\":269:270  2 */\n      0x02\n        /* \"35_revert.sol\":264:266  _x */\n      dup2\n        /* \"35_revert.sol\":264:270  _x < 2 */\n      0xffff\n      and\n      lt\n        /* \"35_revert.sol\":261:340  if(_x < 2){... */\n      iszero\n      tag_30\n      jumpi\n        /* \"35_revert.sol\":293:328  throwError('ur age is less than 2') */\n      mload(0x40)\n      0xe93b6b2400000000000000000000000000000000000000000000000000000000\n      dup2\n      mstore\n      0x04\n      add\n      tag_31\n      swap1\n      tag_32\n      jump\t// in\n    tag_31:\n      mload(0x40)\n      dup1\n      swap2\n      sub\n      swap1\n      revert\n        /* \"35_revert.sol\":261:340  if(_x < 2){... */\n    tag_30:\n        /* \"35_revert.sol\":188:347  function changeAge(uint16 _x) public  {... */\n      pop\n      jump\t// out\n        /* \"#utility.yul\":7:84   */\n    tag_33:\n        /* \"#utility.yul\":44:51   */\n      0x00\n        /* \"#utility.yul\":73:78   */\n      dup2\n        /* \"#utility.yul\":62:78   */\n      swap1\n      pop\n        /* \"#utility.yul\":7:84   */\n      swap2\n      swap1\n      pop\n      jump\t// out\n        /* \"#utility.yul\":90:208   */\n    tag_34:\n        /* \"#utility.yul\":177:201   */\n      tag_53\n        /* \"#utility.yul\":195:200   */\n      dup2\n        /* \"#utility.yul\":177:201   */\n      tag_33\n      jump\t// in\n    tag_53:\n        /* \"#utility.yul\":172:175   */\n      dup3\n        /* \"#utility.yul\":165:202   */\n      mstore\n        /* \"#utility.yul\":90:208   */\n      pop\n      pop\n      jump\t// out\n        /* \"#utility.yul\":214:436   */\n    tag_12:\n        /* \"#utility.yul\":307:311   */\n      0x00\n        /* \"#utility.yul\":345:347   */\n      0x20\n        /* \"#utility.yul\":334:343   */\n      dup3\n        /* \"#utility.yul\":330:348   */\n      add\n        /* \"#utility.yul\":322:348   */\n      swap1\n      pop\n        /* \"#utility.yul\":358:429   */\n      tag_55\n        /* \"#utility.yul\":426:427   */\n      0x00\n        /* \"#utility.yul\":415:424   */\n      dup4\n        /* \"#utility.yul\":411:428   */\n      add\n        /* \"#utility.yul\":402:408   */\n      dup5\n        /* \"#utility.yul\":358:429   */\n      tag_34\n      jump\t// in\n    tag_55:\n        /* \"#utility.yul\":214:436   */\n      swap3\n      swap2\n      pop\n      pop\n      jump\t// out\n        /* \"#utility.yul\":442:568   */\n    tag_35:\n        /* \"#utility.yul\":479:486   */\n      0x00\n        /* \"#utility.yul\":519:561   */\n      0xffffffffffffffffffffffffffffffffffffffff\n        /* \"#utility.yul\":512:517   */\n      dup3\n        /* \"#utility.yul\":508:562   */\n      and\n        /* \"#utility.yul\":497:562   */\n      swap1\n      pop\n        /* \"#utility.yul\":442:568   */\n      swap2\n      swap1\n      pop\n      jump\t// out\n        /* \"#utility.yul\":574:670   */\n    tag_36:\n        /* \"#utility.yul\":611:618   */\n      0x00\n        /* \"#utility.yul\":640:664   */\n      tag_58\n        /* \"#utility.yul\":658:663   */\n      dup3\n        /* \"#utility.yul\":640:664   */\n      tag_35\n      jump\t// in\n    tag_58:\n        /* \"#utility.yul\":629:664   */\n      swap1\n      pop\n        /* \"#utility.yul\":574:670   */\n      swap2\n      swap1\n      pop\n      jump\t// out\n        /* \"#utility.yul\":676:794   */\n    tag_37:\n        /* \"#utility.yul\":763:787   */\n      tag_60\n        /* \"#utility.yul\":781:786   */\n      dup2\n        /* \"#utility.yul\":763:787   */\n      tag_36\n      jump\t// in\n    tag_60:\n        /* \"#utility.yul\":758:761   */\n      dup3\n        /* \"#utility.yul\":751:788   */\n      mstore\n        /* \"#utility.yul\":676:794   */\n      pop\n      pop\n      jump\t// out\n        /* \"#utility.yul\":800:1022   */\n    tag_16:\n        /* \"#utility.yul\":893:897   */\n      0x00\n        /* \"#utility.yul\":931:933   */\n      0x20\n        /* \"#utility.yul\":920:929   */\n      dup3\n        /* \"#utility.yul\":916:934   */\n      add\n        /* \"#utility.yul\":908:934   */\n      swap1\n      pop\n        /* \"#utility.yul\":944:1015   */\n      tag_62\n        /* \"#utility.yul\":1012:1013   */\n      0x00\n        /* \"#utility.yul\":1001:1010   */\n      dup4\n        /* \"#utility.yul\":997:1014   */\n      add\n        /* \"#utility.yul\":988:994   */\n      dup5\n        /* \"#utility.yul\":944:1015   */\n      tag_37\n      jump\t// in\n    tag_62:\n        /* \"#utility.yul\":800:1022   */\n      swap3\n      swap2\n      pop\n      pop\n      jump\t// out\n        /* \"#utility.yul\":1109:1226   */\n    tag_39:\n        /* \"#utility.yul\":1218:1219   */\n      0x00\n        /* \"#utility.yul\":1215:1216   */\n      dup1\n        /* \"#utility.yul\":1208:1220   */\n      revert\n        /* \"#utility.yul\":1355:1444   */\n    tag_41:\n        /* \"#utility.yul\":1391:1398   */\n      0x00\n        /* \"#utility.yul\":1431:1437   */\n      0xffff\n        /* \"#utility.yul\":1424:1429   */\n      dup3\n        /* \"#utility.yul\":1420:1438   */\n      and\n        /* \"#utility.yul\":1409:1438   */\n      swap1\n      pop\n        /* \"#utility.yul\":1355:1444   */\n      swap2\n      swap1\n      pop\n      jump\t// out\n        /* \"#utility.yul\":1450:1570   */\n    tag_42:\n        /* \"#utility.yul\":1522:1545   */\n      tag_68\n        /* \"#utility.yul\":1539:1544   */\n      dup2\n        /* \"#utility.yul\":1522:1545   */\n      tag_41\n      jump\t// in\n    tag_68:\n        /* \"#utility.yul\":1515:1520   */\n      dup2\n        /* \"#utility.yul\":1512:1546   */\n      eq\n        /* \"#utility.yul\":1502:1564   */\n      tag_69\n      jumpi\n        /* \"#utility.yul\":1560:1561   */\n      0x00\n        /* \"#utility.yul\":1557:1558   */\n      dup1\n        /* \"#utility.yul\":1550:1562   */\n      revert\n        /* \"#utility.yul\":1502:1564   */\n    tag_69:\n        /* \"#utility.yul\":1450:1570   */\n      pop\n      jump\t// out\n        /* \"#utility.yul\":1576:1713   */\n    tag_43:\n        /* \"#utility.yul\":1621:1626   */\n      0x00\n        /* \"#utility.yul\":1659:1665   */\n      dup2\n        /* \"#utility.yul\":1646:1666   */\n      calldataload\n        /* \"#utility.yul\":1637:1666   */\n      swap1\n      pop\n        /* \"#utility.yul\":1675:1707   */\n      tag_71\n        /* \"#utility.yul\":1701:1706   */\n      dup2\n        /* \"#utility.yul\":1675:1707   */\n      tag_42\n      jump\t// in\n    tag_71:\n        /* \"#utility.yul\":1576:1713   */\n      swap3\n      swap2\n      pop\n      pop\n      jump\t// out\n        /* \"#utility.yul\":1719:2046   */\n    tag_19:\n        /* \"#utility.yul\":1777:1783   */\n      0x00\n        /* \"#utility.yul\":1826:1828   */\n      0x20\n        /* \"#utility.yul\":1814:1823   */\n      dup3\n        /* \"#utility.yul\":1805:1812   */\n      dup5\n        /* \"#utility.yul\":1801:1824   */\n      sub\n        /* \"#utility.yul\":1797:1829   */\n      slt\n        /* \"#utility.yul\":1794:1913   */\n      iszero\n      tag_73\n      jumpi\n        /* \"#utility.yul\":1832:1911   */\n      tag_74\n      tag_39\n      jump\t// in\n    tag_74:\n        /* \"#utility.yul\":1794:1913   */\n    tag_73:\n        /* \"#utility.yul\":1952:1953   */\n      0x00\n        /* \"#utility.yul\":1977:2029   */\n      tag_75\n        /* \"#utility.yul\":2021:2028   */\n      dup5\n        /* \"#utility.yul\":2012:2018   */\n      dup3\n        /* \"#utility.yul\":2001:2010   */\n      dup6\n        /* \"#utility.yul\":1997:2019   */\n      add\n        /* \"#utility.yul\":1977:2029   */\n      tag_43\n      jump\t// in\n    tag_75:\n        /* \"#utility.yul\":1967:2029   */\n      swap2\n      pop\n        /* \"#utility.yul\":1923:2039   */\n      pop\n        /* \"#utility.yul\":1719:2046   */\n      swap3\n      swap2\n      pop\n      pop\n      jump\t// out\n        /* \"#utility.yul\":2052:2232   */\n    tag_44:\n        /* \"#utility.yul\":2100:2177   */\n      0x4e487b7100000000000000000000000000000000000000000000000000000000\n        /* \"#utility.yul\":2097:2098   */\n      0x00\n        /* \"#utility.yul\":2090:2178   */\n      mstore\n        /* \"#utility.yul\":2197:2201   */\n      0x11\n        /* \"#utility.yul\":2194:2195   */\n      0x04\n        /* \"#utility.yul\":2187:2202   */\n      mstore\n        /* \"#utility.yul\":2221:2225   */\n      0x24\n        /* \"#utility.yul\":2218:2219   */\n      0x00\n        /* \"#utility.yul\":2211:2226   */\n      revert\n        /* \"#utility.yul\":2238:2432   */\n    tag_23:\n        /* \"#utility.yul\":2278:2282   */\n      0x00\n        /* \"#utility.yul\":2298:2318   */\n      tag_78\n        /* \"#utility.yul\":2316:2317   */\n      dup3\n        /* \"#utility.yul\":2298:2318   */\n      tag_33\n      jump\t// in\n    tag_78:\n        /* \"#utility.yul\":2293:2318   */\n      swap2\n      pop\n        /* \"#utility.yul\":2332:2352   */\n      tag_79\n        /* \"#utility.yul\":2350:2351   */\n      dup4\n        /* \"#utility.yul\":2332:2352   */\n      tag_33\n      jump\t// in\n    tag_79:\n        /* \"#utility.yul\":2327:2352   */\n      swap3\n      pop\n        /* \"#utility.yul\":2376:2377   */\n      dup3\n        /* \"#utility.yul\":2373:2374   */\n      dup3\n        /* \"#utility.yul\":2369:2378   */\n      sub\n        /* \"#utility.yul\":2361:2378   */\n      swap1\n      pop\n        /* \"#utility.yul\":2400:2401   */\n      dup2\n        /* \"#utility.yul\":2394:2398   */\n      dup2\n        /* \"#utility.yul\":2391:2402   */\n      gt\n        /* \"#utility.yul\":2388:2425   */\n      iszero\n      tag_80\n      jumpi\n        /* \"#utility.yul\":2405:2423   */\n      tag_81\n      tag_44\n      jump\t// in\n    tag_81:\n        /* \"#utility.yul\":2388:2425   */\n    tag_80:\n        /* \"#utility.yul\":2238:2432   */\n      swap3\n      swap2\n      pop\n      pop\n      jump\t// out\n        /* \"#utility.yul\":2438:2607   */\n    tag_45:\n        /* \"#utility.yul\":2522:2533   */\n      0x00\n        /* \"#utility.yul\":2556:2562   */\n      dup3\n        /* \"#utility.yul\":2551:2554   */\n      dup3\n        /* \"#utility.yul\":2544:2563   */\n      mstore\n        /* \"#utility.yul\":2596:2600   */\n      0x20\n        /* \"#utility.yul\":2591:2594   */\n      dup3\n        /* \"#utility.yul\":2587:2601   */\n      add\n        /* \"#utility.yul\":2572:2601   */\n      swap1\n      pop\n        /* \"#utility.yul\":2438:2607   */\n      swap3\n      swap2\n      pop\n      pop\n      jump\t// out\n        /* \"#utility.yul\":2613:2775   */\n    tag_46:\n        /* \"#utility.yul\":2753:2767   */\n      0x7572206e6f74206f776e65720000000000000000000000000000000000000000\n        /* \"#utility.yul\":2749:2750   */\n      0x00\n        /* \"#utility.yul\":2741:2747   */\n      dup3\n        /* \"#utility.yul\":2737:2751   */\n      add\n        /* \"#utility.yul\":2730:2768   */\n      mstore\n        /* \"#utility.yul\":2613:2775   */\n      pop\n      jump\t// out\n        /* \"#utility.yul\":2781:3147   */\n    tag_47:\n        /* \"#utility.yul\":2923:2926   */\n      0x00\n        /* \"#utility.yul\":2944:3011   */\n      tag_85\n        /* \"#utility.yul\":3008:3010   */\n      0x0c\n        /* \"#utility.yul\":3003:3006   */\n      dup4\n        /* \"#utility.yul\":2944:3011   */\n      tag_45\n      jump\t// in\n    tag_85:\n        /* \"#utility.yul\":2937:3011   */\n      swap2\n      pop\n        /* \"#utility.yul\":3020:3113   */\n      tag_86\n        /* \"#utility.yul\":3109:3112   */\n      dup3\n        /* \"#utility.yul\":3020:3113   */\n      tag_46\n      jump\t// in\n    tag_86:\n        /* \"#utility.yul\":3138:3140   */\n      0x20\n        /* \"#utility.yul\":3133:3136   */\n      dup3\n        /* \"#utility.yul\":3129:3141   */\n      add\n        /* \"#utility.yul\":3122:3141   */\n      swap1\n      pop\n        /* \"#utility.yul\":2781:3147   */\n      swap2\n      swap1\n      pop\n      jump\t// out\n        /* \"#utility.yul\":3153:3572   */\n    tag_26:\n        /* \"#utility.yul\":3319:3323   */\n      0x00\n        /* \"#utility.yul\":3357:3359   */\n      0x20\n        /* \"#utility.yul\":3346:3355   */\n      dup3\n        /* \"#utility.yul\":3342:3360   */\n      add\n        /* \"#utility.yul\":3334:3360   */\n      swap1\n      pop\n        /* \"#utility.yul\":3406:3415   */\n      dup2\n        /* \"#utility.yul\":3400:3404   */\n      dup2\n        /* \"#utility.yul\":3396:3416   */\n      sub\n        /* \"#utility.yul\":3392:3393   */\n      0x00\n        /* \"#utility.yul\":3381:3390   */\n      dup4\n        /* \"#utility.yul\":3377:3394   */\n      add\n        /* \"#utility.yul\":3370:3417   */\n      mstore\n        /* \"#utility.yul\":3434:3565   */\n      tag_88\n        /* \"#utility.yul\":3560:3564   */\n      dup2\n        /* \"#utility.yul\":3434:3565   */\n      tag_47\n      jump\t// in\n    tag_88:\n        /* \"#utility.yul\":3426:3565   */\n      swap1\n      pop\n        /* \"#utility.yul\":3153:3572   */\n      swap2\n      swap1\n      pop\n      jump\t// out\n        /* \"#utility.yul\":3578:3769   */\n    tag_29:\n        /* \"#utility.yul\":3618:3621   */\n      0x00\n        /* \"#utility.yul\":3637:3657   */\n      tag_90\n        /* \"#utility.yul\":3655:3656   */\n      dup3\n        /* \"#utility.yul\":3637:3657   */\n      tag_33\n      jump\t// in\n    tag_90:\n        /* \"#utility.yul\":3632:3657   */\n      swap2\n      pop\n        /* \"#utility.yul\":3671:3691   */\n      tag_91\n        /* \"#utility.yul\":3689:3690   */\n      dup4\n        /* \"#utility.yul\":3671:3691   */\n      tag_33\n      jump\t// in\n    tag_91:\n        /* \"#utility.yul\":3666:3691   */\n      swap3\n      pop\n        /* \"#utility.yul\":3714:3715   */\n      dup3\n        /* \"#utility.yul\":3711:3712   */\n      dup3\n        /* \"#utility.yul\":3707:3716   */\n      add\n        /* \"#utility.yul\":3700:3716   */\n      swap1\n      pop\n        /* \"#utility.yul\":3735:3738   */\n      dup1\n        /* \"#utility.yul\":3732:3733   */\n      dup3\n        /* \"#utility.yul\":3729:3739   */\n      gt\n        /* \"#utility.yul\":3726:3762   */\n      iszero\n      tag_92\n      jumpi\n        /* \"#utility.yul\":3742:3760   */\n      tag_93\n      tag_44\n      jump\t// in\n    tag_93:\n        /* \"#utility.yul\":3726:3762   */\n    tag_92:\n        /* \"#utility.yul\":3578:3769   */\n      swap3\n      swap2\n      pop\n      pop\n      jump\t// out\n        /* \"#utility.yul\":3775:3946   */\n    tag_48:\n        /* \"#utility.yul\":3915:3938   */\n      0x757220616765206973206c657373207468616e20320000000000000000000000\n        /* \"#utility.yul\":3911:3912   */\n      0x00\n        /* \"#utility.yul\":3903:3909   */\n      dup3\n        /* \"#utility.yul\":3899:3913   */\n      add\n        /* \"#utility.yul\":3892:3939   */\n      mstore\n        /* \"#utility.yul\":3775:3946   */\n      pop\n      jump\t// out\n        /* \"#utility.yul\":3952:4318   */\n    tag_49:\n        /* \"#utility.yul\":4094:4097   */\n      0x00\n        /* \"#utility.yul\":4115:4182   */\n      tag_96\n        /* \"#utility.yul\":4179:4181   */\n      0x15\n        /* \"#utility.yul\":4174:4177   */\n      dup4\n        /* \"#utility.yul\":4115:4182   */\n      tag_45\n      jump\t// in\n    tag_96:\n        /* \"#utility.yul\":4108:4182   */\n      swap2\n      pop\n        /* \"#utility.yul\":4191:4284   */\n      tag_97\n        /* \"#utility.yul\":4280:4283   */\n      dup3\n        /* \"#utility.yul\":4191:4284   */\n      tag_48\n      jump\t// in\n    tag_97:\n        /* \"#utility.yul\":4309:4311   */\n      0x20\n        /* \"#utility.yul\":4304:4307   */\n      dup3\n        /* \"#utility.yul\":4300:4312   */\n      add\n        /* \"#utility.yul\":4293:4312   */\n      swap1\n      pop\n        /* \"#utility.yul\":3952:4318   */\n      swap2\n      swap1\n      pop\n      jump\t// out\n        /* \"#utility.yul\":4324:4743   */\n    tag_32:\n        /* \"#utility.yul\":4490:4494   */\n      0x00\n        /* \"#utility.yul\":4528:4530   */\n      0x20\n        /* \"#utility.yul\":4517:4526   */\n      dup3\n        /* \"#utility.yul\":4513:4531   */\n      add\n        /* \"#utility.yul\":4505:4531   */\n      swap1\n      pop\n        /* \"#utility.yul\":4577:4586   */\n      dup2\n        /* \"#utility.yul\":4571:4575   */\n      dup2\n        /* \"#utility.yul\":4567:4587   */\n      sub\n        /* \"#utility.yul\":4563:4564   */\n      0x00\n        /* \"#utility.yul\":4552:4561   */\n      dup4\n        /* \"#utility.yul\":4548:4565   */\n      add\n        /* \"#utility.yul\":4541:4588   */\n      mstore\n        /* \"#utility.yul\":4605:4736   */\n      tag_99\n        /* \"#utility.yul\":4731:4735   */\n      dup2\n        /* \"#utility.yul\":4605:4736   */\n      tag_49\n      jump\t// in\n    tag_99:\n        /* \"#utility.yul\":4597:4736   */\n      swap1\n      pop\n        /* \"#utility.yul\":4324:4743   */\n      swap2\n      swap1\n      pop\n      jump\t// out\n\n    auxdata: 0xa26469706673582212200b0a4e378aa16f04a1fca88d3bafca7f9415e2777f69186739f978129980936664736f6c63430008120033\n}\n",
				"bytecode": {
					"linkReferences": {},
					"object": "6080604052336000806101000a81548173ffffffffffffffffffffffffffffffffffffffff021916908373ffffffffffffffffffffffffffffffffffffffff160217905550601960015534801561005557600080fd5b50610494806100656000396000f3fe608060405234801561001057600080fd5b506004361061004c5760003560e01c80631036e0a814610051578063262a9dff1461005b5780638da5cb5b14610079578063b76c443314610097575b600080fd5b6100596100b3565b005b610063610158565b60405161007091906101fb565b60405180910390f35b61008161015e565b60405161008e9190610257565b60405180910390f35b6100b160048036038101906100ac91906102b1565b610182565b005b60026001546100c2919061030d565b60018190555060008054906101000a900473ffffffffffffffffffffffffffffffffffffffff1673ffffffffffffffffffffffffffffffffffffffff163373ffffffffffffffffffffffffffffffffffffffff1614610156576040517f08c379a000000000000000000000000000000000000000000000000000000000815260040161014d9061039e565b60405180910390fd5b565b60015481565b60008054906101000a900473ffffffffffffffffffffffffffffffffffffffff1681565b600560015461019191906103be565b60018190555060028161ffff1610156101df576040517fe93b6b240000000000000000000000000000000000000000000000000000000081526004016101d69061043e565b60405180910390fd5b50565b6000819050919050565b6101f5816101e2565b82525050565b600060208201905061021060008301846101ec565b92915050565b600073ffffffffffffffffffffffffffffffffffffffff82169050919050565b600061024182610216565b9050919050565b61025181610236565b82525050565b600060208201905061026c6000830184610248565b92915050565b600080fd5b600061ffff82169050919050565b61028e81610277565b811461029957600080fd5b50565b6000813590506102ab81610285565b92915050565b6000602082840312156102c7576102c6610272565b5b60006102d58482850161029c565b91505092915050565b7f4e487b7100000000000000000000000000000000000000000000000000000000600052601160045260246000fd5b6000610318826101e2565b9150610323836101e2565b925082820390508181111561033b5761033a6102de565b5b92915050565b600082825260208201905092915050565b7f7572206e6f74206f776e65720000000000000000000000000000000000000000600082015250565b6000610388600c83610341565b915061039382610352565b602082019050919050565b600060208201905081810360008301526103b78161037b565b9050919050565b60006103c9826101e2565b91506103d4836101e2565b92508282019050808211156103ec576103eb6102de565b5b92915050565b7f757220616765206973206c657373207468616e20320000000000000000000000600082015250565b6000610428601583610341565b9150610433826103f2565b602082019050919050565b600060208201905081810360008301526104578161041b565b905091905056fea26469706673582212200b0a4e378aa16f04a1fca88d3bafca7f9415e2777f69186739f978129980936664736f6c63430008120033",
					"opcodes": "PUSH1 0x80 PUSH1 0x40 MSTORE CALLER PUSH1 0x0 DUP1 PUSH2 0x100 EXP DUP2 SLOAD DUP2 PUSH20 0xFFFFFFFFFFFFFFFFFFFFFFFFFFFFFFFFFFFFFFFF MUL NOT AND SWAP1 DUP4 PUSH20 0xFFFFFFFFFFFFFFFFFFFFFFFFFFFFFFFFFFFFFFFF AND MUL OR SWAP1 SSTORE POP PUSH1 0x19 PUSH1 0x1 SSTORE CALLVALUE DUP1 ISZERO PUSH2 0x55 JUMPI PUSH1 0x0 DUP1 REVERT JUMPDEST POP PUSH2 0x494 DUP1 PUSH2 0x65 PUSH1 0x0 CODECOPY PUSH1 0x0 RETURN INVALID PUSH1 0x80 PUSH1 0x40 MSTORE CALLVALUE DUP1 ISZERO PUSH2 0x10 JUMPI PUSH1 0x0 DUP1 REVERT JUMPDEST POP PUSH1 0x4 CALLDATASIZE LT PUSH2 0x4C JUMPI PUSH1 0x0 CALLDATALOAD PUSH1 0xE0 SHR DUP1 PUSH4 0x1036E0A8 EQ PUSH2 0x51 JUMPI DUP1 PUSH4 0x262A9DFF EQ PUSH2 0x5B JUMPI DUP1 PUSH4 0x8DA5CB5B EQ PUSH2 0x79 JUMPI DUP1 PUSH4 0xB76C4433 EQ PUSH2 0x97 JUMPI JUMPDEST PUSH1 0x0 DUP1 REVERT JUMPDEST PUSH2 0x59 PUSH2 0xB3 JUMP JUMPDEST STOP JUMPDEST PUSH2 0x63 PUSH2 0x158 JUMP JUMPDEST PUSH1 0x40 MLOAD PUSH2 0x70 SWAP2 SWAP1 PUSH2 0x1FB JUMP JUMPDEST PUSH1 0x40 MLOAD DUP1 SWAP2 SUB SWAP1 RETURN JUMPDEST PUSH2 0x81 PUSH2 0x15E JUMP JUMPDEST PUSH1 0x40 MLOAD PUSH2 0x8E SWAP2 SWAP1 PUSH2 0x257 JUMP JUMPDEST PUSH1 0x40 MLOAD DUP1 SWAP2 SUB SWAP1 RETURN JUMPDEST PUSH2 0xB1 PUSH1 0x4 DUP1 CALLDATASIZE SUB DUP2 ADD SWAP1 PUSH2 0xAC SWAP2 SWAP1 PUSH2 0x2B1 JUMP JUMPDEST PUSH2 0x182 JUMP JUMPDEST STOP JUMPDEST PUSH1 0x2 PUSH1 0x1 SLOAD PUSH2 0xC2 SWAP2 SWAP1 PUSH2 0x30D JUMP JUMPDEST PUSH1 0x1 DUP2 SWAP1 SSTORE POP PUSH1 0x0 DUP1 SLOAD SWAP1 PUSH2 0x100 EXP SWAP1 DIV PUSH20 0xFFFFFFFFFFFFFFFFFFFFFFFFFFFFFFFFFFFFFFFF AND PUSH20 0xFFFFFFFFFFFFFFFFFFFFFFFFFFFFFFFFFFFFFFFF AND CALLER PUSH20 0xFFFFFFFFFFFFFFFFFFFFFFFFFFFFFFFFFFFFFFFF AND EQ PUSH2 0x156 JUMPI PUSH1 0x40 MLOAD PUSH32 0x8C379A000000000000000000000000000000000000000000000000000000000 DUP2 MSTORE PUSH1 0x4 ADD PUSH2 0x14D SWAP1 PUSH2 0x39E JUMP JUMPDEST PUSH1 0x40 MLOAD DUP1 SWAP2 SUB SWAP1 REVERT JUMPDEST JUMP JUMPDEST PUSH1 0x1 SLOAD DUP2 JUMP JUMPDEST PUSH1 0x0 DUP1 SLOAD SWAP1 PUSH2 0x100 EXP SWAP1 DIV PUSH20 0xFFFFFFFFFFFFFFFFFFFFFFFFFFFFFFFFFFFFFFFF AND DUP2 JUMP JUMPDEST PUSH1 0x5 PUSH1 0x1 SLOAD PUSH2 0x191 SWAP2 SWAP1 PUSH2 0x3BE JUMP JUMPDEST PUSH1 0x1 DUP2 SWAP1 SSTORE POP PUSH1 0x2 DUP2 PUSH2 0xFFFF AND LT ISZERO PUSH2 0x1DF JUMPI PUSH1 0x40 MLOAD PUSH32 0xE93B6B2400000000000000000000000000000000000000000000000000000000 DUP2 MSTORE PUSH1 0x4 ADD PUSH2 0x1D6 SWAP1 PUSH2 0x43E JUMP JUMPDEST PUSH1 0x40 MLOAD DUP1 SWAP2 SUB SWAP1 REVERT JUMPDEST POP JUMP JUMPDEST PUSH1 0x0 DUP2 SWAP1 POP SWAP2 SWAP1 POP JUMP JUMPDEST PUSH2 0x1F5 DUP2 PUSH2 0x1E2 JUMP JUMPDEST DUP3 MSTORE POP POP JUMP JUMPDEST PUSH1 0x0 PUSH1 0x20 DUP3 ADD SWAP1 POP PUSH2 0x210 PUSH1 0x0 DUP4 ADD DUP5 PUSH2 0x1EC JUMP JUMPDEST SWAP3 SWAP2 POP POP JUMP JUMPDEST PUSH1 0x0 PUSH20 0xFFFFFFFFFFFFFFFFFFFFFFFFFFFFFFFFFFFFFFFF DUP3 AND SWAP1 POP SWAP2 SWAP1 POP JUMP JUMPDEST PUSH1 0x0 PUSH2 0x241 DUP3 PUSH2 0x216 JUMP JUMPDEST SWAP1 POP SWAP2 SWAP1 POP JUMP JUMPDEST PUSH2 0x251 DUP2 PUSH2 0x236 JUMP JUMPDEST DUP3 MSTORE POP POP JUMP JUMPDEST PUSH1 0x0 PUSH1 0x20 DUP3 ADD SWAP1 POP PUSH2 0x26C PUSH1 0x0 DUP4 ADD DUP5 PUSH2 0x248 JUMP JUMPDEST SWAP3 SWAP2 POP POP JUMP JUMPDEST PUSH1 0x0 DUP1 REVERT JUMPDEST PUSH1 0x0 PUSH2 0xFFFF DUP3 AND SWAP1 POP SWAP2 SWAP1 POP JUMP JUMPDEST PUSH2 0x28E DUP2 PUSH2 0x277 JUMP JUMPDEST DUP2 EQ PUSH2 0x299 JUMPI PUSH1 0x0 DUP1 REVERT JUMPDEST POP JUMP JUMPDEST PUSH1 0x0 DUP2 CALLDATALOAD SWAP1 POP PUSH2 0x2AB DUP2 PUSH2 0x285 JUMP JUMPDEST SWAP3 SWAP2 POP POP JUMP JUMPDEST PUSH1 0x0 PUSH1 0x20 DUP3 DUP5 SUB SLT ISZERO PUSH2 0x2C7 JUMPI PUSH2 0x2C6 PUSH2 0x272 JUMP JUMPDEST JUMPDEST PUSH1 0x0 PUSH2 0x2D5 DUP5 DUP3 DUP6 ADD PUSH2 0x29C JUMP JUMPDEST SWAP2 POP POP SWAP3 SWAP2 POP POP JUMP JUMPDEST PUSH32 0x4E487B7100000000000000000000000000000000000000000000000000000000 PUSH1 0x0 MSTORE PUSH1 0x11 PUSH1 0x4 MSTORE PUSH1 0x24 PUSH1 0x0 REVERT JUMPDEST PUSH1 0x0 PUSH2 0x318 DUP3 PUSH2 0x1E2 JUMP JUMPDEST SWAP2 POP PUSH2 0x323 DUP4 PUSH2 0x1E2 JUMP JUMPDEST SWAP3 POP DUP3 DUP3 SUB SWAP1 POP DUP2 DUP2 GT ISZERO PUSH2 0x33B JUMPI PUSH2 0x33A PUSH2 0x2DE JUMP JUMPDEST JUMPDEST SWAP3 SWAP2 POP POP JUMP JUMPDEST PUSH1 0x0 DUP3 DUP3 MSTORE PUSH1 0x20 DUP3 ADD SWAP1 POP SWAP3 SWAP2 POP POP JUMP JUMPDEST PUSH32 0x7572206E6F74206F776E65720000000000000000000000000000000000000000 PUSH1 0x0 DUP3 ADD MSTORE POP JUMP JUMPDEST PUSH1 0x0 PUSH2 0x388 PUSH1 0xC DUP4 PUSH2 0x341 JUMP JUMPDEST SWAP2 POP PUSH2 0x393 DUP3 PUSH2 0x352 JUMP JUMPDEST PUSH1 0x20 DUP3 ADD SWAP1 POP SWAP2 SWAP1 POP JUMP JUMPDEST PUSH1 0x0 PUSH1 0x20 DUP3 ADD SWAP1 POP DUP2 DUP2 SUB PUSH1 0x0 DUP4 ADD MSTORE PUSH2 0x3B7 DUP2 PUSH2 0x37B JUMP JUMPDEST SWAP1 POP SWAP2 SWAP1 POP JUMP JUMPDEST PUSH1 0x0 PUSH2 0x3C9 DUP3 PUSH2 0x1E2 JUMP JUMPDEST SWAP2 POP PUSH2 0x3D4 DUP4 PUSH2 0x1E2 JUMP JUMPDEST SWAP3 POP DUP3 DUP3 ADD SWAP1 POP DUP1 DUP3 GT ISZERO PUSH2 0x3EC JUMPI PUSH2 0x3EB PUSH2 0x2DE JUMP JUMPDEST JUMPDEST SWAP3 SWAP2 POP POP JUMP JUMPDEST PUSH32 0x757220616765206973206C657373207468616E20320000000000000000000000 PUSH1 0x0 DUP3 ADD MSTORE POP JUMP JUMPDEST PUSH1 0x0 PUSH2 0x428 PUSH1 0x15 DUP4 PUSH2 0x341 JUMP JUMPDEST SWAP2 POP PUSH2 0x433 DUP3 PUSH2 0x3F2 JUMP JUMPDEST PUSH1 0x20 DUP3 ADD SWAP1 POP SWAP2 SWAP1 POP JUMP JUMPDEST PUSH1 0x0 PUSH1 0x20 DUP3 ADD SWAP1 POP DUP2 DUP2 SUB PUSH1 0x0 DUP4 ADD MSTORE PUSH2 0x457 DUP2 PUSH2 0x41B JUMP JUMPDEST SWAP1 POP SWAP2 SWAP1 POP JUMP INVALID LOG2 PUSH5 0x6970667358 0x22 SLT KECCAK256 SIGNEXTEND EXP 0x4E CALLDATACOPY DUP11 LOG1 PUSH16 0x4A1FCA88D3BAFCA7F9415E2777F6918 PUSH8 0x39F9781299809366 PUSH5 0x736F6C6343 STOP ADDMOD SLT STOP CALLER "
				},
				"gasEstimates": {
					"creation": {
						"codeDepositCost": "234400",
						"executionCost": "46647",
						"totalCost": "281047"
					},
					"external": {
						"age()": "2429",
						"changeAge(uint16)": "infinite",
						"onlyOwner()": "infinite",
						"owner()": "2533"
					}
				},
				"methodIdentifiers": {
					"age()": "262a9dff",
					"changeAge(uint16)": "b76c4433",
					"onlyOwner()": "1036e0a8",
					"owner()": "8da5cb5b"
				}
			},
			"storageLayout": {
				"storage": [
					{
						"astId": 5,
						"contract": "35_revert.sol:RevertXmpl",
						"label": "owner",
						"offset": 0,
						"slot": "0",
						"type": "t_address"
					},
					{
						"astId": 8,
						"contract": "35_revert.sol:RevertXmpl",
						"label": "age",
						"offset": 0,
						"slot": "1",
						"type": "t_uint256"
					}
				],
				"types": {
					"t_address": {
						"encoding": "inplace",
						"label": "address",
						"numberOfBytes": "20"
					},
					"t_uint256": {
						"encoding": "inplace",
						"label": "uint256",
						"numberOfBytes": "32"
					}
				}
			},
			"userdoc": {
				"kind": "user",
				"methods": {},
				"version": 1
			}
		}
	}
}