{
	"22_Bytes.sol": {
		"ByteEx": {
			"abi": [
				{
					"inputs": [],
					"name": "b1",
					"outputs": [
						{
							"internalType": "bytes4",
							"name": "",
							"type": "bytes4"
						}
					],
					"stateMutability": "view",
					"type": "function"
				},
				{
					"inputs": [
						{
							"internalType": "uint256",
							"name": "idx",
							"type": "uint256"
						}
					],
					"name": "getValue",
					"outputs": [
						{
							"internalType": "bytes1",
							"name": "",
							"type": "bytes1"
						}
					],
					"stateMutability": "view",
					"type": "function"
				}
			],
			"devdoc": {
				"kind": "dev",
				"methods": {},
				"version": 1
			},
			"evm": {
				"assembly": "    /* \"22_Bytes.sol\":60:260  contract ByteEx {... */\n  mstore(0x40, 0x80)\n    /* \"22_Bytes.sol\":83:107  bytes4 public b1 ='2211' */\n  0x3232313100000000000000000000000000000000000000000000000000000000\n  0x00\n  dup1\n  0x0100\n  exp\n  dup2\n  sload\n  dup2\n  0xffffffff\n  mul\n  not\n  and\n  swap1\n  dup4\n  0xe0\n  shr\n  mul\n  or\n  swap1\n  sstore\n  pop\n    /* \"22_Bytes.sol\":60:260  contract ByteEx {... */\n  callvalue\n  dup1\n  iszero\n  tag_1\n  jumpi\n  0x00\n  dup1\n  revert\ntag_1:\n  pop\n  dataSize(sub_0)\n  dup1\n  dataOffset(sub_0)\n  0x00\n  codecopy\n  0x00\n  return\nstop\n\nsub_0: assembly {\n        /* \"22_Bytes.sol\":60:260  contract ByteEx {... */\n      mstore(0x40, 0x80)\n      callvalue\n      dup1\n      iszero\n      tag_1\n      jumpi\n      0x00\n      dup1\n      revert\n    tag_1:\n      pop\n      jumpi(tag_2, lt(calldatasize, 0x04))\n      shr(0xe0, calldataload(0x00))\n      dup1\n      0x0ff4c916\n      eq\n      tag_3\n      jumpi\n      dup1\n      0xee495002\n      eq\n      tag_4\n      jumpi\n    tag_2:\n      0x00\n      dup1\n      revert\n        /* \"22_Bytes.sol\":157:257  function getValue(uint idx) public  view returns (bytes1){... */\n    tag_3:\n      tag_5\n      0x04\n      dup1\n      calldatasize\n      sub\n      dup2\n      add\n      swap1\n      tag_6\n      swap2\n      swap1\n      tag_7\n      jump\t// in\n    tag_6:\n      tag_8\n      jump\t// in\n    tag_5:\n      mload(0x40)\n      tag_9\n      swap2\n      swap1\n      tag_10\n      jump\t// in\n    tag_9:\n      mload(0x40)\n      dup1\n      swap2\n      sub\n      swap1\n      return\n        /* \"22_Bytes.sol\":83:107  bytes4 public b1 ='2211' */\n    tag_4:\n      tag_11\n      tag_12\n      jump\t// in\n    tag_11:\n      mload(0x40)\n      tag_13\n      swap2\n      swap1\n      tag_14\n      jump\t// in\n    tag_13:\n      mload(0x40)\n      dup1\n      swap2\n      sub\n      swap1\n      return\n        /* \"22_Bytes.sol\":157:257  function getValue(uint idx) public  view returns (bytes1){... */\n    tag_8:\n        /* \"22_Bytes.sol\":207:213  bytes1 */\n      0x00\n        /* \"22_Bytes.sol\":240:242  b1 */\n      dup1\n      0x00\n      swap1\n      sload\n      swap1\n      0x0100\n      exp\n      swap1\n      div\n      0xe0\n      shl\n        /* \"22_Bytes.sol\":243:246  idx */\n      dup3\n        /* \"22_Bytes.sol\":240:247  b1[idx] */\n      0x04\n      dup2\n      lt\n      tag_16\n      jumpi\n      tag_17\n      tag_18\n      jump\t// in\n    tag_17:\n    tag_16:\n      byte\n      0xf8\n      shl\n        /* \"22_Bytes.sol\":225:249  return bytes1( b1[idx] ) */\n      swap1\n      pop\n        /* \"22_Bytes.sol\":157:257  function getValue(uint idx) public  view returns (bytes1){... */\n      swap2\n      swap1\n      pop\n      jump\t// out\n        /* \"22_Bytes.sol\":83:107  bytes4 public b1 ='2211' */\n    tag_12:\n      0x00\n      dup1\n      sload\n      swap1\n      0x0100\n      exp\n      swap1\n      div\n      0xe0\n      shl\n      dup2\n      jump\t// out\n        /* \"#utility.yul\":88:205   */\n    tag_20:\n        /* \"#utility.yul\":197:198   */\n      0x00\n        /* \"#utility.yul\":194:195   */\n      dup1\n        /* \"#utility.yul\":187:199   */\n      revert\n        /* \"#utility.yul\":334:411   */\n    tag_22:\n        /* \"#utility.yul\":371:378   */\n      0x00\n        /* \"#utility.yul\":400:405   */\n      dup2\n        /* \"#utility.yul\":389:405   */\n      swap1\n      pop\n        /* \"#utility.yul\":334:411   */\n      swap2\n      swap1\n      pop\n      jump\t// out\n        /* \"#utility.yul\":417:539   */\n    tag_23:\n        /* \"#utility.yul\":490:514   */\n      tag_35\n        /* \"#utility.yul\":508:513   */\n      dup2\n        /* \"#utility.yul\":490:514   */\n      tag_22\n      jump\t// in\n    tag_35:\n        /* \"#utility.yul\":483:488   */\n      dup2\n        /* \"#utility.yul\":480:515   */\n      eq\n        /* \"#utility.yul\":470:533   */\n      tag_36\n      jumpi\n        /* \"#utility.yul\":529:530   */\n      0x00\n        /* \"#utility.yul\":526:527   */\n      dup1\n        /* \"#utility.yul\":519:531   */\n      revert\n        /* \"#utility.yul\":470:533   */\n    tag_36:\n        /* \"#utility.yul\":417:539   */\n      pop\n      jump\t// out\n        /* \"#utility.yul\":545:684   */\n    tag_24:\n        /* \"#utility.yul\":591:596   */\n      0x00\n        /* \"#utility.yul\":629:635   */\n      dup2\n        /* \"#utility.yul\":616:636   */\n      calldataload\n        /* \"#utility.yul\":607:636   */\n      swap1\n      pop\n        /* \"#utility.yul\":645:678   */\n      tag_38\n        /* \"#utility.yul\":672:677   */\n      dup2\n        /* \"#utility.yul\":645:678   */\n      tag_23\n      jump\t// in\n    tag_38:\n        /* \"#utility.yul\":545:684   */\n      swap3\n      swap2\n      pop\n      pop\n      jump\t// out\n        /* \"#utility.yul\":690:1019   */\n    tag_7:\n        /* \"#utility.yul\":749:755   */\n      0x00\n        /* \"#utility.yul\":798:800   */\n      0x20\n        /* \"#utility.yul\":786:795   */\n      dup3\n        /* \"#utility.yul\":777:784   */\n      dup5\n        /* \"#utility.yul\":773:796   */\n      sub\n        /* \"#utility.yul\":769:801   */\n      slt\n        /* \"#utility.yul\":766:885   */\n      iszero\n      tag_40\n      jumpi\n        /* \"#utility.yul\":804:883   */\n      tag_41\n      tag_20\n      jump\t// in\n    tag_41:\n        /* \"#utility.yul\":766:885   */\n    tag_40:\n        /* \"#utility.yul\":924:925   */\n      0x00\n        /* \"#utility.yul\":949:1002   */\n      tag_42\n        /* \"#utility.yul\":994:1001   */\n      dup5\n        /* \"#utility.yul\":985:991   */\n      dup3\n        /* \"#utility.yul\":974:983   */\n      dup6\n        /* \"#utility.yul\":970:992   */\n      add\n        /* \"#utility.yul\":949:1002   */\n      tag_24\n      jump\t// in\n    tag_42:\n        /* \"#utility.yul\":939:1002   */\n      swap2\n      pop\n        /* \"#utility.yul\":895:1012   */\n      pop\n        /* \"#utility.yul\":690:1019   */\n      swap3\n      swap2\n      pop\n      pop\n      jump\t// out\n        /* \"#utility.yul\":1025:1174   */\n    tag_25:\n        /* \"#utility.yul\":1061:1068   */\n      0x00\n        /* \"#utility.yul\":1101:1167   */\n      0xff00000000000000000000000000000000000000000000000000000000000000\n        /* \"#utility.yul\":1094:1099   */\n      dup3\n        /* \"#utility.yul\":1090:1168   */\n      and\n        /* \"#utility.yul\":1079:1168   */\n      swap1\n      pop\n        /* \"#utility.yul\":1025:1174   */\n      swap2\n      swap1\n      pop\n      jump\t// out\n        /* \"#utility.yul\":1180:1295   */\n    tag_26:\n        /* \"#utility.yul\":1265:1288   */\n      tag_45\n        /* \"#utility.yul\":1282:1287   */\n      dup2\n        /* \"#utility.yul\":1265:1288   */\n      tag_25\n      jump\t// in\n    tag_45:\n        /* \"#utility.yul\":1260:1263   */\n      dup3\n        /* \"#utility.yul\":1253:1289   */\n      mstore\n        /* \"#utility.yul\":1180:1295   */\n      pop\n      pop\n      jump\t// out\n        /* \"#utility.yul\":1301:1519   */\n    tag_10:\n        /* \"#utility.yul\":1392:1396   */\n      0x00\n        /* \"#utility.yul\":1430:1432   */\n      0x20\n        /* \"#utility.yul\":1419:1428   */\n      dup3\n        /* \"#utility.yul\":1415:1433   */\n      add\n        /* \"#utility.yul\":1407:1433   */\n      swap1\n      pop\n        /* \"#utility.yul\":1443:1512   */\n      tag_47\n        /* \"#utility.yul\":1509:1510   */\n      0x00\n        /* \"#utility.yul\":1498:1507   */\n      dup4\n        /* \"#utility.yul\":1494:1511   */\n      add\n        /* \"#utility.yul\":1485:1491   */\n      dup5\n        /* \"#utility.yul\":1443:1512   */\n      tag_26\n      jump\t// in\n    tag_47:\n        /* \"#utility.yul\":1301:1519   */\n      swap3\n      swap2\n      pop\n      pop\n      jump\t// out\n        /* \"#utility.yul\":1525:1674   */\n    tag_27:\n        /* \"#utility.yul\":1561:1568   */\n      0x00\n        /* \"#utility.yul\":1601:1667   */\n      0xffffffff00000000000000000000000000000000000000000000000000000000\n        /* \"#utility.yul\":1594:1599   */\n      dup3\n        /* \"#utility.yul\":1590:1668   */\n      and\n        /* \"#utility.yul\":1579:1668   */\n      swap1\n      pop\n        /* \"#utility.yul\":1525:1674   */\n      swap2\n      swap1\n      pop\n      jump\t// out\n        /* \"#utility.yul\":1680:1795   */\n    tag_28:\n        /* \"#utility.yul\":1765:1788   */\n      tag_50\n        /* \"#utility.yul\":1782:1787   */\n      dup2\n        /* \"#utility.yul\":1765:1788   */\n      tag_27\n      jump\t// in\n    tag_50:\n        /* \"#utility.yul\":1760:1763   */\n      dup3\n        /* \"#utility.yul\":1753:1789   */\n      mstore\n        /* \"#utility.yul\":1680:1795   */\n      pop\n      pop\n      jump\t// out\n        /* \"#utility.yul\":1801:2019   */\n    tag_14:\n        /* \"#utility.yul\":1892:1896   */\n      0x00\n        /* \"#utility.yul\":1930:1932   */\n      0x20\n        /* \"#utility.yul\":1919:1928   */\n      dup3\n        /* \"#utility.yul\":1915:1933   */\n      add\n        /* \"#utility.yul\":1907:1933   */\n      swap1\n      pop\n        /* \"#utility.yul\":1943:2012   */\n      tag_52\n        /* \"#utility.yul\":2009:2010   */\n      0x00\n        /* \"#utility.yul\":1998:2007   */\n      dup4\n        /* \"#utility.yul\":1994:2011   */\n      add\n        /* \"#utility.yul\":1985:1991   */\n      dup5\n        /* \"#utility.yul\":1943:2012   */\n      tag_28\n      jump\t// in\n    tag_52:\n        /* \"#utility.yul\":1801:2019   */\n      swap3\n      swap2\n      pop\n      pop\n      jump\t// out\n        /* \"#utility.yul\":2025:2205   */\n    tag_18:\n        /* \"#utility.yul\":2073:2150   */\n      0x4e487b7100000000000000000000000000000000000000000000000000000000\n        /* \"#utility.yul\":2070:2071   */\n      0x00\n        /* \"#utility.yul\":2063:2151   */\n      mstore\n        /* \"#utility.yul\":2170:2174   */\n      0x32\n        /* \"#utility.yul\":2167:2168   */\n      0x04\n        /* \"#utility.yul\":2160:2175   */\n      mstore\n        /* \"#utility.yul\":2194:2198   */\n      0x24\n        /* \"#utility.yul\":2191:2192   */\n      0x00\n        /* \"#utility.yul\":2184:2199   */\n      revert\n\n    auxdata: 0xa2646970667358221220cab83060e01261976a4ea71b61792737f3c350c4399488ae6104963e9782eb2864736f6c63430008120033\n}\n",
				"bytecode": {
					"linkReferences": {},
					"object": "60806040527f32323131000000000000000000000000000000000000000000000000000000006000806101000a81548163ffffffff021916908360e01c021790555034801561004d57600080fd5b506102418061005d6000396000f3fe608060405234801561001057600080fd5b50600436106100365760003560e01c80630ff4c9161461003b578063ee4950021461006b575b600080fd5b61005560048036038101906100509190610103565b610089565b604051610062919061016b565b60405180910390f35b6100736100b7565b60405161008091906101c1565b60405180910390f35b60008060009054906101000a900460e01b82600481106100ac576100ab6101dc565b5b1a60f81b9050919050565b60008054906101000a900460e01b81565b600080fd5b6000819050919050565b6100e0816100cd565b81146100eb57600080fd5b50565b6000813590506100fd816100d7565b92915050565b600060208284031215610119576101186100c8565b5b6000610127848285016100ee565b91505092915050565b60007fff0000000000000000000000000000000000000000000000000000000000000082169050919050565b61016581610130565b82525050565b6000602082019050610180600083018461015c565b92915050565b60007fffffffff0000000000000000000000000000000000000000000000000000000082169050919050565b6101bb81610186565b82525050565b60006020820190506101d660008301846101b2565b92915050565b7f4e487b7100000000000000000000000000000000000000000000000000000000600052603260045260246000fdfea2646970667358221220cab83060e01261976a4ea71b61792737f3c350c4399488ae6104963e9782eb2864736f6c63430008120033",
					"opcodes": "PUSH1 0x80 PUSH1 0x40 MSTORE PUSH32 0x3232313100000000000000000000000000000000000000000000000000000000 PUSH1 0x0 DUP1 PUSH2 0x100 EXP DUP2 SLOAD DUP2 PUSH4 0xFFFFFFFF MUL NOT AND SWAP1 DUP4 PUSH1 0xE0 SHR MUL OR SWAP1 SSTORE POP CALLVALUE DUP1 ISZERO PUSH2 0x4D JUMPI PUSH1 0x0 DUP1 REVERT JUMPDEST POP PUSH2 0x241 DUP1 PUSH2 0x5D PUSH1 0x0 CODECOPY PUSH1 0x0 RETURN INVALID PUSH1 0x80 PUSH1 0x40 MSTORE CALLVALUE DUP1 ISZERO PUSH2 0x10 JUMPI PUSH1 0x0 DUP1 REVERT JUMPDEST POP PUSH1 0x4 CALLDATASIZE LT PUSH2 0x36 JUMPI PUSH1 0x0 CALLDATALOAD PUSH1 0xE0 SHR DUP1 PUSH4 0xFF4C916 EQ PUSH2 0x3B JUMPI DUP1 PUSH4 0xEE495002 EQ PUSH2 0x6B JUMPI JUMPDEST PUSH1 0x0 DUP1 REVERT JUMPDEST PUSH2 0x55 PUSH1 0x4 DUP1 CALLDATASIZE SUB DUP2 ADD SWAP1 PUSH2 0x50 SWAP2 SWAP1 PUSH2 0x103 JUMP JUMPDEST PUSH2 0x89 JUMP JUMPDEST PUSH1 0x40 MLOAD PUSH2 0x62 SWAP2 SWAP1 PUSH2 0x16B JUMP JUMPDEST PUSH1 0x40 MLOAD DUP1 SWAP2 SUB SWAP1 RETURN JUMPDEST PUSH2 0x73 PUSH2 0xB7 JUMP JUMPDEST PUSH1 0x40 MLOAD PUSH2 0x80 SWAP2 SWAP1 PUSH2 0x1C1 JUMP JUMPDEST PUSH1 0x40 MLOAD DUP1 SWAP2 SUB SWAP1 RETURN JUMPDEST PUSH1 0x0 DUP1 PUSH1 0x0 SWAP1 SLOAD SWAP1 PUSH2 0x100 EXP SWAP1 DIV PUSH1 0xE0 SHL DUP3 PUSH1 0x4 DUP2 LT PUSH2 0xAC JUMPI PUSH2 0xAB PUSH2 0x1DC JUMP JUMPDEST JUMPDEST BYTE PUSH1 0xF8 SHL SWAP1 POP SWAP2 SWAP1 POP JUMP JUMPDEST PUSH1 0x0 DUP1 SLOAD SWAP1 PUSH2 0x100 EXP SWAP1 DIV PUSH1 0xE0 SHL DUP2 JUMP JUMPDEST PUSH1 0x0 DUP1 REVERT JUMPDEST PUSH1 0x0 DUP2 SWAP1 POP SWAP2 SWAP1 POP JUMP JUMPDEST PUSH2 0xE0 DUP2 PUSH2 0xCD JUMP JUMPDEST DUP2 EQ PUSH2 0xEB JUMPI PUSH1 0x0 DUP1 REVERT JUMPDEST POP JUMP JUMPDEST PUSH1 0x0 DUP2 CALLDATALOAD SWAP1 POP PUSH2 0xFD DUP2 PUSH2 0xD7 JUMP JUMPDEST SWAP3 SWAP2 POP POP JUMP JUMPDEST PUSH1 0x0 PUSH1 0x20 DUP3 DUP5 SUB SLT ISZERO PUSH2 0x119 JUMPI PUSH2 0x118 PUSH2 0xC8 JUMP JUMPDEST JUMPDEST PUSH1 0x0 PUSH2 0x127 DUP5 DUP3 DUP6 ADD PUSH2 0xEE JUMP JUMPDEST SWAP2 POP POP SWAP3 SWAP2 POP POP JUMP JUMPDEST PUSH1 0x0 PUSH32 0xFF00000000000000000000000000000000000000000000000000000000000000 DUP3 AND SWAP1 POP SWAP2 SWAP1 POP JUMP JUMPDEST PUSH2 0x165 DUP2 PUSH2 0x130 JUMP JUMPDEST DUP3 MSTORE POP POP JUMP JUMPDEST PUSH1 0x0 PUSH1 0x20 DUP3 ADD SWAP1 POP PUSH2 0x180 PUSH1 0x0 DUP4 ADD DUP5 PUSH2 0x15C JUMP JUMPDEST SWAP3 SWAP2 POP POP JUMP JUMPDEST PUSH1 0x0 PUSH32 0xFFFFFFFF00000000000000000000000000000000000000000000000000000000 DUP3 AND SWAP1 POP SWAP2 SWAP1 POP JUMP JUMPDEST PUSH2 0x1BB DUP2 PUSH2 0x186 JUMP JUMPDEST DUP3 MSTORE POP POP JUMP JUMPDEST PUSH1 0x0 PUSH1 0x20 DUP3 ADD SWAP1 POP PUSH2 0x1D6 PUSH1 0x0 DUP4 ADD DUP5 PUSH2 0x1B2 JUMP JUMPDEST SWAP3 SWAP2 POP POP JUMP JUMPDEST PUSH32 0x4E487B7100000000000000000000000000000000000000000000000000000000 PUSH1 0x0 MSTORE PUSH1 0x32 PUSH1 0x4 MSTORE PUSH1 0x24 PUSH1 0x0 REVERT INVALID LOG2 PUSH5 0x6970667358 0x22 SLT KECCAK256 0xCA 0xB8 ADDRESS PUSH1 0xE0 SLT PUSH2 0x976A 0x4E 0xA7 SHL PUSH2 0x7927 CALLDATACOPY RETURN 0xC3 POP 0xC4 CODECOPY SWAP5 DUP9 0xAE PUSH2 0x496 RETURNDATACOPY SWAP8 DUP3 0xEB 0x28 PUSH5 0x736F6C6343 STOP ADDMOD SLT STOP CALLER "
				},
				"gasEstimates": {
					"creation": {
						"codeDepositCost": "115400",
						"executionCost": "24432",
						"totalCost": "139832"
					},
					"external": {
						"b1()": "2468",
						"getValue(uint256)": "2757"
					}
				},
				"methodIdentifiers": {
					"b1()": "ee495002",
					"getValue(uint256)": "0ff4c916"
				}
			},
			"storageLayout": {
				"storage": [
					{
						"astId": 4,
						"contract": "22_Bytes.sol:ByteEx",
						"label": "b1",
						"offset": 0,
						"slot": "0",
						"type": "t_bytes4"
					}
				],
				"types": {
					"t_bytes4": {
						"encoding": "inplace",
						"label": "bytes4",
						"numberOfBytes": "4"
					}
				}
			},
			"userdoc": {
				"kind": "user",
				"methods": {},
				"version": 1
			}
		}
	}
}