{
	"25_struct1.sol": {
		"structEx": {
			"abi": [
				{
					"inputs": [],
					"name": "deleteValue",
					"outputs": [],
					"stateMutability": "nonpayable",
					"type": "function"
				},
				{
					"inputs": [
						{
							"internalType": "uint256",
							"name": "",
							"type": "uint256"
						}
					],
					"name": "emps",
					"outputs": [
						{
							"internalType": "string",
							"name": "name",
							"type": "string"
						},
						{
							"internalType": "uint256",
							"name": "age",
							"type": "uint256"
						},
						{
							"internalType": "address",
							"name": "add",
							"type": "address"
						}
					],
					"stateMutability": "view",
					"type": "function"
				},
				{
					"inputs": [],
					"name": "setValue",
					"outputs": [],
					"stateMutability": "nonpayable",
					"type": "function"
				},
				{
					"inputs": [],
					"name": "updateValue",
					"outputs": [],
					"stateMutability": "nonpayable",
					"type": "function"
				}
			],
			"devdoc": {
				"kind": "dev",
				"methods": {},
				"version": 1
			},
			"evm": {
				"assembly": "    /* \"25_struct1.sol\":57:776  contract structEx {... */\n  mstore(0x40, 0x80)\n  callvalue\n  dup1\n  iszero\n  tag_1\n  jumpi\n  0x00\n  dup1\n  revert\ntag_1:\n  pop\n  dataSize(sub_0)\n  dup1\n  dataOffset(sub_0)\n  0x00\n  codecopy\n  0x00\n  return\nstop\n\nsub_0: assembly {\n        /* \"25_struct1.sol\":57:776  contract structEx {... */\n      mstore(0x40, 0x80)\n      callvalue\n      dup1\n      iszero\n      tag_1\n      jumpi\n      0x00\n      dup1\n      revert\n    tag_1:\n      pop\n      jumpi(tag_2, lt(calldatasize, 0x04))\n      shr(0xe0, calldataload(0x00))\n      dup1\n      0x4fa519fa\n      eq\n      tag_3\n      jumpi\n      dup1\n      0xc01184b4\n      eq\n      tag_4\n      jumpi\n      dup1\n      0xe53b109e\n      eq\n      tag_5\n      jumpi\n      dup1\n      0xe8bf9be5\n      eq\n      tag_6\n      jumpi\n    tag_2:\n      0x00\n      dup1\n      revert\n        /* \"25_struct1.sol\":192:533  function setValue() public {... */\n    tag_3:\n      tag_7\n      tag_8\n      jump\t// in\n    tag_7:\n      stop\n        /* \"25_struct1.sol\":642:767  function deleteValue() public  {... */\n    tag_4:\n      tag_9\n      tag_10\n      jump\t// in\n    tag_9:\n      stop\n        /* \"25_struct1.sol\":168:185  Emp[] public emps */\n    tag_5:\n      tag_11\n      0x04\n      dup1\n      calldatasize\n      sub\n      dup2\n      add\n      swap1\n      tag_12\n      swap2\n      swap1\n      tag_13\n      jump\t// in\n    tag_12:\n      tag_14\n      jump\t// in\n    tag_11:\n      mload(0x40)\n      tag_15\n      swap4\n      swap3\n      swap2\n      swap1\n      tag_16\n      jump\t// in\n    tag_15:\n      mload(0x40)\n      dup1\n      swap2\n      sub\n      swap1\n      return\n        /* \"25_struct1.sol\":539:636  function updateValue() public  {... */\n    tag_6:\n      tag_17\n      tag_18\n      jump\t// in\n    tag_17:\n      stop\n        /* \"25_struct1.sol\":192:533  function setValue() public {... */\n    tag_8:\n        /* \"25_struct1.sol\":229:242  Emp memory e1 */\n      0x00\n        /* \"25_struct1.sol\":245:273  Emp(\"omkar\", 21, msg.sender) */\n      mload(0x40)\n      dup1\n      0x60\n      add\n      0x40\n      mstore\n      dup1\n      mload(0x40)\n      dup1\n      0x40\n      add\n      0x40\n      mstore\n      dup1\n      0x05\n      dup2\n      mstore\n      0x20\n      add\n      0x6f6d6b6172000000000000000000000000000000000000000000000000000000\n      dup2\n      mstore\n      pop\n      dup2\n      mstore\n      0x20\n      add\n        /* \"25_struct1.sol\":258:260  21 */\n      0x15\n        /* \"25_struct1.sol\":245:273  Emp(\"omkar\", 21, msg.sender) */\n      dup2\n      mstore\n      0x20\n      add\n        /* \"25_struct1.sol\":262:272  msg.sender */\n      caller\n        /* \"25_struct1.sol\":245:273  Emp(\"omkar\", 21, msg.sender) */\n      0xffffffffffffffffffffffffffffffffffffffff\n      and\n      dup2\n      mstore\n      pop\n        /* \"25_struct1.sol\":229:273  Emp memory e1 = Emp(\"omkar\", 21, msg.sender) */\n      swap1\n      pop\n        /* \"25_struct1.sol\":283:296  Emp memory e2 */\n      0x00\n        /* \"25_struct1.sol\":299:346  Emp({name: \"ankita\", age: 22, add: msg.sender}) */\n      mload(0x40)\n      dup1\n      0x60\n      add\n      0x40\n      mstore\n      dup1\n      mload(0x40)\n      dup1\n      0x40\n      add\n      0x40\n      mstore\n      dup1\n      0x06\n      dup2\n      mstore\n      0x20\n      add\n      0x616e6b6974610000000000000000000000000000000000000000000000000000\n      dup2\n      mstore\n      pop\n      dup2\n      mstore\n      0x20\n      add\n        /* \"25_struct1.sol\":325:327  22 */\n      0x16\n        /* \"25_struct1.sol\":299:346  Emp({name: \"ankita\", age: 22, add: msg.sender}) */\n      dup2\n      mstore\n      0x20\n      add\n        /* \"25_struct1.sol\":334:344  msg.sender */\n      caller\n        /* \"25_struct1.sol\":299:346  Emp({name: \"ankita\", age: 22, add: msg.sender}) */\n      0xffffffffffffffffffffffffffffffffffffffff\n      and\n      dup2\n      mstore\n      pop\n        /* \"25_struct1.sol\":283:346  Emp memory e2 = Emp({name: \"ankita\", age: 22, add: msg.sender}) */\n      swap1\n      pop\n        /* \"25_struct1.sol\":365:378  Emp memory e3 */\n      tag_20\n      tag_21\n      jump\t// in\n    tag_20:\n        /* \"25_struct1.sol\":388:406  e3.name = \"adiraj\" */\n      mload(0x40)\n      dup1\n      0x40\n      add\n      0x40\n      mstore\n      dup1\n      0x06\n      dup2\n      mstore\n      0x20\n      add\n      0x61646972616a0000000000000000000000000000000000000000000000000000\n      dup2\n      mstore\n      pop\n        /* \"25_struct1.sol\":388:390  e3 */\n      dup2\n        /* \"25_struct1.sol\":388:395  e3.name */\n      0x00\n      add\n        /* \"25_struct1.sol\":388:406  e3.name = \"adiraj\" */\n      dup2\n      swap1\n      mstore\n      pop\n        /* \"25_struct1.sol\":425:427  22 */\n      0x16\n        /* \"25_struct1.sol\":416:418  e3 */\n      dup2\n        /* \"25_struct1.sol\":416:422  e3.age */\n      0x20\n      add\n        /* \"25_struct1.sol\":416:427  e3.age = 22 */\n      dup2\n      dup2\n      mstore\n      pop\n      pop\n        /* \"25_struct1.sol\":446:456  msg.sender */\n      caller\n        /* \"25_struct1.sol\":437:439  e3 */\n      dup2\n        /* \"25_struct1.sol\":437:443  e3.add */\n      0x40\n      add\n        /* \"25_struct1.sol\":437:456  e3.add = msg.sender */\n      swap1\n      0xffffffffffffffffffffffffffffffffffffffff\n      and\n      swap1\n      dup2\n      0xffffffffffffffffffffffffffffffffffffffff\n      and\n      dup2\n      mstore\n      pop\n      pop\n        /* \"25_struct1.sol\":467:471  emps */\n      0x00\n        /* \"25_struct1.sol\":477:479  e1 */\n      dup4\n        /* \"25_struct1.sol\":467:480  emps.push(e1) */\n      swap1\n      dup1\n      0x01\n      dup2\n      sload\n      add\n      dup1\n      dup3\n      sstore\n      dup1\n      swap2\n      pop\n      pop\n      0x01\n      swap1\n      sub\n      swap1\n      0x00\n      mstore\n      keccak256(0x00, 0x20)\n      swap1\n      0x03\n      mul\n      add\n      0x00\n      swap1\n      swap2\n      swap1\n      swap2\n      swap1\n      swap2\n      pop\n      0x00\n      dup3\n      add\n      mload\n      dup2\n      0x00\n      add\n      swap1\n      dup2\n      tag_23\n      swap2\n      swap1\n      tag_24\n      jump\t// in\n    tag_23:\n      pop\n      0x20\n      dup3\n      add\n      mload\n      dup2\n      0x01\n      add\n      sstore\n      0x40\n      dup3\n      add\n      mload\n      dup2\n      0x02\n      add\n      exp(0x0100, 0x00)\n      dup2\n      sload\n      dup2\n      0xffffffffffffffffffffffffffffffffffffffff\n      mul\n      not\n      and\n      swap1\n      dup4\n      0xffffffffffffffffffffffffffffffffffffffff\n      and\n      mul\n      or\n      swap1\n      sstore\n      pop\n      pop\n      pop\n        /* \"25_struct1.sol\":490:494  emps */\n      0x00\n        /* \"25_struct1.sol\":500:502  e2 */\n      dup3\n        /* \"25_struct1.sol\":490:503  emps.push(e2) */\n      swap1\n      dup1\n      0x01\n      dup2\n      sload\n      add\n      dup1\n      dup3\n      sstore\n      dup1\n      swap2\n      pop\n      pop\n      0x01\n      swap1\n      sub\n      swap1\n      0x00\n      mstore\n      keccak256(0x00, 0x20)\n      swap1\n      0x03\n      mul\n      add\n      0x00\n      swap1\n      swap2\n      swap1\n      swap2\n      swap1\n      swap2\n      pop\n      0x00\n      dup3\n      add\n      mload\n      dup2\n      0x00\n      add\n      swap1\n      dup2\n      tag_26\n      swap2\n      swap1\n      tag_24\n      jump\t// in\n    tag_26:\n      pop\n      0x20\n      dup3\n      add\n      mload\n      dup2\n      0x01\n      add\n      sstore\n      0x40\n      dup3\n      add\n      mload\n      dup2\n      0x02\n      add\n      exp(0x0100, 0x00)\n      dup2\n      sload\n      dup2\n      0xffffffffffffffffffffffffffffffffffffffff\n      mul\n      not\n      and\n      swap1\n      dup4\n      0xffffffffffffffffffffffffffffffffffffffff\n      and\n      mul\n      or\n      swap1\n      sstore\n      pop\n      pop\n      pop\n        /* \"25_struct1.sol\":513:517  emps */\n      0x00\n        /* \"25_struct1.sol\":523:525  e3 */\n      dup2\n        /* \"25_struct1.sol\":513:526  emps.push(e3) */\n      swap1\n      dup1\n      0x01\n      dup2\n      sload\n      add\n      dup1\n      dup3\n      sstore\n      dup1\n      swap2\n      pop\n      pop\n      0x01\n      swap1\n      sub\n      swap1\n      0x00\n      mstore\n      keccak256(0x00, 0x20)\n      swap1\n      0x03\n      mul\n      add\n      0x00\n      swap1\n      swap2\n      swap1\n      swap2\n      swap1\n      swap2\n      pop\n      0x00\n      dup3\n      add\n      mload\n      dup2\n      0x00\n      add\n      swap1\n      dup2\n      tag_28\n      swap2\n      swap1\n      tag_24\n      jump\t// in\n    tag_28:\n      pop\n      0x20\n      dup3\n      add\n      mload\n      dup2\n      0x01\n      add\n      sstore\n      0x40\n      dup3\n      add\n      mload\n      dup2\n      0x02\n      add\n      exp(0x0100, 0x00)\n      dup2\n      sload\n      dup2\n      0xffffffffffffffffffffffffffffffffffffffff\n      mul\n      not\n      and\n      swap1\n      dup4\n      0xffffffffffffffffffffffffffffffffffffffff\n      and\n      mul\n      or\n      swap1\n      sstore\n      pop\n      pop\n      pop\n        /* \"25_struct1.sol\":219:533  {... */\n      pop\n      pop\n      pop\n        /* \"25_struct1.sol\":192:533  function setValue() public {... */\n      jump\t// out\n        /* \"25_struct1.sol\":642:767  function deleteValue() public  {... */\n    tag_10:\n        /* \"25_struct1.sol\":683:699  Emp storage temp */\n      0x00\n        /* \"25_struct1.sol\":702:706  emps */\n      dup1\n        /* \"25_struct1.sol\":707:708  1 */\n      0x01\n        /* \"25_struct1.sol\":702:709  emps[1] */\n      dup2\n      sload\n      dup2\n      lt\n      tag_30\n      jumpi\n      tag_31\n      tag_32\n      jump\t// in\n    tag_31:\n    tag_30:\n      swap1\n      0x00\n      mstore\n      keccak256(0x00, 0x20)\n      swap1\n      0x03\n      mul\n      add\n        /* \"25_struct1.sol\":683:709  Emp storage temp = emps[1] */\n      swap1\n      pop\n        /* \"25_struct1.sol\":726:730  temp */\n      dup1\n        /* \"25_struct1.sol\":726:734  temp.age */\n      0x01\n      add\n        /* \"25_struct1.sol\":719:734  delete temp.age */\n      0x00\n      swap1\n      sstore\n        /* \"25_struct1.sol\":752:756  emps */\n      0x00\n        /* \"25_struct1.sol\":757:758  0 */\n      dup1\n        /* \"25_struct1.sol\":752:759  emps[0] */\n      dup2\n      sload\n      dup2\n      lt\n      tag_34\n      jumpi\n      tag_35\n      tag_32\n      jump\t// in\n    tag_35:\n    tag_34:\n      swap1\n      0x00\n      mstore\n      keccak256(0x00, 0x20)\n      swap1\n      0x03\n      mul\n      add\n      0x00\n        /* \"25_struct1.sol\":745:759  delete emps[0] */\n      dup1\n      dup3\n      add\n      0x00\n      tag_37\n      swap2\n      swap1\n      tag_38\n      jump\t// in\n    tag_37:\n      0x01\n      dup3\n      add\n      0x00\n      swap1\n      sstore\n      0x02\n      dup3\n      add\n      exp(0x0100, 0x00)\n      dup2\n      sload\n      swap1\n      0xffffffffffffffffffffffffffffffffffffffff\n      mul\n      not\n      and\n      swap1\n      sstore\n      pop\n      pop\n        /* \"25_struct1.sol\":673:767  {... */\n      pop\n        /* \"25_struct1.sol\":642:767  function deleteValue() public  {... */\n      jump\t// out\n        /* \"25_struct1.sol\":168:185  Emp[] public emps */\n    tag_14:\n      0x00\n      dup2\n      dup2\n      sload\n      dup2\n      lt\n      tag_39\n      jumpi\n      0x00\n      dup1\n      revert\n    tag_39:\n      swap1\n      0x00\n      mstore\n      keccak256(0x00, 0x20)\n      swap1\n      0x03\n      mul\n      add\n      0x00\n      swap2\n      pop\n      swap1\n      pop\n      dup1\n      0x00\n      add\n      dup1\n      sload\n      tag_41\n      swap1\n      tag_42\n      jump\t// in\n    tag_41:\n      dup1\n      0x1f\n      add\n      0x20\n      dup1\n      swap2\n      div\n      mul\n      0x20\n      add\n      mload(0x40)\n      swap1\n      dup2\n      add\n      0x40\n      mstore\n      dup1\n      swap3\n      swap2\n      swap1\n      dup2\n      dup2\n      mstore\n      0x20\n      add\n      dup3\n      dup1\n      sload\n      tag_43\n      swap1\n      tag_42\n      jump\t// in\n    tag_43:\n      dup1\n      iszero\n      tag_44\n      jumpi\n      dup1\n      0x1f\n      lt\n      tag_45\n      jumpi\n      0x0100\n      dup1\n      dup4\n      sload\n      div\n      mul\n      dup4\n      mstore\n      swap2\n      0x20\n      add\n      swap2\n      jump(tag_44)\n    tag_45:\n      dup3\n      add\n      swap2\n      swap1\n      0x00\n      mstore\n      keccak256(0x00, 0x20)\n      swap1\n    tag_46:\n      dup2\n      sload\n      dup2\n      mstore\n      swap1\n      0x01\n      add\n      swap1\n      0x20\n      add\n      dup1\n      dup4\n      gt\n      tag_46\n      jumpi\n      dup3\n      swap1\n      sub\n      0x1f\n      and\n      dup3\n      add\n      swap2\n    tag_44:\n      pop\n      pop\n      pop\n      pop\n      pop\n      swap1\n      dup1\n      0x01\n      add\n      sload\n      swap1\n      dup1\n      0x02\n      add\n      0x00\n      swap1\n      sload\n      swap1\n      0x0100\n      exp\n      swap1\n      div\n      0xffffffffffffffffffffffffffffffffffffffff\n      and\n      swap1\n      pop\n      dup4\n      jump\t// out\n        /* \"25_struct1.sol\":539:636  function updateValue() public  {... */\n    tag_18:\n        /* \"25_struct1.sol\":580:596  Emp storage temp */\n      0x00\n        /* \"25_struct1.sol\":599:603  emps */\n      dup1\n        /* \"25_struct1.sol\":604:605  2 */\n      0x02\n        /* \"25_struct1.sol\":599:606  emps[2] */\n      dup2\n      sload\n      dup2\n      lt\n      tag_48\n      jumpi\n      tag_49\n      tag_32\n      jump\t// in\n    tag_49:\n    tag_48:\n      swap1\n      0x00\n      mstore\n      keccak256(0x00, 0x20)\n      swap1\n      0x03\n      mul\n      add\n        /* \"25_struct1.sol\":580:606  Emp storage temp = emps[2] */\n      swap1\n      pop\n        /* \"25_struct1.sol\":627:629  99 */\n      0x63\n        /* \"25_struct1.sol\":616:620  temp */\n      dup2\n        /* \"25_struct1.sol\":616:624  temp.age */\n      0x01\n      add\n        /* \"25_struct1.sol\":616:629  temp.age = 99 */\n      dup2\n      swap1\n      sstore\n      pop\n        /* \"25_struct1.sol\":570:636  {... */\n      pop\n        /* \"25_struct1.sol\":539:636  function updateValue() public  {... */\n      jump\t// out\n    tag_21:\n      mload(0x40)\n      dup1\n      0x60\n      add\n      0x40\n      mstore\n      dup1\n      0x60\n      dup2\n      mstore\n      0x20\n      add\n      0x00\n      dup2\n      mstore\n      0x20\n      add\n      and(0xffffffffffffffffffffffffffffffffffffffff, 0x00)\n      dup2\n      mstore\n      pop\n      swap1\n      jump\t// out\n    tag_38:\n      pop\n      dup1\n      sload\n      tag_51\n      swap1\n      tag_42\n      jump\t// in\n    tag_51:\n      0x00\n      dup3\n      sstore\n      dup1\n      0x1f\n      lt\n      tag_53\n      jumpi\n      pop\n      jump(tag_52)\n    tag_53:\n      0x1f\n      add\n      0x20\n      swap1\n      div\n      swap1\n      0x00\n      mstore\n      keccak256(0x00, 0x20)\n      swap1\n      dup2\n      add\n      swap1\n      tag_54\n      swap2\n      swap1\n      tag_55\n      jump\t// in\n    tag_54:\n    tag_52:\n      pop\n      jump\t// out\n    tag_55:\n    tag_56:\n      dup1\n      dup3\n      gt\n      iszero\n      tag_57\n      jumpi\n      0x00\n      dup2\n      0x00\n      swap1\n      sstore\n      pop\n      0x01\n      add\n      jump(tag_56)\n    tag_57:\n      pop\n      swap1\n      jump\t// out\n        /* \"#utility.yul\":88:205   */\n    tag_59:\n        /* \"#utility.yul\":197:198   */\n      0x00\n        /* \"#utility.yul\":194:195   */\n      dup1\n        /* \"#utility.yul\":187:199   */\n      revert\n        /* \"#utility.yul\":334:411   */\n    tag_61:\n        /* \"#utility.yul\":371:378   */\n      0x00\n        /* \"#utility.yul\":400:405   */\n      dup2\n        /* \"#utility.yul\":389:405   */\n      swap1\n      pop\n        /* \"#utility.yul\":334:411   */\n      swap2\n      swap1\n      pop\n      jump\t// out\n        /* \"#utility.yul\":417:539   */\n    tag_62:\n        /* \"#utility.yul\":490:514   */\n      tag_96\n        /* \"#utility.yul\":508:513   */\n      dup2\n        /* \"#utility.yul\":490:514   */\n      tag_61\n      jump\t// in\n    tag_96:\n        /* \"#utility.yul\":483:488   */\n      dup2\n        /* \"#utility.yul\":480:515   */\n      eq\n        /* \"#utility.yul\":470:533   */\n      tag_97\n      jumpi\n        /* \"#utility.yul\":529:530   */\n      0x00\n        /* \"#utility.yul\":526:527   */\n      dup1\n        /* \"#utility.yul\":519:531   */\n      revert\n        /* \"#utility.yul\":470:533   */\n    tag_97:\n        /* \"#utility.yul\":417:539   */\n      pop\n      jump\t// out\n        /* \"#utility.yul\":545:684   */\n    tag_63:\n        /* \"#utility.yul\":591:596   */\n      0x00\n        /* \"#utility.yul\":629:635   */\n      dup2\n        /* \"#utility.yul\":616:636   */\n      calldataload\n        /* \"#utility.yul\":607:636   */\n      swap1\n      pop\n        /* \"#utility.yul\":645:678   */\n      tag_99\n        /* \"#utility.yul\":672:677   */\n      dup2\n        /* \"#utility.yul\":645:678   */\n      tag_62\n      jump\t// in\n    tag_99:\n        /* \"#utility.yul\":545:684   */\n      swap3\n      swap2\n      pop\n      pop\n      jump\t// out\n        /* \"#utility.yul\":690:1019   */\n    tag_13:\n        /* \"#utility.yul\":749:755   */\n      0x00\n        /* \"#utility.yul\":798:800   */\n      0x20\n        /* \"#utility.yul\":786:795   */\n      dup3\n        /* \"#utility.yul\":777:784   */\n      dup5\n        /* \"#utility.yul\":773:796   */\n      sub\n        /* \"#utility.yul\":769:801   */\n      slt\n        /* \"#utility.yul\":766:885   */\n      iszero\n      tag_101\n      jumpi\n        /* \"#utility.yul\":804:883   */\n      tag_102\n      tag_59\n      jump\t// in\n    tag_102:\n        /* \"#utility.yul\":766:885   */\n    tag_101:\n        /* \"#utility.yul\":924:925   */\n      0x00\n        /* \"#utility.yul\":949:1002   */\n      tag_103\n        /* \"#utility.yul\":994:1001   */\n      dup5\n        /* \"#utility.yul\":985:991   */\n      dup3\n        /* \"#utility.yul\":974:983   */\n      dup6\n        /* \"#utility.yul\":970:992   */\n      add\n        /* \"#utility.yul\":949:1002   */\n      tag_63\n      jump\t// in\n    tag_103:\n        /* \"#utility.yul\":939:1002   */\n      swap2\n      pop\n        /* \"#utility.yul\":895:1012   */\n      pop\n        /* \"#utility.yul\":690:1019   */\n      swap3\n      swap2\n      pop\n      pop\n      jump\t// out\n        /* \"#utility.yul\":1025:1124   */\n    tag_64:\n        /* \"#utility.yul\":1077:1083   */\n      0x00\n        /* \"#utility.yul\":1111:1116   */\n      dup2\n        /* \"#utility.yul\":1105:1117   */\n      mload\n        /* \"#utility.yul\":1095:1117   */\n      swap1\n      pop\n        /* \"#utility.yul\":1025:1124   */\n      swap2\n      swap1\n      pop\n      jump\t// out\n        /* \"#utility.yul\":1130:1299   */\n    tag_65:\n        /* \"#utility.yul\":1214:1225   */\n      0x00\n        /* \"#utility.yul\":1248:1254   */\n      dup3\n        /* \"#utility.yul\":1243:1246   */\n      dup3\n        /* \"#utility.yul\":1236:1255   */\n      mstore\n        /* \"#utility.yul\":1288:1292   */\n      0x20\n        /* \"#utility.yul\":1283:1286   */\n      dup3\n        /* \"#utility.yul\":1279:1293   */\n      add\n        /* \"#utility.yul\":1264:1293   */\n      swap1\n      pop\n        /* \"#utility.yul\":1130:1299   */\n      swap3\n      swap2\n      pop\n      pop\n      jump\t// out\n        /* \"#utility.yul\":1305:1551   */\n    tag_66:\n        /* \"#utility.yul\":1386:1387   */\n      0x00\n        /* \"#utility.yul\":1396:1509   */\n    tag_107:\n        /* \"#utility.yul\":1410:1416   */\n      dup4\n        /* \"#utility.yul\":1407:1408   */\n      dup2\n        /* \"#utility.yul\":1404:1417   */\n      lt\n        /* \"#utility.yul\":1396:1509   */\n      iszero\n      tag_109\n      jumpi\n        /* \"#utility.yul\":1495:1496   */\n      dup1\n        /* \"#utility.yul\":1490:1493   */\n      dup3\n        /* \"#utility.yul\":1486:1497   */\n      add\n        /* \"#utility.yul\":1480:1498   */\n      mload\n        /* \"#utility.yul\":1476:1477   */\n      dup2\n        /* \"#utility.yul\":1471:1474   */\n      dup5\n        /* \"#utility.yul\":1467:1478   */\n      add\n        /* \"#utility.yul\":1460:1499   */\n      mstore\n        /* \"#utility.yul\":1432:1434   */\n      0x20\n        /* \"#utility.yul\":1429:1430   */\n      dup2\n        /* \"#utility.yul\":1425:1435   */\n      add\n        /* \"#utility.yul\":1420:1435   */\n      swap1\n      pop\n        /* \"#utility.yul\":1396:1509   */\n      jump(tag_107)\n    tag_109:\n        /* \"#utility.yul\":1543:1544   */\n      0x00\n        /* \"#utility.yul\":1534:1540   */\n      dup5\n        /* \"#utility.yul\":1529:1532   */\n      dup5\n        /* \"#utility.yul\":1525:1541   */\n      add\n        /* \"#utility.yul\":1518:1545   */\n      mstore\n        /* \"#utility.yul\":1367:1551   */\n      pop\n        /* \"#utility.yul\":1305:1551   */\n      pop\n      pop\n      pop\n      jump\t// out\n        /* \"#utility.yul\":1557:1659   */\n    tag_67:\n        /* \"#utility.yul\":1598:1604   */\n      0x00\n        /* \"#utility.yul\":1649:1651   */\n      0x1f\n        /* \"#utility.yul\":1645:1652   */\n      not\n        /* \"#utility.yul\":1640:1642   */\n      0x1f\n        /* \"#utility.yul\":1633:1638   */\n      dup4\n        /* \"#utility.yul\":1629:1643   */\n      add\n        /* \"#utility.yul\":1625:1653   */\n      and\n        /* \"#utility.yul\":1615:1653   */\n      swap1\n      pop\n        /* \"#utility.yul\":1557:1659   */\n      swap2\n      swap1\n      pop\n      jump\t// out\n        /* \"#utility.yul\":1665:2042   */\n    tag_68:\n        /* \"#utility.yul\":1753:1756   */\n      0x00\n        /* \"#utility.yul\":1781:1820   */\n      tag_112\n        /* \"#utility.yul\":1814:1819   */\n      dup3\n        /* \"#utility.yul\":1781:1820   */\n      tag_64\n      jump\t// in\n    tag_112:\n        /* \"#utility.yul\":1836:1907   */\n      tag_113\n        /* \"#utility.yul\":1900:1906   */\n      dup2\n        /* \"#utility.yul\":1895:1898   */\n      dup6\n        /* \"#utility.yul\":1836:1907   */\n      tag_65\n      jump\t// in\n    tag_113:\n        /* \"#utility.yul\":1829:1907   */\n      swap4\n      pop\n        /* \"#utility.yul\":1916:1981   */\n      tag_114\n        /* \"#utility.yul\":1974:1980   */\n      dup2\n        /* \"#utility.yul\":1969:1972   */\n      dup6\n        /* \"#utility.yul\":1962:1966   */\n      0x20\n        /* \"#utility.yul\":1955:1960   */\n      dup7\n        /* \"#utility.yul\":1951:1967   */\n      add\n        /* \"#utility.yul\":1916:1981   */\n      tag_66\n      jump\t// in\n    tag_114:\n        /* \"#utility.yul\":2006:2035   */\n      tag_115\n        /* \"#utility.yul\":2028:2034   */\n      dup2\n        /* \"#utility.yul\":2006:2035   */\n      tag_67\n      jump\t// in\n    tag_115:\n        /* \"#utility.yul\":2001:2004   */\n      dup5\n        /* \"#utility.yul\":1997:2036   */\n      add\n        /* \"#utility.yul\":1990:2036   */\n      swap2\n      pop\n        /* \"#utility.yul\":1757:2042   */\n      pop\n        /* \"#utility.yul\":1665:2042   */\n      swap3\n      swap2\n      pop\n      pop\n      jump\t// out\n        /* \"#utility.yul\":2048:2166   */\n    tag_69:\n        /* \"#utility.yul\":2135:2159   */\n      tag_117\n        /* \"#utility.yul\":2153:2158   */\n      dup2\n        /* \"#utility.yul\":2135:2159   */\n      tag_61\n      jump\t// in\n    tag_117:\n        /* \"#utility.yul\":2130:2133   */\n      dup3\n        /* \"#utility.yul\":2123:2160   */\n      mstore\n        /* \"#utility.yul\":2048:2166   */\n      pop\n      pop\n      jump\t// out\n        /* \"#utility.yul\":2172:2298   */\n    tag_70:\n        /* \"#utility.yul\":2209:2216   */\n      0x00\n        /* \"#utility.yul\":2249:2291   */\n      0xffffffffffffffffffffffffffffffffffffffff\n        /* \"#utility.yul\":2242:2247   */\n      dup3\n        /* \"#utility.yul\":2238:2292   */\n      and\n        /* \"#utility.yul\":2227:2292   */\n      swap1\n      pop\n        /* \"#utility.yul\":2172:2298   */\n      swap2\n      swap1\n      pop\n      jump\t// out\n        /* \"#utility.yul\":2304:2400   */\n    tag_71:\n        /* \"#utility.yul\":2341:2348   */\n      0x00\n        /* \"#utility.yul\":2370:2394   */\n      tag_120\n        /* \"#utility.yul\":2388:2393   */\n      dup3\n        /* \"#utility.yul\":2370:2394   */\n      tag_70\n      jump\t// in\n    tag_120:\n        /* \"#utility.yul\":2359:2394   */\n      swap1\n      pop\n        /* \"#utility.yul\":2304:2400   */\n      swap2\n      swap1\n      pop\n      jump\t// out\n        /* \"#utility.yul\":2406:2524   */\n    tag_72:\n        /* \"#utility.yul\":2493:2517   */\n      tag_122\n        /* \"#utility.yul\":2511:2516   */\n      dup2\n        /* \"#utility.yul\":2493:2517   */\n      tag_71\n      jump\t// in\n    tag_122:\n        /* \"#utility.yul\":2488:2491   */\n      dup3\n        /* \"#utility.yul\":2481:2518   */\n      mstore\n        /* \"#utility.yul\":2406:2524   */\n      pop\n      pop\n      jump\t// out\n        /* \"#utility.yul\":2530:3063   */\n    tag_16:\n        /* \"#utility.yul\":2699:2703   */\n      0x00\n        /* \"#utility.yul\":2737:2739   */\n      0x60\n        /* \"#utility.yul\":2726:2735   */\n      dup3\n        /* \"#utility.yul\":2722:2740   */\n      add\n        /* \"#utility.yul\":2714:2740   */\n      swap1\n      pop\n        /* \"#utility.yul\":2786:2795   */\n      dup2\n        /* \"#utility.yul\":2780:2784   */\n      dup2\n        /* \"#utility.yul\":2776:2796   */\n      sub\n        /* \"#utility.yul\":2772:2773   */\n      0x00\n        /* \"#utility.yul\":2761:2770   */\n      dup4\n        /* \"#utility.yul\":2757:2774   */\n      add\n        /* \"#utility.yul\":2750:2797   */\n      mstore\n        /* \"#utility.yul\":2814:2892   */\n      tag_124\n        /* \"#utility.yul\":2887:2891   */\n      dup2\n        /* \"#utility.yul\":2878:2884   */\n      dup7\n        /* \"#utility.yul\":2814:2892   */\n      tag_68\n      jump\t// in\n    tag_124:\n        /* \"#utility.yul\":2806:2892   */\n      swap1\n      pop\n        /* \"#utility.yul\":2902:2974   */\n      tag_125\n        /* \"#utility.yul\":2970:2972   */\n      0x20\n        /* \"#utility.yul\":2959:2968   */\n      dup4\n        /* \"#utility.yul\":2955:2973   */\n      add\n        /* \"#utility.yul\":2946:2952   */\n      dup6\n        /* \"#utility.yul\":2902:2974   */\n      tag_69\n      jump\t// in\n    tag_125:\n        /* \"#utility.yul\":2984:3056   */\n      tag_126\n        /* \"#utility.yul\":3052:3054   */\n      0x40\n        /* \"#utility.yul\":3041:3050   */\n      dup4\n        /* \"#utility.yul\":3037:3055   */\n      add\n        /* \"#utility.yul\":3028:3034   */\n      dup5\n        /* \"#utility.yul\":2984:3056   */\n      tag_72\n      jump\t// in\n    tag_126:\n        /* \"#utility.yul\":2530:3063   */\n      swap5\n      swap4\n      pop\n      pop\n      pop\n      pop\n      jump\t// out\n        /* \"#utility.yul\":3069:3249   */\n    tag_73:\n        /* \"#utility.yul\":3117:3194   */\n      0x4e487b7100000000000000000000000000000000000000000000000000000000\n        /* \"#utility.yul\":3114:3115   */\n      0x00\n        /* \"#utility.yul\":3107:3195   */\n      mstore\n        /* \"#utility.yul\":3214:3218   */\n      0x41\n        /* \"#utility.yul\":3211:3212   */\n      0x04\n        /* \"#utility.yul\":3204:3219   */\n      mstore\n        /* \"#utility.yul\":3238:3242   */\n      0x24\n        /* \"#utility.yul\":3235:3236   */\n      0x00\n        /* \"#utility.yul\":3228:3243   */\n      revert\n        /* \"#utility.yul\":3255:3435   */\n    tag_74:\n        /* \"#utility.yul\":3303:3380   */\n      0x4e487b7100000000000000000000000000000000000000000000000000000000\n        /* \"#utility.yul\":3300:3301   */\n      0x00\n        /* \"#utility.yul\":3293:3381   */\n      mstore\n        /* \"#utility.yul\":3400:3404   */\n      0x22\n        /* \"#utility.yul\":3397:3398   */\n      0x04\n        /* \"#utility.yul\":3390:3405   */\n      mstore\n        /* \"#utility.yul\":3424:3428   */\n      0x24\n        /* \"#utility.yul\":3421:3422   */\n      0x00\n        /* \"#utility.yul\":3414:3429   */\n      revert\n        /* \"#utility.yul\":3441:3761   */\n    tag_42:\n        /* \"#utility.yul\":3485:3491   */\n      0x00\n        /* \"#utility.yul\":3522:3523   */\n      0x02\n        /* \"#utility.yul\":3516:3520   */\n      dup3\n        /* \"#utility.yul\":3512:3524   */\n      div\n        /* \"#utility.yul\":3502:3524   */\n      swap1\n      pop\n        /* \"#utility.yul\":3569:3570   */\n      0x01\n        /* \"#utility.yul\":3563:3567   */\n      dup3\n        /* \"#utility.yul\":3559:3571   */\n      and\n        /* \"#utility.yul\":3590:3608   */\n      dup1\n        /* \"#utility.yul\":3580:3661   */\n      tag_130\n      jumpi\n        /* \"#utility.yul\":3646:3650   */\n      0x7f\n        /* \"#utility.yul\":3638:3644   */\n      dup3\n        /* \"#utility.yul\":3634:3651   */\n      and\n        /* \"#utility.yul\":3624:3651   */\n      swap2\n      pop\n        /* \"#utility.yul\":3580:3661   */\n    tag_130:\n        /* \"#utility.yul\":3708:3710   */\n      0x20\n        /* \"#utility.yul\":3700:3706   */\n      dup3\n        /* \"#utility.yul\":3697:3711   */\n      lt\n        /* \"#utility.yul\":3677:3695   */\n      dup2\n        /* \"#utility.yul\":3674:3712   */\n      sub\n        /* \"#utility.yul\":3671:3755   */\n      tag_131\n      jumpi\n        /* \"#utility.yul\":3727:3745   */\n      tag_132\n      tag_74\n      jump\t// in\n    tag_132:\n        /* \"#utility.yul\":3671:3755   */\n    tag_131:\n        /* \"#utility.yul\":3492:3761   */\n      pop\n        /* \"#utility.yul\":3441:3761   */\n      swap2\n      swap1\n      pop\n      jump\t// out\n        /* \"#utility.yul\":3767:3908   */\n    tag_75:\n        /* \"#utility.yul\":3816:3820   */\n      0x00\n        /* \"#utility.yul\":3839:3842   */\n      dup2\n        /* \"#utility.yul\":3831:3842   */\n      swap1\n      pop\n        /* \"#utility.yul\":3862:3865   */\n      dup2\n        /* \"#utility.yul\":3859:3860   */\n      0x00\n        /* \"#utility.yul\":3852:3866   */\n      mstore\n        /* \"#utility.yul\":3896:3900   */\n      0x20\n        /* \"#utility.yul\":3893:3894   */\n      0x00\n        /* \"#utility.yul\":3883:3901   */\n      keccak256\n        /* \"#utility.yul\":3875:3901   */\n      swap1\n      pop\n        /* \"#utility.yul\":3767:3908   */\n      swap2\n      swap1\n      pop\n      jump\t// out\n        /* \"#utility.yul\":3914:4007   */\n    tag_76:\n        /* \"#utility.yul\":3951:3957   */\n      0x00\n        /* \"#utility.yul\":3998:4000   */\n      0x20\n        /* \"#utility.yul\":3993:3995   */\n      0x1f\n        /* \"#utility.yul\":3986:3991   */\n      dup4\n        /* \"#utility.yul\":3982:3996   */\n      add\n        /* \"#utility.yul\":3978:4001   */\n      div\n        /* \"#utility.yul\":3968:4001   */\n      swap1\n      pop\n        /* \"#utility.yul\":3914:4007   */\n      swap2\n      swap1\n      pop\n      jump\t// out\n        /* \"#utility.yul\":4013:4120   */\n    tag_77:\n        /* \"#utility.yul\":4057:4065   */\n      0x00\n        /* \"#utility.yul\":4107:4112   */\n      dup3\n        /* \"#utility.yul\":4101:4105   */\n      dup3\n        /* \"#utility.yul\":4097:4113   */\n      shl\n        /* \"#utility.yul\":4076:4113   */\n      swap1\n      pop\n        /* \"#utility.yul\":4013:4120   */\n      swap3\n      swap2\n      pop\n      pop\n      jump\t// out\n        /* \"#utility.yul\":4126:4519   */\n    tag_78:\n        /* \"#utility.yul\":4195:4201   */\n      0x00\n        /* \"#utility.yul\":4245:4246   */\n      0x08\n        /* \"#utility.yul\":4233:4243   */\n      dup4\n        /* \"#utility.yul\":4229:4247   */\n      mul\n        /* \"#utility.yul\":4268:4365   */\n      tag_137\n        /* \"#utility.yul\":4298:4364   */\n      0xffffffffffffffffffffffffffffffffffffffffffffffffffffffffffffffff\n        /* \"#utility.yul\":4287:4296   */\n      dup3\n        /* \"#utility.yul\":4268:4365   */\n      tag_77\n      jump\t// in\n    tag_137:\n        /* \"#utility.yul\":4386:4425   */\n      tag_138\n        /* \"#utility.yul\":4416:4424   */\n      dup7\n        /* \"#utility.yul\":4405:4414   */\n      dup4\n        /* \"#utility.yul\":4386:4425   */\n      tag_77\n      jump\t// in\n    tag_138:\n        /* \"#utility.yul\":4374:4425   */\n      swap6\n      pop\n        /* \"#utility.yul\":4458:4462   */\n      dup1\n        /* \"#utility.yul\":4454:4463   */\n      not\n        /* \"#utility.yul\":4447:4452   */\n      dup5\n        /* \"#utility.yul\":4443:4464   */\n      and\n        /* \"#utility.yul\":4434:4464   */\n      swap4\n      pop\n        /* \"#utility.yul\":4507:4511   */\n      dup1\n        /* \"#utility.yul\":4497:4505   */\n      dup7\n        /* \"#utility.yul\":4493:4512   */\n      and\n        /* \"#utility.yul\":4486:4491   */\n      dup5\n        /* \"#utility.yul\":4483:4513   */\n      or\n        /* \"#utility.yul\":4473:4513   */\n      swap3\n      pop\n        /* \"#utility.yul\":4202:4519   */\n      pop\n      pop\n        /* \"#utility.yul\":4126:4519   */\n      swap4\n      swap3\n      pop\n      pop\n      pop\n      jump\t// out\n        /* \"#utility.yul\":4525:4585   */\n    tag_79:\n        /* \"#utility.yul\":4553:4556   */\n      0x00\n        /* \"#utility.yul\":4574:4579   */\n      dup2\n        /* \"#utility.yul\":4567:4579   */\n      swap1\n      pop\n        /* \"#utility.yul\":4525:4585   */\n      swap2\n      swap1\n      pop\n      jump\t// out\n        /* \"#utility.yul\":4591:4733   */\n    tag_80:\n        /* \"#utility.yul\":4641:4650   */\n      0x00\n        /* \"#utility.yul\":4674:4727   */\n      tag_141\n        /* \"#utility.yul\":4692:4726   */\n      tag_142\n        /* \"#utility.yul\":4701:4725   */\n      tag_143\n        /* \"#utility.yul\":4719:4724   */\n      dup5\n        /* \"#utility.yul\":4701:4725   */\n      tag_61\n      jump\t// in\n    tag_143:\n        /* \"#utility.yul\":4692:4726   */\n      tag_79\n      jump\t// in\n    tag_142:\n        /* \"#utility.yul\":4674:4727   */\n      tag_61\n      jump\t// in\n    tag_141:\n        /* \"#utility.yul\":4661:4727   */\n      swap1\n      pop\n        /* \"#utility.yul\":4591:4733   */\n      swap2\n      swap1\n      pop\n      jump\t// out\n        /* \"#utility.yul\":4739:4814   */\n    tag_81:\n        /* \"#utility.yul\":4782:4785   */\n      0x00\n        /* \"#utility.yul\":4803:4808   */\n      dup2\n        /* \"#utility.yul\":4796:4808   */\n      swap1\n      pop\n        /* \"#utility.yul\":4739:4814   */\n      swap2\n      swap1\n      pop\n      jump\t// out\n        /* \"#utility.yul\":4820:5089   */\n    tag_82:\n        /* \"#utility.yul\":4930:4969   */\n      tag_146\n        /* \"#utility.yul\":4961:4968   */\n      dup4\n        /* \"#utility.yul\":4930:4969   */\n      tag_80\n      jump\t// in\n    tag_146:\n        /* \"#utility.yul\":4991:5082   */\n      tag_147\n        /* \"#utility.yul\":5040:5081   */\n      tag_148\n        /* \"#utility.yul\":5064:5080   */\n      dup3\n        /* \"#utility.yul\":5040:5081   */\n      tag_81\n      jump\t// in\n    tag_148:\n        /* \"#utility.yul\":5032:5038   */\n      dup5\n        /* \"#utility.yul\":5025:5029   */\n      dup5\n        /* \"#utility.yul\":5019:5030   */\n      sload\n        /* \"#utility.yul\":4991:5082   */\n      tag_78\n      jump\t// in\n    tag_147:\n        /* \"#utility.yul\":4985:4989   */\n      dup3\n        /* \"#utility.yul\":4978:5083   */\n      sstore\n        /* \"#utility.yul\":4896:5089   */\n      pop\n        /* \"#utility.yul\":4820:5089   */\n      pop\n      pop\n      pop\n      jump\t// out\n        /* \"#utility.yul\":5095:5168   */\n    tag_83:\n        /* \"#utility.yul\":5140:5143   */\n      0x00\n        /* \"#utility.yul\":5095:5168   */\n      swap1\n      jump\t// out\n        /* \"#utility.yul\":5174:5363   */\n    tag_84:\n        /* \"#utility.yul\":5251:5283   */\n      tag_151\n      tag_83\n      jump\t// in\n    tag_151:\n        /* \"#utility.yul\":5292:5357   */\n      tag_152\n        /* \"#utility.yul\":5350:5356   */\n      dup2\n        /* \"#utility.yul\":5342:5348   */\n      dup5\n        /* \"#utility.yul\":5336:5340   */\n      dup5\n        /* \"#utility.yul\":5292:5357   */\n      tag_82\n      jump\t// in\n    tag_152:\n        /* \"#utility.yul\":5227:5363   */\n      pop\n        /* \"#utility.yul\":5174:5363   */\n      pop\n      pop\n      jump\t// out\n        /* \"#utility.yul\":5369:5555   */\n    tag_85:\n        /* \"#utility.yul\":5429:5549   */\n    tag_154:\n        /* \"#utility.yul\":5446:5449   */\n      dup2\n        /* \"#utility.yul\":5439:5444   */\n      dup2\n        /* \"#utility.yul\":5436:5450   */\n      lt\n        /* \"#utility.yul\":5429:5549   */\n      iszero\n      tag_156\n      jumpi\n        /* \"#utility.yul\":5500:5539   */\n      tag_157\n        /* \"#utility.yul\":5537:5538   */\n      0x00\n        /* \"#utility.yul\":5530:5535   */\n      dup3\n        /* \"#utility.yul\":5500:5539   */\n      tag_84\n      jump\t// in\n    tag_157:\n        /* \"#utility.yul\":5473:5474   */\n      0x01\n        /* \"#utility.yul\":5466:5471   */\n      dup2\n        /* \"#utility.yul\":5462:5475   */\n      add\n        /* \"#utility.yul\":5453:5475   */\n      swap1\n      pop\n        /* \"#utility.yul\":5429:5549   */\n      jump(tag_154)\n    tag_156:\n        /* \"#utility.yul\":5369:5555   */\n      pop\n      pop\n      jump\t// out\n        /* \"#utility.yul\":5561:6104   */\n    tag_86:\n        /* \"#utility.yul\":5662:5664   */\n      0x1f\n        /* \"#utility.yul\":5657:5660   */\n      dup3\n        /* \"#utility.yul\":5654:5665   */\n      gt\n        /* \"#utility.yul\":5651:6097   */\n      iszero\n      tag_159\n      jumpi\n        /* \"#utility.yul\":5696:5734   */\n      tag_160\n        /* \"#utility.yul\":5728:5733   */\n      dup2\n        /* \"#utility.yul\":5696:5734   */\n      tag_75\n      jump\t// in\n    tag_160:\n        /* \"#utility.yul\":5780:5809   */\n      tag_161\n        /* \"#utility.yul\":5798:5808   */\n      dup5\n        /* \"#utility.yul\":5780:5809   */\n      tag_76\n      jump\t// in\n    tag_161:\n        /* \"#utility.yul\":5770:5778   */\n      dup2\n        /* \"#utility.yul\":5766:5810   */\n      add\n        /* \"#utility.yul\":5963:5965   */\n      0x20\n        /* \"#utility.yul\":5951:5961   */\n      dup6\n        /* \"#utility.yul\":5948:5966   */\n      lt\n        /* \"#utility.yul\":5945:5994   */\n      iszero\n      tag_162\n      jumpi\n        /* \"#utility.yul\":5984:5992   */\n      dup2\n        /* \"#utility.yul\":5969:5992   */\n      swap1\n      pop\n        /* \"#utility.yul\":5945:5994   */\n    tag_162:\n        /* \"#utility.yul\":6007:6087   */\n      tag_163\n        /* \"#utility.yul\":6063:6085   */\n      tag_164\n        /* \"#utility.yul\":6081:6084   */\n      dup6\n        /* \"#utility.yul\":6063:6085   */\n      tag_76\n      jump\t// in\n    tag_164:\n        /* \"#utility.yul\":6053:6061   */\n      dup4\n        /* \"#utility.yul\":6049:6086   */\n      add\n        /* \"#utility.yul\":6036:6047   */\n      dup3\n        /* \"#utility.yul\":6007:6087   */\n      tag_85\n      jump\t// in\n    tag_163:\n        /* \"#utility.yul\":5666:6097   */\n      pop\n      pop\n        /* \"#utility.yul\":5651:6097   */\n    tag_159:\n        /* \"#utility.yul\":5561:6104   */\n      pop\n      pop\n      pop\n      jump\t// out\n        /* \"#utility.yul\":6110:6227   */\n    tag_87:\n        /* \"#utility.yul\":6164:6172   */\n      0x00\n        /* \"#utility.yul\":6214:6219   */\n      dup3\n        /* \"#utility.yul\":6208:6212   */\n      dup3\n        /* \"#utility.yul\":6204:6220   */\n      shr\n        /* \"#utility.yul\":6183:6220   */\n      swap1\n      pop\n        /* \"#utility.yul\":6110:6227   */\n      swap3\n      swap2\n      pop\n      pop\n      jump\t// out\n        /* \"#utility.yul\":6233:6402   */\n    tag_88:\n        /* \"#utility.yul\":6277:6283   */\n      0x00\n        /* \"#utility.yul\":6310:6361   */\n      tag_167\n        /* \"#utility.yul\":6358:6359   */\n      0x00\n        /* \"#utility.yul\":6354:6360   */\n      not\n        /* \"#utility.yul\":6346:6351   */\n      dup5\n        /* \"#utility.yul\":6343:6344   */\n      0x08\n        /* \"#utility.yul\":6339:6352   */\n      mul\n        /* \"#utility.yul\":6310:6361   */\n      tag_87\n      jump\t// in\n    tag_167:\n        /* \"#utility.yul\":6306:6362   */\n      not\n        /* \"#utility.yul\":6391:6395   */\n      dup1\n        /* \"#utility.yul\":6385:6389   */\n      dup4\n        /* \"#utility.yul\":6381:6396   */\n      and\n        /* \"#utility.yul\":6371:6396   */\n      swap2\n      pop\n        /* \"#utility.yul\":6284:6402   */\n      pop\n        /* \"#utility.yul\":6233:6402   */\n      swap3\n      swap2\n      pop\n      pop\n      jump\t// out\n        /* \"#utility.yul\":6407:6702   */\n    tag_89:\n        /* \"#utility.yul\":6483:6487   */\n      0x00\n        /* \"#utility.yul\":6629:6658   */\n      tag_169\n        /* \"#utility.yul\":6654:6657   */\n      dup4\n        /* \"#utility.yul\":6648:6652   */\n      dup4\n        /* \"#utility.yul\":6629:6658   */\n      tag_88\n      jump\t// in\n    tag_169:\n        /* \"#utility.yul\":6621:6658   */\n      swap2\n      pop\n        /* \"#utility.yul\":6691:6694   */\n      dup3\n        /* \"#utility.yul\":6688:6689   */\n      0x02\n        /* \"#utility.yul\":6684:6695   */\n      mul\n        /* \"#utility.yul\":6678:6682   */\n      dup3\n        /* \"#utility.yul\":6675:6696   */\n      or\n        /* \"#utility.yul\":6667:6696   */\n      swap1\n      pop\n        /* \"#utility.yul\":6407:6702   */\n      swap3\n      swap2\n      pop\n      pop\n      jump\t// out\n        /* \"#utility.yul\":6707:8102   */\n    tag_24:\n        /* \"#utility.yul\":6824:6861   */\n      tag_171\n        /* \"#utility.yul\":6857:6860   */\n      dup3\n        /* \"#utility.yul\":6824:6861   */\n      tag_64\n      jump\t// in\n    tag_171:\n        /* \"#utility.yul\":6926:6944   */\n      0xffffffffffffffff\n        /* \"#utility.yul\":6918:6924   */\n      dup2\n        /* \"#utility.yul\":6915:6945   */\n      gt\n        /* \"#utility.yul\":6912:6968   */\n      iszero\n      tag_172\n      jumpi\n        /* \"#utility.yul\":6948:6966   */\n      tag_173\n      tag_73\n      jump\t// in\n    tag_173:\n        /* \"#utility.yul\":6912:6968   */\n    tag_172:\n        /* \"#utility.yul\":6992:7030   */\n      tag_174\n        /* \"#utility.yul\":7024:7028   */\n      dup3\n        /* \"#utility.yul\":7018:7029   */\n      sload\n        /* \"#utility.yul\":6992:7030   */\n      tag_42\n      jump\t// in\n    tag_174:\n        /* \"#utility.yul\":7077:7144   */\n      tag_175\n        /* \"#utility.yul\":7137:7143   */\n      dup3\n        /* \"#utility.yul\":7129:7135   */\n      dup3\n        /* \"#utility.yul\":7123:7127   */\n      dup6\n        /* \"#utility.yul\":7077:7144   */\n      tag_86\n      jump\t// in\n    tag_175:\n        /* \"#utility.yul\":7171:7172   */\n      0x00\n        /* \"#utility.yul\":7195:7199   */\n      0x20\n        /* \"#utility.yul\":7182:7199   */\n      swap1\n      pop\n        /* \"#utility.yul\":7227:7229   */\n      0x1f\n        /* \"#utility.yul\":7219:7225   */\n      dup4\n        /* \"#utility.yul\":7216:7230   */\n      gt\n        /* \"#utility.yul\":7244:7245   */\n      0x01\n        /* \"#utility.yul\":7239:7857   */\n      dup2\n      eq\n      tag_177\n      jumpi\n        /* \"#utility.yul\":7901:7902   */\n      0x00\n        /* \"#utility.yul\":7918:7924   */\n      dup5\n        /* \"#utility.yul\":7915:7992   */\n      iszero\n      tag_178\n      jumpi\n        /* \"#utility.yul\":7967:7976   */\n      dup3\n        /* \"#utility.yul\":7962:7965   */\n      dup8\n        /* \"#utility.yul\":7958:7977   */\n      add\n        /* \"#utility.yul\":7952:7978   */\n      mload\n        /* \"#utility.yul\":7943:7978   */\n      swap1\n      pop\n        /* \"#utility.yul\":7915:7992   */\n    tag_178:\n        /* \"#utility.yul\":8018:8085   */\n      tag_179\n        /* \"#utility.yul\":8078:8084   */\n      dup6\n        /* \"#utility.yul\":8071:8076   */\n      dup3\n        /* \"#utility.yul\":8018:8085   */\n      tag_89\n      jump\t// in\n    tag_179:\n        /* \"#utility.yul\":8012:8016   */\n      dup7\n        /* \"#utility.yul\":8005:8086   */\n      sstore\n        /* \"#utility.yul\":7874:8096   */\n      pop\n        /* \"#utility.yul\":7209:8096   */\n      jump(tag_176)\n        /* \"#utility.yul\":7239:7857   */\n    tag_177:\n        /* \"#utility.yul\":7291:7295   */\n      0x1f\n        /* \"#utility.yul\":7287:7296   */\n      not\n        /* \"#utility.yul\":7279:7285   */\n      dup5\n        /* \"#utility.yul\":7275:7297   */\n      and\n        /* \"#utility.yul\":7325:7362   */\n      tag_180\n        /* \"#utility.yul\":7357:7361   */\n      dup7\n        /* \"#utility.yul\":7325:7362   */\n      tag_75\n      jump\t// in\n    tag_180:\n        /* \"#utility.yul\":7384:7385   */\n      0x00\n        /* \"#utility.yul\":7398:7606   */\n    tag_181:\n        /* \"#utility.yul\":7412:7419   */\n      dup3\n        /* \"#utility.yul\":7409:7410   */\n      dup2\n        /* \"#utility.yul\":7406:7420   */\n      lt\n        /* \"#utility.yul\":7398:7606   */\n      iszero\n      tag_183\n      jumpi\n        /* \"#utility.yul\":7491:7500   */\n      dup5\n        /* \"#utility.yul\":7486:7489   */\n      dup10\n        /* \"#utility.yul\":7482:7501   */\n      add\n        /* \"#utility.yul\":7476:7502   */\n      mload\n        /* \"#utility.yul\":7468:7474   */\n      dup3\n        /* \"#utility.yul\":7461:7503   */\n      sstore\n        /* \"#utility.yul\":7542:7543   */\n      0x01\n        /* \"#utility.yul\":7534:7540   */\n      dup3\n        /* \"#utility.yul\":7530:7544   */\n      add\n        /* \"#utility.yul\":7520:7544   */\n      swap2\n      pop\n        /* \"#utility.yul\":7589:7591   */\n      0x20\n        /* \"#utility.yul\":7578:7587   */\n      dup6\n        /* \"#utility.yul\":7574:7592   */\n      add\n        /* \"#utility.yul\":7561:7592   */\n      swap5\n      pop\n        /* \"#utility.yul\":7435:7439   */\n      0x20\n        /* \"#utility.yul\":7432:7433   */\n      dup2\n        /* \"#utility.yul\":7428:7440   */\n      add\n        /* \"#utility.yul\":7423:7440   */\n      swap1\n      pop\n        /* \"#utility.yul\":7398:7606   */\n      jump(tag_181)\n    tag_183:\n        /* \"#utility.yul\":7634:7640   */\n      dup7\n        /* \"#utility.yul\":7625:7632   */\n      dup4\n        /* \"#utility.yul\":7622:7641   */\n      lt\n        /* \"#utility.yul\":7619:7798   */\n      iszero\n      tag_184\n      jumpi\n        /* \"#utility.yul\":7692:7701   */\n      dup5\n        /* \"#utility.yul\":7687:7690   */\n      dup10\n        /* \"#utility.yul\":7683:7702   */\n      add\n        /* \"#utility.yul\":7677:7703   */\n      mload\n        /* \"#utility.yul\":7735:7783   */\n      tag_185\n        /* \"#utility.yul\":7777:7781   */\n      0x1f\n        /* \"#utility.yul\":7769:7775   */\n      dup10\n        /* \"#utility.yul\":7765:7782   */\n      and\n        /* \"#utility.yul\":7754:7763   */\n      dup3\n        /* \"#utility.yul\":7735:7783   */\n      tag_88\n      jump\t// in\n    tag_185:\n        /* \"#utility.yul\":7727:7733   */\n      dup4\n        /* \"#utility.yul\":7720:7784   */\n      sstore\n        /* \"#utility.yul\":7642:7798   */\n      pop\n        /* \"#utility.yul\":7619:7798   */\n    tag_184:\n        /* \"#utility.yul\":7844:7845   */\n      0x01\n        /* \"#utility.yul\":7840:7841   */\n      0x02\n        /* \"#utility.yul\":7832:7838   */\n      dup9\n        /* \"#utility.yul\":7828:7842   */\n      mul\n        /* \"#utility.yul\":7824:7846   */\n      add\n        /* \"#utility.yul\":7818:7822   */\n      dup9\n        /* \"#utility.yul\":7811:7847   */\n      sstore\n        /* \"#utility.yul\":7246:7857   */\n      pop\n      pop\n      pop\n        /* \"#utility.yul\":7209:8096   */\n    tag_176:\n      pop\n        /* \"#utility.yul\":6799:8102   */\n      pop\n      pop\n      pop\n        /* \"#utility.yul\":6707:8102   */\n      pop\n      pop\n      jump\t// out\n        /* \"#utility.yul\":8108:8288   */\n    tag_32:\n        /* \"#utility.yul\":8156:8233   */\n      0x4e487b7100000000000000000000000000000000000000000000000000000000\n        /* \"#utility.yul\":8153:8154   */\n      0x00\n        /* \"#utility.yul\":8146:8234   */\n      mstore\n        /* \"#utility.yul\":8253:8257   */\n      0x32\n        /* \"#utility.yul\":8250:8251   */\n      0x04\n        /* \"#utility.yul\":8243:8258   */\n      mstore\n        /* \"#utility.yul\":8277:8281   */\n      0x24\n        /* \"#utility.yul\":8274:8275   */\n      0x00\n        /* \"#utility.yul\":8267:8282   */\n      revert\n\n    auxdata: 0xa26469706673582212202398fea9bbe264094c3a7f4bdcb8734cdd33aa1b560c58cbc1cdd2af3ede6dff64736f6c63430008120033\n}\n",
				"bytecode": {
					"linkReferences": {},
					"object": "608060405234801561001057600080fd5b50610afa806100206000396000f3fe608060405234801561001057600080fd5b506004361061004c5760003560e01c80634fa519fa14610051578063c01184b41461005b578063e53b109e14610065578063e8bf9be514610097575b600080fd5b6100596100a1565b005b6100636103c4565b005b61007f600480360381019061007a919061063d565b610459565b60405161008e9392919061074a565b60405180910390f35b61009f61053b565b005b600060405180606001604052806040518060400160405280600581526020017f6f6d6b61720000000000000000000000000000000000000000000000000000008152508152602001601581526020013373ffffffffffffffffffffffffffffffffffffffff168152509050600060405180606001604052806040518060400160405280600681526020017f616e6b69746100000000000000000000000000000000000000000000000000008152508152602001601681526020013373ffffffffffffffffffffffffffffffffffffffff16815250905061017f61056e565b6040518060400160405280600681526020017f61646972616a00000000000000000000000000000000000000000000000000008152508160000181905250601681602001818152505033816040019073ffffffffffffffffffffffffffffffffffffffff16908173ffffffffffffffffffffffffffffffffffffffff16815250506000839080600181540180825580915050600190039060005260206000209060030201600090919091909150600082015181600001908161024191906109c3565b506020820151816001015560408201518160020160006101000a81548173ffffffffffffffffffffffffffffffffffffffff021916908373ffffffffffffffffffffffffffffffffffffffff1602179055505050600082908060018154018082558091505060019003906000526020600020906003020160009091909190915060008201518160000190816102d691906109c3565b506020820151816001015560408201518160020160006101000a81548173ffffffffffffffffffffffffffffffffffffffff021916908373ffffffffffffffffffffffffffffffffffffffff16021790555050506000819080600181540180825580915050600190039060005260206000209060030201600090919091909150600082015181600001908161036b91906109c3565b506020820151816001015560408201518160020160006101000a81548173ffffffffffffffffffffffffffffffffffffffff021916908373ffffffffffffffffffffffffffffffffffffffff1602179055505050505050565b6000806001815481106103da576103d9610a95565b5b9060005260206000209060030201905080600101600090556000808154811061040657610405610a95565b5b90600052602060002090600302016000808201600061042591906105a5565b60018201600090556002820160006101000a81549073ffffffffffffffffffffffffffffffffffffffff0219169055505050565b6000818154811061046957600080fd5b906000526020600020906003020160009150905080600001805461048c906107e6565b80601f01602080910402602001604051908101604052809291908181526020018280546104b8906107e6565b80156105055780601f106104da57610100808354040283529160200191610505565b820191906000526020600020905b8154815290600101906020018083116104e857829003601f168201915b5050505050908060010154908060020160009054906101000a900473ffffffffffffffffffffffffffffffffffffffff16905083565b60008060028154811061055157610550610a95565b5b906000526020600020906003020190506063816001018190555050565b60405180606001604052806060815260200160008152602001600073ffffffffffffffffffffffffffffffffffffffff1681525090565b5080546105b1906107e6565b6000825580601f106105c357506105e2565b601f0160209004906000526020600020908101906105e191906105e5565b5b50565b5b808211156105fe5760008160009055506001016105e6565b5090565b600080fd5b6000819050919050565b61061a81610607565b811461062557600080fd5b50565b60008135905061063781610611565b92915050565b60006020828403121561065357610652610602565b5b600061066184828501610628565b91505092915050565b600081519050919050565b600082825260208201905092915050565b60005b838110156106a4578082015181840152602081019050610689565b60008484015250505050565b6000601f19601f8301169050919050565b60006106cc8261066a565b6106d68185610675565b93506106e6818560208601610686565b6106ef816106b0565b840191505092915050565b61070381610607565b82525050565b600073ffffffffffffffffffffffffffffffffffffffff82169050919050565b600061073482610709565b9050919050565b61074481610729565b82525050565b6000606082019050818103600083015261076481866106c1565b905061077360208301856106fa565b610780604083018461073b565b949350505050565b7f4e487b7100000000000000000000000000000000000000000000000000000000600052604160045260246000fd5b7f4e487b7100000000000000000000000000000000000000000000000000000000600052602260045260246000fd5b600060028204905060018216806107fe57607f821691505b602082108103610811576108106107b7565b5b50919050565b60008190508160005260206000209050919050565b60006020601f8301049050919050565b600082821b905092915050565b6000600883026108797fffffffffffffffffffffffffffffffffffffffffffffffffffffffffffffffff8261083c565b610883868361083c565b95508019841693508086168417925050509392505050565b6000819050919050565b60006108c06108bb6108b684610607565b61089b565b610607565b9050919050565b6000819050919050565b6108da836108a5565b6108ee6108e6826108c7565b848454610849565b825550505050565b600090565b6109036108f6565b61090e8184846108d1565b505050565b5b81811015610932576109276000826108fb565b600181019050610914565b5050565b601f8211156109775761094881610817565b6109518461082c565b81016020851015610960578190505b61097461096c8561082c565b830182610913565b50505b505050565b600082821c905092915050565b600061099a6000198460080261097c565b1980831691505092915050565b60006109b38383610989565b9150826002028217905092915050565b6109cc8261066a565b67ffffffffffffffff8111156109e5576109e4610788565b5b6109ef82546107e6565b6109fa828285610936565b600060209050601f831160018114610a2d5760008415610a1b578287015190505b610a2585826109a7565b865550610a8d565b601f198416610a3b86610817565b60005b82811015610a6357848901518255600182019150602085019450602081019050610a3e565b86831015610a805784890151610a7c601f891682610989565b8355505b6001600288020188555050505b505050505050565b7f4e487b7100000000000000000000000000000000000000000000000000000000600052603260045260246000fdfea26469706673582212202398fea9bbe264094c3a7f4bdcb8734cdd33aa1b560c58cbc1cdd2af3ede6dff64736f6c63430008120033",
					"opcodes": "PUSH1 0x80 PUSH1 0x40 MSTORE CALLVALUE DUP1 ISZERO PUSH2 0x10 JUMPI PUSH1 0x0 DUP1 REVERT JUMPDEST POP PUSH2 0xAFA DUP1 PUSH2 0x20 PUSH1 0x0 CODECOPY PUSH1 0x0 RETURN INVALID PUSH1 0x80 PUSH1 0x40 MSTORE CALLVALUE DUP1 ISZERO PUSH2 0x10 JUMPI PUSH1 0x0 DUP1 REVERT JUMPDEST POP PUSH1 0x4 CALLDATASIZE LT PUSH2 0x4C JUMPI PUSH1 0x0 CALLDATALOAD PUSH1 0xE0 SHR DUP1 PUSH4 0x4FA519FA EQ PUSH2 0x51 JUMPI DUP1 PUSH4 0xC01184B4 EQ PUSH2 0x5B JUMPI DUP1 PUSH4 0xE53B109E EQ PUSH2 0x65 JUMPI DUP1 PUSH4 0xE8BF9BE5 EQ PUSH2 0x97 JUMPI JUMPDEST PUSH1 0x0 DUP1 REVERT JUMPDEST PUSH2 0x59 PUSH2 0xA1 JUMP JUMPDEST STOP JUMPDEST PUSH2 0x63 PUSH2 0x3C4 JUMP JUMPDEST STOP JUMPDEST PUSH2 0x7F PUSH1 0x4 DUP1 CALLDATASIZE SUB DUP2 ADD SWAP1 PUSH2 0x7A SWAP2 SWAP1 PUSH2 0x63D JUMP JUMPDEST PUSH2 0x459 JUMP JUMPDEST PUSH1 0x40 MLOAD PUSH2 0x8E SWAP4 SWAP3 SWAP2 SWAP1 PUSH2 0x74A JUMP JUMPDEST PUSH1 0x40 MLOAD DUP1 SWAP2 SUB SWAP1 RETURN JUMPDEST PUSH2 0x9F PUSH2 0x53B JUMP JUMPDEST STOP JUMPDEST PUSH1 0x0 PUSH1 0x40 MLOAD DUP1 PUSH1 0x60 ADD PUSH1 0x40 MSTORE DUP1 PUSH1 0x40 MLOAD DUP1 PUSH1 0x40 ADD PUSH1 0x40 MSTORE DUP1 PUSH1 0x5 DUP2 MSTORE PUSH1 0x20 ADD PUSH32 0x6F6D6B6172000000000000000000000000000000000000000000000000000000 DUP2 MSTORE POP DUP2 MSTORE PUSH1 0x20 ADD PUSH1 0x15 DUP2 MSTORE PUSH1 0x20 ADD CALLER PUSH20 0xFFFFFFFFFFFFFFFFFFFFFFFFFFFFFFFFFFFFFFFF AND DUP2 MSTORE POP SWAP1 POP PUSH1 0x0 PUSH1 0x40 MLOAD DUP1 PUSH1 0x60 ADD PUSH1 0x40 MSTORE DUP1 PUSH1 0x40 MLOAD DUP1 PUSH1 0x40 ADD PUSH1 0x40 MSTORE DUP1 PUSH1 0x6 DUP2 MSTORE PUSH1 0x20 ADD PUSH32 0x616E6B6974610000000000000000000000000000000000000000000000000000 DUP2 MSTORE POP DUP2 MSTORE PUSH1 0x20 ADD PUSH1 0x16 DUP2 MSTORE PUSH1 0x20 ADD CALLER PUSH20 0xFFFFFFFFFFFFFFFFFFFFFFFFFFFFFFFFFFFFFFFF AND DUP2 MSTORE POP SWAP1 POP PUSH2 0x17F PUSH2 0x56E JUMP JUMPDEST PUSH1 0x40 MLOAD DUP1 PUSH1 0x40 ADD PUSH1 0x40 MSTORE DUP1 PUSH1 0x6 DUP2 MSTORE PUSH1 0x20 ADD PUSH32 0x61646972616A0000000000000000000000000000000000000000000000000000 DUP2 MSTORE POP DUP2 PUSH1 0x0 ADD DUP2 SWAP1 MSTORE POP PUSH1 0x16 DUP2 PUSH1 0x20 ADD DUP2 DUP2 MSTORE POP POP CALLER DUP2 PUSH1 0x40 ADD SWAP1 PUSH20 0xFFFFFFFFFFFFFFFFFFFFFFFFFFFFFFFFFFFFFFFF AND SWAP1 DUP2 PUSH20 0xFFFFFFFFFFFFFFFFFFFFFFFFFFFFFFFFFFFFFFFF AND DUP2 MSTORE POP POP PUSH1 0x0 DUP4 SWAP1 DUP1 PUSH1 0x1 DUP2 SLOAD ADD DUP1 DUP3 SSTORE DUP1 SWAP2 POP POP PUSH1 0x1 SWAP1 SUB SWAP1 PUSH1 0x0 MSTORE PUSH1 0x20 PUSH1 0x0 KECCAK256 SWAP1 PUSH1 0x3 MUL ADD PUSH1 0x0 SWAP1 SWAP2 SWAP1 SWAP2 SWAP1 SWAP2 POP PUSH1 0x0 DUP3 ADD MLOAD DUP2 PUSH1 0x0 ADD SWAP1 DUP2 PUSH2 0x241 SWAP2 SWAP1 PUSH2 0x9C3 JUMP JUMPDEST POP PUSH1 0x20 DUP3 ADD MLOAD DUP2 PUSH1 0x1 ADD SSTORE PUSH1 0x40 DUP3 ADD MLOAD DUP2 PUSH1 0x2 ADD PUSH1 0x0 PUSH2 0x100 EXP DUP2 SLOAD DUP2 PUSH20 0xFFFFFFFFFFFFFFFFFFFFFFFFFFFFFFFFFFFFFFFF MUL NOT AND SWAP1 DUP4 PUSH20 0xFFFFFFFFFFFFFFFFFFFFFFFFFFFFFFFFFFFFFFFF AND MUL OR SWAP1 SSTORE POP POP POP PUSH1 0x0 DUP3 SWAP1 DUP1 PUSH1 0x1 DUP2 SLOAD ADD DUP1 DUP3 SSTORE DUP1 SWAP2 POP POP PUSH1 0x1 SWAP1 SUB SWAP1 PUSH1 0x0 MSTORE PUSH1 0x20 PUSH1 0x0 KECCAK256 SWAP1 PUSH1 0x3 MUL ADD PUSH1 0x0 SWAP1 SWAP2 SWAP1 SWAP2 SWAP1 SWAP2 POP PUSH1 0x0 DUP3 ADD MLOAD DUP2 PUSH1 0x0 ADD SWAP1 DUP2 PUSH2 0x2D6 SWAP2 SWAP1 PUSH2 0x9C3 JUMP JUMPDEST POP PUSH1 0x20 DUP3 ADD MLOAD DUP2 PUSH1 0x1 ADD SSTORE PUSH1 0x40 DUP3 ADD MLOAD DUP2 PUSH1 0x2 ADD PUSH1 0x0 PUSH2 0x100 EXP DUP2 SLOAD DUP2 PUSH20 0xFFFFFFFFFFFFFFFFFFFFFFFFFFFFFFFFFFFFFFFF MUL NOT AND SWAP1 DUP4 PUSH20 0xFFFFFFFFFFFFFFFFFFFFFFFFFFFFFFFFFFFFFFFF AND MUL OR SWAP1 SSTORE POP POP POP PUSH1 0x0 DUP2 SWAP1 DUP1 PUSH1 0x1 DUP2 SLOAD ADD DUP1 DUP3 SSTORE DUP1 SWAP2 POP POP PUSH1 0x1 SWAP1 SUB SWAP1 PUSH1 0x0 MSTORE PUSH1 0x20 PUSH1 0x0 KECCAK256 SWAP1 PUSH1 0x3 MUL ADD PUSH1 0x0 SWAP1 SWAP2 SWAP1 SWAP2 SWAP1 SWAP2 POP PUSH1 0x0 DUP3 ADD MLOAD DUP2 PUSH1 0x0 ADD SWAP1 DUP2 PUSH2 0x36B SWAP2 SWAP1 PUSH2 0x9C3 JUMP JUMPDEST POP PUSH1 0x20 DUP3 ADD MLOAD DUP2 PUSH1 0x1 ADD SSTORE PUSH1 0x40 DUP3 ADD MLOAD DUP2 PUSH1 0x2 ADD PUSH1 0x0 PUSH2 0x100 EXP DUP2 SLOAD DUP2 PUSH20 0xFFFFFFFFFFFFFFFFFFFFFFFFFFFFFFFFFFFFFFFF MUL NOT AND SWAP1 DUP4 PUSH20 0xFFFFFFFFFFFFFFFFFFFFFFFFFFFFFFFFFFFFFFFF AND MUL OR SWAP1 SSTORE POP POP POP POP POP POP JUMP JUMPDEST PUSH1 0x0 DUP1 PUSH1 0x1 DUP2 SLOAD DUP2 LT PUSH2 0x3DA JUMPI PUSH2 0x3D9 PUSH2 0xA95 JUMP JUMPDEST JUMPDEST SWAP1 PUSH1 0x0 MSTORE PUSH1 0x20 PUSH1 0x0 KECCAK256 SWAP1 PUSH1 0x3 MUL ADD SWAP1 POP DUP1 PUSH1 0x1 ADD PUSH1 0x0 SWAP1 SSTORE PUSH1 0x0 DUP1 DUP2 SLOAD DUP2 LT PUSH2 0x406 JUMPI PUSH2 0x405 PUSH2 0xA95 JUMP JUMPDEST JUMPDEST SWAP1 PUSH1 0x0 MSTORE PUSH1 0x20 PUSH1 0x0 KECCAK256 SWAP1 PUSH1 0x3 MUL ADD PUSH1 0x0 DUP1 DUP3 ADD PUSH1 0x0 PUSH2 0x425 SWAP2 SWAP1 PUSH2 0x5A5 JUMP JUMPDEST PUSH1 0x1 DUP3 ADD PUSH1 0x0 SWAP1 SSTORE PUSH1 0x2 DUP3 ADD PUSH1 0x0 PUSH2 0x100 EXP DUP2 SLOAD SWAP1 PUSH20 0xFFFFFFFFFFFFFFFFFFFFFFFFFFFFFFFFFFFFFFFF MUL NOT AND SWAP1 SSTORE POP POP POP JUMP JUMPDEST PUSH1 0x0 DUP2 DUP2 SLOAD DUP2 LT PUSH2 0x469 JUMPI PUSH1 0x0 DUP1 REVERT JUMPDEST SWAP1 PUSH1 0x0 MSTORE PUSH1 0x20 PUSH1 0x0 KECCAK256 SWAP1 PUSH1 0x3 MUL ADD PUSH1 0x0 SWAP2 POP SWAP1 POP DUP1 PUSH1 0x0 ADD DUP1 SLOAD PUSH2 0x48C SWAP1 PUSH2 0x7E6 JUMP JUMPDEST DUP1 PUSH1 0x1F ADD PUSH1 0x20 DUP1 SWAP2 DIV MUL PUSH1 0x20 ADD PUSH1 0x40 MLOAD SWAP1 DUP2 ADD PUSH1 0x40 MSTORE DUP1 SWAP3 SWAP2 SWAP1 DUP2 DUP2 MSTORE PUSH1 0x20 ADD DUP3 DUP1 SLOAD PUSH2 0x4B8 SWAP1 PUSH2 0x7E6 JUMP JUMPDEST DUP1 ISZERO PUSH2 0x505 JUMPI DUP1 PUSH1 0x1F LT PUSH2 0x4DA JUMPI PUSH2 0x100 DUP1 DUP4 SLOAD DIV MUL DUP4 MSTORE SWAP2 PUSH1 0x20 ADD SWAP2 PUSH2 0x505 JUMP JUMPDEST DUP3 ADD SWAP2 SWAP1 PUSH1 0x0 MSTORE PUSH1 0x20 PUSH1 0x0 KECCAK256 SWAP1 JUMPDEST DUP2 SLOAD DUP2 MSTORE SWAP1 PUSH1 0x1 ADD SWAP1 PUSH1 0x20 ADD DUP1 DUP4 GT PUSH2 0x4E8 JUMPI DUP3 SWAP1 SUB PUSH1 0x1F AND DUP3 ADD SWAP2 JUMPDEST POP POP POP POP POP SWAP1 DUP1 PUSH1 0x1 ADD SLOAD SWAP1 DUP1 PUSH1 0x2 ADD PUSH1 0x0 SWAP1 SLOAD SWAP1 PUSH2 0x100 EXP SWAP1 DIV PUSH20 0xFFFFFFFFFFFFFFFFFFFFFFFFFFFFFFFFFFFFFFFF AND SWAP1 POP DUP4 JUMP JUMPDEST PUSH1 0x0 DUP1 PUSH1 0x2 DUP2 SLOAD DUP2 LT PUSH2 0x551 JUMPI PUSH2 0x550 PUSH2 0xA95 JUMP JUMPDEST JUMPDEST SWAP1 PUSH1 0x0 MSTORE PUSH1 0x20 PUSH1 0x0 KECCAK256 SWAP1 PUSH1 0x3 MUL ADD SWAP1 POP PUSH1 0x63 DUP2 PUSH1 0x1 ADD DUP2 SWAP1 SSTORE POP POP JUMP JUMPDEST PUSH1 0x40 MLOAD DUP1 PUSH1 0x60 ADD PUSH1 0x40 MSTORE DUP1 PUSH1 0x60 DUP2 MSTORE PUSH1 0x20 ADD PUSH1 0x0 DUP2 MSTORE PUSH1 0x20 ADD PUSH1 0x0 PUSH20 0xFFFFFFFFFFFFFFFFFFFFFFFFFFFFFFFFFFFFFFFF AND DUP2 MSTORE POP SWAP1 JUMP JUMPDEST POP DUP1 SLOAD PUSH2 0x5B1 SWAP1 PUSH2 0x7E6 JUMP JUMPDEST PUSH1 0x0 DUP3 SSTORE DUP1 PUSH1 0x1F LT PUSH2 0x5C3 JUMPI POP PUSH2 0x5E2 JUMP JUMPDEST PUSH1 0x1F ADD PUSH1 0x20 SWAP1 DIV SWAP1 PUSH1 0x0 MSTORE PUSH1 0x20 PUSH1 0x0 KECCAK256 SWAP1 DUP2 ADD SWAP1 PUSH2 0x5E1 SWAP2 SWAP1 PUSH2 0x5E5 JUMP JUMPDEST JUMPDEST POP JUMP JUMPDEST JUMPDEST DUP1 DUP3 GT ISZERO PUSH2 0x5FE JUMPI PUSH1 0x0 DUP2 PUSH1 0x0 SWAP1 SSTORE POP PUSH1 0x1 ADD PUSH2 0x5E6 JUMP JUMPDEST POP SWAP1 JUMP JUMPDEST PUSH1 0x0 DUP1 REVERT JUMPDEST PUSH1 0x0 DUP2 SWAP1 POP SWAP2 SWAP1 POP JUMP JUMPDEST PUSH2 0x61A DUP2 PUSH2 0x607 JUMP JUMPDEST DUP2 EQ PUSH2 0x625 JUMPI PUSH1 0x0 DUP1 REVERT JUMPDEST POP JUMP JUMPDEST PUSH1 0x0 DUP2 CALLDATALOAD SWAP1 POP PUSH2 0x637 DUP2 PUSH2 0x611 JUMP JUMPDEST SWAP3 SWAP2 POP POP JUMP JUMPDEST PUSH1 0x0 PUSH1 0x20 DUP3 DUP5 SUB SLT ISZERO PUSH2 0x653 JUMPI PUSH2 0x652 PUSH2 0x602 JUMP JUMPDEST JUMPDEST PUSH1 0x0 PUSH2 0x661 DUP5 DUP3 DUP6 ADD PUSH2 0x628 JUMP JUMPDEST SWAP2 POP POP SWAP3 SWAP2 POP POP JUMP JUMPDEST PUSH1 0x0 DUP2 MLOAD SWAP1 POP SWAP2 SWAP1 POP JUMP JUMPDEST PUSH1 0x0 DUP3 DUP3 MSTORE PUSH1 0x20 DUP3 ADD SWAP1 POP SWAP3 SWAP2 POP POP JUMP JUMPDEST PUSH1 0x0 JUMPDEST DUP4 DUP2 LT ISZERO PUSH2 0x6A4 JUMPI DUP1 DUP3 ADD MLOAD DUP2 DUP5 ADD MSTORE PUSH1 0x20 DUP2 ADD SWAP1 POP PUSH2 0x689 JUMP JUMPDEST PUSH1 0x0 DUP5 DUP5 ADD MSTORE POP POP POP POP JUMP JUMPDEST PUSH1 0x0 PUSH1 0x1F NOT PUSH1 0x1F DUP4 ADD AND SWAP1 POP SWAP2 SWAP1 POP JUMP JUMPDEST PUSH1 0x0 PUSH2 0x6CC DUP3 PUSH2 0x66A JUMP JUMPDEST PUSH2 0x6D6 DUP2 DUP6 PUSH2 0x675 JUMP JUMPDEST SWAP4 POP PUSH2 0x6E6 DUP2 DUP6 PUSH1 0x20 DUP7 ADD PUSH2 0x686 JUMP JUMPDEST PUSH2 0x6EF DUP2 PUSH2 0x6B0 JUMP JUMPDEST DUP5 ADD SWAP2 POP POP SWAP3 SWAP2 POP POP JUMP JUMPDEST PUSH2 0x703 DUP2 PUSH2 0x607 JUMP JUMPDEST DUP3 MSTORE POP POP JUMP JUMPDEST PUSH1 0x0 PUSH20 0xFFFFFFFFFFFFFFFFFFFFFFFFFFFFFFFFFFFFFFFF DUP3 AND SWAP1 POP SWAP2 SWAP1 POP JUMP JUMPDEST PUSH1 0x0 PUSH2 0x734 DUP3 PUSH2 0x709 JUMP JUMPDEST SWAP1 POP SWAP2 SWAP1 POP JUMP JUMPDEST PUSH2 0x744 DUP2 PUSH2 0x729 JUMP JUMPDEST DUP3 MSTORE POP POP JUMP JUMPDEST PUSH1 0x0 PUSH1 0x60 DUP3 ADD SWAP1 POP DUP2 DUP2 SUB PUSH1 0x0 DUP4 ADD MSTORE PUSH2 0x764 DUP2 DUP7 PUSH2 0x6C1 JUMP JUMPDEST SWAP1 POP PUSH2 0x773 PUSH1 0x20 DUP4 ADD DUP6 PUSH2 0x6FA JUMP JUMPDEST PUSH2 0x780 PUSH1 0x40 DUP4 ADD DUP5 PUSH2 0x73B JUMP JUMPDEST SWAP5 SWAP4 POP POP POP POP JUMP JUMPDEST PUSH32 0x4E487B7100000000000000000000000000000000000000000000000000000000 PUSH1 0x0 MSTORE PUSH1 0x41 PUSH1 0x4 MSTORE PUSH1 0x24 PUSH1 0x0 REVERT JUMPDEST PUSH32 0x4E487B7100000000000000000000000000000000000000000000000000000000 PUSH1 0x0 MSTORE PUSH1 0x22 PUSH1 0x4 MSTORE PUSH1 0x24 PUSH1 0x0 REVERT JUMPDEST PUSH1 0x0 PUSH1 0x2 DUP3 DIV SWAP1 POP PUSH1 0x1 DUP3 AND DUP1 PUSH2 0x7FE JUMPI PUSH1 0x7F DUP3 AND SWAP2 POP JUMPDEST PUSH1 0x20 DUP3 LT DUP2 SUB PUSH2 0x811 JUMPI PUSH2 0x810 PUSH2 0x7B7 JUMP JUMPDEST JUMPDEST POP SWAP2 SWAP1 POP JUMP JUMPDEST PUSH1 0x0 DUP2 SWAP1 POP DUP2 PUSH1 0x0 MSTORE PUSH1 0x20 PUSH1 0x0 KECCAK256 SWAP1 POP SWAP2 SWAP1 POP JUMP JUMPDEST PUSH1 0x0 PUSH1 0x20 PUSH1 0x1F DUP4 ADD DIV SWAP1 POP SWAP2 SWAP1 POP JUMP JUMPDEST PUSH1 0x0 DUP3 DUP3 SHL SWAP1 POP SWAP3 SWAP2 POP POP JUMP JUMPDEST PUSH1 0x0 PUSH1 0x8 DUP4 MUL PUSH2 0x879 PUSH32 0xFFFFFFFFFFFFFFFFFFFFFFFFFFFFFFFFFFFFFFFFFFFFFFFFFFFFFFFFFFFFFFFF DUP3 PUSH2 0x83C JUMP JUMPDEST PUSH2 0x883 DUP7 DUP4 PUSH2 0x83C JUMP JUMPDEST SWAP6 POP DUP1 NOT DUP5 AND SWAP4 POP DUP1 DUP7 AND DUP5 OR SWAP3 POP POP POP SWAP4 SWAP3 POP POP POP JUMP JUMPDEST PUSH1 0x0 DUP2 SWAP1 POP SWAP2 SWAP1 POP JUMP JUMPDEST PUSH1 0x0 PUSH2 0x8C0 PUSH2 0x8BB PUSH2 0x8B6 DUP5 PUSH2 0x607 JUMP JUMPDEST PUSH2 0x89B JUMP JUMPDEST PUSH2 0x607 JUMP JUMPDEST SWAP1 POP SWAP2 SWAP1 POP JUMP JUMPDEST PUSH1 0x0 DUP2 SWAP1 POP SWAP2 SWAP1 POP JUMP JUMPDEST PUSH2 0x8DA DUP4 PUSH2 0x8A5 JUMP JUMPDEST PUSH2 0x8EE PUSH2 0x8E6 DUP3 PUSH2 0x8C7 JUMP JUMPDEST DUP5 DUP5 SLOAD PUSH2 0x849 JUMP JUMPDEST DUP3 SSTORE POP POP POP POP JUMP JUMPDEST PUSH1 0x0 SWAP1 JUMP JUMPDEST PUSH2 0x903 PUSH2 0x8F6 JUMP JUMPDEST PUSH2 0x90E DUP2 DUP5 DUP5 PUSH2 0x8D1 JUMP JUMPDEST POP POP POP JUMP JUMPDEST JUMPDEST DUP2 DUP2 LT ISZERO PUSH2 0x932 JUMPI PUSH2 0x927 PUSH1 0x0 DUP3 PUSH2 0x8FB JUMP JUMPDEST PUSH1 0x1 DUP2 ADD SWAP1 POP PUSH2 0x914 JUMP JUMPDEST POP POP JUMP JUMPDEST PUSH1 0x1F DUP3 GT ISZERO PUSH2 0x977 JUMPI PUSH2 0x948 DUP2 PUSH2 0x817 JUMP JUMPDEST PUSH2 0x951 DUP5 PUSH2 0x82C JUMP JUMPDEST DUP2 ADD PUSH1 0x20 DUP6 LT ISZERO PUSH2 0x960 JUMPI DUP2 SWAP1 POP JUMPDEST PUSH2 0x974 PUSH2 0x96C DUP6 PUSH2 0x82C JUMP JUMPDEST DUP4 ADD DUP3 PUSH2 0x913 JUMP JUMPDEST POP POP JUMPDEST POP POP POP JUMP JUMPDEST PUSH1 0x0 DUP3 DUP3 SHR SWAP1 POP SWAP3 SWAP2 POP POP JUMP JUMPDEST PUSH1 0x0 PUSH2 0x99A PUSH1 0x0 NOT DUP5 PUSH1 0x8 MUL PUSH2 0x97C JUMP JUMPDEST NOT DUP1 DUP4 AND SWAP2 POP POP SWAP3 SWAP2 POP POP JUMP JUMPDEST PUSH1 0x0 PUSH2 0x9B3 DUP4 DUP4 PUSH2 0x989 JUMP JUMPDEST SWAP2 POP DUP3 PUSH1 0x2 MUL DUP3 OR SWAP1 POP SWAP3 SWAP2 POP POP JUMP JUMPDEST PUSH2 0x9CC DUP3 PUSH2 0x66A JUMP JUMPDEST PUSH8 0xFFFFFFFFFFFFFFFF DUP2 GT ISZERO PUSH2 0x9E5 JUMPI PUSH2 0x9E4 PUSH2 0x788 JUMP JUMPDEST JUMPDEST PUSH2 0x9EF DUP3 SLOAD PUSH2 0x7E6 JUMP JUMPDEST PUSH2 0x9FA DUP3 DUP3 DUP6 PUSH2 0x936 JUMP JUMPDEST PUSH1 0x0 PUSH1 0x20 SWAP1 POP PUSH1 0x1F DUP4 GT PUSH1 0x1 DUP2 EQ PUSH2 0xA2D JUMPI PUSH1 0x0 DUP5 ISZERO PUSH2 0xA1B JUMPI DUP3 DUP8 ADD MLOAD SWAP1 POP JUMPDEST PUSH2 0xA25 DUP6 DUP3 PUSH2 0x9A7 JUMP JUMPDEST DUP7 SSTORE POP PUSH2 0xA8D JUMP JUMPDEST PUSH1 0x1F NOT DUP5 AND PUSH2 0xA3B DUP7 PUSH2 0x817 JUMP JUMPDEST PUSH1 0x0 JUMPDEST DUP3 DUP2 LT ISZERO PUSH2 0xA63 JUMPI DUP5 DUP10 ADD MLOAD DUP3 SSTORE PUSH1 0x1 DUP3 ADD SWAP2 POP PUSH1 0x20 DUP6 ADD SWAP5 POP PUSH1 0x20 DUP2 ADD SWAP1 POP PUSH2 0xA3E JUMP JUMPDEST DUP7 DUP4 LT ISZERO PUSH2 0xA80 JUMPI DUP5 DUP10 ADD MLOAD PUSH2 0xA7C PUSH1 0x1F DUP10 AND DUP3 PUSH2 0x989 JUMP JUMPDEST DUP4 SSTORE POP JUMPDEST PUSH1 0x1 PUSH1 0x2 DUP9 MUL ADD DUP9 SSTORE POP POP POP JUMPDEST POP POP POP POP POP POP JUMP JUMPDEST PUSH32 0x4E487B7100000000000000000000000000000000000000000000000000000000 PUSH1 0x0 MSTORE PUSH1 0x32 PUSH1 0x4 MSTORE PUSH1 0x24 PUSH1 0x0 REVERT INVALID LOG2 PUSH5 0x6970667358 0x22 SLT KECCAK256 0x23 SWAP9 INVALID 0xA9 0xBB 0xE2 PUSH5 0x94C3A7F4B 0xDC 0xB8 PUSH20 0x4CDD33AA1B560C58CBC1CDD2AF3EDE6DFF64736F PUSH13 0x63430008120033000000000000 "
				},
				"gasEstimates": {
					"creation": {
						"codeDepositCost": "562000",
						"executionCost": "594",
						"totalCost": "562594"
					},
					"external": {
						"deleteValue()": "infinite",
						"emps(uint256)": "infinite",
						"setValue()": "infinite",
						"updateValue()": "24512"
					}
				},
				"methodIdentifiers": {
					"deleteValue()": "c01184b4",
					"emps(uint256)": "e53b109e",
					"setValue()": "4fa519fa",
					"updateValue()": "e8bf9be5"
				}
			},
			"storageLayout": {
				"storage": [
					{
						"astId": 12,
						"contract": "25_struct1.sol:structEx",
						"label": "emps",
						"offset": 0,
						"slot": "0",
						"type": "t_array(t_struct(Emp)8_storage)dyn_storage"
					}
				],
				"types": {
					"t_address": {
						"encoding": "inplace",
						"label": "address",
						"numberOfBytes": "20"
					},
					"t_array(t_struct(Emp)8_storage)dyn_storage": {
						"base": "t_struct(Emp)8_storage",
						"encoding": "dynamic_array",
						"label": "struct structEx.Emp[]",
						"numberOfBytes": "32"
					},
					"t_string_storage": {
						"encoding": "bytes",
						"label": "string",
						"numberOfBytes": "32"
					},
					"t_struct(Emp)8_storage": {
						"encoding": "inplace",
						"label": "struct structEx.Emp",
						"members": [
							{
								"astId": 3,
								"contract": "25_struct1.sol:structEx",
								"label": "name",
								"offset": 0,
								"slot": "0",
								"type": "t_string_storage"
							},
							{
								"astId": 5,
								"contract": "25_struct1.sol:structEx",
								"label": "age",
								"offset": 0,
								"slot": "1",
								"type": "t_uint256"
							},
							{
								"astId": 7,
								"contract": "25_struct1.sol:structEx",
								"label": "add",
								"offset": 0,
								"slot": "2",
								"type": "t_address"
							}
						],
						"numberOfBytes": "96"
					},
					"t_uint256": {
						"encoding": "inplace",
						"label": "uint256",
						"numberOfBytes": "32"
					}
				}
			},
			"userdoc": {
				"kind": "user",
				"methods": {},
				"version": 1
			}
		}
	}
}