{
	"42_DataLocation.sol": {
		"DataLoc": {
			"abi": [
				{
					"inputs": [
						{
							"internalType": "uint256[]",
							"name": "arr",
							"type": "uint256[]"
						}
					],
					"name": "CalldataFunc",
					"outputs": [],
					"stateMutability": "nonpayable",
					"type": "function"
				},
				{
					"inputs": [
						{
							"internalType": "uint256[]",
							"name": "arr",
							"type": "uint256[]"
						}
					],
					"name": "MemoryFunc",
					"outputs": [],
					"stateMutability": "nonpayable",
					"type": "function"
				},
				{
					"inputs": [
						{
							"internalType": "uint256[]",
							"name": "arr",
							"type": "uint256[]"
						}
					],
					"name": "inCall",
					"outputs": [],
					"stateMutability": "nonpayable",
					"type": "function"
				},
				{
					"inputs": [
						{
							"internalType": "uint256[]",
							"name": "arr",
							"type": "uint256[]"
						}
					],
					"name": "inMem",
					"outputs": [],
					"stateMutability": "nonpayable",
					"type": "function"
				}
			],
			"devdoc": {
				"kind": "dev",
				"methods": {},
				"version": 1
			},
			"evm": {
				"assembly": "    /* \"42_DataLocation.sol\":60:1046  contract DataLoc{... */\n  mstore(0x40, 0x80)\n  callvalue\n  dup1\n  iszero\n  tag_1\n  jumpi\n  0x00\n  dup1\n  revert\ntag_1:\n  pop\n  dataSize(sub_0)\n  dup1\n  dataOffset(sub_0)\n  0x00\n  codecopy\n  0x00\n  return\nstop\n\nsub_0: assembly {\n        /* \"42_DataLocation.sol\":60:1046  contract DataLoc{... */\n      mstore(0x40, 0x80)\n      callvalue\n      dup1\n      iszero\n      tag_1\n      jumpi\n      0x00\n      dup1\n      revert\n    tag_1:\n      pop\n      jumpi(tag_2, lt(calldatasize, 0x04))\n      shr(0xe0, calldataload(0x00))\n      dup1\n      0x4265b8b8\n      eq\n      tag_3\n      jumpi\n      dup1\n      0x75c5050f\n      eq\n      tag_4\n      jumpi\n      dup1\n      0xa61be08f\n      eq\n      tag_5\n      jumpi\n      dup1\n      0xa7d7e2bd\n      eq\n      tag_6\n      jumpi\n    tag_2:\n      0x00\n      dup1\n      revert\n        /* \"42_DataLocation.sol\":908:971  function inCall(uint [] calldata arr) public {... */\n    tag_3:\n      tag_7\n      0x04\n      dup1\n      calldatasize\n      sub\n      dup2\n      add\n      swap1\n      tag_8\n      swap2\n      swap1\n      tag_9\n      jump\t// in\n    tag_8:\n      tag_10\n      jump\t// in\n    tag_7:\n      stop\n        /* \"42_DataLocation.sol\":511:614  function CalldataFunc(uint [] calldata arr) public  {... */\n    tag_4:\n      tag_11\n      0x04\n      dup1\n      calldatasize\n      sub\n      dup2\n      add\n      swap1\n      tag_12\n      swap2\n      swap1\n      tag_9\n      jump\t// in\n    tag_12:\n      tag_13\n      jump\t// in\n    tag_11:\n      stop\n        /* \"42_DataLocation.sol\":979:1039  function inMem(uint [] memory arr) public {... */\n    tag_5:\n      tag_14\n      0x04\n      dup1\n      calldatasize\n      sub\n      dup2\n      add\n      swap1\n      tag_15\n      swap2\n      swap1\n      tag_16\n      jump\t// in\n    tag_15:\n      tag_17\n      jump\t// in\n    tag_14:\n      stop\n        /* \"42_DataLocation.sol\":798:900  function MemoryFunc(uint [] memory arr) public  {... */\n    tag_6:\n      tag_18\n      0x04\n      dup1\n      calldatasize\n      sub\n      dup2\n      add\n      swap1\n      tag_19\n      swap2\n      swap1\n      tag_16\n      jump\t// in\n    tag_19:\n      tag_20\n      jump\t// in\n    tag_18:\n      stop\n        /* \"42_DataLocation.sol\":908:971  function inCall(uint [] calldata arr) public {... */\n    tag_10:\n      pop\n      pop\n      jump\t// out\n        /* \"42_DataLocation.sol\":511:614  function CalldataFunc(uint [] calldata arr) public  {... */\n    tag_13:\n        /* \"42_DataLocation.sol\":574:585  inCall(arr) */\n      tag_23\n        /* \"42_DataLocation.sol\":581:584  arr */\n      dup3\n      dup3\n        /* \"42_DataLocation.sol\":574:580  inCall */\n      tag_10\n        /* \"42_DataLocation.sol\":574:585  inCall(arr) */\n      jump\t// in\n    tag_23:\n        /* \"42_DataLocation.sol\":596:606  inMem(arr) */\n      tag_24\n        /* \"42_DataLocation.sol\":602:605  arr */\n      dup3\n      dup3\n        /* \"42_DataLocation.sol\":596:606  inMem(arr) */\n      dup1\n      dup1\n      0x20\n      mul\n      0x20\n      add\n      mload(0x40)\n      swap1\n      dup2\n      add\n      0x40\n      mstore\n      dup1\n      swap4\n      swap3\n      swap2\n      swap1\n      dup2\n      dup2\n      mstore\n      0x20\n      add\n      dup4\n      dup4\n      0x20\n      mul\n      dup1\n      dup3\n      dup5\n      calldatacopy\n      0x00\n      dup2\n      dup5\n      add\n      mstore\n      not(0x1f)\n      0x1f\n      dup3\n      add\n      and\n      swap1\n      pop\n      dup1\n      dup4\n      add\n      swap3\n      pop\n      pop\n      pop\n      pop\n      pop\n      pop\n      pop\n        /* \"42_DataLocation.sol\":596:601  inMem */\n      tag_17\n        /* \"42_DataLocation.sol\":596:606  inMem(arr) */\n      jump\t// in\n    tag_24:\n        /* \"42_DataLocation.sol\":511:614  function CalldataFunc(uint [] calldata arr) public  {... */\n      pop\n      pop\n      jump\t// out\n        /* \"42_DataLocation.sol\":979:1039  function inMem(uint [] memory arr) public {... */\n    tag_17:\n      pop\n      jump\t// out\n        /* \"42_DataLocation.sol\":798:900  function MemoryFunc(uint [] memory arr) public  {... */\n    tag_20:\n        /* \"42_DataLocation.sol\":882:892  inMem(arr) */\n      tag_27\n        /* \"42_DataLocation.sol\":888:891  arr */\n      dup2\n        /* \"42_DataLocation.sol\":882:887  inMem */\n      tag_17\n        /* \"42_DataLocation.sol\":882:892  inMem(arr) */\n      jump\t// in\n    tag_27:\n        /* \"42_DataLocation.sol\":798:900  function MemoryFunc(uint [] memory arr) public  {... */\n      pop\n      jump\t// out\n        /* \"#utility.yul\":7:82   */\n    tag_28:\n        /* \"#utility.yul\":40:46   */\n      0x00\n        /* \"#utility.yul\":73:75   */\n      0x40\n        /* \"#utility.yul\":67:76   */\n      mload\n        /* \"#utility.yul\":57:76   */\n      swap1\n      pop\n        /* \"#utility.yul\":7:82   */\n      swap1\n      jump\t// out\n        /* \"#utility.yul\":88:205   */\n    tag_29:\n        /* \"#utility.yul\":197:198   */\n      0x00\n        /* \"#utility.yul\":194:195   */\n      dup1\n        /* \"#utility.yul\":187:199   */\n      revert\n        /* \"#utility.yul\":211:328   */\n    tag_30:\n        /* \"#utility.yul\":320:321   */\n      0x00\n        /* \"#utility.yul\":317:318   */\n      dup1\n        /* \"#utility.yul\":310:322   */\n      revert\n        /* \"#utility.yul\":334:451   */\n    tag_31:\n        /* \"#utility.yul\":443:444   */\n      0x00\n        /* \"#utility.yul\":440:441   */\n      dup1\n        /* \"#utility.yul\":433:445   */\n      revert\n        /* \"#utility.yul\":457:574   */\n    tag_32:\n        /* \"#utility.yul\":566:567   */\n      0x00\n        /* \"#utility.yul\":563:564   */\n      dup1\n        /* \"#utility.yul\":556:568   */\n      revert\n        /* \"#utility.yul\":580:697   */\n    tag_33:\n        /* \"#utility.yul\":689:690   */\n      0x00\n        /* \"#utility.yul\":686:687   */\n      dup1\n        /* \"#utility.yul\":679:691   */\n      revert\n        /* \"#utility.yul\":720:1288   */\n    tag_34:\n        /* \"#utility.yul\":793:801   */\n      0x00\n        /* \"#utility.yul\":803:809   */\n      dup1\n        /* \"#utility.yul\":853:856   */\n      dup4\n        /* \"#utility.yul\":846:850   */\n      0x1f\n        /* \"#utility.yul\":838:844   */\n      dup5\n        /* \"#utility.yul\":834:851   */\n      add\n        /* \"#utility.yul\":830:857   */\n      slt\n        /* \"#utility.yul\":820:942   */\n      tag_53\n      jumpi\n        /* \"#utility.yul\":861:940   */\n      tag_54\n      tag_31\n      jump\t// in\n    tag_54:\n        /* \"#utility.yul\":820:942   */\n    tag_53:\n        /* \"#utility.yul\":974:980   */\n      dup3\n        /* \"#utility.yul\":961:981   */\n      calldataload\n        /* \"#utility.yul\":951:981   */\n      swap1\n      pop\n        /* \"#utility.yul\":1004:1022   */\n      0xffffffffffffffff\n        /* \"#utility.yul\":996:1002   */\n      dup2\n        /* \"#utility.yul\":993:1023   */\n      gt\n        /* \"#utility.yul\":990:1107   */\n      iszero\n      tag_55\n      jumpi\n        /* \"#utility.yul\":1026:1105   */\n      tag_56\n      tag_32\n      jump\t// in\n    tag_56:\n        /* \"#utility.yul\":990:1107   */\n    tag_55:\n        /* \"#utility.yul\":1140:1144   */\n      0x20\n        /* \"#utility.yul\":1132:1138   */\n      dup4\n        /* \"#utility.yul\":1128:1145   */\n      add\n        /* \"#utility.yul\":1116:1145   */\n      swap2\n      pop\n        /* \"#utility.yul\":1194:1197   */\n      dup4\n        /* \"#utility.yul\":1186:1190   */\n      0x20\n        /* \"#utility.yul\":1178:1184   */\n      dup3\n        /* \"#utility.yul\":1174:1191   */\n      mul\n        /* \"#utility.yul\":1164:1172   */\n      dup4\n        /* \"#utility.yul\":1160:1192   */\n      add\n        /* \"#utility.yul\":1157:1198   */\n      gt\n        /* \"#utility.yul\":1154:1282   */\n      iszero\n      tag_57\n      jumpi\n        /* \"#utility.yul\":1201:1280   */\n      tag_58\n      tag_33\n      jump\t// in\n    tag_58:\n        /* \"#utility.yul\":1154:1282   */\n    tag_57:\n        /* \"#utility.yul\":720:1288   */\n      swap3\n      pop\n      swap3\n      swap1\n      pop\n      jump\t// out\n        /* \"#utility.yul\":1294:1853   */\n    tag_9:\n        /* \"#utility.yul\":1380:1386   */\n      0x00\n        /* \"#utility.yul\":1388:1394   */\n      dup1\n        /* \"#utility.yul\":1437:1439   */\n      0x20\n        /* \"#utility.yul\":1425:1434   */\n      dup4\n        /* \"#utility.yul\":1416:1423   */\n      dup6\n        /* \"#utility.yul\":1412:1435   */\n      sub\n        /* \"#utility.yul\":1408:1440   */\n      slt\n        /* \"#utility.yul\":1405:1524   */\n      iszero\n      tag_60\n      jumpi\n        /* \"#utility.yul\":1443:1522   */\n      tag_61\n      tag_29\n      jump\t// in\n    tag_61:\n        /* \"#utility.yul\":1405:1524   */\n    tag_60:\n        /* \"#utility.yul\":1591:1592   */\n      0x00\n        /* \"#utility.yul\":1580:1589   */\n      dup4\n        /* \"#utility.yul\":1576:1593   */\n      add\n        /* \"#utility.yul\":1563:1594   */\n      calldataload\n        /* \"#utility.yul\":1621:1639   */\n      0xffffffffffffffff\n        /* \"#utility.yul\":1613:1619   */\n      dup2\n        /* \"#utility.yul\":1610:1640   */\n      gt\n        /* \"#utility.yul\":1607:1724   */\n      iszero\n      tag_62\n      jumpi\n        /* \"#utility.yul\":1643:1722   */\n      tag_63\n      tag_30\n      jump\t// in\n    tag_63:\n        /* \"#utility.yul\":1607:1724   */\n    tag_62:\n        /* \"#utility.yul\":1756:1836   */\n      tag_64\n        /* \"#utility.yul\":1828:1835   */\n      dup6\n        /* \"#utility.yul\":1819:1825   */\n      dup3\n        /* \"#utility.yul\":1808:1817   */\n      dup7\n        /* \"#utility.yul\":1804:1826   */\n      add\n        /* \"#utility.yul\":1756:1836   */\n      tag_34\n      jump\t// in\n    tag_64:\n        /* \"#utility.yul\":1738:1836   */\n      swap3\n      pop\n      swap3\n      pop\n        /* \"#utility.yul\":1534:1846   */\n      pop\n        /* \"#utility.yul\":1294:1853   */\n      swap3\n      pop\n      swap3\n      swap1\n      pop\n      jump\t// out\n        /* \"#utility.yul\":1859:1961   */\n    tag_35:\n        /* \"#utility.yul\":1900:1906   */\n      0x00\n        /* \"#utility.yul\":1951:1953   */\n      0x1f\n        /* \"#utility.yul\":1947:1954   */\n      not\n        /* \"#utility.yul\":1942:1944   */\n      0x1f\n        /* \"#utility.yul\":1935:1940   */\n      dup4\n        /* \"#utility.yul\":1931:1945   */\n      add\n        /* \"#utility.yul\":1927:1955   */\n      and\n        /* \"#utility.yul\":1917:1955   */\n      swap1\n      pop\n        /* \"#utility.yul\":1859:1961   */\n      swap2\n      swap1\n      pop\n      jump\t// out\n        /* \"#utility.yul\":1967:2147   */\n    tag_36:\n        /* \"#utility.yul\":2015:2092   */\n      0x4e487b7100000000000000000000000000000000000000000000000000000000\n        /* \"#utility.yul\":2012:2013   */\n      0x00\n        /* \"#utility.yul\":2005:2093   */\n      mstore\n        /* \"#utility.yul\":2112:2116   */\n      0x41\n        /* \"#utility.yul\":2109:2110   */\n      0x04\n        /* \"#utility.yul\":2102:2117   */\n      mstore\n        /* \"#utility.yul\":2136:2140   */\n      0x24\n        /* \"#utility.yul\":2133:2134   */\n      0x00\n        /* \"#utility.yul\":2126:2141   */\n      revert\n        /* \"#utility.yul\":2153:2434   */\n    tag_37:\n        /* \"#utility.yul\":2236:2263   */\n      tag_68\n        /* \"#utility.yul\":2258:2262   */\n      dup3\n        /* \"#utility.yul\":2236:2263   */\n      tag_35\n      jump\t// in\n    tag_68:\n        /* \"#utility.yul\":2228:2234   */\n      dup2\n        /* \"#utility.yul\":2224:2264   */\n      add\n        /* \"#utility.yul\":2366:2372   */\n      dup2\n        /* \"#utility.yul\":2354:2364   */\n      dup2\n        /* \"#utility.yul\":2351:2373   */\n      lt\n        /* \"#utility.yul\":2330:2348   */\n      0xffffffffffffffff\n        /* \"#utility.yul\":2318:2328   */\n      dup3\n        /* \"#utility.yul\":2315:2349   */\n      gt\n        /* \"#utility.yul\":2312:2374   */\n      or\n        /* \"#utility.yul\":2309:2397   */\n      iszero\n      tag_69\n      jumpi\n        /* \"#utility.yul\":2377:2395   */\n      tag_70\n      tag_36\n      jump\t// in\n    tag_70:\n        /* \"#utility.yul\":2309:2397   */\n    tag_69:\n        /* \"#utility.yul\":2417:2427   */\n      dup1\n        /* \"#utility.yul\":2413:2415   */\n      0x40\n        /* \"#utility.yul\":2406:2428   */\n      mstore\n        /* \"#utility.yul\":2196:2434   */\n      pop\n        /* \"#utility.yul\":2153:2434   */\n      pop\n      pop\n      jump\t// out\n        /* \"#utility.yul\":2440:2569   */\n    tag_38:\n        /* \"#utility.yul\":2474:2480   */\n      0x00\n        /* \"#utility.yul\":2501:2521   */\n      tag_72\n      tag_28\n      jump\t// in\n    tag_72:\n        /* \"#utility.yul\":2491:2521   */\n      swap1\n      pop\n        /* \"#utility.yul\":2530:2563   */\n      tag_73\n        /* \"#utility.yul\":2558:2562   */\n      dup3\n        /* \"#utility.yul\":2550:2556   */\n      dup3\n        /* \"#utility.yul\":2530:2563   */\n      tag_37\n      jump\t// in\n    tag_73:\n        /* \"#utility.yul\":2440:2569   */\n      swap2\n      swap1\n      pop\n      jump\t// out\n        /* \"#utility.yul\":2575:2886   */\n    tag_39:\n        /* \"#utility.yul\":2652:2656   */\n      0x00\n        /* \"#utility.yul\":2742:2760   */\n      0xffffffffffffffff\n        /* \"#utility.yul\":2734:2740   */\n      dup3\n        /* \"#utility.yul\":2731:2761   */\n      gt\n        /* \"#utility.yul\":2728:2784   */\n      iszero\n      tag_75\n      jumpi\n        /* \"#utility.yul\":2764:2782   */\n      tag_76\n      tag_36\n      jump\t// in\n    tag_76:\n        /* \"#utility.yul\":2728:2784   */\n    tag_75:\n        /* \"#utility.yul\":2814:2818   */\n      0x20\n        /* \"#utility.yul\":2806:2812   */\n      dup3\n        /* \"#utility.yul\":2802:2819   */\n      mul\n        /* \"#utility.yul\":2794:2819   */\n      swap1\n      pop\n        /* \"#utility.yul\":2874:2878   */\n      0x20\n        /* \"#utility.yul\":2868:2872   */\n      dup2\n        /* \"#utility.yul\":2864:2879   */\n      add\n        /* \"#utility.yul\":2856:2879   */\n      swap1\n      pop\n        /* \"#utility.yul\":2575:2886   */\n      swap2\n      swap1\n      pop\n      jump\t// out\n        /* \"#utility.yul\":2892:2969   */\n    tag_40:\n        /* \"#utility.yul\":2929:2936   */\n      0x00\n        /* \"#utility.yul\":2958:2963   */\n      dup2\n        /* \"#utility.yul\":2947:2963   */\n      swap1\n      pop\n        /* \"#utility.yul\":2892:2969   */\n      swap2\n      swap1\n      pop\n      jump\t// out\n        /* \"#utility.yul\":2975:3097   */\n    tag_41:\n        /* \"#utility.yul\":3048:3072   */\n      tag_79\n        /* \"#utility.yul\":3066:3071   */\n      dup2\n        /* \"#utility.yul\":3048:3072   */\n      tag_40\n      jump\t// in\n    tag_79:\n        /* \"#utility.yul\":3041:3046   */\n      dup2\n        /* \"#utility.yul\":3038:3073   */\n      eq\n        /* \"#utility.yul\":3028:3091   */\n      tag_80\n      jumpi\n        /* \"#utility.yul\":3087:3088   */\n      0x00\n        /* \"#utility.yul\":3084:3085   */\n      dup1\n        /* \"#utility.yul\":3077:3089   */\n      revert\n        /* \"#utility.yul\":3028:3091   */\n    tag_80:\n        /* \"#utility.yul\":2975:3097   */\n      pop\n      jump\t// out\n        /* \"#utility.yul\":3103:3242   */\n    tag_42:\n        /* \"#utility.yul\":3149:3154   */\n      0x00\n        /* \"#utility.yul\":3187:3193   */\n      dup2\n        /* \"#utility.yul\":3174:3194   */\n      calldataload\n        /* \"#utility.yul\":3165:3194   */\n      swap1\n      pop\n        /* \"#utility.yul\":3203:3236   */\n      tag_82\n        /* \"#utility.yul\":3230:3235   */\n      dup2\n        /* \"#utility.yul\":3203:3236   */\n      tag_41\n      jump\t// in\n    tag_82:\n        /* \"#utility.yul\":3103:3242   */\n      swap3\n      swap2\n      pop\n      pop\n      jump\t// out\n        /* \"#utility.yul\":3265:3975   */\n    tag_43:\n        /* \"#utility.yul\":3361:3366   */\n      0x00\n        /* \"#utility.yul\":3386:3467   */\n      tag_84\n        /* \"#utility.yul\":3402:3466   */\n      tag_85\n        /* \"#utility.yul\":3459:3465   */\n      dup5\n        /* \"#utility.yul\":3402:3466   */\n      tag_39\n      jump\t// in\n    tag_85:\n        /* \"#utility.yul\":3386:3467   */\n      tag_38\n      jump\t// in\n    tag_84:\n        /* \"#utility.yul\":3377:3467   */\n      swap1\n      pop\n        /* \"#utility.yul\":3487:3492   */\n      dup1\n        /* \"#utility.yul\":3516:3522   */\n      dup4\n        /* \"#utility.yul\":3509:3514   */\n      dup3\n        /* \"#utility.yul\":3502:3523   */\n      mstore\n        /* \"#utility.yul\":3550:3554   */\n      0x20\n        /* \"#utility.yul\":3543:3548   */\n      dup3\n        /* \"#utility.yul\":3539:3555   */\n      add\n        /* \"#utility.yul\":3532:3555   */\n      swap1\n      pop\n        /* \"#utility.yul\":3603:3607   */\n      0x20\n        /* \"#utility.yul\":3595:3601   */\n      dup5\n        /* \"#utility.yul\":3591:3608   */\n      mul\n        /* \"#utility.yul\":3583:3589   */\n      dup4\n        /* \"#utility.yul\":3579:3609   */\n      add\n        /* \"#utility.yul\":3632:3635   */\n      dup6\n        /* \"#utility.yul\":3624:3630   */\n      dup2\n        /* \"#utility.yul\":3621:3636   */\n      gt\n        /* \"#utility.yul\":3618:3740   */\n      iszero\n      tag_86\n      jumpi\n        /* \"#utility.yul\":3651:3730   */\n      tag_87\n      tag_33\n      jump\t// in\n    tag_87:\n        /* \"#utility.yul\":3618:3740   */\n    tag_86:\n        /* \"#utility.yul\":3766:3772   */\n      dup4\n        /* \"#utility.yul\":3749:3969   */\n    tag_88:\n        /* \"#utility.yul\":3783:3789   */\n      dup2\n        /* \"#utility.yul\":3778:3781   */\n      dup2\n        /* \"#utility.yul\":3775:3790   */\n      lt\n        /* \"#utility.yul\":3749:3969   */\n      iszero\n      tag_90\n      jumpi\n        /* \"#utility.yul\":3858:3861   */\n      dup1\n        /* \"#utility.yul\":3887:3924   */\n      tag_91\n        /* \"#utility.yul\":3920:3923   */\n      dup9\n        /* \"#utility.yul\":3908:3918   */\n      dup3\n        /* \"#utility.yul\":3887:3924   */\n      tag_42\n      jump\t// in\n    tag_91:\n        /* \"#utility.yul\":3882:3885   */\n      dup5\n        /* \"#utility.yul\":3875:3925   */\n      mstore\n        /* \"#utility.yul\":3954:3958   */\n      0x20\n        /* \"#utility.yul\":3949:3952   */\n      dup5\n        /* \"#utility.yul\":3945:3959   */\n      add\n        /* \"#utility.yul\":3938:3959   */\n      swap4\n      pop\n        /* \"#utility.yul\":3825:3969   */\n      pop\n        /* \"#utility.yul\":3809:3813   */\n      0x20\n        /* \"#utility.yul\":3804:3807   */\n      dup2\n        /* \"#utility.yul\":3800:3814   */\n      add\n        /* \"#utility.yul\":3793:3814   */\n      swap1\n      pop\n        /* \"#utility.yul\":3749:3969   */\n      jump(tag_88)\n    tag_90:\n        /* \"#utility.yul\":3753:3774   */\n      pop\n        /* \"#utility.yul\":3367:3975   */\n      pop\n      pop\n        /* \"#utility.yul\":3265:3975   */\n      swap4\n      swap3\n      pop\n      pop\n      pop\n      jump\t// out\n        /* \"#utility.yul\":3998:4368   */\n    tag_44:\n        /* \"#utility.yul\":4069:4074   */\n      0x00\n        /* \"#utility.yul\":4118:4121   */\n      dup3\n        /* \"#utility.yul\":4111:4115   */\n      0x1f\n        /* \"#utility.yul\":4103:4109   */\n      dup4\n        /* \"#utility.yul\":4099:4116   */\n      add\n        /* \"#utility.yul\":4095:4122   */\n      slt\n        /* \"#utility.yul\":4085:4207   */\n      tag_93\n      jumpi\n        /* \"#utility.yul\":4126:4205   */\n      tag_94\n      tag_31\n      jump\t// in\n    tag_94:\n        /* \"#utility.yul\":4085:4207   */\n    tag_93:\n        /* \"#utility.yul\":4243:4249   */\n      dup2\n        /* \"#utility.yul\":4230:4250   */\n      calldataload\n        /* \"#utility.yul\":4268:4362   */\n      tag_95\n        /* \"#utility.yul\":4358:4361   */\n      dup5\n        /* \"#utility.yul\":4350:4356   */\n      dup3\n        /* \"#utility.yul\":4343:4347   */\n      0x20\n        /* \"#utility.yul\":4335:4341   */\n      dup7\n        /* \"#utility.yul\":4331:4348   */\n      add\n        /* \"#utility.yul\":4268:4362   */\n      tag_43\n      jump\t// in\n    tag_95:\n        /* \"#utility.yul\":4259:4362   */\n      swap2\n      pop\n        /* \"#utility.yul\":4075:4368   */\n      pop\n        /* \"#utility.yul\":3998:4368   */\n      swap3\n      swap2\n      pop\n      pop\n      jump\t// out\n        /* \"#utility.yul\":4374:4913   */\n    tag_16:\n        /* \"#utility.yul\":4458:4464   */\n      0x00\n        /* \"#utility.yul\":4507:4509   */\n      0x20\n        /* \"#utility.yul\":4495:4504   */\n      dup3\n        /* \"#utility.yul\":4486:4493   */\n      dup5\n        /* \"#utility.yul\":4482:4505   */\n      sub\n        /* \"#utility.yul\":4478:4510   */\n      slt\n        /* \"#utility.yul\":4475:4594   */\n      iszero\n      tag_97\n      jumpi\n        /* \"#utility.yul\":4513:4592   */\n      tag_98\n      tag_29\n      jump\t// in\n    tag_98:\n        /* \"#utility.yul\":4475:4594   */\n    tag_97:\n        /* \"#utility.yul\":4661:4662   */\n      0x00\n        /* \"#utility.yul\":4650:4659   */\n      dup3\n        /* \"#utility.yul\":4646:4663   */\n      add\n        /* \"#utility.yul\":4633:4664   */\n      calldataload\n        /* \"#utility.yul\":4691:4709   */\n      0xffffffffffffffff\n        /* \"#utility.yul\":4683:4689   */\n      dup2\n        /* \"#utility.yul\":4680:4710   */\n      gt\n        /* \"#utility.yul\":4677:4794   */\n      iszero\n      tag_99\n      jumpi\n        /* \"#utility.yul\":4713:4792   */\n      tag_100\n      tag_30\n      jump\t// in\n    tag_100:\n        /* \"#utility.yul\":4677:4794   */\n    tag_99:\n        /* \"#utility.yul\":4818:4896   */\n      tag_101\n        /* \"#utility.yul\":4888:4895   */\n      dup5\n        /* \"#utility.yul\":4879:4885   */\n      dup3\n        /* \"#utility.yul\":4868:4877   */\n      dup6\n        /* \"#utility.yul\":4864:4886   */\n      add\n        /* \"#utility.yul\":4818:4896   */\n      tag_44\n      jump\t// in\n    tag_101:\n        /* \"#utility.yul\":4808:4896   */\n      swap2\n      pop\n        /* \"#utility.yul\":4604:4906   */\n      pop\n        /* \"#utility.yul\":4374:4913   */\n      swap3\n      swap2\n      pop\n      pop\n      jump\t// out\n\n    auxdata: 0xa264697066735822122051e8ef81d25c706d98d871e3cd172ca2143957455fef0c1eb92471ff2c84728664736f6c63430008120033\n}\n",
				"bytecode": {
					"linkReferences": {},
					"object": "608060405234801561001057600080fd5b506103f6806100206000396000f3fe608060405234801561001057600080fd5b506004361061004c5760003560e01c80634265b8b81461005157806375c5050f1461006d578063a61be08f14610089578063a7d7e2bd146100a5575b600080fd5b61006b600480360381019061006691906101a5565b6100c1565b005b610087600480360381019061008291906101a5565b6100c5565b005b6100a3600480360381019061009e9190610377565b61011d565b005b6100bf60048036038101906100ba9190610377565b610120565b005b5050565b6100cf82826100c1565b610119828280806020026020016040519081016040528093929190818152602001838360200280828437600081840152601f19601f8201169050808301925050505050505061011d565b5050565b50565b6101298161011d565b50565b6000604051905090565b600080fd5b600080fd5b600080fd5b600080fd5b600080fd5b60008083601f84011261016557610164610140565b5b8235905067ffffffffffffffff81111561018257610181610145565b5b60208301915083602082028301111561019e5761019d61014a565b5b9250929050565b600080602083850312156101bc576101bb610136565b5b600083013567ffffffffffffffff8111156101da576101d961013b565b5b6101e68582860161014f565b92509250509250929050565b6000601f19601f8301169050919050565b7f4e487b7100000000000000000000000000000000000000000000000000000000600052604160045260246000fd5b61023b826101f2565b810181811067ffffffffffffffff8211171561025a57610259610203565b5b80604052505050565b600061026d61012c565b90506102798282610232565b919050565b600067ffffffffffffffff82111561029957610298610203565b5b602082029050602081019050919050565b6000819050919050565b6102bd816102aa565b81146102c857600080fd5b50565b6000813590506102da816102b4565b92915050565b60006102f36102ee8461027e565b610263565b905080838252602082019050602084028301858111156103165761031561014a565b5b835b8181101561033f578061032b88826102cb565b845260208401935050602081019050610318565b5050509392505050565b600082601f83011261035e5761035d610140565b5b813561036e8482602086016102e0565b91505092915050565b60006020828403121561038d5761038c610136565b5b600082013567ffffffffffffffff8111156103ab576103aa61013b565b5b6103b784828501610349565b9150509291505056fea264697066735822122051e8ef81d25c706d98d871e3cd172ca2143957455fef0c1eb92471ff2c84728664736f6c63430008120033",
					"opcodes": "PUSH1 0x80 PUSH1 0x40 MSTORE CALLVALUE DUP1 ISZERO PUSH2 0x10 JUMPI PUSH1 0x0 DUP1 REVERT JUMPDEST POP PUSH2 0x3F6 DUP1 PUSH2 0x20 PUSH1 0x0 CODECOPY PUSH1 0x0 RETURN INVALID PUSH1 0x80 PUSH1 0x40 MSTORE CALLVALUE DUP1 ISZERO PUSH2 0x10 JUMPI PUSH1 0x0 DUP1 REVERT JUMPDEST POP PUSH1 0x4 CALLDATASIZE LT PUSH2 0x4C JUMPI PUSH1 0x0 CALLDATALOAD PUSH1 0xE0 SHR DUP1 PUSH4 0x4265B8B8 EQ PUSH2 0x51 JUMPI DUP1 PUSH4 0x75C5050F EQ PUSH2 0x6D JUMPI DUP1 PUSH4 0xA61BE08F EQ PUSH2 0x89 JUMPI DUP1 PUSH4 0xA7D7E2BD EQ PUSH2 0xA5 JUMPI JUMPDEST PUSH1 0x0 DUP1 REVERT JUMPDEST PUSH2 0x6B PUSH1 0x4 DUP1 CALLDATASIZE SUB DUP2 ADD SWAP1 PUSH2 0x66 SWAP2 SWAP1 PUSH2 0x1A5 JUMP JUMPDEST PUSH2 0xC1 JUMP JUMPDEST STOP JUMPDEST PUSH2 0x87 PUSH1 0x4 DUP1 CALLDATASIZE SUB DUP2 ADD SWAP1 PUSH2 0x82 SWAP2 SWAP1 PUSH2 0x1A5 JUMP JUMPDEST PUSH2 0xC5 JUMP JUMPDEST STOP JUMPDEST PUSH2 0xA3 PUSH1 0x4 DUP1 CALLDATASIZE SUB DUP2 ADD SWAP1 PUSH2 0x9E SWAP2 SWAP1 PUSH2 0x377 JUMP JUMPDEST PUSH2 0x11D JUMP JUMPDEST STOP JUMPDEST PUSH2 0xBF PUSH1 0x4 DUP1 CALLDATASIZE SUB DUP2 ADD SWAP1 PUSH2 0xBA SWAP2 SWAP1 PUSH2 0x377 JUMP JUMPDEST PUSH2 0x120 JUMP JUMPDEST STOP JUMPDEST POP POP JUMP JUMPDEST PUSH2 0xCF DUP3 DUP3 PUSH2 0xC1 JUMP JUMPDEST PUSH2 0x119 DUP3 DUP3 DUP1 DUP1 PUSH1 0x20 MUL PUSH1 0x20 ADD PUSH1 0x40 MLOAD SWAP1 DUP2 ADD PUSH1 0x40 MSTORE DUP1 SWAP4 SWAP3 SWAP2 SWAP1 DUP2 DUP2 MSTORE PUSH1 0x20 ADD DUP4 DUP4 PUSH1 0x20 MUL DUP1 DUP3 DUP5 CALLDATACOPY PUSH1 0x0 DUP2 DUP5 ADD MSTORE PUSH1 0x1F NOT PUSH1 0x1F DUP3 ADD AND SWAP1 POP DUP1 DUP4 ADD SWAP3 POP POP POP POP POP POP POP PUSH2 0x11D JUMP JUMPDEST POP POP JUMP JUMPDEST POP JUMP JUMPDEST PUSH2 0x129 DUP2 PUSH2 0x11D JUMP JUMPDEST POP JUMP JUMPDEST PUSH1 0x0 PUSH1 0x40 MLOAD SWAP1 POP SWAP1 JUMP JUMPDEST PUSH1 0x0 DUP1 REVERT JUMPDEST PUSH1 0x0 DUP1 REVERT JUMPDEST PUSH1 0x0 DUP1 REVERT JUMPDEST PUSH1 0x0 DUP1 REVERT JUMPDEST PUSH1 0x0 DUP1 REVERT JUMPDEST PUSH1 0x0 DUP1 DUP4 PUSH1 0x1F DUP5 ADD SLT PUSH2 0x165 JUMPI PUSH2 0x164 PUSH2 0x140 JUMP JUMPDEST JUMPDEST DUP3 CALLDATALOAD SWAP1 POP PUSH8 0xFFFFFFFFFFFFFFFF DUP2 GT ISZERO PUSH2 0x182 JUMPI PUSH2 0x181 PUSH2 0x145 JUMP JUMPDEST JUMPDEST PUSH1 0x20 DUP4 ADD SWAP2 POP DUP4 PUSH1 0x20 DUP3 MUL DUP4 ADD GT ISZERO PUSH2 0x19E JUMPI PUSH2 0x19D PUSH2 0x14A JUMP JUMPDEST JUMPDEST SWAP3 POP SWAP3 SWAP1 POP JUMP JUMPDEST PUSH1 0x0 DUP1 PUSH1 0x20 DUP4 DUP6 SUB SLT ISZERO PUSH2 0x1BC JUMPI PUSH2 0x1BB PUSH2 0x136 JUMP JUMPDEST JUMPDEST PUSH1 0x0 DUP4 ADD CALLDATALOAD PUSH8 0xFFFFFFFFFFFFFFFF DUP2 GT ISZERO PUSH2 0x1DA JUMPI PUSH2 0x1D9 PUSH2 0x13B JUMP JUMPDEST JUMPDEST PUSH2 0x1E6 DUP6 DUP3 DUP7 ADD PUSH2 0x14F JUMP JUMPDEST SWAP3 POP SWAP3 POP POP SWAP3 POP SWAP3 SWAP1 POP JUMP JUMPDEST PUSH1 0x0 PUSH1 0x1F NOT PUSH1 0x1F DUP4 ADD AND SWAP1 POP SWAP2 SWAP1 POP JUMP JUMPDEST PUSH32 0x4E487B7100000000000000000000000000000000000000000000000000000000 PUSH1 0x0 MSTORE PUSH1 0x41 PUSH1 0x4 MSTORE PUSH1 0x24 PUSH1 0x0 REVERT JUMPDEST PUSH2 0x23B DUP3 PUSH2 0x1F2 JUMP JUMPDEST DUP2 ADD DUP2 DUP2 LT PUSH8 0xFFFFFFFFFFFFFFFF DUP3 GT OR ISZERO PUSH2 0x25A JUMPI PUSH2 0x259 PUSH2 0x203 JUMP JUMPDEST JUMPDEST DUP1 PUSH1 0x40 MSTORE POP POP POP JUMP JUMPDEST PUSH1 0x0 PUSH2 0x26D PUSH2 0x12C JUMP JUMPDEST SWAP1 POP PUSH2 0x279 DUP3 DUP3 PUSH2 0x232 JUMP JUMPDEST SWAP2 SWAP1 POP JUMP JUMPDEST PUSH1 0x0 PUSH8 0xFFFFFFFFFFFFFFFF DUP3 GT ISZERO PUSH2 0x299 JUMPI PUSH2 0x298 PUSH2 0x203 JUMP JUMPDEST JUMPDEST PUSH1 0x20 DUP3 MUL SWAP1 POP PUSH1 0x20 DUP2 ADD SWAP1 POP SWAP2 SWAP1 POP JUMP JUMPDEST PUSH1 0x0 DUP2 SWAP1 POP SWAP2 SWAP1 POP JUMP JUMPDEST PUSH2 0x2BD DUP2 PUSH2 0x2AA JUMP JUMPDEST DUP2 EQ PUSH2 0x2C8 JUMPI PUSH1 0x0 DUP1 REVERT JUMPDEST POP JUMP JUMPDEST PUSH1 0x0 DUP2 CALLDATALOAD SWAP1 POP PUSH2 0x2DA DUP2 PUSH2 0x2B4 JUMP JUMPDEST SWAP3 SWAP2 POP POP JUMP JUMPDEST PUSH1 0x0 PUSH2 0x2F3 PUSH2 0x2EE DUP5 PUSH2 0x27E JUMP JUMPDEST PUSH2 0x263 JUMP JUMPDEST SWAP1 POP DUP1 DUP4 DUP3 MSTORE PUSH1 0x20 DUP3 ADD SWAP1 POP PUSH1 0x20 DUP5 MUL DUP4 ADD DUP6 DUP2 GT ISZERO PUSH2 0x316 JUMPI PUSH2 0x315 PUSH2 0x14A JUMP JUMPDEST JUMPDEST DUP4 JUMPDEST DUP2 DUP2 LT ISZERO PUSH2 0x33F JUMPI DUP1 PUSH2 0x32B DUP9 DUP3 PUSH2 0x2CB JUMP JUMPDEST DUP5 MSTORE PUSH1 0x20 DUP5 ADD SWAP4 POP POP PUSH1 0x20 DUP2 ADD SWAP1 POP PUSH2 0x318 JUMP JUMPDEST POP POP POP SWAP4 SWAP3 POP POP POP JUMP JUMPDEST PUSH1 0x0 DUP3 PUSH1 0x1F DUP4 ADD SLT PUSH2 0x35E JUMPI PUSH2 0x35D PUSH2 0x140 JUMP JUMPDEST JUMPDEST DUP2 CALLDATALOAD PUSH2 0x36E DUP5 DUP3 PUSH1 0x20 DUP7 ADD PUSH2 0x2E0 JUMP JUMPDEST SWAP2 POP POP SWAP3 SWAP2 POP POP JUMP JUMPDEST PUSH1 0x0 PUSH1 0x20 DUP3 DUP5 SUB SLT ISZERO PUSH2 0x38D JUMPI PUSH2 0x38C PUSH2 0x136 JUMP JUMPDEST JUMPDEST PUSH1 0x0 DUP3 ADD CALLDATALOAD PUSH8 0xFFFFFFFFFFFFFFFF DUP2 GT ISZERO PUSH2 0x3AB JUMPI PUSH2 0x3AA PUSH2 0x13B JUMP JUMPDEST JUMPDEST PUSH2 0x3B7 DUP5 DUP3 DUP6 ADD PUSH2 0x349 JUMP JUMPDEST SWAP2 POP POP SWAP3 SWAP2 POP POP JUMP INVALID LOG2 PUSH5 0x6970667358 0x22 SLT KECCAK256 MLOAD 0xE8 0xEF DUP2 0xD2 0x5C PUSH17 0x6D98D871E3CD172CA2143957455FEF0C1E 0xB9 0x24 PUSH18 0xFF2C84728664736F6C634300081200330000 "
				},
				"gasEstimates": {
					"creation": {
						"codeDepositCost": "202800",
						"executionCost": "245",
						"totalCost": "203045"
					},
					"external": {
						"CalldataFunc(uint256[])": "infinite",
						"MemoryFunc(uint256[])": "infinite",
						"inCall(uint256[])": "452",
						"inMem(uint256[])": "infinite"
					}
				},
				"methodIdentifiers": {
					"CalldataFunc(uint256[])": "75c5050f",
					"MemoryFunc(uint256[])": "a7d7e2bd",
					"inCall(uint256[])": "4265b8b8",
					"inMem(uint256[])": "a61be08f"
				}
			},
			"storageLayout": {
				"storage": [],
				"types": null
			},
			"userdoc": {
				"kind": "user",
				"methods": {},
				"version": 1
			}
		}
	}
}