{
	"Campaign.sol": {
		"Campaign": {
			"abi": [
				{
					"inputs": [
						{
							"internalType": "string",
							"name": "campaignTitle",
							"type": "string"
						},
						{
							"internalType": "uint256",
							"name": "requiredCampaignAmount",
							"type": "uint256"
						},
						{
							"internalType": "string",
							"name": "imgURI",
							"type": "string"
						},
						{
							"internalType": "string",
							"name": "storyURI",
							"type": "string"
						},
						{
							"internalType": "address",
							"name": "campaignOwner",
							"type": "address"
						}
					],
					"stateMutability": "nonpayable",
					"type": "constructor"
				},
				{
					"inputs": [],
					"name": "donate",
					"outputs": [],
					"stateMutability": "payable",
					"type": "function"
				},
				{
					"inputs": [],
					"name": "image",
					"outputs": [
						{
							"internalType": "string",
							"name": "",
							"type": "string"
						}
					],
					"stateMutability": "view",
					"type": "function"
				},
				{
					"inputs": [],
					"name": "owner",
					"outputs": [
						{
							"internalType": "address payable",
							"name": "",
							"type": "address"
						}
					],
					"stateMutability": "view",
					"type": "function"
				},
				{
					"inputs": [],
					"name": "receivedAmount",
					"outputs": [
						{
							"internalType": "uint256",
							"name": "",
							"type": "uint256"
						}
					],
					"stateMutability": "view",
					"type": "function"
				},
				{
					"inputs": [],
					"name": "requiredAmount",
					"outputs": [
						{
							"internalType": "uint256",
							"name": "",
							"type": "uint256"
						}
					],
					"stateMutability": "view",
					"type": "function"
				},
				{
					"inputs": [],
					"name": "story",
					"outputs": [
						{
							"internalType": "string",
							"name": "",
							"type": "string"
						}
					],
					"stateMutability": "view",
					"type": "function"
				},
				{
					"inputs": [],
					"name": "title",
					"outputs": [
						{
							"internalType": "string",
							"name": "",
							"type": "string"
						}
					],
					"stateMutability": "view",
					"type": "function"
				}
			],
			"devdoc": {
				"kind": "dev",
				"methods": {},
				"version": 1
			},
			"evm": {
				"assembly": "    /* \"Campaign.sol\":1462:2410  contract Campaign {... */\n  mstore(0x40, 0x80)\n    /* \"Campaign.sol\":1761:2137  constructor(... */\n  callvalue\n  dup1\n  iszero\n  tag_1\n  jumpi\n  0x00\n  dup1\n  revert\ntag_1:\n  pop\n  mload(0x40)\n  sub(codesize, bytecodeSize)\n  dup1\n  bytecodeSize\n  dup4\n  codecopy\n  dup2\n  dup2\n  add\n  0x40\n  mstore\n  dup2\n  add\n  swap1\n  tag_2\n  swap2\n  swap1\n  tag_3\n  jump\t// in\ntag_2:\n    /* \"Campaign.sol\":1973:1986  campaignTitle */\n  dup5\n    /* \"Campaign.sol\":1965:1970  title */\n  0x00\n    /* \"Campaign.sol\":1965:1986  title = campaignTitle */\n  swap1\n  dup2\n  tag_6\n  swap2\n  swap1\n  tag_7\n  jump\t// in\ntag_6:\n  pop\n    /* \"Campaign.sol\":2014:2036  requiredCampaignAmount */\n  dup4\n    /* \"Campaign.sol\":1997:2011  requiredAmount */\n  0x01\n    /* \"Campaign.sol\":1997:2036  requiredAmount = requiredCampaignAmount */\n  dup2\n  swap1\n  sstore\n  pop\n    /* \"Campaign.sol\":2055:2061  imgURI */\n  dup3\n    /* \"Campaign.sol\":2047:2052  image */\n  0x02\n    /* \"Campaign.sol\":2047:2061  image = imgURI */\n  swap1\n  dup2\n  tag_8\n  swap2\n  swap1\n  tag_7\n  jump\t// in\ntag_8:\n  pop\n    /* \"Campaign.sol\":2080:2088  storyURI */\n  dup2\n    /* \"Campaign.sol\":2072:2077  story */\n  0x03\n    /* \"Campaign.sol\":2072:2088  story = storyURI */\n  swap1\n  dup2\n  tag_9\n  swap2\n  swap1\n  tag_7\n  jump\t// in\ntag_9:\n  pop\n    /* \"Campaign.sol\":2115:2128  campaignOwner */\n  dup1\n    /* \"Campaign.sol\":2099:2104  owner */\n  0x04\n  0x00\n    /* \"Campaign.sol\":2099:2129  owner = payable(campaignOwner) */\n  0x0100\n  exp\n  dup2\n  sload\n  dup2\n  0xffffffffffffffffffffffffffffffffffffffff\n  mul\n  not\n  and\n  swap1\n  dup4\n  0xffffffffffffffffffffffffffffffffffffffff\n  and\n  mul\n  or\n  swap1\n  sstore\n  pop\n    /* \"Campaign.sol\":1761:2137  constructor(... */\n  pop\n  pop\n  pop\n  pop\n  pop\n    /* \"Campaign.sol\":1462:2410  contract Campaign {... */\n  jump(tag_10)\n    /* \"#utility.yul\":7:82   */\ntag_11:\n    /* \"#utility.yul\":40:46   */\n  0x00\n    /* \"#utility.yul\":73:75   */\n  0x40\n    /* \"#utility.yul\":67:76   */\n  mload\n    /* \"#utility.yul\":57:76   */\n  swap1\n  pop\n    /* \"#utility.yul\":7:82   */\n  swap1\n  jump\t// out\n    /* \"#utility.yul\":88:205   */\ntag_12:\n    /* \"#utility.yul\":197:198   */\n  0x00\n    /* \"#utility.yul\":194:195   */\n  dup1\n    /* \"#utility.yul\":187:199   */\n  revert\n    /* \"#utility.yul\":211:328   */\ntag_13:\n    /* \"#utility.yul\":320:321   */\n  0x00\n    /* \"#utility.yul\":317:318   */\n  dup1\n    /* \"#utility.yul\":310:322   */\n  revert\n    /* \"#utility.yul\":334:451   */\ntag_14:\n    /* \"#utility.yul\":443:444   */\n  0x00\n    /* \"#utility.yul\":440:441   */\n  dup1\n    /* \"#utility.yul\":433:445   */\n  revert\n    /* \"#utility.yul\":457:574   */\ntag_15:\n    /* \"#utility.yul\":566:567   */\n  0x00\n    /* \"#utility.yul\":563:564   */\n  dup1\n    /* \"#utility.yul\":556:568   */\n  revert\n    /* \"#utility.yul\":580:682   */\ntag_16:\n    /* \"#utility.yul\":621:627   */\n  0x00\n    /* \"#utility.yul\":672:674   */\n  0x1f\n    /* \"#utility.yul\":668:675   */\n  not\n    /* \"#utility.yul\":663:665   */\n  0x1f\n    /* \"#utility.yul\":656:661   */\n  dup4\n    /* \"#utility.yul\":652:666   */\n  add\n    /* \"#utility.yul\":648:676   */\n  and\n    /* \"#utility.yul\":638:676   */\n  swap1\n  pop\n    /* \"#utility.yul\":580:682   */\n  swap2\n  swap1\n  pop\n  jump\t// out\n    /* \"#utility.yul\":688:868   */\ntag_17:\n    /* \"#utility.yul\":736:813   */\n  0x4e487b7100000000000000000000000000000000000000000000000000000000\n    /* \"#utility.yul\":733:734   */\n  0x00\n    /* \"#utility.yul\":726:814   */\n  mstore\n    /* \"#utility.yul\":833:837   */\n  0x41\n    /* \"#utility.yul\":830:831   */\n  0x04\n    /* \"#utility.yul\":823:838   */\n  mstore\n    /* \"#utility.yul\":857:861   */\n  0x24\n    /* \"#utility.yul\":854:855   */\n  0x00\n    /* \"#utility.yul\":847:862   */\n  revert\n    /* \"#utility.yul\":874:1155   */\ntag_18:\n    /* \"#utility.yul\":957:984   */\n  tag_58\n    /* \"#utility.yul\":979:983   */\n  dup3\n    /* \"#utility.yul\":957:984   */\n  tag_16\n  jump\t// in\ntag_58:\n    /* \"#utility.yul\":949:955   */\n  dup2\n    /* \"#utility.yul\":945:985   */\n  add\n    /* \"#utility.yul\":1087:1093   */\n  dup2\n    /* \"#utility.yul\":1075:1085   */\n  dup2\n    /* \"#utility.yul\":1072:1094   */\n  lt\n    /* \"#utility.yul\":1051:1069   */\n  0xffffffffffffffff\n    /* \"#utility.yul\":1039:1049   */\n  dup3\n    /* \"#utility.yul\":1036:1070   */\n  gt\n    /* \"#utility.yul\":1033:1095   */\n  or\n    /* \"#utility.yul\":1030:1118   */\n  iszero\n  tag_59\n  jumpi\n    /* \"#utility.yul\":1098:1116   */\n  tag_60\n  tag_17\n  jump\t// in\ntag_60:\n    /* \"#utility.yul\":1030:1118   */\ntag_59:\n    /* \"#utility.yul\":1138:1148   */\n  dup1\n    /* \"#utility.yul\":1134:1136   */\n  0x40\n    /* \"#utility.yul\":1127:1149   */\n  mstore\n    /* \"#utility.yul\":917:1155   */\n  pop\n    /* \"#utility.yul\":874:1155   */\n  pop\n  pop\n  jump\t// out\n    /* \"#utility.yul\":1161:1290   */\ntag_19:\n    /* \"#utility.yul\":1195:1201   */\n  0x00\n    /* \"#utility.yul\":1222:1242   */\n  tag_62\n  tag_11\n  jump\t// in\ntag_62:\n    /* \"#utility.yul\":1212:1242   */\n  swap1\n  pop\n    /* \"#utility.yul\":1251:1284   */\n  tag_63\n    /* \"#utility.yul\":1279:1283   */\n  dup3\n    /* \"#utility.yul\":1271:1277   */\n  dup3\n    /* \"#utility.yul\":1251:1284   */\n  tag_18\n  jump\t// in\ntag_63:\n    /* \"#utility.yul\":1161:1290   */\n  swap2\n  swap1\n  pop\n  jump\t// out\n    /* \"#utility.yul\":1296:1604   */\ntag_20:\n    /* \"#utility.yul\":1358:1362   */\n  0x00\n    /* \"#utility.yul\":1448:1466   */\n  0xffffffffffffffff\n    /* \"#utility.yul\":1440:1446   */\n  dup3\n    /* \"#utility.yul\":1437:1467   */\n  gt\n    /* \"#utility.yul\":1434:1490   */\n  iszero\n  tag_65\n  jumpi\n    /* \"#utility.yul\":1470:1488   */\n  tag_66\n  tag_17\n  jump\t// in\ntag_66:\n    /* \"#utility.yul\":1434:1490   */\ntag_65:\n    /* \"#utility.yul\":1508:1537   */\n  tag_67\n    /* \"#utility.yul\":1530:1536   */\n  dup3\n    /* \"#utility.yul\":1508:1537   */\n  tag_16\n  jump\t// in\ntag_67:\n    /* \"#utility.yul\":1500:1537   */\n  swap1\n  pop\n    /* \"#utility.yul\":1592:1596   */\n  0x20\n    /* \"#utility.yul\":1586:1590   */\n  dup2\n    /* \"#utility.yul\":1582:1597   */\n  add\n    /* \"#utility.yul\":1574:1597   */\n  swap1\n  pop\n    /* \"#utility.yul\":1296:1604   */\n  swap2\n  swap1\n  pop\n  jump\t// out\n    /* \"#utility.yul\":1610:1856   */\ntag_21:\n    /* \"#utility.yul\":1691:1692   */\n  0x00\n    /* \"#utility.yul\":1701:1814   */\ntag_69:\n    /* \"#utility.yul\":1715:1721   */\n  dup4\n    /* \"#utility.yul\":1712:1713   */\n  dup2\n    /* \"#utility.yul\":1709:1722   */\n  lt\n    /* \"#utility.yul\":1701:1814   */\n  iszero\n  tag_71\n  jumpi\n    /* \"#utility.yul\":1800:1801   */\n  dup1\n    /* \"#utility.yul\":1795:1798   */\n  dup3\n    /* \"#utility.yul\":1791:1802   */\n  add\n    /* \"#utility.yul\":1785:1803   */\n  mload\n    /* \"#utility.yul\":1781:1782   */\n  dup2\n    /* \"#utility.yul\":1776:1779   */\n  dup5\n    /* \"#utility.yul\":1772:1783   */\n  add\n    /* \"#utility.yul\":1765:1804   */\n  mstore\n    /* \"#utility.yul\":1737:1739   */\n  0x20\n    /* \"#utility.yul\":1734:1735   */\n  dup2\n    /* \"#utility.yul\":1730:1740   */\n  add\n    /* \"#utility.yul\":1725:1740   */\n  swap1\n  pop\n    /* \"#utility.yul\":1701:1814   */\n  jump(tag_69)\ntag_71:\n    /* \"#utility.yul\":1848:1849   */\n  0x00\n    /* \"#utility.yul\":1839:1845   */\n  dup5\n    /* \"#utility.yul\":1834:1837   */\n  dup5\n    /* \"#utility.yul\":1830:1846   */\n  add\n    /* \"#utility.yul\":1823:1850   */\n  mstore\n    /* \"#utility.yul\":1672:1856   */\n  pop\n    /* \"#utility.yul\":1610:1856   */\n  pop\n  pop\n  pop\n  jump\t// out\n    /* \"#utility.yul\":1862:2296   */\ntag_22:\n    /* \"#utility.yul\":1951:1956   */\n  0x00\n    /* \"#utility.yul\":1976:2042   */\n  tag_73\n    /* \"#utility.yul\":1992:2041   */\n  tag_74\n    /* \"#utility.yul\":2034:2040   */\n  dup5\n    /* \"#utility.yul\":1992:2041   */\n  tag_20\n  jump\t// in\ntag_74:\n    /* \"#utility.yul\":1976:2042   */\n  tag_19\n  jump\t// in\ntag_73:\n    /* \"#utility.yul\":1967:2042   */\n  swap1\n  pop\n    /* \"#utility.yul\":2065:2071   */\n  dup3\n    /* \"#utility.yul\":2058:2063   */\n  dup2\n    /* \"#utility.yul\":2051:2072   */\n  mstore\n    /* \"#utility.yul\":2103:2107   */\n  0x20\n    /* \"#utility.yul\":2096:2101   */\n  dup2\n    /* \"#utility.yul\":2092:2108   */\n  add\n    /* \"#utility.yul\":2141:2144   */\n  dup5\n    /* \"#utility.yul\":2132:2138   */\n  dup5\n    /* \"#utility.yul\":2127:2130   */\n  dup5\n    /* \"#utility.yul\":2123:2139   */\n  add\n    /* \"#utility.yul\":2120:2145   */\n  gt\n    /* \"#utility.yul\":2117:2229   */\n  iszero\n  tag_75\n  jumpi\n    /* \"#utility.yul\":2148:2227   */\n  tag_76\n  tag_15\n  jump\t// in\ntag_76:\n    /* \"#utility.yul\":2117:2229   */\ntag_75:\n    /* \"#utility.yul\":2238:2290   */\n  tag_77\n    /* \"#utility.yul\":2283:2289   */\n  dup5\n    /* \"#utility.yul\":2278:2281   */\n  dup3\n    /* \"#utility.yul\":2273:2276   */\n  dup6\n    /* \"#utility.yul\":2238:2290   */\n  tag_21\n  jump\t// in\ntag_77:\n    /* \"#utility.yul\":1957:2296   */\n  pop\n    /* \"#utility.yul\":1862:2296   */\n  swap4\n  swap3\n  pop\n  pop\n  pop\n  jump\t// out\n    /* \"#utility.yul\":2316:2671   */\ntag_23:\n    /* \"#utility.yul\":2383:2388   */\n  0x00\n    /* \"#utility.yul\":2432:2435   */\n  dup3\n    /* \"#utility.yul\":2425:2429   */\n  0x1f\n    /* \"#utility.yul\":2417:2423   */\n  dup4\n    /* \"#utility.yul\":2413:2430   */\n  add\n    /* \"#utility.yul\":2409:2436   */\n  slt\n    /* \"#utility.yul\":2399:2521   */\n  tag_79\n  jumpi\n    /* \"#utility.yul\":2440:2519   */\n  tag_80\n  tag_14\n  jump\t// in\ntag_80:\n    /* \"#utility.yul\":2399:2521   */\ntag_79:\n    /* \"#utility.yul\":2550:2556   */\n  dup2\n    /* \"#utility.yul\":2544:2557   */\n  mload\n    /* \"#utility.yul\":2575:2665   */\n  tag_81\n    /* \"#utility.yul\":2661:2664   */\n  dup5\n    /* \"#utility.yul\":2653:2659   */\n  dup3\n    /* \"#utility.yul\":2646:2650   */\n  0x20\n    /* \"#utility.yul\":2638:2644   */\n  dup7\n    /* \"#utility.yul\":2634:2651   */\n  add\n    /* \"#utility.yul\":2575:2665   */\n  tag_22\n  jump\t// in\ntag_81:\n    /* \"#utility.yul\":2566:2665   */\n  swap2\n  pop\n    /* \"#utility.yul\":2389:2671   */\n  pop\n    /* \"#utility.yul\":2316:2671   */\n  swap3\n  swap2\n  pop\n  pop\n  jump\t// out\n    /* \"#utility.yul\":2677:2754   */\ntag_24:\n    /* \"#utility.yul\":2714:2721   */\n  0x00\n    /* \"#utility.yul\":2743:2748   */\n  dup2\n    /* \"#utility.yul\":2732:2748   */\n  swap1\n  pop\n    /* \"#utility.yul\":2677:2754   */\n  swap2\n  swap1\n  pop\n  jump\t// out\n    /* \"#utility.yul\":2760:2882   */\ntag_25:\n    /* \"#utility.yul\":2833:2857   */\n  tag_84\n    /* \"#utility.yul\":2851:2856   */\n  dup2\n    /* \"#utility.yul\":2833:2857   */\n  tag_24\n  jump\t// in\ntag_84:\n    /* \"#utility.yul\":2826:2831   */\n  dup2\n    /* \"#utility.yul\":2823:2858   */\n  eq\n    /* \"#utility.yul\":2813:2876   */\n  tag_85\n  jumpi\n    /* \"#utility.yul\":2872:2873   */\n  0x00\n    /* \"#utility.yul\":2869:2870   */\n  dup1\n    /* \"#utility.yul\":2862:2874   */\n  revert\n    /* \"#utility.yul\":2813:2876   */\ntag_85:\n    /* \"#utility.yul\":2760:2882   */\n  pop\n  jump\t// out\n    /* \"#utility.yul\":2888:3031   */\ntag_26:\n    /* \"#utility.yul\":2945:2950   */\n  0x00\n    /* \"#utility.yul\":2976:2982   */\n  dup2\n    /* \"#utility.yul\":2970:2983   */\n  mload\n    /* \"#utility.yul\":2961:2983   */\n  swap1\n  pop\n    /* \"#utility.yul\":2992:3025   */\n  tag_87\n    /* \"#utility.yul\":3019:3024   */\n  dup2\n    /* \"#utility.yul\":2992:3025   */\n  tag_25\n  jump\t// in\ntag_87:\n    /* \"#utility.yul\":2888:3031   */\n  swap3\n  swap2\n  pop\n  pop\n  jump\t// out\n    /* \"#utility.yul\":3037:3163   */\ntag_27:\n    /* \"#utility.yul\":3074:3081   */\n  0x00\n    /* \"#utility.yul\":3114:3156   */\n  0xffffffffffffffffffffffffffffffffffffffff\n    /* \"#utility.yul\":3107:3112   */\n  dup3\n    /* \"#utility.yul\":3103:3157   */\n  and\n    /* \"#utility.yul\":3092:3157   */\n  swap1\n  pop\n    /* \"#utility.yul\":3037:3163   */\n  swap2\n  swap1\n  pop\n  jump\t// out\n    /* \"#utility.yul\":3169:3265   */\ntag_28:\n    /* \"#utility.yul\":3206:3213   */\n  0x00\n    /* \"#utility.yul\":3235:3259   */\n  tag_90\n    /* \"#utility.yul\":3253:3258   */\n  dup3\n    /* \"#utility.yul\":3235:3259   */\n  tag_27\n  jump\t// in\ntag_90:\n    /* \"#utility.yul\":3224:3259   */\n  swap1\n  pop\n    /* \"#utility.yul\":3169:3265   */\n  swap2\n  swap1\n  pop\n  jump\t// out\n    /* \"#utility.yul\":3271:3393   */\ntag_29:\n    /* \"#utility.yul\":3344:3368   */\n  tag_92\n    /* \"#utility.yul\":3362:3367   */\n  dup2\n    /* \"#utility.yul\":3344:3368   */\n  tag_28\n  jump\t// in\ntag_92:\n    /* \"#utility.yul\":3337:3342   */\n  dup2\n    /* \"#utility.yul\":3334:3369   */\n  eq\n    /* \"#utility.yul\":3324:3387   */\n  tag_93\n  jumpi\n    /* \"#utility.yul\":3383:3384   */\n  0x00\n    /* \"#utility.yul\":3380:3381   */\n  dup1\n    /* \"#utility.yul\":3373:3385   */\n  revert\n    /* \"#utility.yul\":3324:3387   */\ntag_93:\n    /* \"#utility.yul\":3271:3393   */\n  pop\n  jump\t// out\n    /* \"#utility.yul\":3399:3542   */\ntag_30:\n    /* \"#utility.yul\":3456:3461   */\n  0x00\n    /* \"#utility.yul\":3487:3493   */\n  dup2\n    /* \"#utility.yul\":3481:3494   */\n  mload\n    /* \"#utility.yul\":3472:3494   */\n  swap1\n  pop\n    /* \"#utility.yul\":3503:3536   */\n  tag_95\n    /* \"#utility.yul\":3530:3535   */\n  dup2\n    /* \"#utility.yul\":3503:3536   */\n  tag_29\n  jump\t// in\ntag_95:\n    /* \"#utility.yul\":3399:3542   */\n  swap3\n  swap2\n  pop\n  pop\n  jump\t// out\n    /* \"#utility.yul\":3548:5044   */\ntag_3:\n    /* \"#utility.yul\":3684:3690   */\n  0x00\n    /* \"#utility.yul\":3692:3698   */\n  dup1\n    /* \"#utility.yul\":3700:3706   */\n  0x00\n    /* \"#utility.yul\":3708:3714   */\n  dup1\n    /* \"#utility.yul\":3716:3722   */\n  0x00\n    /* \"#utility.yul\":3765:3768   */\n  0xa0\n    /* \"#utility.yul\":3753:3762   */\n  dup7\n    /* \"#utility.yul\":3744:3751   */\n  dup9\n    /* \"#utility.yul\":3740:3763   */\n  sub\n    /* \"#utility.yul\":3736:3769   */\n  slt\n    /* \"#utility.yul\":3733:3853   */\n  iszero\n  tag_97\n  jumpi\n    /* \"#utility.yul\":3772:3851   */\n  tag_98\n  tag_12\n  jump\t// in\ntag_98:\n    /* \"#utility.yul\":3733:3853   */\ntag_97:\n    /* \"#utility.yul\":3913:3914   */\n  0x00\n    /* \"#utility.yul\":3902:3911   */\n  dup7\n    /* \"#utility.yul\":3898:3915   */\n  add\n    /* \"#utility.yul\":3892:3916   */\n  mload\n    /* \"#utility.yul\":3943:3961   */\n  0xffffffffffffffff\n    /* \"#utility.yul\":3935:3941   */\n  dup2\n    /* \"#utility.yul\":3932:3962   */\n  gt\n    /* \"#utility.yul\":3929:4046   */\n  iszero\n  tag_99\n  jumpi\n    /* \"#utility.yul\":3965:4044   */\n  tag_100\n  tag_13\n  jump\t// in\ntag_100:\n    /* \"#utility.yul\":3929:4046   */\ntag_99:\n    /* \"#utility.yul\":4070:4144   */\n  tag_101\n    /* \"#utility.yul\":4136:4143   */\n  dup9\n    /* \"#utility.yul\":4127:4133   */\n  dup3\n    /* \"#utility.yul\":4116:4125   */\n  dup10\n    /* \"#utility.yul\":4112:4134   */\n  add\n    /* \"#utility.yul\":4070:4144   */\n  tag_23\n  jump\t// in\ntag_101:\n    /* \"#utility.yul\":4060:4144   */\n  swap6\n  pop\n    /* \"#utility.yul\":3863:4154   */\n  pop\n    /* \"#utility.yul\":4193:4195   */\n  0x20\n    /* \"#utility.yul\":4219:4283   */\n  tag_102\n    /* \"#utility.yul\":4275:4282   */\n  dup9\n    /* \"#utility.yul\":4266:4272   */\n  dup3\n    /* \"#utility.yul\":4255:4264   */\n  dup10\n    /* \"#utility.yul\":4251:4273   */\n  add\n    /* \"#utility.yul\":4219:4283   */\n  tag_26\n  jump\t// in\ntag_102:\n    /* \"#utility.yul\":4209:4283   */\n  swap5\n  pop\n    /* \"#utility.yul\":4164:4293   */\n  pop\n    /* \"#utility.yul\":4353:4355   */\n  0x40\n    /* \"#utility.yul\":4342:4351   */\n  dup7\n    /* \"#utility.yul\":4338:4356   */\n  add\n    /* \"#utility.yul\":4332:4357   */\n  mload\n    /* \"#utility.yul\":4384:4402   */\n  0xffffffffffffffff\n    /* \"#utility.yul\":4376:4382   */\n  dup2\n    /* \"#utility.yul\":4373:4403   */\n  gt\n    /* \"#utility.yul\":4370:4487   */\n  iszero\n  tag_103\n  jumpi\n    /* \"#utility.yul\":4406:4485   */\n  tag_104\n  tag_13\n  jump\t// in\ntag_104:\n    /* \"#utility.yul\":4370:4487   */\ntag_103:\n    /* \"#utility.yul\":4511:4585   */\n  tag_105\n    /* \"#utility.yul\":4577:4584   */\n  dup9\n    /* \"#utility.yul\":4568:4574   */\n  dup3\n    /* \"#utility.yul\":4557:4566   */\n  dup10\n    /* \"#utility.yul\":4553:4575   */\n  add\n    /* \"#utility.yul\":4511:4585   */\n  tag_23\n  jump\t// in\ntag_105:\n    /* \"#utility.yul\":4501:4585   */\n  swap4\n  pop\n    /* \"#utility.yul\":4303:4595   */\n  pop\n    /* \"#utility.yul\":4655:4657   */\n  0x60\n    /* \"#utility.yul\":4644:4653   */\n  dup7\n    /* \"#utility.yul\":4640:4658   */\n  add\n    /* \"#utility.yul\":4634:4659   */\n  mload\n    /* \"#utility.yul\":4686:4704   */\n  0xffffffffffffffff\n    /* \"#utility.yul\":4678:4684   */\n  dup2\n    /* \"#utility.yul\":4675:4705   */\n  gt\n    /* \"#utility.yul\":4672:4789   */\n  iszero\n  tag_106\n  jumpi\n    /* \"#utility.yul\":4708:4787   */\n  tag_107\n  tag_13\n  jump\t// in\ntag_107:\n    /* \"#utility.yul\":4672:4789   */\ntag_106:\n    /* \"#utility.yul\":4813:4887   */\n  tag_108\n    /* \"#utility.yul\":4879:4886   */\n  dup9\n    /* \"#utility.yul\":4870:4876   */\n  dup3\n    /* \"#utility.yul\":4859:4868   */\n  dup10\n    /* \"#utility.yul\":4855:4877   */\n  add\n    /* \"#utility.yul\":4813:4887   */\n  tag_23\n  jump\t// in\ntag_108:\n    /* \"#utility.yul\":4803:4887   */\n  swap3\n  pop\n    /* \"#utility.yul\":4605:4897   */\n  pop\n    /* \"#utility.yul\":4936:4939   */\n  0x80\n    /* \"#utility.yul\":4963:5027   */\n  tag_109\n    /* \"#utility.yul\":5019:5026   */\n  dup9\n    /* \"#utility.yul\":5010:5016   */\n  dup3\n    /* \"#utility.yul\":4999:5008   */\n  dup10\n    /* \"#utility.yul\":4995:5017   */\n  add\n    /* \"#utility.yul\":4963:5027   */\n  tag_30\n  jump\t// in\ntag_109:\n    /* \"#utility.yul\":4953:5027   */\n  swap2\n  pop\n    /* \"#utility.yul\":4907:5037   */\n  pop\n    /* \"#utility.yul\":3548:5044   */\n  swap3\n  swap6\n  pop\n  swap3\n  swap6\n  swap1\n  swap4\n  pop\n  jump\t// out\n    /* \"#utility.yul\":5050:5149   */\ntag_31:\n    /* \"#utility.yul\":5102:5108   */\n  0x00\n    /* \"#utility.yul\":5136:5141   */\n  dup2\n    /* \"#utility.yul\":5130:5142   */\n  mload\n    /* \"#utility.yul\":5120:5142   */\n  swap1\n  pop\n    /* \"#utility.yul\":5050:5149   */\n  swap2\n  swap1\n  pop\n  jump\t// out\n    /* \"#utility.yul\":5155:5335   */\ntag_32:\n    /* \"#utility.yul\":5203:5280   */\n  0x4e487b7100000000000000000000000000000000000000000000000000000000\n    /* \"#utility.yul\":5200:5201   */\n  0x00\n    /* \"#utility.yul\":5193:5281   */\n  mstore\n    /* \"#utility.yul\":5300:5304   */\n  0x22\n    /* \"#utility.yul\":5297:5298   */\n  0x04\n    /* \"#utility.yul\":5290:5305   */\n  mstore\n    /* \"#utility.yul\":5324:5328   */\n  0x24\n    /* \"#utility.yul\":5321:5322   */\n  0x00\n    /* \"#utility.yul\":5314:5329   */\n  revert\n    /* \"#utility.yul\":5341:5661   */\ntag_33:\n    /* \"#utility.yul\":5385:5391   */\n  0x00\n    /* \"#utility.yul\":5422:5423   */\n  0x02\n    /* \"#utility.yul\":5416:5420   */\n  dup3\n    /* \"#utility.yul\":5412:5424   */\n  div\n    /* \"#utility.yul\":5402:5424   */\n  swap1\n  pop\n    /* \"#utility.yul\":5469:5470   */\n  0x01\n    /* \"#utility.yul\":5463:5467   */\n  dup3\n    /* \"#utility.yul\":5459:5471   */\n  and\n    /* \"#utility.yul\":5490:5508   */\n  dup1\n    /* \"#utility.yul\":5480:5561   */\n  tag_113\n  jumpi\n    /* \"#utility.yul\":5546:5550   */\n  0x7f\n    /* \"#utility.yul\":5538:5544   */\n  dup3\n    /* \"#utility.yul\":5534:5551   */\n  and\n    /* \"#utility.yul\":5524:5551   */\n  swap2\n  pop\n    /* \"#utility.yul\":5480:5561   */\ntag_113:\n    /* \"#utility.yul\":5608:5610   */\n  0x20\n    /* \"#utility.yul\":5600:5606   */\n  dup3\n    /* \"#utility.yul\":5597:5611   */\n  lt\n    /* \"#utility.yul\":5577:5595   */\n  dup2\n    /* \"#utility.yul\":5574:5612   */\n  sub\n    /* \"#utility.yul\":5571:5655   */\n  tag_114\n  jumpi\n    /* \"#utility.yul\":5627:5645   */\n  tag_115\n  tag_32\n  jump\t// in\ntag_115:\n    /* \"#utility.yul\":5571:5655   */\ntag_114:\n    /* \"#utility.yul\":5392:5661   */\n  pop\n    /* \"#utility.yul\":5341:5661   */\n  swap2\n  swap1\n  pop\n  jump\t// out\n    /* \"#utility.yul\":5667:5808   */\ntag_34:\n    /* \"#utility.yul\":5716:5720   */\n  0x00\n    /* \"#utility.yul\":5739:5742   */\n  dup2\n    /* \"#utility.yul\":5731:5742   */\n  swap1\n  pop\n    /* \"#utility.yul\":5762:5765   */\n  dup2\n    /* \"#utility.yul\":5759:5760   */\n  0x00\n    /* \"#utility.yul\":5752:5766   */\n  mstore\n    /* \"#utility.yul\":5796:5800   */\n  0x20\n    /* \"#utility.yul\":5793:5794   */\n  0x00\n    /* \"#utility.yul\":5783:5801   */\n  keccak256\n    /* \"#utility.yul\":5775:5801   */\n  swap1\n  pop\n    /* \"#utility.yul\":5667:5808   */\n  swap2\n  swap1\n  pop\n  jump\t// out\n    /* \"#utility.yul\":5814:5907   */\ntag_35:\n    /* \"#utility.yul\":5851:5857   */\n  0x00\n    /* \"#utility.yul\":5898:5900   */\n  0x20\n    /* \"#utility.yul\":5893:5895   */\n  0x1f\n    /* \"#utility.yul\":5886:5891   */\n  dup4\n    /* \"#utility.yul\":5882:5896   */\n  add\n    /* \"#utility.yul\":5878:5901   */\n  div\n    /* \"#utility.yul\":5868:5901   */\n  swap1\n  pop\n    /* \"#utility.yul\":5814:5907   */\n  swap2\n  swap1\n  pop\n  jump\t// out\n    /* \"#utility.yul\":5913:6020   */\ntag_36:\n    /* \"#utility.yul\":5957:5965   */\n  0x00\n    /* \"#utility.yul\":6007:6012   */\n  dup3\n    /* \"#utility.yul\":6001:6005   */\n  dup3\n    /* \"#utility.yul\":5997:6013   */\n  shl\n    /* \"#utility.yul\":5976:6013   */\n  swap1\n  pop\n    /* \"#utility.yul\":5913:6020   */\n  swap3\n  swap2\n  pop\n  pop\n  jump\t// out\n    /* \"#utility.yul\":6026:6419   */\ntag_37:\n    /* \"#utility.yul\":6095:6101   */\n  0x00\n    /* \"#utility.yul\":6145:6146   */\n  0x08\n    /* \"#utility.yul\":6133:6143   */\n  dup4\n    /* \"#utility.yul\":6129:6147   */\n  mul\n    /* \"#utility.yul\":6168:6265   */\n  tag_120\n    /* \"#utility.yul\":6198:6264   */\n  0xffffffffffffffffffffffffffffffffffffffffffffffffffffffffffffffff\n    /* \"#utility.yul\":6187:6196   */\n  dup3\n    /* \"#utility.yul\":6168:6265   */\n  tag_36\n  jump\t// in\ntag_120:\n    /* \"#utility.yul\":6286:6325   */\n  tag_121\n    /* \"#utility.yul\":6316:6324   */\n  dup7\n    /* \"#utility.yul\":6305:6314   */\n  dup4\n    /* \"#utility.yul\":6286:6325   */\n  tag_36\n  jump\t// in\ntag_121:\n    /* \"#utility.yul\":6274:6325   */\n  swap6\n  pop\n    /* \"#utility.yul\":6358:6362   */\n  dup1\n    /* \"#utility.yul\":6354:6363   */\n  not\n    /* \"#utility.yul\":6347:6352   */\n  dup5\n    /* \"#utility.yul\":6343:6364   */\n  and\n    /* \"#utility.yul\":6334:6364   */\n  swap4\n  pop\n    /* \"#utility.yul\":6407:6411   */\n  dup1\n    /* \"#utility.yul\":6397:6405   */\n  dup7\n    /* \"#utility.yul\":6393:6412   */\n  and\n    /* \"#utility.yul\":6386:6391   */\n  dup5\n    /* \"#utility.yul\":6383:6413   */\n  or\n    /* \"#utility.yul\":6373:6413   */\n  swap3\n  pop\n    /* \"#utility.yul\":6102:6419   */\n  pop\n  pop\n    /* \"#utility.yul\":6026:6419   */\n  swap4\n  swap3\n  pop\n  pop\n  pop\n  jump\t// out\n    /* \"#utility.yul\":6425:6485   */\ntag_38:\n    /* \"#utility.yul\":6453:6456   */\n  0x00\n    /* \"#utility.yul\":6474:6479   */\n  dup2\n    /* \"#utility.yul\":6467:6479   */\n  swap1\n  pop\n    /* \"#utility.yul\":6425:6485   */\n  swap2\n  swap1\n  pop\n  jump\t// out\n    /* \"#utility.yul\":6491:6633   */\ntag_39:\n    /* \"#utility.yul\":6541:6550   */\n  0x00\n    /* \"#utility.yul\":6574:6627   */\n  tag_124\n    /* \"#utility.yul\":6592:6626   */\n  tag_125\n    /* \"#utility.yul\":6601:6625   */\n  tag_126\n    /* \"#utility.yul\":6619:6624   */\n  dup5\n    /* \"#utility.yul\":6601:6625   */\n  tag_24\n  jump\t// in\ntag_126:\n    /* \"#utility.yul\":6592:6626   */\n  tag_38\n  jump\t// in\ntag_125:\n    /* \"#utility.yul\":6574:6627   */\n  tag_24\n  jump\t// in\ntag_124:\n    /* \"#utility.yul\":6561:6627   */\n  swap1\n  pop\n    /* \"#utility.yul\":6491:6633   */\n  swap2\n  swap1\n  pop\n  jump\t// out\n    /* \"#utility.yul\":6639:6714   */\ntag_40:\n    /* \"#utility.yul\":6682:6685   */\n  0x00\n    /* \"#utility.yul\":6703:6708   */\n  dup2\n    /* \"#utility.yul\":6696:6708   */\n  swap1\n  pop\n    /* \"#utility.yul\":6639:6714   */\n  swap2\n  swap1\n  pop\n  jump\t// out\n    /* \"#utility.yul\":6720:6989   */\ntag_41:\n    /* \"#utility.yul\":6830:6869   */\n  tag_129\n    /* \"#utility.yul\":6861:6868   */\n  dup4\n    /* \"#utility.yul\":6830:6869   */\n  tag_39\n  jump\t// in\ntag_129:\n    /* \"#utility.yul\":6891:6982   */\n  tag_130\n    /* \"#utility.yul\":6940:6981   */\n  tag_131\n    /* \"#utility.yul\":6964:6980   */\n  dup3\n    /* \"#utility.yul\":6940:6981   */\n  tag_40\n  jump\t// in\ntag_131:\n    /* \"#utility.yul\":6932:6938   */\n  dup5\n    /* \"#utility.yul\":6925:6929   */\n  dup5\n    /* \"#utility.yul\":6919:6930   */\n  sload\n    /* \"#utility.yul\":6891:6982   */\n  tag_37\n  jump\t// in\ntag_130:\n    /* \"#utility.yul\":6885:6889   */\n  dup3\n    /* \"#utility.yul\":6878:6983   */\n  sstore\n    /* \"#utility.yul\":6796:6989   */\n  pop\n    /* \"#utility.yul\":6720:6989   */\n  pop\n  pop\n  pop\n  jump\t// out\n    /* \"#utility.yul\":6995:7068   */\ntag_42:\n    /* \"#utility.yul\":7040:7043   */\n  0x00\n    /* \"#utility.yul\":6995:7068   */\n  swap1\n  jump\t// out\n    /* \"#utility.yul\":7074:7263   */\ntag_43:\n    /* \"#utility.yul\":7151:7183   */\n  tag_134\n  tag_42\n  jump\t// in\ntag_134:\n    /* \"#utility.yul\":7192:7257   */\n  tag_135\n    /* \"#utility.yul\":7250:7256   */\n  dup2\n    /* \"#utility.yul\":7242:7248   */\n  dup5\n    /* \"#utility.yul\":7236:7240   */\n  dup5\n    /* \"#utility.yul\":7192:7257   */\n  tag_41\n  jump\t// in\ntag_135:\n    /* \"#utility.yul\":7127:7263   */\n  pop\n    /* \"#utility.yul\":7074:7263   */\n  pop\n  pop\n  jump\t// out\n    /* \"#utility.yul\":7269:7455   */\ntag_44:\n    /* \"#utility.yul\":7329:7449   */\ntag_137:\n    /* \"#utility.yul\":7346:7349   */\n  dup2\n    /* \"#utility.yul\":7339:7344   */\n  dup2\n    /* \"#utility.yul\":7336:7350   */\n  lt\n    /* \"#utility.yul\":7329:7449   */\n  iszero\n  tag_139\n  jumpi\n    /* \"#utility.yul\":7400:7439   */\n  tag_140\n    /* \"#utility.yul\":7437:7438   */\n  0x00\n    /* \"#utility.yul\":7430:7435   */\n  dup3\n    /* \"#utility.yul\":7400:7439   */\n  tag_43\n  jump\t// in\ntag_140:\n    /* \"#utility.yul\":7373:7374   */\n  0x01\n    /* \"#utility.yul\":7366:7371   */\n  dup2\n    /* \"#utility.yul\":7362:7375   */\n  add\n    /* \"#utility.yul\":7353:7375   */\n  swap1\n  pop\n    /* \"#utility.yul\":7329:7449   */\n  jump(tag_137)\ntag_139:\n    /* \"#utility.yul\":7269:7455   */\n  pop\n  pop\n  jump\t// out\n    /* \"#utility.yul\":7461:8004   */\ntag_45:\n    /* \"#utility.yul\":7562:7564   */\n  0x1f\n    /* \"#utility.yul\":7557:7560   */\n  dup3\n    /* \"#utility.yul\":7554:7565   */\n  gt\n    /* \"#utility.yul\":7551:7997   */\n  iszero\n  tag_142\n  jumpi\n    /* \"#utility.yul\":7596:7634   */\n  tag_143\n    /* \"#utility.yul\":7628:7633   */\n  dup2\n    /* \"#utility.yul\":7596:7634   */\n  tag_34\n  jump\t// in\ntag_143:\n    /* \"#utility.yul\":7680:7709   */\n  tag_144\n    /* \"#utility.yul\":7698:7708   */\n  dup5\n    /* \"#utility.yul\":7680:7709   */\n  tag_35\n  jump\t// in\ntag_144:\n    /* \"#utility.yul\":7670:7678   */\n  dup2\n    /* \"#utility.yul\":7666:7710   */\n  add\n    /* \"#utility.yul\":7863:7865   */\n  0x20\n    /* \"#utility.yul\":7851:7861   */\n  dup6\n    /* \"#utility.yul\":7848:7866   */\n  lt\n    /* \"#utility.yul\":7845:7894   */\n  iszero\n  tag_145\n  jumpi\n    /* \"#utility.yul\":7884:7892   */\n  dup2\n    /* \"#utility.yul\":7869:7892   */\n  swap1\n  pop\n    /* \"#utility.yul\":7845:7894   */\ntag_145:\n    /* \"#utility.yul\":7907:7987   */\n  tag_146\n    /* \"#utility.yul\":7963:7985   */\n  tag_147\n    /* \"#utility.yul\":7981:7984   */\n  dup6\n    /* \"#utility.yul\":7963:7985   */\n  tag_35\n  jump\t// in\ntag_147:\n    /* \"#utility.yul\":7953:7961   */\n  dup4\n    /* \"#utility.yul\":7949:7986   */\n  add\n    /* \"#utility.yul\":7936:7947   */\n  dup3\n    /* \"#utility.yul\":7907:7987   */\n  tag_44\n  jump\t// in\ntag_146:\n    /* \"#utility.yul\":7566:7997   */\n  pop\n  pop\n    /* \"#utility.yul\":7551:7997   */\ntag_142:\n    /* \"#utility.yul\":7461:8004   */\n  pop\n  pop\n  pop\n  jump\t// out\n    /* \"#utility.yul\":8010:8127   */\ntag_46:\n    /* \"#utility.yul\":8064:8072   */\n  0x00\n    /* \"#utility.yul\":8114:8119   */\n  dup3\n    /* \"#utility.yul\":8108:8112   */\n  dup3\n    /* \"#utility.yul\":8104:8120   */\n  shr\n    /* \"#utility.yul\":8083:8120   */\n  swap1\n  pop\n    /* \"#utility.yul\":8010:8127   */\n  swap3\n  swap2\n  pop\n  pop\n  jump\t// out\n    /* \"#utility.yul\":8133:8302   */\ntag_47:\n    /* \"#utility.yul\":8177:8183   */\n  0x00\n    /* \"#utility.yul\":8210:8261   */\n  tag_150\n    /* \"#utility.yul\":8258:8259   */\n  0x00\n    /* \"#utility.yul\":8254:8260   */\n  not\n    /* \"#utility.yul\":8246:8251   */\n  dup5\n    /* \"#utility.yul\":8243:8244   */\n  0x08\n    /* \"#utility.yul\":8239:8252   */\n  mul\n    /* \"#utility.yul\":8210:8261   */\n  tag_46\n  jump\t// in\ntag_150:\n    /* \"#utility.yul\":8206:8262   */\n  not\n    /* \"#utility.yul\":8291:8295   */\n  dup1\n    /* \"#utility.yul\":8285:8289   */\n  dup4\n    /* \"#utility.yul\":8281:8296   */\n  and\n    /* \"#utility.yul\":8271:8296   */\n  swap2\n  pop\n    /* \"#utility.yul\":8184:8302   */\n  pop\n    /* \"#utility.yul\":8133:8302   */\n  swap3\n  swap2\n  pop\n  pop\n  jump\t// out\n    /* \"#utility.yul\":8307:8602   */\ntag_48:\n    /* \"#utility.yul\":8383:8387   */\n  0x00\n    /* \"#utility.yul\":8529:8558   */\n  tag_152\n    /* \"#utility.yul\":8554:8557   */\n  dup4\n    /* \"#utility.yul\":8548:8552   */\n  dup4\n    /* \"#utility.yul\":8529:8558   */\n  tag_47\n  jump\t// in\ntag_152:\n    /* \"#utility.yul\":8521:8558   */\n  swap2\n  pop\n    /* \"#utility.yul\":8591:8594   */\n  dup3\n    /* \"#utility.yul\":8588:8589   */\n  0x02\n    /* \"#utility.yul\":8584:8595   */\n  mul\n    /* \"#utility.yul\":8578:8582   */\n  dup3\n    /* \"#utility.yul\":8575:8596   */\n  or\n    /* \"#utility.yul\":8567:8596   */\n  swap1\n  pop\n    /* \"#utility.yul\":8307:8602   */\n  swap3\n  swap2\n  pop\n  pop\n  jump\t// out\n    /* \"#utility.yul\":8607:10002   */\ntag_7:\n    /* \"#utility.yul\":8724:8761   */\n  tag_154\n    /* \"#utility.yul\":8757:8760   */\n  dup3\n    /* \"#utility.yul\":8724:8761   */\n  tag_31\n  jump\t// in\ntag_154:\n    /* \"#utility.yul\":8826:8844   */\n  0xffffffffffffffff\n    /* \"#utility.yul\":8818:8824   */\n  dup2\n    /* \"#utility.yul\":8815:8845   */\n  gt\n    /* \"#utility.yul\":8812:8868   */\n  iszero\n  tag_155\n  jumpi\n    /* \"#utility.yul\":8848:8866   */\n  tag_156\n  tag_17\n  jump\t// in\ntag_156:\n    /* \"#utility.yul\":8812:8868   */\ntag_155:\n    /* \"#utility.yul\":8892:8930   */\n  tag_157\n    /* \"#utility.yul\":8924:8928   */\n  dup3\n    /* \"#utility.yul\":8918:8929   */\n  sload\n    /* \"#utility.yul\":8892:8930   */\n  tag_33\n  jump\t// in\ntag_157:\n    /* \"#utility.yul\":8977:9044   */\n  tag_158\n    /* \"#utility.yul\":9037:9043   */\n  dup3\n    /* \"#utility.yul\":9029:9035   */\n  dup3\n    /* \"#utility.yul\":9023:9027   */\n  dup6\n    /* \"#utility.yul\":8977:9044   */\n  tag_45\n  jump\t// in\ntag_158:\n    /* \"#utility.yul\":9071:9072   */\n  0x00\n    /* \"#utility.yul\":9095:9099   */\n  0x20\n    /* \"#utility.yul\":9082:9099   */\n  swap1\n  pop\n    /* \"#utility.yul\":9127:9129   */\n  0x1f\n    /* \"#utility.yul\":9119:9125   */\n  dup4\n    /* \"#utility.yul\":9116:9130   */\n  gt\n    /* \"#utility.yul\":9144:9145   */\n  0x01\n    /* \"#utility.yul\":9139:9757   */\n  dup2\n  eq\n  tag_160\n  jumpi\n    /* \"#utility.yul\":9801:9802   */\n  0x00\n    /* \"#utility.yul\":9818:9824   */\n  dup5\n    /* \"#utility.yul\":9815:9892   */\n  iszero\n  tag_161\n  jumpi\n    /* \"#utility.yul\":9867:9876   */\n  dup3\n    /* \"#utility.yul\":9862:9865   */\n  dup8\n    /* \"#utility.yul\":9858:9877   */\n  add\n    /* \"#utility.yul\":9852:9878   */\n  mload\n    /* \"#utility.yul\":9843:9878   */\n  swap1\n  pop\n    /* \"#utility.yul\":9815:9892   */\ntag_161:\n    /* \"#utility.yul\":9918:9985   */\n  tag_162\n    /* \"#utility.yul\":9978:9984   */\n  dup6\n    /* \"#utility.yul\":9971:9976   */\n  dup3\n    /* \"#utility.yul\":9918:9985   */\n  tag_48\n  jump\t// in\ntag_162:\n    /* \"#utility.yul\":9912:9916   */\n  dup7\n    /* \"#utility.yul\":9905:9986   */\n  sstore\n    /* \"#utility.yul\":9774:9996   */\n  pop\n    /* \"#utility.yul\":9109:9996   */\n  jump(tag_159)\n    /* \"#utility.yul\":9139:9757   */\ntag_160:\n    /* \"#utility.yul\":9191:9195   */\n  0x1f\n    /* \"#utility.yul\":9187:9196   */\n  not\n    /* \"#utility.yul\":9179:9185   */\n  dup5\n    /* \"#utility.yul\":9175:9197   */\n  and\n    /* \"#utility.yul\":9225:9262   */\n  tag_163\n    /* \"#utility.yul\":9257:9261   */\n  dup7\n    /* \"#utility.yul\":9225:9262   */\n  tag_34\n  jump\t// in\ntag_163:\n    /* \"#utility.yul\":9284:9285   */\n  0x00\n    /* \"#utility.yul\":9298:9506   */\ntag_164:\n    /* \"#utility.yul\":9312:9319   */\n  dup3\n    /* \"#utility.yul\":9309:9310   */\n  dup2\n    /* \"#utility.yul\":9306:9320   */\n  lt\n    /* \"#utility.yul\":9298:9506   */\n  iszero\n  tag_166\n  jumpi\n    /* \"#utility.yul\":9391:9400   */\n  dup5\n    /* \"#utility.yul\":9386:9389   */\n  dup10\n    /* \"#utility.yul\":9382:9401   */\n  add\n    /* \"#utility.yul\":9376:9402   */\n  mload\n    /* \"#utility.yul\":9368:9374   */\n  dup3\n    /* \"#utility.yul\":9361:9403   */\n  sstore\n    /* \"#utility.yul\":9442:9443   */\n  0x01\n    /* \"#utility.yul\":9434:9440   */\n  dup3\n    /* \"#utility.yul\":9430:9444   */\n  add\n    /* \"#utility.yul\":9420:9444   */\n  swap2\n  pop\n    /* \"#utility.yul\":9489:9491   */\n  0x20\n    /* \"#utility.yul\":9478:9487   */\n  dup6\n    /* \"#utility.yul\":9474:9492   */\n  add\n    /* \"#utility.yul\":9461:9492   */\n  swap5\n  pop\n    /* \"#utility.yul\":9335:9339   */\n  0x20\n    /* \"#utility.yul\":9332:9333   */\n  dup2\n    /* \"#utility.yul\":9328:9340   */\n  add\n    /* \"#utility.yul\":9323:9340   */\n  swap1\n  pop\n    /* \"#utility.yul\":9298:9506   */\n  jump(tag_164)\ntag_166:\n    /* \"#utility.yul\":9534:9540   */\n  dup7\n    /* \"#utility.yul\":9525:9532   */\n  dup4\n    /* \"#utility.yul\":9522:9541   */\n  lt\n    /* \"#utility.yul\":9519:9698   */\n  iszero\n  tag_167\n  jumpi\n    /* \"#utility.yul\":9592:9601   */\n  dup5\n    /* \"#utility.yul\":9587:9590   */\n  dup10\n    /* \"#utility.yul\":9583:9602   */\n  add\n    /* \"#utility.yul\":9577:9603   */\n  mload\n    /* \"#utility.yul\":9635:9683   */\n  tag_168\n    /* \"#utility.yul\":9677:9681   */\n  0x1f\n    /* \"#utility.yul\":9669:9675   */\n  dup10\n    /* \"#utility.yul\":9665:9682   */\n  and\n    /* \"#utility.yul\":9654:9663   */\n  dup3\n    /* \"#utility.yul\":9635:9683   */\n  tag_47\n  jump\t// in\ntag_168:\n    /* \"#utility.yul\":9627:9633   */\n  dup4\n    /* \"#utility.yul\":9620:9684   */\n  sstore\n    /* \"#utility.yul\":9542:9698   */\n  pop\n    /* \"#utility.yul\":9519:9698   */\ntag_167:\n    /* \"#utility.yul\":9744:9745   */\n  0x01\n    /* \"#utility.yul\":9740:9741   */\n  0x02\n    /* \"#utility.yul\":9732:9738   */\n  dup9\n    /* \"#utility.yul\":9728:9742   */\n  mul\n    /* \"#utility.yul\":9724:9746   */\n  add\n    /* \"#utility.yul\":9718:9722   */\n  dup9\n    /* \"#utility.yul\":9711:9747   */\n  sstore\n    /* \"#utility.yul\":9146:9757   */\n  pop\n  pop\n  pop\n    /* \"#utility.yul\":9109:9996   */\ntag_159:\n  pop\n    /* \"#utility.yul\":8699:10002   */\n  pop\n  pop\n  pop\n    /* \"#utility.yul\":8607:10002   */\n  pop\n  pop\n  jump\t// out\n    /* \"Campaign.sol\":1462:2410  contract Campaign {... */\ntag_10:\n  dataSize(sub_0)\n  dup1\n  dataOffset(sub_0)\n  0x00\n  codecopy\n  0x00\n  return\nstop\n\nsub_0: assembly {\n        /* \"Campaign.sol\":1462:2410  contract Campaign {... */\n      mstore(0x40, 0x80)\n      jumpi(tag_1, lt(calldatasize, 0x04))\n      shr(0xe0, calldataload(0x00))\n      dup1\n      0x8da5cb5b\n      gt\n      tag_9\n      jumpi\n      dup1\n      0x8da5cb5b\n      eq\n      tag_5\n      jumpi\n      dup1\n      0x9632e720\n      eq\n      tag_6\n      jumpi\n      dup1\n      0xed88c68e\n      eq\n      tag_7\n      jumpi\n      dup1\n      0xf3ccaac0\n      eq\n      tag_8\n      jumpi\n      jump(tag_1)\n    tag_9:\n      dup1\n      0x46c922d1\n      eq\n      tag_2\n      jumpi\n      dup1\n      0x48b9ef40\n      eq\n      tag_3\n      jumpi\n      dup1\n      0x4a79d50c\n      eq\n      tag_4\n      jumpi\n    tag_1:\n      0x00\n      dup1\n      revert\n        /* \"Campaign.sol\":1572:1591  string public story */\n    tag_2:\n      callvalue\n      dup1\n      iszero\n      tag_10\n      jumpi\n      0x00\n      dup1\n      revert\n    tag_10:\n      pop\n      tag_11\n      tag_12\n      jump\t// in\n    tag_11:\n      mload(0x40)\n      tag_13\n      swap2\n      swap1\n      tag_14\n      jump\t// in\n    tag_13:\n      mload(0x40)\n      dup1\n      swap2\n      sub\n      swap1\n      return\n        /* \"Campaign.sol\":1513:1539  uint public requiredAmount */\n    tag_3:\n      callvalue\n      dup1\n      iszero\n      tag_15\n      jumpi\n      0x00\n      dup1\n      revert\n    tag_15:\n      pop\n      tag_16\n      tag_17\n      jump\t// in\n    tag_16:\n      mload(0x40)\n      tag_18\n      swap2\n      swap1\n      tag_19\n      jump\t// in\n    tag_18:\n      mload(0x40)\n      dup1\n      swap2\n      sub\n      swap1\n      return\n        /* \"Campaign.sol\":1487:1506  string public title */\n    tag_4:\n      callvalue\n      dup1\n      iszero\n      tag_20\n      jumpi\n      0x00\n      dup1\n      revert\n    tag_20:\n      pop\n      tag_21\n      tag_22\n      jump\t// in\n    tag_21:\n      mload(0x40)\n      tag_23\n      swap2\n      swap1\n      tag_14\n      jump\t// in\n    tag_23:\n      mload(0x40)\n      dup1\n      swap2\n      sub\n      swap1\n      return\n        /* \"Campaign.sol\":1598:1626  address payable public owner */\n    tag_5:\n      callvalue\n      dup1\n      iszero\n      tag_24\n      jumpi\n      0x00\n      dup1\n      revert\n    tag_24:\n      pop\n      tag_25\n      tag_26\n      jump\t// in\n    tag_25:\n      mload(0x40)\n      tag_27\n      swap2\n      swap1\n      tag_28\n      jump\t// in\n    tag_27:\n      mload(0x40)\n      dup1\n      swap2\n      sub\n      swap1\n      return\n        /* \"Campaign.sol\":1633:1659  uint public receivedAmount */\n    tag_6:\n      callvalue\n      dup1\n      iszero\n      tag_29\n      jumpi\n      0x00\n      dup1\n      revert\n    tag_29:\n      pop\n      tag_30\n      tag_31\n      jump\t// in\n    tag_30:\n      mload(0x40)\n      tag_32\n      swap2\n      swap1\n      tag_19\n      jump\t// in\n    tag_32:\n      mload(0x40)\n      dup1\n      swap2\n      sub\n      swap1\n      return\n        /* \"Campaign.sol\":2145:2407  function donate() public payable {... */\n    tag_7:\n      tag_33\n      tag_34\n      jump\t// in\n    tag_33:\n      stop\n        /* \"Campaign.sol\":1546:1565  string public image */\n    tag_8:\n      callvalue\n      dup1\n      iszero\n      tag_35\n      jumpi\n      0x00\n      dup1\n      revert\n    tag_35:\n      pop\n      tag_36\n      tag_37\n      jump\t// in\n    tag_36:\n      mload(0x40)\n      tag_38\n      swap2\n      swap1\n      tag_14\n      jump\t// in\n    tag_38:\n      mload(0x40)\n      dup1\n      swap2\n      sub\n      swap1\n      return\n        /* \"Campaign.sol\":1572:1591  string public story */\n    tag_12:\n      0x03\n      dup1\n      sload\n      tag_39\n      swap1\n      tag_40\n      jump\t// in\n    tag_39:\n      dup1\n      0x1f\n      add\n      0x20\n      dup1\n      swap2\n      div\n      mul\n      0x20\n      add\n      mload(0x40)\n      swap1\n      dup2\n      add\n      0x40\n      mstore\n      dup1\n      swap3\n      swap2\n      swap1\n      dup2\n      dup2\n      mstore\n      0x20\n      add\n      dup3\n      dup1\n      sload\n      tag_41\n      swap1\n      tag_40\n      jump\t// in\n    tag_41:\n      dup1\n      iszero\n      tag_42\n      jumpi\n      dup1\n      0x1f\n      lt\n      tag_43\n      jumpi\n      0x0100\n      dup1\n      dup4\n      sload\n      div\n      mul\n      dup4\n      mstore\n      swap2\n      0x20\n      add\n      swap2\n      jump(tag_42)\n    tag_43:\n      dup3\n      add\n      swap2\n      swap1\n      0x00\n      mstore\n      keccak256(0x00, 0x20)\n      swap1\n    tag_44:\n      dup2\n      sload\n      dup2\n      mstore\n      swap1\n      0x01\n      add\n      swap1\n      0x20\n      add\n      dup1\n      dup4\n      gt\n      tag_44\n      jumpi\n      dup3\n      swap1\n      sub\n      0x1f\n      and\n      dup3\n      add\n      swap2\n    tag_42:\n      pop\n      pop\n      pop\n      pop\n      pop\n      dup2\n      jump\t// out\n        /* \"Campaign.sol\":1513:1539  uint public requiredAmount */\n    tag_17:\n      sload(0x01)\n      dup2\n      jump\t// out\n        /* \"Campaign.sol\":1487:1506  string public title */\n    tag_22:\n      0x00\n      dup1\n      sload\n      tag_45\n      swap1\n      tag_40\n      jump\t// in\n    tag_45:\n      dup1\n      0x1f\n      add\n      0x20\n      dup1\n      swap2\n      div\n      mul\n      0x20\n      add\n      mload(0x40)\n      swap1\n      dup2\n      add\n      0x40\n      mstore\n      dup1\n      swap3\n      swap2\n      swap1\n      dup2\n      dup2\n      mstore\n      0x20\n      add\n      dup3\n      dup1\n      sload\n      tag_46\n      swap1\n      tag_40\n      jump\t// in\n    tag_46:\n      dup1\n      iszero\n      tag_47\n      jumpi\n      dup1\n      0x1f\n      lt\n      tag_48\n      jumpi\n      0x0100\n      dup1\n      dup4\n      sload\n      div\n      mul\n      dup4\n      mstore\n      swap2\n      0x20\n      add\n      swap2\n      jump(tag_47)\n    tag_48:\n      dup3\n      add\n      swap2\n      swap1\n      0x00\n      mstore\n      keccak256(0x00, 0x20)\n      swap1\n    tag_49:\n      dup2\n      sload\n      dup2\n      mstore\n      swap1\n      0x01\n      add\n      swap1\n      0x20\n      add\n      dup1\n      dup4\n      gt\n      tag_49\n      jumpi\n      dup3\n      swap1\n      sub\n      0x1f\n      and\n      dup3\n      add\n      swap2\n    tag_47:\n      pop\n      pop\n      pop\n      pop\n      pop\n      dup2\n      jump\t// out\n        /* \"Campaign.sol\":1598:1626  address payable public owner */\n    tag_26:\n      0x04\n      0x00\n      swap1\n      sload\n      swap1\n      0x0100\n      exp\n      swap1\n      div\n      0xffffffffffffffffffffffffffffffffffffffff\n      and\n      dup2\n      jump\t// out\n        /* \"Campaign.sol\":1633:1659  uint public receivedAmount */\n    tag_31:\n      sload(0x05)\n      dup2\n      jump\t// out\n        /* \"Campaign.sol\":2145:2407  function donate() public payable {... */\n    tag_34:\n        /* \"Campaign.sol\":2214:2228  receivedAmount */\n      sload(0x05)\n        /* \"Campaign.sol\":2197:2211  requiredAmount */\n      sload(0x01)\n        /* \"Campaign.sol\":2197:2228  requiredAmount > receivedAmount */\n      gt\n        /* \"Campaign.sol\":2189:2259  require(requiredAmount > receivedAmount, \"required amount fullfilled\") */\n      tag_51\n      jumpi\n      mload(0x40)\n      0x08c379a000000000000000000000000000000000000000000000000000000000\n      dup2\n      mstore\n      0x04\n      add\n      tag_52\n      swap1\n      tag_53\n      jump\t// in\n    tag_52:\n      mload(0x40)\n      dup1\n      swap2\n      sub\n      swap1\n      revert\n    tag_51:\n        /* \"Campaign.sol\":2270:2275  owner */\n      0x04\n      0x00\n      swap1\n      sload\n      swap1\n      0x0100\n      exp\n      swap1\n      div\n      0xffffffffffffffffffffffffffffffffffffffff\n      and\n        /* \"Campaign.sol\":2270:2284  owner.transfer */\n      0xffffffffffffffffffffffffffffffffffffffff\n      and\n        /* \"Campaign.sol\":2270:2295  owner.transfer(msg.value) */\n      0x08fc\n        /* \"Campaign.sol\":2285:2294  msg.value */\n      callvalue\n        /* \"Campaign.sol\":2270:2295  owner.transfer(msg.value) */\n      swap1\n      dup2\n      iszero\n      mul\n      swap1\n      mload(0x40)\n      0x00\n      mload(0x40)\n      dup1\n      dup4\n      sub\n      dup2\n      dup6\n      dup9\n      dup9\n      call\n      swap4\n      pop\n      pop\n      pop\n      pop\n      iszero\n      dup1\n      iszero\n      tag_55\n      jumpi\n      returndatasize\n      0x00\n      dup1\n      returndatacopy\n      revert(0x00, returndatasize)\n    tag_55:\n      pop\n        /* \"Campaign.sol\":2324:2333  msg.value */\n      callvalue\n        /* \"Campaign.sol\":2306:2320  receivedAmount */\n      0x05\n      0x00\n        /* \"Campaign.sol\":2306:2333  receivedAmount += msg.value */\n      dup3\n      dup3\n      sload\n      tag_56\n      swap2\n      swap1\n      tag_57\n      jump\t// in\n    tag_56:\n      swap3\n      pop\n      pop\n      dup2\n      swap1\n      sstore\n      pop\n        /* \"Campaign.sol\":2145:2407  function donate() public payable {... */\n      jump\t// out\n        /* \"Campaign.sol\":1546:1565  string public image */\n    tag_37:\n      0x02\n      dup1\n      sload\n      tag_58\n      swap1\n      tag_40\n      jump\t// in\n    tag_58:\n      dup1\n      0x1f\n      add\n      0x20\n      dup1\n      swap2\n      div\n      mul\n      0x20\n      add\n      mload(0x40)\n      swap1\n      dup2\n      add\n      0x40\n      mstore\n      dup1\n      swap3\n      swap2\n      swap1\n      dup2\n      dup2\n      mstore\n      0x20\n      add\n      dup3\n      dup1\n      sload\n      tag_59\n      swap1\n      tag_40\n      jump\t// in\n    tag_59:\n      dup1\n      iszero\n      tag_60\n      jumpi\n      dup1\n      0x1f\n      lt\n      tag_61\n      jumpi\n      0x0100\n      dup1\n      dup4\n      sload\n      div\n      mul\n      dup4\n      mstore\n      swap2\n      0x20\n      add\n      swap2\n      jump(tag_60)\n    tag_61:\n      dup3\n      add\n      swap2\n      swap1\n      0x00\n      mstore\n      keccak256(0x00, 0x20)\n      swap1\n    tag_62:\n      dup2\n      sload\n      dup2\n      mstore\n      swap1\n      0x01\n      add\n      swap1\n      0x20\n      add\n      dup1\n      dup4\n      gt\n      tag_62\n      jumpi\n      dup3\n      swap1\n      sub\n      0x1f\n      and\n      dup3\n      add\n      swap2\n    tag_60:\n      pop\n      pop\n      pop\n      pop\n      pop\n      dup2\n      jump\t// out\n        /* \"#utility.yul\":7:106   */\n    tag_63:\n        /* \"#utility.yul\":59:65   */\n      0x00\n        /* \"#utility.yul\":93:98   */\n      dup2\n        /* \"#utility.yul\":87:99   */\n      mload\n        /* \"#utility.yul\":77:99   */\n      swap1\n      pop\n        /* \"#utility.yul\":7:106   */\n      swap2\n      swap1\n      pop\n      jump\t// out\n        /* \"#utility.yul\":112:281   */\n    tag_64:\n        /* \"#utility.yul\":196:207   */\n      0x00\n        /* \"#utility.yul\":230:236   */\n      dup3\n        /* \"#utility.yul\":225:228   */\n      dup3\n        /* \"#utility.yul\":218:237   */\n      mstore\n        /* \"#utility.yul\":270:274   */\n      0x20\n        /* \"#utility.yul\":265:268   */\n      dup3\n        /* \"#utility.yul\":261:275   */\n      add\n        /* \"#utility.yul\":246:275   */\n      swap1\n      pop\n        /* \"#utility.yul\":112:281   */\n      swap3\n      swap2\n      pop\n      pop\n      jump\t// out\n        /* \"#utility.yul\":287:533   */\n    tag_65:\n        /* \"#utility.yul\":368:369   */\n      0x00\n        /* \"#utility.yul\":378:491   */\n    tag_81:\n        /* \"#utility.yul\":392:398   */\n      dup4\n        /* \"#utility.yul\":389:390   */\n      dup2\n        /* \"#utility.yul\":386:399   */\n      lt\n        /* \"#utility.yul\":378:491   */\n      iszero\n      tag_83\n      jumpi\n        /* \"#utility.yul\":477:478   */\n      dup1\n        /* \"#utility.yul\":472:475   */\n      dup3\n        /* \"#utility.yul\":468:479   */\n      add\n        /* \"#utility.yul\":462:480   */\n      mload\n        /* \"#utility.yul\":458:459   */\n      dup2\n        /* \"#utility.yul\":453:456   */\n      dup5\n        /* \"#utility.yul\":449:460   */\n      add\n        /* \"#utility.yul\":442:481   */\n      mstore\n        /* \"#utility.yul\":414:416   */\n      0x20\n        /* \"#utility.yul\":411:412   */\n      dup2\n        /* \"#utility.yul\":407:417   */\n      add\n        /* \"#utility.yul\":402:417   */\n      swap1\n      pop\n        /* \"#utility.yul\":378:491   */\n      jump(tag_81)\n    tag_83:\n        /* \"#utility.yul\":525:526   */\n      0x00\n        /* \"#utility.yul\":516:522   */\n      dup5\n        /* \"#utility.yul\":511:514   */\n      dup5\n        /* \"#utility.yul\":507:523   */\n      add\n        /* \"#utility.yul\":500:527   */\n      mstore\n        /* \"#utility.yul\":349:533   */\n      pop\n        /* \"#utility.yul\":287:533   */\n      pop\n      pop\n      pop\n      jump\t// out\n        /* \"#utility.yul\":539:641   */\n    tag_66:\n        /* \"#utility.yul\":580:586   */\n      0x00\n        /* \"#utility.yul\":631:633   */\n      0x1f\n        /* \"#utility.yul\":627:634   */\n      not\n        /* \"#utility.yul\":622:624   */\n      0x1f\n        /* \"#utility.yul\":615:620   */\n      dup4\n        /* \"#utility.yul\":611:625   */\n      add\n        /* \"#utility.yul\":607:635   */\n      and\n        /* \"#utility.yul\":597:635   */\n      swap1\n      pop\n        /* \"#utility.yul\":539:641   */\n      swap2\n      swap1\n      pop\n      jump\t// out\n        /* \"#utility.yul\":647:1024   */\n    tag_67:\n        /* \"#utility.yul\":735:738   */\n      0x00\n        /* \"#utility.yul\":763:802   */\n      tag_86\n        /* \"#utility.yul\":796:801   */\n      dup3\n        /* \"#utility.yul\":763:802   */\n      tag_63\n      jump\t// in\n    tag_86:\n        /* \"#utility.yul\":818:889   */\n      tag_87\n        /* \"#utility.yul\":882:888   */\n      dup2\n        /* \"#utility.yul\":877:880   */\n      dup6\n        /* \"#utility.yul\":818:889   */\n      tag_64\n      jump\t// in\n    tag_87:\n        /* \"#utility.yul\":811:889   */\n      swap4\n      pop\n        /* \"#utility.yul\":898:963   */\n      tag_88\n        /* \"#utility.yul\":956:962   */\n      dup2\n        /* \"#utility.yul\":951:954   */\n      dup6\n        /* \"#utility.yul\":944:948   */\n      0x20\n        /* \"#utility.yul\":937:942   */\n      dup7\n        /* \"#utility.yul\":933:949   */\n      add\n        /* \"#utility.yul\":898:963   */\n      tag_65\n      jump\t// in\n    tag_88:\n        /* \"#utility.yul\":988:1017   */\n      tag_89\n        /* \"#utility.yul\":1010:1016   */\n      dup2\n        /* \"#utility.yul\":988:1017   */\n      tag_66\n      jump\t// in\n    tag_89:\n        /* \"#utility.yul\":983:986   */\n      dup5\n        /* \"#utility.yul\":979:1018   */\n      add\n        /* \"#utility.yul\":972:1018   */\n      swap2\n      pop\n        /* \"#utility.yul\":739:1024   */\n      pop\n        /* \"#utility.yul\":647:1024   */\n      swap3\n      swap2\n      pop\n      pop\n      jump\t// out\n        /* \"#utility.yul\":1030:1343   */\n    tag_14:\n        /* \"#utility.yul\":1143:1147   */\n      0x00\n        /* \"#utility.yul\":1181:1183   */\n      0x20\n        /* \"#utility.yul\":1170:1179   */\n      dup3\n        /* \"#utility.yul\":1166:1184   */\n      add\n        /* \"#utility.yul\":1158:1184   */\n      swap1\n      pop\n        /* \"#utility.yul\":1230:1239   */\n      dup2\n        /* \"#utility.yul\":1224:1228   */\n      dup2\n        /* \"#utility.yul\":1220:1240   */\n      sub\n        /* \"#utility.yul\":1216:1217   */\n      0x00\n        /* \"#utility.yul\":1205:1214   */\n      dup4\n        /* \"#utility.yul\":1201:1218   */\n      add\n        /* \"#utility.yul\":1194:1241   */\n      mstore\n        /* \"#utility.yul\":1258:1336   */\n      tag_91\n        /* \"#utility.yul\":1331:1335   */\n      dup2\n        /* \"#utility.yul\":1322:1328   */\n      dup5\n        /* \"#utility.yul\":1258:1336   */\n      tag_67\n      jump\t// in\n    tag_91:\n        /* \"#utility.yul\":1250:1336   */\n      swap1\n      pop\n        /* \"#utility.yul\":1030:1343   */\n      swap3\n      swap2\n      pop\n      pop\n      jump\t// out\n        /* \"#utility.yul\":1349:1426   */\n    tag_68:\n        /* \"#utility.yul\":1386:1393   */\n      0x00\n        /* \"#utility.yul\":1415:1420   */\n      dup2\n        /* \"#utility.yul\":1404:1420   */\n      swap1\n      pop\n        /* \"#utility.yul\":1349:1426   */\n      swap2\n      swap1\n      pop\n      jump\t// out\n        /* \"#utility.yul\":1432:1550   */\n    tag_69:\n        /* \"#utility.yul\":1519:1543   */\n      tag_94\n        /* \"#utility.yul\":1537:1542   */\n      dup2\n        /* \"#utility.yul\":1519:1543   */\n      tag_68\n      jump\t// in\n    tag_94:\n        /* \"#utility.yul\":1514:1517   */\n      dup3\n        /* \"#utility.yul\":1507:1544   */\n      mstore\n        /* \"#utility.yul\":1432:1550   */\n      pop\n      pop\n      jump\t// out\n        /* \"#utility.yul\":1556:1778   */\n    tag_19:\n        /* \"#utility.yul\":1649:1653   */\n      0x00\n        /* \"#utility.yul\":1687:1689   */\n      0x20\n        /* \"#utility.yul\":1676:1685   */\n      dup3\n        /* \"#utility.yul\":1672:1690   */\n      add\n        /* \"#utility.yul\":1664:1690   */\n      swap1\n      pop\n        /* \"#utility.yul\":1700:1771   */\n      tag_96\n        /* \"#utility.yul\":1768:1769   */\n      0x00\n        /* \"#utility.yul\":1757:1766   */\n      dup4\n        /* \"#utility.yul\":1753:1770   */\n      add\n        /* \"#utility.yul\":1744:1750   */\n      dup5\n        /* \"#utility.yul\":1700:1771   */\n      tag_69\n      jump\t// in\n    tag_96:\n        /* \"#utility.yul\":1556:1778   */\n      swap3\n      swap2\n      pop\n      pop\n      jump\t// out\n        /* \"#utility.yul\":1784:1910   */\n    tag_70:\n        /* \"#utility.yul\":1821:1828   */\n      0x00\n        /* \"#utility.yul\":1861:1903   */\n      0xffffffffffffffffffffffffffffffffffffffff\n        /* \"#utility.yul\":1854:1859   */\n      dup3\n        /* \"#utility.yul\":1850:1904   */\n      and\n        /* \"#utility.yul\":1839:1904   */\n      swap1\n      pop\n        /* \"#utility.yul\":1784:1910   */\n      swap2\n      swap1\n      pop\n      jump\t// out\n        /* \"#utility.yul\":1916:2020   */\n    tag_71:\n        /* \"#utility.yul\":1961:1968   */\n      0x00\n        /* \"#utility.yul\":1990:2014   */\n      tag_99\n        /* \"#utility.yul\":2008:2013   */\n      dup3\n        /* \"#utility.yul\":1990:2014   */\n      tag_70\n      jump\t// in\n    tag_99:\n        /* \"#utility.yul\":1979:2014   */\n      swap1\n      pop\n        /* \"#utility.yul\":1916:2020   */\n      swap2\n      swap1\n      pop\n      jump\t// out\n        /* \"#utility.yul\":2026:2168   */\n    tag_72:\n        /* \"#utility.yul\":2129:2161   */\n      tag_101\n        /* \"#utility.yul\":2155:2160   */\n      dup2\n        /* \"#utility.yul\":2129:2161   */\n      tag_71\n      jump\t// in\n    tag_101:\n        /* \"#utility.yul\":2124:2127   */\n      dup3\n        /* \"#utility.yul\":2117:2162   */\n      mstore\n        /* \"#utility.yul\":2026:2168   */\n      pop\n      pop\n      jump\t// out\n        /* \"#utility.yul\":2174:2428   */\n    tag_28:\n        /* \"#utility.yul\":2283:2287   */\n      0x00\n        /* \"#utility.yul\":2321:2323   */\n      0x20\n        /* \"#utility.yul\":2310:2319   */\n      dup3\n        /* \"#utility.yul\":2306:2324   */\n      add\n        /* \"#utility.yul\":2298:2324   */\n      swap1\n      pop\n        /* \"#utility.yul\":2334:2421   */\n      tag_103\n        /* \"#utility.yul\":2418:2419   */\n      0x00\n        /* \"#utility.yul\":2407:2416   */\n      dup4\n        /* \"#utility.yul\":2403:2420   */\n      add\n        /* \"#utility.yul\":2394:2400   */\n      dup5\n        /* \"#utility.yul\":2334:2421   */\n      tag_72\n      jump\t// in\n    tag_103:\n        /* \"#utility.yul\":2174:2428   */\n      swap3\n      swap2\n      pop\n      pop\n      jump\t// out\n        /* \"#utility.yul\":2434:2614   */\n    tag_73:\n        /* \"#utility.yul\":2482:2559   */\n      0x4e487b7100000000000000000000000000000000000000000000000000000000\n        /* \"#utility.yul\":2479:2480   */\n      0x00\n        /* \"#utility.yul\":2472:2560   */\n      mstore\n        /* \"#utility.yul\":2579:2583   */\n      0x22\n        /* \"#utility.yul\":2576:2577   */\n      0x04\n        /* \"#utility.yul\":2569:2584   */\n      mstore\n        /* \"#utility.yul\":2603:2607   */\n      0x24\n        /* \"#utility.yul\":2600:2601   */\n      0x00\n        /* \"#utility.yul\":2593:2608   */\n      revert\n        /* \"#utility.yul\":2620:2940   */\n    tag_40:\n        /* \"#utility.yul\":2664:2670   */\n      0x00\n        /* \"#utility.yul\":2701:2702   */\n      0x02\n        /* \"#utility.yul\":2695:2699   */\n      dup3\n        /* \"#utility.yul\":2691:2703   */\n      div\n        /* \"#utility.yul\":2681:2703   */\n      swap1\n      pop\n        /* \"#utility.yul\":2748:2749   */\n      0x01\n        /* \"#utility.yul\":2742:2746   */\n      dup3\n        /* \"#utility.yul\":2738:2750   */\n      and\n        /* \"#utility.yul\":2769:2787   */\n      dup1\n        /* \"#utility.yul\":2759:2840   */\n      tag_106\n      jumpi\n        /* \"#utility.yul\":2825:2829   */\n      0x7f\n        /* \"#utility.yul\":2817:2823   */\n      dup3\n        /* \"#utility.yul\":2813:2830   */\n      and\n        /* \"#utility.yul\":2803:2830   */\n      swap2\n      pop\n        /* \"#utility.yul\":2759:2840   */\n    tag_106:\n        /* \"#utility.yul\":2887:2889   */\n      0x20\n        /* \"#utility.yul\":2879:2885   */\n      dup3\n        /* \"#utility.yul\":2876:2890   */\n      lt\n        /* \"#utility.yul\":2856:2874   */\n      dup2\n        /* \"#utility.yul\":2853:2891   */\n      sub\n        /* \"#utility.yul\":2850:2934   */\n      tag_107\n      jumpi\n        /* \"#utility.yul\":2906:2924   */\n      tag_108\n      tag_73\n      jump\t// in\n    tag_108:\n        /* \"#utility.yul\":2850:2934   */\n    tag_107:\n        /* \"#utility.yul\":2671:2940   */\n      pop\n        /* \"#utility.yul\":2620:2940   */\n      swap2\n      swap1\n      pop\n      jump\t// out\n        /* \"#utility.yul\":2946:3122   */\n    tag_74:\n        /* \"#utility.yul\":3086:3114   */\n      0x726571756972656420616d6f756e742066756c6c66696c6c6564000000000000\n        /* \"#utility.yul\":3082:3083   */\n      0x00\n        /* \"#utility.yul\":3074:3080   */\n      dup3\n        /* \"#utility.yul\":3070:3084   */\n      add\n        /* \"#utility.yul\":3063:3115   */\n      mstore\n        /* \"#utility.yul\":2946:3122   */\n      pop\n      jump\t// out\n        /* \"#utility.yul\":3128:3494   */\n    tag_75:\n        /* \"#utility.yul\":3270:3273   */\n      0x00\n        /* \"#utility.yul\":3291:3358   */\n      tag_111\n        /* \"#utility.yul\":3355:3357   */\n      0x1a\n        /* \"#utility.yul\":3350:3353   */\n      dup4\n        /* \"#utility.yul\":3291:3358   */\n      tag_64\n      jump\t// in\n    tag_111:\n        /* \"#utility.yul\":3284:3358   */\n      swap2\n      pop\n        /* \"#utility.yul\":3367:3460   */\n      tag_112\n        /* \"#utility.yul\":3456:3459   */\n      dup3\n        /* \"#utility.yul\":3367:3460   */\n      tag_74\n      jump\t// in\n    tag_112:\n        /* \"#utility.yul\":3485:3487   */\n      0x20\n        /* \"#utility.yul\":3480:3483   */\n      dup3\n        /* \"#utility.yul\":3476:3488   */\n      add\n        /* \"#utility.yul\":3469:3488   */\n      swap1\n      pop\n        /* \"#utility.yul\":3128:3494   */\n      swap2\n      swap1\n      pop\n      jump\t// out\n        /* \"#utility.yul\":3500:3919   */\n    tag_53:\n        /* \"#utility.yul\":3666:3670   */\n      0x00\n        /* \"#utility.yul\":3704:3706   */\n      0x20\n        /* \"#utility.yul\":3693:3702   */\n      dup3\n        /* \"#utility.yul\":3689:3707   */\n      add\n        /* \"#utility.yul\":3681:3707   */\n      swap1\n      pop\n        /* \"#utility.yul\":3753:3762   */\n      dup2\n        /* \"#utility.yul\":3747:3751   */\n      dup2\n        /* \"#utility.yul\":3743:3763   */\n      sub\n        /* \"#utility.yul\":3739:3740   */\n      0x00\n        /* \"#utility.yul\":3728:3737   */\n      dup4\n        /* \"#utility.yul\":3724:3741   */\n      add\n        /* \"#utility.yul\":3717:3764   */\n      mstore\n        /* \"#utility.yul\":3781:3912   */\n      tag_114\n        /* \"#utility.yul\":3907:3911   */\n      dup2\n        /* \"#utility.yul\":3781:3912   */\n      tag_75\n      jump\t// in\n    tag_114:\n        /* \"#utility.yul\":3773:3912   */\n      swap1\n      pop\n        /* \"#utility.yul\":3500:3919   */\n      swap2\n      swap1\n      pop\n      jump\t// out\n        /* \"#utility.yul\":3925:4105   */\n    tag_76:\n        /* \"#utility.yul\":3973:4050   */\n      0x4e487b7100000000000000000000000000000000000000000000000000000000\n        /* \"#utility.yul\":3970:3971   */\n      0x00\n        /* \"#utility.yul\":3963:4051   */\n      mstore\n        /* \"#utility.yul\":4070:4074   */\n      0x11\n        /* \"#utility.yul\":4067:4068   */\n      0x04\n        /* \"#utility.yul\":4060:4075   */\n      mstore\n        /* \"#utility.yul\":4094:4098   */\n      0x24\n        /* \"#utility.yul\":4091:4092   */\n      0x00\n        /* \"#utility.yul\":4084:4099   */\n      revert\n        /* \"#utility.yul\":4111:4302   */\n    tag_57:\n        /* \"#utility.yul\":4151:4154   */\n      0x00\n        /* \"#utility.yul\":4170:4190   */\n      tag_117\n        /* \"#utility.yul\":4188:4189   */\n      dup3\n        /* \"#utility.yul\":4170:4190   */\n      tag_68\n      jump\t// in\n    tag_117:\n        /* \"#utility.yul\":4165:4190   */\n      swap2\n      pop\n        /* \"#utility.yul\":4204:4224   */\n      tag_118\n        /* \"#utility.yul\":4222:4223   */\n      dup4\n        /* \"#utility.yul\":4204:4224   */\n      tag_68\n      jump\t// in\n    tag_118:\n        /* \"#utility.yul\":4199:4224   */\n      swap3\n      pop\n        /* \"#utility.yul\":4247:4248   */\n      dup3\n        /* \"#utility.yul\":4244:4245   */\n      dup3\n        /* \"#utility.yul\":4240:4249   */\n      add\n        /* \"#utility.yul\":4233:4249   */\n      swap1\n      pop\n        /* \"#utility.yul\":4268:4271   */\n      dup1\n        /* \"#utility.yul\":4265:4266   */\n      dup3\n        /* \"#utility.yul\":4262:4272   */\n      gt\n        /* \"#utility.yul\":4259:4295   */\n      iszero\n      tag_119\n      jumpi\n        /* \"#utility.yul\":4275:4293   */\n      tag_120\n      tag_76\n      jump\t// in\n    tag_120:\n        /* \"#utility.yul\":4259:4295   */\n    tag_119:\n        /* \"#utility.yul\":4111:4302   */\n      swap3\n      swap2\n      pop\n      pop\n      jump\t// out\n\n    auxdata: 0xa2646970667358221220ea52f95eda91a4a9b29f679832fdd82ca55df019c0a400ccb071c7b56bc2e32964736f6c63430008120033\n}\n",
				"bytecode": {
					"linkReferences": {},
					"object": "60806040523480156200001157600080fd5b5060405162000dde38038062000dde8339818101604052810190620000379190620002f3565b846000908162000048919062000619565b5083600181905550826002908162000061919062000619565b50816003908162000073919062000619565b5080600460006101000a81548173ffffffffffffffffffffffffffffffffffffffff021916908373ffffffffffffffffffffffffffffffffffffffff160217905550505050505062000700565b6000604051905090565b600080fd5b600080fd5b600080fd5b600080fd5b6000601f19601f8301169050919050565b7f4e487b7100000000000000000000000000000000000000000000000000000000600052604160045260246000fd5b6200012982620000de565b810181811067ffffffffffffffff821117156200014b576200014a620000ef565b5b80604052505050565b600062000160620000c0565b90506200016e82826200011e565b919050565b600067ffffffffffffffff821115620001915762000190620000ef565b5b6200019c82620000de565b9050602081019050919050565b60005b83811015620001c9578082015181840152602081019050620001ac565b60008484015250505050565b6000620001ec620001e68462000173565b62000154565b9050828152602081018484840111156200020b576200020a620000d9565b5b62000218848285620001a9565b509392505050565b600082601f830112620002385762000237620000d4565b5b81516200024a848260208601620001d5565b91505092915050565b6000819050919050565b620002688162000253565b81146200027457600080fd5b50565b60008151905062000288816200025d565b92915050565b600073ffffffffffffffffffffffffffffffffffffffff82169050919050565b6000620002bb826200028e565b9050919050565b620002cd81620002ae565b8114620002d957600080fd5b50565b600081519050620002ed81620002c2565b92915050565b600080600080600060a08688031215620003125762000311620000ca565b5b600086015167ffffffffffffffff811115620003335762000332620000cf565b5b620003418882890162000220565b9550506020620003548882890162000277565b945050604086015167ffffffffffffffff811115620003785762000377620000cf565b5b620003868882890162000220565b935050606086015167ffffffffffffffff811115620003aa57620003a9620000cf565b5b620003b88882890162000220565b9250506080620003cb88828901620002dc565b9150509295509295909350565b600081519050919050565b7f4e487b7100000000000000000000000000000000000000000000000000000000600052602260045260246000fd5b600060028204905060018216806200042b57607f821691505b602082108103620004415762000440620003e3565b5b50919050565b60008190508160005260206000209050919050565b60006020601f8301049050919050565b600082821b905092915050565b600060088302620004ab7fffffffffffffffffffffffffffffffffffffffffffffffffffffffffffffffff826200046c565b620004b786836200046c565b95508019841693508086168417925050509392505050565b6000819050919050565b6000620004fa620004f4620004ee8462000253565b620004cf565b62000253565b9050919050565b6000819050919050565b6200051683620004d9565b6200052e620005258262000501565b84845462000479565b825550505050565b600090565b6200054562000536565b620005528184846200050b565b505050565b5b818110156200057a576200056e6000826200053b565b60018101905062000558565b5050565b601f821115620005c957620005938162000447565b6200059e846200045c565b81016020851015620005ae578190505b620005c6620005bd856200045c565b83018262000557565b50505b505050565b600082821c905092915050565b6000620005ee60001984600802620005ce565b1980831691505092915050565b6000620006098383620005db565b9150826002028217905092915050565b6200062482620003d8565b67ffffffffffffffff81111562000640576200063f620000ef565b5b6200064c825462000412565b620006598282856200057e565b600060209050601f8311600181146200069157600084156200067c578287015190505b620006888582620005fb565b865550620006f8565b601f198416620006a18662000447565b60005b82811015620006cb57848901518255600182019150602085019450602081019050620006a4565b86831015620006eb5784890151620006e7601f891682620005db565b8355505b6001600288020188555050505b505050505050565b6106ce80620007106000396000f3fe6080604052600436106100705760003560e01c80638da5cb5b1161004e5780638da5cb5b146100f65780639632e72014610121578063ed88c68e1461014c578063f3ccaac01461015657610070565b806346c922d11461007557806348b9ef40146100a05780634a79d50c146100cb575b600080fd5b34801561008157600080fd5b5061008a610181565b60405161009791906104b7565b60405180910390f35b3480156100ac57600080fd5b506100b561020f565b6040516100c291906104f2565b60405180910390f35b3480156100d757600080fd5b506100e0610215565b6040516100ed91906104b7565b60405180910390f35b34801561010257600080fd5b5061010b6102a3565b604051610118919061054e565b60405180910390f35b34801561012d57600080fd5b506101366102c9565b60405161014391906104f2565b60405180910390f35b6101546102cf565b005b34801561016257600080fd5b5061016b610399565b60405161017891906104b7565b60405180910390f35b6003805461018e90610598565b80601f01602080910402602001604051908101604052809291908181526020018280546101ba90610598565b80156102075780601f106101dc57610100808354040283529160200191610207565b820191906000526020600020905b8154815290600101906020018083116101ea57829003601f168201915b505050505081565b60015481565b6000805461022290610598565b80601f016020809104026020016040519081016040528092919081815260200182805461024e90610598565b801561029b5780601f106102705761010080835404028352916020019161029b565b820191906000526020600020905b81548152906001019060200180831161027e57829003601f168201915b505050505081565b600460009054906101000a900473ffffffffffffffffffffffffffffffffffffffff1681565b60055481565b60055460015411610315576040517f08c379a000000000000000000000000000000000000000000000000000000000815260040161030c90610615565b60405180910390fd5b600460009054906101000a900473ffffffffffffffffffffffffffffffffffffffff1673ffffffffffffffffffffffffffffffffffffffff166108fc349081150290604051600060405180830381858888f1935050505015801561037d573d6000803e3d6000fd5b5034600560008282546103909190610664565b92505081905550565b600280546103a690610598565b80601f01602080910402602001604051908101604052809291908181526020018280546103d290610598565b801561041f5780601f106103f45761010080835404028352916020019161041f565b820191906000526020600020905b81548152906001019060200180831161040257829003601f168201915b505050505081565b600081519050919050565b600082825260208201905092915050565b60005b83811015610461578082015181840152602081019050610446565b60008484015250505050565b6000601f19601f8301169050919050565b600061048982610427565b6104938185610432565b93506104a3818560208601610443565b6104ac8161046d565b840191505092915050565b600060208201905081810360008301526104d1818461047e565b905092915050565b6000819050919050565b6104ec816104d9565b82525050565b600060208201905061050760008301846104e3565b92915050565b600073ffffffffffffffffffffffffffffffffffffffff82169050919050565b60006105388261050d565b9050919050565b6105488161052d565b82525050565b6000602082019050610563600083018461053f565b92915050565b7f4e487b7100000000000000000000000000000000000000000000000000000000600052602260045260246000fd5b600060028204905060018216806105b057607f821691505b6020821081036105c3576105c2610569565b5b50919050565b7f726571756972656420616d6f756e742066756c6c66696c6c6564000000000000600082015250565b60006105ff601a83610432565b915061060a826105c9565b602082019050919050565b6000602082019050818103600083015261062e816105f2565b9050919050565b7f4e487b7100000000000000000000000000000000000000000000000000000000600052601160045260246000fd5b600061066f826104d9565b915061067a836104d9565b925082820190508082111561069257610691610635565b5b9291505056fea2646970667358221220ea52f95eda91a4a9b29f679832fdd82ca55df019c0a400ccb071c7b56bc2e32964736f6c63430008120033",
					"opcodes": "PUSH1 0x80 PUSH1 0x40 MSTORE CALLVALUE DUP1 ISZERO PUSH3 0x11 JUMPI PUSH1 0x0 DUP1 REVERT JUMPDEST POP PUSH1 0x40 MLOAD PUSH3 0xDDE CODESIZE SUB DUP1 PUSH3 0xDDE DUP4 CODECOPY DUP2 DUP2 ADD PUSH1 0x40 MSTORE DUP2 ADD SWAP1 PUSH3 0x37 SWAP2 SWAP1 PUSH3 0x2F3 JUMP JUMPDEST DUP5 PUSH1 0x0 SWAP1 DUP2 PUSH3 0x48 SWAP2 SWAP1 PUSH3 0x619 JUMP JUMPDEST POP DUP4 PUSH1 0x1 DUP2 SWAP1 SSTORE POP DUP3 PUSH1 0x2 SWAP1 DUP2 PUSH3 0x61 SWAP2 SWAP1 PUSH3 0x619 JUMP JUMPDEST POP DUP2 PUSH1 0x3 SWAP1 DUP2 PUSH3 0x73 SWAP2 SWAP1 PUSH3 0x619 JUMP JUMPDEST POP DUP1 PUSH1 0x4 PUSH1 0x0 PUSH2 0x100 EXP DUP2 SLOAD DUP2 PUSH20 0xFFFFFFFFFFFFFFFFFFFFFFFFFFFFFFFFFFFFFFFF MUL NOT AND SWAP1 DUP4 PUSH20 0xFFFFFFFFFFFFFFFFFFFFFFFFFFFFFFFFFFFFFFFF AND MUL OR SWAP1 SSTORE POP POP POP POP POP POP PUSH3 0x700 JUMP JUMPDEST PUSH1 0x0 PUSH1 0x40 MLOAD SWAP1 POP SWAP1 JUMP JUMPDEST PUSH1 0x0 DUP1 REVERT JUMPDEST PUSH1 0x0 DUP1 REVERT JUMPDEST PUSH1 0x0 DUP1 REVERT JUMPDEST PUSH1 0x0 DUP1 REVERT JUMPDEST PUSH1 0x0 PUSH1 0x1F NOT PUSH1 0x1F DUP4 ADD AND SWAP1 POP SWAP2 SWAP1 POP JUMP JUMPDEST PUSH32 0x4E487B7100000000000000000000000000000000000000000000000000000000 PUSH1 0x0 MSTORE PUSH1 0x41 PUSH1 0x4 MSTORE PUSH1 0x24 PUSH1 0x0 REVERT JUMPDEST PUSH3 0x129 DUP3 PUSH3 0xDE JUMP JUMPDEST DUP2 ADD DUP2 DUP2 LT PUSH8 0xFFFFFFFFFFFFFFFF DUP3 GT OR ISZERO PUSH3 0x14B JUMPI PUSH3 0x14A PUSH3 0xEF JUMP JUMPDEST JUMPDEST DUP1 PUSH1 0x40 MSTORE POP POP POP JUMP JUMPDEST PUSH1 0x0 PUSH3 0x160 PUSH3 0xC0 JUMP JUMPDEST SWAP1 POP PUSH3 0x16E DUP3 DUP3 PUSH3 0x11E JUMP JUMPDEST SWAP2 SWAP1 POP JUMP JUMPDEST PUSH1 0x0 PUSH8 0xFFFFFFFFFFFFFFFF DUP3 GT ISZERO PUSH3 0x191 JUMPI PUSH3 0x190 PUSH3 0xEF JUMP JUMPDEST JUMPDEST PUSH3 0x19C DUP3 PUSH3 0xDE JUMP JUMPDEST SWAP1 POP PUSH1 0x20 DUP2 ADD SWAP1 POP SWAP2 SWAP1 POP JUMP JUMPDEST PUSH1 0x0 JUMPDEST DUP4 DUP2 LT ISZERO PUSH3 0x1C9 JUMPI DUP1 DUP3 ADD MLOAD DUP2 DUP5 ADD MSTORE PUSH1 0x20 DUP2 ADD SWAP1 POP PUSH3 0x1AC JUMP JUMPDEST PUSH1 0x0 DUP5 DUP5 ADD MSTORE POP POP POP POP JUMP JUMPDEST PUSH1 0x0 PUSH3 0x1EC PUSH3 0x1E6 DUP5 PUSH3 0x173 JUMP JUMPDEST PUSH3 0x154 JUMP JUMPDEST SWAP1 POP DUP3 DUP2 MSTORE PUSH1 0x20 DUP2 ADD DUP5 DUP5 DUP5 ADD GT ISZERO PUSH3 0x20B JUMPI PUSH3 0x20A PUSH3 0xD9 JUMP JUMPDEST JUMPDEST PUSH3 0x218 DUP5 DUP3 DUP6 PUSH3 0x1A9 JUMP JUMPDEST POP SWAP4 SWAP3 POP POP POP JUMP JUMPDEST PUSH1 0x0 DUP3 PUSH1 0x1F DUP4 ADD SLT PUSH3 0x238 JUMPI PUSH3 0x237 PUSH3 0xD4 JUMP JUMPDEST JUMPDEST DUP2 MLOAD PUSH3 0x24A DUP5 DUP3 PUSH1 0x20 DUP7 ADD PUSH3 0x1D5 JUMP JUMPDEST SWAP2 POP POP SWAP3 SWAP2 POP POP JUMP JUMPDEST PUSH1 0x0 DUP2 SWAP1 POP SWAP2 SWAP1 POP JUMP JUMPDEST PUSH3 0x268 DUP2 PUSH3 0x253 JUMP JUMPDEST DUP2 EQ PUSH3 0x274 JUMPI PUSH1 0x0 DUP1 REVERT JUMPDEST POP JUMP JUMPDEST PUSH1 0x0 DUP2 MLOAD SWAP1 POP PUSH3 0x288 DUP2 PUSH3 0x25D JUMP JUMPDEST SWAP3 SWAP2 POP POP JUMP JUMPDEST PUSH1 0x0 PUSH20 0xFFFFFFFFFFFFFFFFFFFFFFFFFFFFFFFFFFFFFFFF DUP3 AND SWAP1 POP SWAP2 SWAP1 POP JUMP JUMPDEST PUSH1 0x0 PUSH3 0x2BB DUP3 PUSH3 0x28E JUMP JUMPDEST SWAP1 POP SWAP2 SWAP1 POP JUMP JUMPDEST PUSH3 0x2CD DUP2 PUSH3 0x2AE JUMP JUMPDEST DUP2 EQ PUSH3 0x2D9 JUMPI PUSH1 0x0 DUP1 REVERT JUMPDEST POP JUMP JUMPDEST PUSH1 0x0 DUP2 MLOAD SWAP1 POP PUSH3 0x2ED DUP2 PUSH3 0x2C2 JUMP JUMPDEST SWAP3 SWAP2 POP POP JUMP JUMPDEST PUSH1 0x0 DUP1 PUSH1 0x0 DUP1 PUSH1 0x0 PUSH1 0xA0 DUP7 DUP9 SUB SLT ISZERO PUSH3 0x312 JUMPI PUSH3 0x311 PUSH3 0xCA JUMP JUMPDEST JUMPDEST PUSH1 0x0 DUP7 ADD MLOAD PUSH8 0xFFFFFFFFFFFFFFFF DUP2 GT ISZERO PUSH3 0x333 JUMPI PUSH3 0x332 PUSH3 0xCF JUMP JUMPDEST JUMPDEST PUSH3 0x341 DUP9 DUP3 DUP10 ADD PUSH3 0x220 JUMP JUMPDEST SWAP6 POP POP PUSH1 0x20 PUSH3 0x354 DUP9 DUP3 DUP10 ADD PUSH3 0x277 JUMP JUMPDEST SWAP5 POP POP PUSH1 0x40 DUP7 ADD MLOAD PUSH8 0xFFFFFFFFFFFFFFFF DUP2 GT ISZERO PUSH3 0x378 JUMPI PUSH3 0x377 PUSH3 0xCF JUMP JUMPDEST JUMPDEST PUSH3 0x386 DUP9 DUP3 DUP10 ADD PUSH3 0x220 JUMP JUMPDEST SWAP4 POP POP PUSH1 0x60 DUP7 ADD MLOAD PUSH8 0xFFFFFFFFFFFFFFFF DUP2 GT ISZERO PUSH3 0x3AA JUMPI PUSH3 0x3A9 PUSH3 0xCF JUMP JUMPDEST JUMPDEST PUSH3 0x3B8 DUP9 DUP3 DUP10 ADD PUSH3 0x220 JUMP JUMPDEST SWAP3 POP POP PUSH1 0x80 PUSH3 0x3CB DUP9 DUP3 DUP10 ADD PUSH3 0x2DC JUMP JUMPDEST SWAP2 POP POP SWAP3 SWAP6 POP SWAP3 SWAP6 SWAP1 SWAP4 POP JUMP JUMPDEST PUSH1 0x0 DUP2 MLOAD SWAP1 POP SWAP2 SWAP1 POP JUMP JUMPDEST PUSH32 0x4E487B7100000000000000000000000000000000000000000000000000000000 PUSH1 0x0 MSTORE PUSH1 0x22 PUSH1 0x4 MSTORE PUSH1 0x24 PUSH1 0x0 REVERT JUMPDEST PUSH1 0x0 PUSH1 0x2 DUP3 DIV SWAP1 POP PUSH1 0x1 DUP3 AND DUP1 PUSH3 0x42B JUMPI PUSH1 0x7F DUP3 AND SWAP2 POP JUMPDEST PUSH1 0x20 DUP3 LT DUP2 SUB PUSH3 0x441 JUMPI PUSH3 0x440 PUSH3 0x3E3 JUMP JUMPDEST JUMPDEST POP SWAP2 SWAP1 POP JUMP JUMPDEST PUSH1 0x0 DUP2 SWAP1 POP DUP2 PUSH1 0x0 MSTORE PUSH1 0x20 PUSH1 0x0 KECCAK256 SWAP1 POP SWAP2 SWAP1 POP JUMP JUMPDEST PUSH1 0x0 PUSH1 0x20 PUSH1 0x1F DUP4 ADD DIV SWAP1 POP SWAP2 SWAP1 POP JUMP JUMPDEST PUSH1 0x0 DUP3 DUP3 SHL SWAP1 POP SWAP3 SWAP2 POP POP JUMP JUMPDEST PUSH1 0x0 PUSH1 0x8 DUP4 MUL PUSH3 0x4AB PUSH32 0xFFFFFFFFFFFFFFFFFFFFFFFFFFFFFFFFFFFFFFFFFFFFFFFFFFFFFFFFFFFFFFFF DUP3 PUSH3 0x46C JUMP JUMPDEST PUSH3 0x4B7 DUP7 DUP4 PUSH3 0x46C JUMP JUMPDEST SWAP6 POP DUP1 NOT DUP5 AND SWAP4 POP DUP1 DUP7 AND DUP5 OR SWAP3 POP POP POP SWAP4 SWAP3 POP POP POP JUMP JUMPDEST PUSH1 0x0 DUP2 SWAP1 POP SWAP2 SWAP1 POP JUMP JUMPDEST PUSH1 0x0 PUSH3 0x4FA PUSH3 0x4F4 PUSH3 0x4EE DUP5 PUSH3 0x253 JUMP JUMPDEST PUSH3 0x4CF JUMP JUMPDEST PUSH3 0x253 JUMP JUMPDEST SWAP1 POP SWAP2 SWAP1 POP JUMP JUMPDEST PUSH1 0x0 DUP2 SWAP1 POP SWAP2 SWAP1 POP JUMP JUMPDEST PUSH3 0x516 DUP4 PUSH3 0x4D9 JUMP JUMPDEST PUSH3 0x52E PUSH3 0x525 DUP3 PUSH3 0x501 JUMP JUMPDEST DUP5 DUP5 SLOAD PUSH3 0x479 JUMP JUMPDEST DUP3 SSTORE POP POP POP POP JUMP JUMPDEST PUSH1 0x0 SWAP1 JUMP JUMPDEST PUSH3 0x545 PUSH3 0x536 JUMP JUMPDEST PUSH3 0x552 DUP2 DUP5 DUP5 PUSH3 0x50B JUMP JUMPDEST POP POP POP JUMP JUMPDEST JUMPDEST DUP2 DUP2 LT ISZERO PUSH3 0x57A JUMPI PUSH3 0x56E PUSH1 0x0 DUP3 PUSH3 0x53B JUMP JUMPDEST PUSH1 0x1 DUP2 ADD SWAP1 POP PUSH3 0x558 JUMP JUMPDEST POP POP JUMP JUMPDEST PUSH1 0x1F DUP3 GT ISZERO PUSH3 0x5C9 JUMPI PUSH3 0x593 DUP2 PUSH3 0x447 JUMP JUMPDEST PUSH3 0x59E DUP5 PUSH3 0x45C JUMP JUMPDEST DUP2 ADD PUSH1 0x20 DUP6 LT ISZERO PUSH3 0x5AE JUMPI DUP2 SWAP1 POP JUMPDEST PUSH3 0x5C6 PUSH3 0x5BD DUP6 PUSH3 0x45C JUMP JUMPDEST DUP4 ADD DUP3 PUSH3 0x557 JUMP JUMPDEST POP POP JUMPDEST POP POP POP JUMP JUMPDEST PUSH1 0x0 DUP3 DUP3 SHR SWAP1 POP SWAP3 SWAP2 POP POP JUMP JUMPDEST PUSH1 0x0 PUSH3 0x5EE PUSH1 0x0 NOT DUP5 PUSH1 0x8 MUL PUSH3 0x5CE JUMP JUMPDEST NOT DUP1 DUP4 AND SWAP2 POP POP SWAP3 SWAP2 POP POP JUMP JUMPDEST PUSH1 0x0 PUSH3 0x609 DUP4 DUP4 PUSH3 0x5DB JUMP JUMPDEST SWAP2 POP DUP3 PUSH1 0x2 MUL DUP3 OR SWAP1 POP SWAP3 SWAP2 POP POP JUMP JUMPDEST PUSH3 0x624 DUP3 PUSH3 0x3D8 JUMP JUMPDEST PUSH8 0xFFFFFFFFFFFFFFFF DUP2 GT ISZERO PUSH3 0x640 JUMPI PUSH3 0x63F PUSH3 0xEF JUMP JUMPDEST JUMPDEST PUSH3 0x64C DUP3 SLOAD PUSH3 0x412 JUMP JUMPDEST PUSH3 0x659 DUP3 DUP3 DUP6 PUSH3 0x57E JUMP JUMPDEST PUSH1 0x0 PUSH1 0x20 SWAP1 POP PUSH1 0x1F DUP4 GT PUSH1 0x1 DUP2 EQ PUSH3 0x691 JUMPI PUSH1 0x0 DUP5 ISZERO PUSH3 0x67C JUMPI DUP3 DUP8 ADD MLOAD SWAP1 POP JUMPDEST PUSH3 0x688 DUP6 DUP3 PUSH3 0x5FB JUMP JUMPDEST DUP7 SSTORE POP PUSH3 0x6F8 JUMP JUMPDEST PUSH1 0x1F NOT DUP5 AND PUSH3 0x6A1 DUP7 PUSH3 0x447 JUMP JUMPDEST PUSH1 0x0 JUMPDEST DUP3 DUP2 LT ISZERO PUSH3 0x6CB JUMPI DUP5 DUP10 ADD MLOAD DUP3 SSTORE PUSH1 0x1 DUP3 ADD SWAP2 POP PUSH1 0x20 DUP6 ADD SWAP5 POP PUSH1 0x20 DUP2 ADD SWAP1 POP PUSH3 0x6A4 JUMP JUMPDEST DUP7 DUP4 LT ISZERO PUSH3 0x6EB JUMPI DUP5 DUP10 ADD MLOAD PUSH3 0x6E7 PUSH1 0x1F DUP10 AND DUP3 PUSH3 0x5DB JUMP JUMPDEST DUP4 SSTORE POP JUMPDEST PUSH1 0x1 PUSH1 0x2 DUP9 MUL ADD DUP9 SSTORE POP POP POP JUMPDEST POP POP POP POP POP POP JUMP JUMPDEST PUSH2 0x6CE DUP1 PUSH3 0x710 PUSH1 0x0 CODECOPY PUSH1 0x0 RETURN INVALID PUSH1 0x80 PUSH1 0x40 MSTORE PUSH1 0x4 CALLDATASIZE LT PUSH2 0x70 JUMPI PUSH1 0x0 CALLDATALOAD PUSH1 0xE0 SHR DUP1 PUSH4 0x8DA5CB5B GT PUSH2 0x4E JUMPI DUP1 PUSH4 0x8DA5CB5B EQ PUSH2 0xF6 JUMPI DUP1 PUSH4 0x9632E720 EQ PUSH2 0x121 JUMPI DUP1 PUSH4 0xED88C68E EQ PUSH2 0x14C JUMPI DUP1 PUSH4 0xF3CCAAC0 EQ PUSH2 0x156 JUMPI PUSH2 0x70 JUMP JUMPDEST DUP1 PUSH4 0x46C922D1 EQ PUSH2 0x75 JUMPI DUP1 PUSH4 0x48B9EF40 EQ PUSH2 0xA0 JUMPI DUP1 PUSH4 0x4A79D50C EQ PUSH2 0xCB JUMPI JUMPDEST PUSH1 0x0 DUP1 REVERT JUMPDEST CALLVALUE DUP1 ISZERO PUSH2 0x81 JUMPI PUSH1 0x0 DUP1 REVERT JUMPDEST POP PUSH2 0x8A PUSH2 0x181 JUMP JUMPDEST PUSH1 0x40 MLOAD PUSH2 0x97 SWAP2 SWAP1 PUSH2 0x4B7 JUMP JUMPDEST PUSH1 0x40 MLOAD DUP1 SWAP2 SUB SWAP1 RETURN JUMPDEST CALLVALUE DUP1 ISZERO PUSH2 0xAC JUMPI PUSH1 0x0 DUP1 REVERT JUMPDEST POP PUSH2 0xB5 PUSH2 0x20F JUMP JUMPDEST PUSH1 0x40 MLOAD PUSH2 0xC2 SWAP2 SWAP1 PUSH2 0x4F2 JUMP JUMPDEST PUSH1 0x40 MLOAD DUP1 SWAP2 SUB SWAP1 RETURN JUMPDEST CALLVALUE DUP1 ISZERO PUSH2 0xD7 JUMPI PUSH1 0x0 DUP1 REVERT JUMPDEST POP PUSH2 0xE0 PUSH2 0x215 JUMP JUMPDEST PUSH1 0x40 MLOAD PUSH2 0xED SWAP2 SWAP1 PUSH2 0x4B7 JUMP JUMPDEST PUSH1 0x40 MLOAD DUP1 SWAP2 SUB SWAP1 RETURN JUMPDEST CALLVALUE DUP1 ISZERO PUSH2 0x102 JUMPI PUSH1 0x0 DUP1 REVERT JUMPDEST POP PUSH2 0x10B PUSH2 0x2A3 JUMP JUMPDEST PUSH1 0x40 MLOAD PUSH2 0x118 SWAP2 SWAP1 PUSH2 0x54E JUMP JUMPDEST PUSH1 0x40 MLOAD DUP1 SWAP2 SUB SWAP1 RETURN JUMPDEST CALLVALUE DUP1 ISZERO PUSH2 0x12D JUMPI PUSH1 0x0 DUP1 REVERT JUMPDEST POP PUSH2 0x136 PUSH2 0x2C9 JUMP JUMPDEST PUSH1 0x40 MLOAD PUSH2 0x143 SWAP2 SWAP1 PUSH2 0x4F2 JUMP JUMPDEST PUSH1 0x40 MLOAD DUP1 SWAP2 SUB SWAP1 RETURN JUMPDEST PUSH2 0x154 PUSH2 0x2CF JUMP JUMPDEST STOP JUMPDEST CALLVALUE DUP1 ISZERO PUSH2 0x162 JUMPI PUSH1 0x0 DUP1 REVERT JUMPDEST POP PUSH2 0x16B PUSH2 0x399 JUMP JUMPDEST PUSH1 0x40 MLOAD PUSH2 0x178 SWAP2 SWAP1 PUSH2 0x4B7 JUMP JUMPDEST PUSH1 0x40 MLOAD DUP1 SWAP2 SUB SWAP1 RETURN JUMPDEST PUSH1 0x3 DUP1 SLOAD PUSH2 0x18E SWAP1 PUSH2 0x598 JUMP JUMPDEST DUP1 PUSH1 0x1F ADD PUSH1 0x20 DUP1 SWAP2 DIV MUL PUSH1 0x20 ADD PUSH1 0x40 MLOAD SWAP1 DUP2 ADD PUSH1 0x40 MSTORE DUP1 SWAP3 SWAP2 SWAP1 DUP2 DUP2 MSTORE PUSH1 0x20 ADD DUP3 DUP1 SLOAD PUSH2 0x1BA SWAP1 PUSH2 0x598 JUMP JUMPDEST DUP1 ISZERO PUSH2 0x207 JUMPI DUP1 PUSH1 0x1F LT PUSH2 0x1DC JUMPI PUSH2 0x100 DUP1 DUP4 SLOAD DIV MUL DUP4 MSTORE SWAP2 PUSH1 0x20 ADD SWAP2 PUSH2 0x207 JUMP JUMPDEST DUP3 ADD SWAP2 SWAP1 PUSH1 0x0 MSTORE PUSH1 0x20 PUSH1 0x0 KECCAK256 SWAP1 JUMPDEST DUP2 SLOAD DUP2 MSTORE SWAP1 PUSH1 0x1 ADD SWAP1 PUSH1 0x20 ADD DUP1 DUP4 GT PUSH2 0x1EA JUMPI DUP3 SWAP1 SUB PUSH1 0x1F AND DUP3 ADD SWAP2 JUMPDEST POP POP POP POP POP DUP2 JUMP JUMPDEST PUSH1 0x1 SLOAD DUP2 JUMP JUMPDEST PUSH1 0x0 DUP1 SLOAD PUSH2 0x222 SWAP1 PUSH2 0x598 JUMP JUMPDEST DUP1 PUSH1 0x1F ADD PUSH1 0x20 DUP1 SWAP2 DIV MUL PUSH1 0x20 ADD PUSH1 0x40 MLOAD SWAP1 DUP2 ADD PUSH1 0x40 MSTORE DUP1 SWAP3 SWAP2 SWAP1 DUP2 DUP2 MSTORE PUSH1 0x20 ADD DUP3 DUP1 SLOAD PUSH2 0x24E SWAP1 PUSH2 0x598 JUMP JUMPDEST DUP1 ISZERO PUSH2 0x29B JUMPI DUP1 PUSH1 0x1F LT PUSH2 0x270 JUMPI PUSH2 0x100 DUP1 DUP4 SLOAD DIV MUL DUP4 MSTORE SWAP2 PUSH1 0x20 ADD SWAP2 PUSH2 0x29B JUMP JUMPDEST DUP3 ADD SWAP2 SWAP1 PUSH1 0x0 MSTORE PUSH1 0x20 PUSH1 0x0 KECCAK256 SWAP1 JUMPDEST DUP2 SLOAD DUP2 MSTORE SWAP1 PUSH1 0x1 ADD SWAP1 PUSH1 0x20 ADD DUP1 DUP4 GT PUSH2 0x27E JUMPI DUP3 SWAP1 SUB PUSH1 0x1F AND DUP3 ADD SWAP2 JUMPDEST POP POP POP POP POP DUP2 JUMP JUMPDEST PUSH1 0x4 PUSH1 0x0 SWAP1 SLOAD SWAP1 PUSH2 0x100 EXP SWAP1 DIV PUSH20 0xFFFFFFFFFFFFFFFFFFFFFFFFFFFFFFFFFFFFFFFF AND DUP2 JUMP JUMPDEST PUSH1 0x5 SLOAD DUP2 JUMP JUMPDEST PUSH1 0x5 SLOAD PUSH1 0x1 SLOAD GT PUSH2 0x315 JUMPI PUSH1 0x40 MLOAD PUSH32 0x8C379A000000000000000000000000000000000000000000000000000000000 DUP2 MSTORE PUSH1 0x4 ADD PUSH2 0x30C SWAP1 PUSH2 0x615 JUMP JUMPDEST PUSH1 0x40 MLOAD DUP1 SWAP2 SUB SWAP1 REVERT JUMPDEST PUSH1 0x4 PUSH1 0x0 SWAP1 SLOAD SWAP1 PUSH2 0x100 EXP SWAP1 DIV PUSH20 0xFFFFFFFFFFFFFFFFFFFFFFFFFFFFFFFFFFFFFFFF AND PUSH20 0xFFFFFFFFFFFFFFFFFFFFFFFFFFFFFFFFFFFFFFFF AND PUSH2 0x8FC CALLVALUE SWAP1 DUP2 ISZERO MUL SWAP1 PUSH1 0x40 MLOAD PUSH1 0x0 PUSH1 0x40 MLOAD DUP1 DUP4 SUB DUP2 DUP6 DUP9 DUP9 CALL SWAP4 POP POP POP POP ISZERO DUP1 ISZERO PUSH2 0x37D JUMPI RETURNDATASIZE PUSH1 0x0 DUP1 RETURNDATACOPY RETURNDATASIZE PUSH1 0x0 REVERT JUMPDEST POP CALLVALUE PUSH1 0x5 PUSH1 0x0 DUP3 DUP3 SLOAD PUSH2 0x390 SWAP2 SWAP1 PUSH2 0x664 JUMP JUMPDEST SWAP3 POP POP DUP2 SWAP1 SSTORE POP JUMP JUMPDEST PUSH1 0x2 DUP1 SLOAD PUSH2 0x3A6 SWAP1 PUSH2 0x598 JUMP JUMPDEST DUP1 PUSH1 0x1F ADD PUSH1 0x20 DUP1 SWAP2 DIV MUL PUSH1 0x20 ADD PUSH1 0x40 MLOAD SWAP1 DUP2 ADD PUSH1 0x40 MSTORE DUP1 SWAP3 SWAP2 SWAP1 DUP2 DUP2 MSTORE PUSH1 0x20 ADD DUP3 DUP1 SLOAD PUSH2 0x3D2 SWAP1 PUSH2 0x598 JUMP JUMPDEST DUP1 ISZERO PUSH2 0x41F JUMPI DUP1 PUSH1 0x1F LT PUSH2 0x3F4 JUMPI PUSH2 0x100 DUP1 DUP4 SLOAD DIV MUL DUP4 MSTORE SWAP2 PUSH1 0x20 ADD SWAP2 PUSH2 0x41F JUMP JUMPDEST DUP3 ADD SWAP2 SWAP1 PUSH1 0x0 MSTORE PUSH1 0x20 PUSH1 0x0 KECCAK256 SWAP1 JUMPDEST DUP2 SLOAD DUP2 MSTORE SWAP1 PUSH1 0x1 ADD SWAP1 PUSH1 0x20 ADD DUP1 DUP4 GT PUSH2 0x402 JUMPI DUP3 SWAP1 SUB PUSH1 0x1F AND DUP3 ADD SWAP2 JUMPDEST POP POP POP POP POP DUP2 JUMP JUMPDEST PUSH1 0x0 DUP2 MLOAD SWAP1 POP SWAP2 SWAP1 POP JUMP JUMPDEST PUSH1 0x0 DUP3 DUP3 MSTORE PUSH1 0x20 DUP3 ADD SWAP1 POP SWAP3 SWAP2 POP POP JUMP JUMPDEST PUSH1 0x0 JUMPDEST DUP4 DUP2 LT ISZERO PUSH2 0x461 JUMPI DUP1 DUP3 ADD MLOAD DUP2 DUP5 ADD MSTORE PUSH1 0x20 DUP2 ADD SWAP1 POP PUSH2 0x446 JUMP JUMPDEST PUSH1 0x0 DUP5 DUP5 ADD MSTORE POP POP POP POP JUMP JUMPDEST PUSH1 0x0 PUSH1 0x1F NOT PUSH1 0x1F DUP4 ADD AND SWAP1 POP SWAP2 SWAP1 POP JUMP JUMPDEST PUSH1 0x0 PUSH2 0x489 DUP3 PUSH2 0x427 JUMP JUMPDEST PUSH2 0x493 DUP2 DUP6 PUSH2 0x432 JUMP JUMPDEST SWAP4 POP PUSH2 0x4A3 DUP2 DUP6 PUSH1 0x20 DUP7 ADD PUSH2 0x443 JUMP JUMPDEST PUSH2 0x4AC DUP2 PUSH2 0x46D JUMP JUMPDEST DUP5 ADD SWAP2 POP POP SWAP3 SWAP2 POP POP JUMP JUMPDEST PUSH1 0x0 PUSH1 0x20 DUP3 ADD SWAP1 POP DUP2 DUP2 SUB PUSH1 0x0 DUP4 ADD MSTORE PUSH2 0x4D1 DUP2 DUP5 PUSH2 0x47E JUMP JUMPDEST SWAP1 POP SWAP3 SWAP2 POP POP JUMP JUMPDEST PUSH1 0x0 DUP2 SWAP1 POP SWAP2 SWAP1 POP JUMP JUMPDEST PUSH2 0x4EC DUP2 PUSH2 0x4D9 JUMP JUMPDEST DUP3 MSTORE POP POP JUMP JUMPDEST PUSH1 0x0 PUSH1 0x20 DUP3 ADD SWAP1 POP PUSH2 0x507 PUSH1 0x0 DUP4 ADD DUP5 PUSH2 0x4E3 JUMP JUMPDEST SWAP3 SWAP2 POP POP JUMP JUMPDEST PUSH1 0x0 PUSH20 0xFFFFFFFFFFFFFFFFFFFFFFFFFFFFFFFFFFFFFFFF DUP3 AND SWAP1 POP SWAP2 SWAP1 POP JUMP JUMPDEST PUSH1 0x0 PUSH2 0x538 DUP3 PUSH2 0x50D JUMP JUMPDEST SWAP1 POP SWAP2 SWAP1 POP JUMP JUMPDEST PUSH2 0x548 DUP2 PUSH2 0x52D JUMP JUMPDEST DUP3 MSTORE POP POP JUMP JUMPDEST PUSH1 0x0 PUSH1 0x20 DUP3 ADD SWAP1 POP PUSH2 0x563 PUSH1 0x0 DUP4 ADD DUP5 PUSH2 0x53F JUMP JUMPDEST SWAP3 SWAP2 POP POP JUMP JUMPDEST PUSH32 0x4E487B7100000000000000000000000000000000000000000000000000000000 PUSH1 0x0 MSTORE PUSH1 0x22 PUSH1 0x4 MSTORE PUSH1 0x24 PUSH1 0x0 REVERT JUMPDEST PUSH1 0x0 PUSH1 0x2 DUP3 DIV SWAP1 POP PUSH1 0x1 DUP3 AND DUP1 PUSH2 0x5B0 JUMPI PUSH1 0x7F DUP3 AND SWAP2 POP JUMPDEST PUSH1 0x20 DUP3 LT DUP2 SUB PUSH2 0x5C3 JUMPI PUSH2 0x5C2 PUSH2 0x569 JUMP JUMPDEST JUMPDEST POP SWAP2 SWAP1 POP JUMP JUMPDEST PUSH32 0x726571756972656420616D6F756E742066756C6C66696C6C6564000000000000 PUSH1 0x0 DUP3 ADD MSTORE POP JUMP JUMPDEST PUSH1 0x0 PUSH2 0x5FF PUSH1 0x1A DUP4 PUSH2 0x432 JUMP JUMPDEST SWAP2 POP PUSH2 0x60A DUP3 PUSH2 0x5C9 JUMP JUMPDEST PUSH1 0x20 DUP3 ADD SWAP1 POP SWAP2 SWAP1 POP JUMP JUMPDEST PUSH1 0x0 PUSH1 0x20 DUP3 ADD SWAP1 POP DUP2 DUP2 SUB PUSH1 0x0 DUP4 ADD MSTORE PUSH2 0x62E DUP2 PUSH2 0x5F2 JUMP JUMPDEST SWAP1 POP SWAP2 SWAP1 POP JUMP JUMPDEST PUSH32 0x4E487B7100000000000000000000000000000000000000000000000000000000 PUSH1 0x0 MSTORE PUSH1 0x11 PUSH1 0x4 MSTORE PUSH1 0x24 PUSH1 0x0 REVERT JUMPDEST PUSH1 0x0 PUSH2 0x66F DUP3 PUSH2 0x4D9 JUMP JUMPDEST SWAP2 POP PUSH2 0x67A DUP4 PUSH2 0x4D9 JUMP JUMPDEST SWAP3 POP DUP3 DUP3 ADD SWAP1 POP DUP1 DUP3 GT ISZERO PUSH2 0x692 JUMPI PUSH2 0x691 PUSH2 0x635 JUMP JUMPDEST JUMPDEST SWAP3 SWAP2 POP POP JUMP INVALID LOG2 PUSH5 0x6970667358 0x22 SLT KECCAK256 0xEA MSTORE 0xF9 0x5E 0xDA SWAP2 LOG4 0xA9 0xB2 SWAP16 PUSH8 0x9832FDD82CA55DF0 NOT 0xC0 LOG4 STOP 0xCC 0xB0 PUSH18 0xC7B56BC2E32964736F6C6343000812003300 "
				},
				"gasEstimates": {
					"creation": {
						"codeDepositCost": "348400",
						"executionCost": "infinite",
						"totalCost": "infinite"
					},
					"external": {
						"donate()": "infinite",
						"image()": "infinite",
						"owner()": "2514",
						"receivedAmount()": "2451",
						"requiredAmount()": "2452",
						"story()": "infinite",
						"title()": "infinite"
					}
				},
				"methodIdentifiers": {
					"donate()": "ed88c68e",
					"image()": "f3ccaac0",
					"owner()": "8da5cb5b",
					"receivedAmount()": "9632e720",
					"requiredAmount()": "48b9ef40",
					"story()": "46c922d1",
					"title()": "4a79d50c"
				}
			},
			"storageLayout": {
				"storage": [
					{
						"astId": 104,
						"contract": "Campaign.sol:Campaign",
						"label": "title",
						"offset": 0,
						"slot": "0",
						"type": "t_string_storage"
					},
					{
						"astId": 106,
						"contract": "Campaign.sol:Campaign",
						"label": "requiredAmount",
						"offset": 0,
						"slot": "1",
						"type": "t_uint256"
					},
					{
						"astId": 108,
						"contract": "Campaign.sol:Campaign",
						"label": "image",
						"offset": 0,
						"slot": "2",
						"type": "t_string_storage"
					},
					{
						"astId": 110,
						"contract": "Campaign.sol:Campaign",
						"label": "story",
						"offset": 0,
						"slot": "3",
						"type": "t_string_storage"
					},
					{
						"astId": 112,
						"contract": "Campaign.sol:Campaign",
						"label": "owner",
						"offset": 0,
						"slot": "4",
						"type": "t_address_payable"
					},
					{
						"astId": 114,
						"contract": "Campaign.sol:Campaign",
						"label": "receivedAmount",
						"offset": 0,
						"slot": "5",
						"type": "t_uint256"
					}
				],
				"types": {
					"t_address_payable": {
						"encoding": "inplace",
						"label": "address payable",
						"numberOfBytes": "20"
					},
					"t_string_storage": {
						"encoding": "bytes",
						"label": "string",
						"numberOfBytes": "32"
					},
					"t_uint256": {
						"encoding": "inplace",
						"label": "uint256",
						"numberOfBytes": "32"
					}
				}
			},
			"userdoc": {
				"kind": "user",
				"methods": {},
				"version": 1
			}
		}
	}
}