{
	"44_lottery.sol": {
		"Lottery": {
			"abi": [
				{
					"inputs": [],
					"stateMutability": "nonpayable",
					"type": "constructor"
				},
				{
					"inputs": [],
					"name": "alreadyEntered",
					"outputs": [
						{
							"internalType": "bool",
							"name": "",
							"type": "bool"
						}
					],
					"stateMutability": "view",
					"type": "function"
				},
				{
					"inputs": [],
					"name": "enter",
					"outputs": [],
					"stateMutability": "payable",
					"type": "function"
				},
				{
					"inputs": [],
					"name": "getPlayers",
					"outputs": [
						{
							"internalType": "address payable[]",
							"name": "",
							"type": "address[]"
						}
					],
					"stateMutability": "view",
					"type": "function"
				},
				{
					"inputs": [],
					"name": "manager",
					"outputs": [
						{
							"internalType": "address",
							"name": "",
							"type": "address"
						}
					],
					"stateMutability": "view",
					"type": "function"
				},
				{
					"inputs": [],
					"name": "pickWinner",
					"outputs": [
						{
							"internalType": "string",
							"name": "",
							"type": "string"
						}
					],
					"stateMutability": "nonpayable",
					"type": "function"
				},
				{
					"inputs": [
						{
							"internalType": "uint256",
							"name": "",
							"type": "uint256"
						}
					],
					"name": "players",
					"outputs": [
						{
							"internalType": "address payable",
							"name": "",
							"type": "address"
						}
					],
					"stateMutability": "view",
					"type": "function"
				},
				{
					"inputs": [],
					"name": "random",
					"outputs": [
						{
							"internalType": "uint256",
							"name": "",
							"type": "uint256"
						}
					],
					"stateMutability": "view",
					"type": "function"
				},
				{
					"inputs": [],
					"name": "restartContract",
					"outputs": [],
					"stateMutability": "nonpayable",
					"type": "function"
				}
			],
			"devdoc": {
				"kind": "dev",
				"methods": {},
				"version": 1
			},
			"evm": {
				"assembly": "    /* \"44_lottery.sol\":60:1507  contract Lottery {... */\n  mstore(0x40, 0x80)\n    /* \"44_lottery.sol\":160:213  constructor() {... */\n  callvalue\n  dup1\n  iszero\n  tag_1\n  jumpi\n  0x00\n  dup1\n  revert\ntag_1:\n  pop\n    /* \"44_lottery.sol\":195:205  msg.sender */\n  caller\n    /* \"44_lottery.sol\":185:192  manager */\n  0x00\n  dup1\n    /* \"44_lottery.sol\":185:205  manager = msg.sender */\n  0x0100\n  exp\n  dup2\n  sload\n  dup2\n  0xffffffffffffffffffffffffffffffffffffffff\n  mul\n  not\n  and\n  swap1\n  dup4\n  0xffffffffffffffffffffffffffffffffffffffff\n  and\n  mul\n  or\n  swap1\n  sstore\n  pop\n    /* \"44_lottery.sol\":60:1507  contract Lottery {... */\n  dataSize(sub_0)\n  dup1\n  dataOffset(sub_0)\n  0x00\n  codecopy\n  0x00\n  return\nstop\n\nsub_0: assembly {\n        /* \"44_lottery.sol\":60:1507  contract Lottery {... */\n      mstore(0x40, 0x80)\n      jumpi(tag_1, lt(calldatasize, 0x04))\n      shr(0xe0, calldataload(0x00))\n      dup1\n      0x5ec01e4d\n      gt\n      tag_10\n      jumpi\n      dup1\n      0x5ec01e4d\n      eq\n      tag_6\n      jumpi\n      dup1\n      0x8b5b9ccc\n      eq\n      tag_7\n      jumpi\n      dup1\n      0xe97dcb62\n      eq\n      tag_8\n      jumpi\n      dup1\n      0xf71d96cb\n      eq\n      tag_9\n      jumpi\n      jump(tag_1)\n    tag_10:\n      dup1\n      0x1db2468b\n      eq\n      tag_2\n      jumpi\n      dup1\n      0x30a52d5b\n      eq\n      tag_3\n      jumpi\n      dup1\n      0x481c6a75\n      eq\n      tag_4\n      jumpi\n      dup1\n      0x5d495aea\n      eq\n      tag_5\n      jumpi\n    tag_1:\n      0x00\n      dup1\n      revert\n        /* \"44_lottery.sol\":221:463  function alreadyEntered() public view returns (bool) {... */\n    tag_2:\n      callvalue\n      dup1\n      iszero\n      tag_11\n      jumpi\n      0x00\n      dup1\n      revert\n    tag_11:\n      pop\n      tag_12\n      tag_13\n      jump\t// in\n    tag_12:\n      mload(0x40)\n      tag_14\n      swap2\n      swap1\n      tag_15\n      jump\t// in\n    tag_14:\n      mload(0x40)\n      dup1\n      swap2\n      sub\n      swap1\n      return\n        /* \"44_lottery.sol\":1303:1390  function restartContract() public {... */\n    tag_3:\n      callvalue\n      dup1\n      iszero\n      tag_16\n      jumpi\n      0x00\n      dup1\n      revert\n    tag_16:\n      pop\n      tag_17\n      tag_18\n      jump\t// in\n    tag_17:\n      stop\n        /* \"44_lottery.sol\":90:112  address public manager */\n    tag_4:\n      callvalue\n      dup1\n      iszero\n      tag_19\n      jumpi\n      0x00\n      dup1\n      revert\n    tag_19:\n      pop\n      tag_20\n      tag_21\n      jump\t// in\n    tag_20:\n      mload(0x40)\n      tag_22\n      swap2\n      swap1\n      tag_23\n      jump\t// in\n    tag_22:\n      mload(0x40)\n      dup1\n      swap2\n      sub\n      swap1\n      return\n        /* \"44_lottery.sol\":930:1295  function pickWinner() public returns (string memory)  {... */\n    tag_5:\n      callvalue\n      dup1\n      iszero\n      tag_24\n      jumpi\n      0x00\n      dup1\n      revert\n    tag_24:\n      pop\n      tag_25\n      tag_26\n      jump\t// in\n    tag_25:\n      mload(0x40)\n      tag_27\n      swap2\n      swap1\n      tag_28\n      jump\t// in\n    tag_27:\n      mload(0x40)\n      dup1\n      swap2\n      sub\n      swap1\n      return\n        /* \"44_lottery.sol\":783:922  function random() public view returns (uint) {... */\n    tag_6:\n      callvalue\n      dup1\n      iszero\n      tag_29\n      jumpi\n      0x00\n      dup1\n      revert\n    tag_29:\n      pop\n      tag_30\n      tag_31\n      jump\t// in\n    tag_30:\n      mload(0x40)\n      tag_32\n      swap2\n      swap1\n      tag_33\n      jump\t// in\n    tag_32:\n      mload(0x40)\n      dup1\n      swap2\n      sub\n      swap1\n      return\n        /* \"44_lottery.sol\":1398:1502  function getPlayers() view public returns (address payable [] memory)  {... */\n    tag_7:\n      callvalue\n      dup1\n      iszero\n      tag_34\n      jumpi\n      0x00\n      dup1\n      revert\n    tag_34:\n      pop\n      tag_35\n      tag_36\n      jump\t// in\n    tag_35:\n      mload(0x40)\n      tag_37\n      swap2\n      swap1\n      tag_38\n      jump\t// in\n    tag_37:\n      mload(0x40)\n      dup1\n      swap2\n      sub\n      swap1\n      return\n        /* \"44_lottery.sol\":471:775  function enter() public payable  {... */\n    tag_8:\n      tag_39\n      tag_40\n      jump\t// in\n    tag_39:\n      stop\n        /* \"44_lottery.sol\":119:151  address payable[] public players */\n    tag_9:\n      callvalue\n      dup1\n      iszero\n      tag_41\n      jumpi\n      0x00\n      dup1\n      revert\n    tag_41:\n      pop\n      tag_42\n      0x04\n      dup1\n      calldatasize\n      sub\n      dup2\n      add\n      swap1\n      tag_43\n      swap2\n      swap1\n      tag_44\n      jump\t// in\n    tag_43:\n      tag_45\n      jump\t// in\n    tag_42:\n      mload(0x40)\n      tag_46\n      swap2\n      swap1\n      tag_47\n      jump\t// in\n    tag_46:\n      mload(0x40)\n      dup1\n      swap2\n      sub\n      swap1\n      return\n        /* \"44_lottery.sol\":221:463  function alreadyEntered() public view returns (bool) {... */\n    tag_13:\n        /* \"44_lottery.sol\":268:272  bool */\n      0x00\n        /* \"44_lottery.sol\":290:296  uint i */\n      dup1\n        /* \"44_lottery.sol\":297:298  0 */\n      0x00\n        /* \"44_lottery.sol\":290:298  uint i=0 */\n      swap1\n      pop\n        /* \"44_lottery.sol\":285:433  for (uint i=0; i<players.length; i++) ... */\n    tag_49:\n        /* \"44_lottery.sol\":302:309  players */\n      0x01\n        /* \"44_lottery.sol\":302:316  players.length */\n      dup1\n      sload\n      swap1\n      pop\n        /* \"44_lottery.sol\":300:301  i */\n      dup2\n        /* \"44_lottery.sol\":300:316  i<players.length */\n      lt\n        /* \"44_lottery.sol\":285:433  for (uint i=0; i<players.length; i++) ... */\n      iszero\n      tag_50\n      jumpi\n        /* \"44_lottery.sol\":365:375  msg.sender */\n      caller\n        /* \"44_lottery.sol\":351:375  players[i] == msg.sender */\n      0xffffffffffffffffffffffffffffffffffffffff\n      and\n        /* \"44_lottery.sol\":351:358  players */\n      0x01\n        /* \"44_lottery.sol\":359:360  i */\n      dup3\n        /* \"44_lottery.sol\":351:361  players[i] */\n      dup2\n      sload\n      dup2\n      lt\n      tag_52\n      jumpi\n      tag_53\n      tag_54\n      jump\t// in\n    tag_53:\n    tag_52:\n      swap1\n      0x00\n      mstore\n      keccak256(0x00, 0x20)\n      add\n      0x00\n      swap1\n      sload\n      swap1\n      0x0100\n      exp\n      swap1\n      div\n      0xffffffffffffffffffffffffffffffffffffffff\n      and\n        /* \"44_lottery.sol\":351:375  players[i] == msg.sender */\n      0xffffffffffffffffffffffffffffffffffffffff\n      and\n      sub\n        /* \"44_lottery.sol\":348:422  if(players[i] == msg.sender){... */\n      tag_56\n      jumpi\n        /* \"44_lottery.sol\":402:406  true */\n      0x01\n        /* \"44_lottery.sol\":395:406  return true */\n      swap2\n      pop\n      pop\n      jump(tag_48)\n        /* \"44_lottery.sol\":348:422  if(players[i] == msg.sender){... */\n    tag_56:\n        /* \"44_lottery.sol\":318:321  i++ */\n      dup1\n      dup1\n      tag_57\n      swap1\n      tag_58\n      jump\t// in\n    tag_57:\n      swap2\n      pop\n      pop\n        /* \"44_lottery.sol\":285:433  for (uint i=0; i<players.length; i++) ... */\n      jump(tag_49)\n    tag_50:\n      pop\n        /* \"44_lottery.sol\":450:455  false */\n      0x00\n        /* \"44_lottery.sol\":443:455  return false */\n      swap1\n      pop\n        /* \"44_lottery.sol\":221:463  function alreadyEntered() public view returns (bool) {... */\n    tag_48:\n      swap1\n      jump\t// out\n        /* \"44_lottery.sol\":1303:1390  function restartContract() public {... */\n    tag_18:\n        /* \"44_lottery.sol\":1380:1381  0 */\n      0x00\n        /* \"44_lottery.sol\":1358:1382  new address payable[](0) */\n      0xffffffffffffffff\n      dup2\n      gt\n      iszero\n      tag_60\n      jumpi\n      tag_61\n      tag_62\n      jump\t// in\n    tag_61:\n    tag_60:\n      mload(0x40)\n      swap1\n      dup1\n      dup3\n      mstore\n      dup1\n      0x20\n      mul\n      0x20\n      add\n      dup3\n      add\n      0x40\n      mstore\n      dup1\n      iszero\n      tag_63\n      jumpi\n      dup2\n      0x20\n      add\n      0x20\n      dup3\n      mul\n      dup1\n      calldatasize\n      dup4\n      calldatacopy\n      dup1\n      dup3\n      add\n      swap2\n      pop\n      pop\n      swap1\n      pop\n    tag_63:\n      pop\n        /* \"44_lottery.sol\":1348:1355  players */\n      0x01\n        /* \"44_lottery.sol\":1348:1382  players = new address payable[](0) */\n      swap1\n      dup1\n      mload\n      swap1\n      0x20\n      add\n      swap1\n      tag_64\n      swap3\n      swap2\n      swap1\n      tag_65\n      jump\t// in\n    tag_64:\n      pop\n        /* \"44_lottery.sol\":1303:1390  function restartContract() public {... */\n      jump\t// out\n        /* \"44_lottery.sol\":90:112  address public manager */\n    tag_21:\n      0x00\n      dup1\n      sload\n      swap1\n      0x0100\n      exp\n      swap1\n      div\n      0xffffffffffffffffffffffffffffffffffffffff\n      and\n      dup2\n      jump\t// out\n        /* \"44_lottery.sol\":930:1295  function pickWinner() public returns (string memory)  {... */\n    tag_26:\n        /* \"44_lottery.sol\":968:981  string memory */\n      0x60\n        /* \"44_lottery.sol\":1017:1024  manager */\n      0x00\n      dup1\n      sload\n      swap1\n      0x0100\n      exp\n      swap1\n      div\n      0xffffffffffffffffffffffffffffffffffffffff\n      and\n        /* \"44_lottery.sol\":1003:1024  msg.sender == manager */\n      0xffffffffffffffffffffffffffffffffffffffff\n      and\n        /* \"44_lottery.sol\":1003:1013  msg.sender */\n      caller\n        /* \"44_lottery.sol\":1003:1024  msg.sender == manager */\n      0xffffffffffffffffffffffffffffffffffffffff\n      and\n      eq\n        /* \"44_lottery.sol\":995:1059  require(msg.sender == manager, \"Only manager can select winner\") */\n      tag_67\n      jumpi\n      mload(0x40)\n      0x08c379a000000000000000000000000000000000000000000000000000000000\n      dup2\n      mstore\n      0x04\n      add\n      tag_68\n      swap1\n      tag_69\n      jump\t// in\n    tag_68:\n      mload(0x40)\n      dup1\n      swap2\n      sub\n      swap1\n      revert\n    tag_67:\n        /* \"44_lottery.sol\":1070:1080  uint index */\n      0x00\n        /* \"44_lottery.sol\":1092:1099  players */\n      0x01\n        /* \"44_lottery.sol\":1092:1106  players.length */\n      dup1\n      sload\n      swap1\n      pop\n        /* \"44_lottery.sol\":1083:1091  random() */\n      tag_70\n        /* \"44_lottery.sol\":1083:1089  random */\n      tag_31\n        /* \"44_lottery.sol\":1083:1091  random() */\n      jump\t// in\n    tag_70:\n        /* \"44_lottery.sol\":1083:1106  random()%players.length */\n      tag_71\n      swap2\n      swap1\n      tag_72\n      jump\t// in\n    tag_71:\n        /* \"44_lottery.sol\":1070:1106  uint index = random()%players.length */\n      swap1\n      pop\n        /* \"44_lottery.sol\":1117:1140  address contractAddress */\n      0x00\n        /* \"44_lottery.sol\":1151:1155  this */\n      address\n        /* \"44_lottery.sol\":1117:1156  address contractAddress = address(this) */\n      swap1\n      pop\n        /* \"44_lottery.sol\":1167:1174  players */\n      0x01\n        /* \"44_lottery.sol\":1175:1180  index */\n      dup3\n        /* \"44_lottery.sol\":1167:1181  players[index] */\n      dup2\n      sload\n      dup2\n      lt\n      tag_73\n      jumpi\n      tag_74\n      tag_54\n      jump\t// in\n    tag_74:\n    tag_73:\n      swap1\n      0x00\n      mstore\n      keccak256(0x00, 0x20)\n      add\n      0x00\n      swap1\n      sload\n      swap1\n      0x0100\n      exp\n      swap1\n      div\n      0xffffffffffffffffffffffffffffffffffffffff\n      and\n        /* \"44_lottery.sol\":1167:1190  players[index].transfer */\n      0xffffffffffffffffffffffffffffffffffffffff\n      and\n        /* \"44_lottery.sol\":1167:1215  players[index].transfer(contractAddress.balance) */\n      0x08fc\n        /* \"44_lottery.sol\":1191:1206  contractAddress */\n      dup3\n        /* \"44_lottery.sol\":1191:1214  contractAddress.balance */\n      0xffffffffffffffffffffffffffffffffffffffff\n      and\n      balance\n        /* \"44_lottery.sol\":1167:1215  players[index].transfer(contractAddress.balance) */\n      swap1\n      dup2\n      iszero\n      mul\n      swap1\n      mload(0x40)\n      0x00\n      mload(0x40)\n      dup1\n      dup4\n      sub\n      dup2\n      dup6\n      dup9\n      dup9\n      call\n      swap4\n      pop\n      pop\n      pop\n      pop\n      iszero\n      dup1\n      iszero\n      tag_77\n      jumpi\n      returndatasize\n      0x00\n      dup1\n      returndatacopy\n      revert(0x00, returndatasize)\n    tag_77:\n      pop\n        /* \"44_lottery.sol\":1271:1278  players */\n      0x01\n        /* \"44_lottery.sol\":1279:1284  index */\n      dup3\n        /* \"44_lottery.sol\":1271:1285  players[index] */\n      dup2\n      sload\n      dup2\n      lt\n      tag_78\n      jumpi\n      tag_79\n      tag_54\n      jump\t// in\n    tag_79:\n    tag_78:\n      swap1\n      0x00\n      mstore\n      keccak256(0x00, 0x20)\n      add\n      0x00\n      swap1\n      sload\n      swap1\n      0x0100\n      exp\n      swap1\n      div\n      0xffffffffffffffffffffffffffffffffffffffff\n      and\n        /* \"44_lottery.sol\":1240:1286  abi.encodePacked(\"Winner is \", players[index]) */\n      add(0x20, mload(0x40))\n      tag_81\n      swap2\n      swap1\n      tag_82\n      jump\t// in\n    tag_81:\n      mload(0x40)\n      0x20\n      dup2\n      dup4\n      sub\n      sub\n      dup2\n      mstore\n      swap1\n      0x40\n      mstore\n        /* \"44_lottery.sol\":1226:1287  return string(abi.encodePacked(\"Winner is \", players[index])) */\n      swap3\n      pop\n      pop\n      pop\n        /* \"44_lottery.sol\":930:1295  function pickWinner() public returns (string memory)  {... */\n      swap1\n      jump\t// out\n        /* \"44_lottery.sol\":783:922  function random() public view returns (uint) {... */\n    tag_31:\n        /* \"44_lottery.sol\":822:826  uint */\n      0x00\n        /* \"44_lottery.sol\":852:912  sha256( abi.encodePacked(blockhash(block.number), players) ) */\n      0x02\n        /* \"44_lottery.sol\":887:899  block.number */\n      number\n        /* \"44_lottery.sol\":877:900  blockhash(block.number) */\n      blockhash\n        /* \"44_lottery.sol\":902:909  players */\n      0x01\n        /* \"44_lottery.sol\":860:910  abi.encodePacked(blockhash(block.number), players) */\n      add(0x20, mload(0x40))\n      tag_84\n      swap3\n      swap2\n      swap1\n      tag_85\n      jump\t// in\n    tag_84:\n      mload(0x40)\n      0x20\n      dup2\n      dup4\n      sub\n      sub\n      dup2\n      mstore\n      swap1\n      0x40\n      mstore\n        /* \"44_lottery.sol\":852:912  sha256( abi.encodePacked(blockhash(block.number), players) ) */\n      mload(0x40)\n      tag_86\n      swap2\n      swap1\n      tag_87\n      jump\t// in\n    tag_86:\n      0x20\n      mload(0x40)\n      dup1\n      dup4\n      sub\n      dup2\n      dup6\n      gas\n      staticcall\n      iszero\n      dup1\n      iszero\n      tag_89\n      jumpi\n      returndatasize\n      0x00\n      dup1\n      returndatacopy\n      revert(0x00, returndatasize)\n    tag_89:\n      pop\n      pop\n      pop\n      mload(0x40)\n      returndatasize\n      not(0x1f)\n      0x1f\n      dup3\n      add\n      and\n      dup3\n      add\n      dup1\n      0x40\n      mstore\n      pop\n      dup2\n      add\n      swap1\n      tag_90\n      swap2\n      swap1\n      tag_91\n      jump\t// in\n    tag_90:\n        /* \"44_lottery.sol\":846:914  uint( sha256( abi.encodePacked(blockhash(block.number), players) ) ) */\n      0x00\n      shr\n        /* \"44_lottery.sol\":839:914  return uint( sha256( abi.encodePacked(blockhash(block.number), players) ) ) */\n      swap1\n      pop\n        /* \"44_lottery.sol\":783:922  function random() public view returns (uint) {... */\n      swap1\n      jump\t// out\n        /* \"44_lottery.sol\":1398:1502  function getPlayers() view public returns (address payable [] memory)  {... */\n    tag_36:\n        /* \"44_lottery.sol\":1441:1466  address payable [] memory */\n      0x60\n        /* \"44_lottery.sol\":1487:1494  players */\n      0x01\n        /* \"44_lottery.sol\":1480:1494  return players */\n      dup1\n      sload\n      dup1\n      0x20\n      mul\n      0x20\n      add\n      mload(0x40)\n      swap1\n      dup2\n      add\n      0x40\n      mstore\n      dup1\n      swap3\n      swap2\n      swap1\n      dup2\n      dup2\n      mstore\n      0x20\n      add\n      dup3\n      dup1\n      sload\n      dup1\n      iszero\n      tag_93\n      jumpi\n      0x20\n      mul\n      dup3\n      add\n      swap2\n      swap1\n      0x00\n      mstore\n      keccak256(0x00, 0x20)\n      swap1\n    tag_94:\n      dup2\n      0x00\n      swap1\n      sload\n      swap1\n      0x0100\n      exp\n      swap1\n      div\n      0xffffffffffffffffffffffffffffffffffffffff\n      and\n      0xffffffffffffffffffffffffffffffffffffffff\n      and\n      dup2\n      mstore\n      0x20\n      add\n      swap1\n      0x01\n      add\n      swap1\n      dup1\n      dup4\n      gt\n      tag_94\n      jumpi\n    tag_93:\n      pop\n      pop\n      pop\n      pop\n      pop\n      swap1\n      pop\n        /* \"44_lottery.sol\":1398:1502  function getPlayers() view public returns (address payable [] memory)  {... */\n      swap1\n      jump\t// out\n        /* \"44_lottery.sol\":471:775  function enter() public payable  {... */\n    tag_40:\n        /* \"44_lottery.sol\":537:544  manager */\n      0x00\n      dup1\n      sload\n      swap1\n      0x0100\n      exp\n      swap1\n      div\n      0xffffffffffffffffffffffffffffffffffffffff\n      and\n        /* \"44_lottery.sol\":523:544  msg.sender != manager */\n      0xffffffffffffffffffffffffffffffffffffffff\n      and\n        /* \"44_lottery.sol\":523:533  msg.sender */\n      caller\n        /* \"44_lottery.sol\":523:544  msg.sender != manager */\n      0xffffffffffffffffffffffffffffffffffffffff\n      and\n      sub\n        /* \"44_lottery.sol\":515:568  require(msg.sender != manager, \"Manger Cannot Enter\") */\n      tag_96\n      jumpi\n      mload(0x40)\n      0x08c379a000000000000000000000000000000000000000000000000000000000\n      dup2\n      mstore\n      0x04\n      add\n      tag_97\n      swap1\n      tag_98\n      jump\t// in\n    tag_97:\n      mload(0x40)\n      dup1\n      swap2\n      sub\n      swap1\n      revert\n    tag_96:\n        /* \"44_lottery.sol\":607:612  false */\n      0x00\n        /* \"44_lottery.sol\":587:612  alreadyEntered() == false */\n      iszero\n      iszero\n        /* \"44_lottery.sol\":587:603  alreadyEntered() */\n      tag_99\n        /* \"44_lottery.sol\":587:601  alreadyEntered */\n      tag_13\n        /* \"44_lottery.sol\":587:603  alreadyEntered() */\n      jump\t// in\n    tag_99:\n        /* \"44_lottery.sol\":587:612  alreadyEntered() == false */\n      iszero\n      iszero\n      eq\n        /* \"44_lottery.sol\":579:651  require(alreadyEntered() == false, \"Player Cannot enter more than once\") */\n      tag_100\n      jumpi\n      mload(0x40)\n      0x08c379a000000000000000000000000000000000000000000000000000000000\n      dup2\n      mstore\n      0x04\n      add\n      tag_101\n      swap1\n      tag_102\n      jump\t// in\n    tag_101:\n      mload(0x40)\n      dup1\n      swap2\n      sub\n      swap1\n      revert\n    tag_100:\n        /* \"44_lottery.sol\":683:690  1 ether */\n      0x0de0b6b3a7640000\n        /* \"44_lottery.sol\":670:679  msg.value */\n      callvalue\n        /* \"44_lottery.sol\":670:690  msg.value >= 1 ether */\n      lt\n      iszero\n        /* \"44_lottery.sol\":662:723  require(msg.value >= 1 ether, \"Must need to pay Minimum Fee\") */\n      tag_103\n      jumpi\n      mload(0x40)\n      0x08c379a000000000000000000000000000000000000000000000000000000000\n      dup2\n      mstore\n      0x04\n      add\n      tag_104\n      swap1\n      tag_105\n      jump\t// in\n    tag_104:\n      mload(0x40)\n      dup1\n      swap2\n      sub\n      swap1\n      revert\n    tag_103:\n        /* \"44_lottery.sol\":734:741  players */\n      0x01\n        /* \"44_lottery.sol\":755:765  msg.sender */\n      caller\n        /* \"44_lottery.sol\":734:767  players.push(payable(msg.sender)) */\n      swap1\n      dup1\n      0x01\n      dup2\n      sload\n      add\n      dup1\n      dup3\n      sstore\n      dup1\n      swap2\n      pop\n      pop\n      0x01\n      swap1\n      sub\n      swap1\n      0x00\n      mstore\n      keccak256(0x00, 0x20)\n      add\n      0x00\n      swap1\n      swap2\n      swap1\n      swap2\n      swap1\n      swap2\n      0x0100\n      exp\n      dup2\n      sload\n      dup2\n      0xffffffffffffffffffffffffffffffffffffffff\n      mul\n      not\n      and\n      swap1\n      dup4\n      0xffffffffffffffffffffffffffffffffffffffff\n      and\n      mul\n      or\n      swap1\n      sstore\n      pop\n        /* \"44_lottery.sol\":471:775  function enter() public payable  {... */\n      jump\t// out\n        /* \"44_lottery.sol\":119:151  address payable[] public players */\n    tag_45:\n      0x01\n      dup2\n      dup2\n      sload\n      dup2\n      lt\n      tag_107\n      jumpi\n      0x00\n      dup1\n      revert\n    tag_107:\n      swap1\n      0x00\n      mstore\n      keccak256(0x00, 0x20)\n      add\n      0x00\n      swap2\n      pop\n      sload\n      swap1\n      0x0100\n      exp\n      swap1\n      div\n      0xffffffffffffffffffffffffffffffffffffffff\n      and\n      dup2\n      jump\t// out\n    tag_65:\n      dup3\n      dup1\n      sload\n      dup3\n      dup3\n      sstore\n      swap1\n      0x00\n      mstore\n      keccak256(0x00, 0x20)\n      swap1\n      dup2\n      add\n      swap3\n      dup3\n      iszero\n      tag_109\n      jumpi\n      swap2\n      0x20\n      mul\n      dup3\n      add\n    tag_110:\n      dup3\n      dup2\n      gt\n      iszero\n      tag_111\n      jumpi\n      dup3\n      mload\n      dup3\n      exp(0x0100, 0x00)\n      dup2\n      sload\n      dup2\n      0xffffffffffffffffffffffffffffffffffffffff\n      mul\n      not\n      and\n      swap1\n      dup4\n      0xffffffffffffffffffffffffffffffffffffffff\n      and\n      mul\n      or\n      swap1\n      sstore\n      pop\n      swap2\n      0x20\n      add\n      swap2\n      swap1\n      0x01\n      add\n      swap1\n      jump(tag_110)\n    tag_111:\n    tag_109:\n      pop\n      swap1\n      pop\n      tag_112\n      swap2\n      swap1\n      tag_113\n      jump\t// in\n    tag_112:\n      pop\n      swap1\n      jump\t// out\n    tag_113:\n    tag_114:\n      dup1\n      dup3\n      gt\n      iszero\n      tag_115\n      jumpi\n      0x00\n      dup2\n      0x00\n      swap1\n      sstore\n      pop\n      0x01\n      add\n      jump(tag_114)\n    tag_115:\n      pop\n      swap1\n      jump\t// out\n        /* \"#utility.yul\":7:97   */\n    tag_116:\n        /* \"#utility.yul\":41:48   */\n      0x00\n        /* \"#utility.yul\":84:89   */\n      dup2\n        /* \"#utility.yul\":77:90   */\n      iszero\n        /* \"#utility.yul\":70:91   */\n      iszero\n        /* \"#utility.yul\":59:91   */\n      swap1\n      pop\n        /* \"#utility.yul\":7:97   */\n      swap2\n      swap1\n      pop\n      jump\t// out\n        /* \"#utility.yul\":103:212   */\n    tag_117:\n        /* \"#utility.yul\":184:205   */\n      tag_181\n        /* \"#utility.yul\":199:204   */\n      dup2\n        /* \"#utility.yul\":184:205   */\n      tag_116\n      jump\t// in\n    tag_181:\n        /* \"#utility.yul\":179:182   */\n      dup3\n        /* \"#utility.yul\":172:206   */\n      mstore\n        /* \"#utility.yul\":103:212   */\n      pop\n      pop\n      jump\t// out\n        /* \"#utility.yul\":218:428   */\n    tag_15:\n        /* \"#utility.yul\":305:309   */\n      0x00\n        /* \"#utility.yul\":343:345   */\n      0x20\n        /* \"#utility.yul\":332:341   */\n      dup3\n        /* \"#utility.yul\":328:346   */\n      add\n        /* \"#utility.yul\":320:346   */\n      swap1\n      pop\n        /* \"#utility.yul\":356:421   */\n      tag_183\n        /* \"#utility.yul\":418:419   */\n      0x00\n        /* \"#utility.yul\":407:416   */\n      dup4\n        /* \"#utility.yul\":403:420   */\n      add\n        /* \"#utility.yul\":394:400   */\n      dup5\n        /* \"#utility.yul\":356:421   */\n      tag_117\n      jump\t// in\n    tag_183:\n        /* \"#utility.yul\":218:428   */\n      swap3\n      swap2\n      pop\n      pop\n      jump\t// out\n        /* \"#utility.yul\":434:560   */\n    tag_118:\n        /* \"#utility.yul\":471:478   */\n      0x00\n        /* \"#utility.yul\":511:553   */\n      0xffffffffffffffffffffffffffffffffffffffff\n        /* \"#utility.yul\":504:509   */\n      dup3\n        /* \"#utility.yul\":500:554   */\n      and\n        /* \"#utility.yul\":489:554   */\n      swap1\n      pop\n        /* \"#utility.yul\":434:560   */\n      swap2\n      swap1\n      pop\n      jump\t// out\n        /* \"#utility.yul\":566:662   */\n    tag_119:\n        /* \"#utility.yul\":603:610   */\n      0x00\n        /* \"#utility.yul\":632:656   */\n      tag_186\n        /* \"#utility.yul\":650:655   */\n      dup3\n        /* \"#utility.yul\":632:656   */\n      tag_118\n      jump\t// in\n    tag_186:\n        /* \"#utility.yul\":621:656   */\n      swap1\n      pop\n        /* \"#utility.yul\":566:662   */\n      swap2\n      swap1\n      pop\n      jump\t// out\n        /* \"#utility.yul\":668:786   */\n    tag_120:\n        /* \"#utility.yul\":755:779   */\n      tag_188\n        /* \"#utility.yul\":773:778   */\n      dup2\n        /* \"#utility.yul\":755:779   */\n      tag_119\n      jump\t// in\n    tag_188:\n        /* \"#utility.yul\":750:753   */\n      dup3\n        /* \"#utility.yul\":743:780   */\n      mstore\n        /* \"#utility.yul\":668:786   */\n      pop\n      pop\n      jump\t// out\n        /* \"#utility.yul\":792:1014   */\n    tag_23:\n        /* \"#utility.yul\":885:889   */\n      0x00\n        /* \"#utility.yul\":923:925   */\n      0x20\n        /* \"#utility.yul\":912:921   */\n      dup3\n        /* \"#utility.yul\":908:926   */\n      add\n        /* \"#utility.yul\":900:926   */\n      swap1\n      pop\n        /* \"#utility.yul\":936:1007   */\n      tag_190\n        /* \"#utility.yul\":1004:1005   */\n      0x00\n        /* \"#utility.yul\":993:1002   */\n      dup4\n        /* \"#utility.yul\":989:1006   */\n      add\n        /* \"#utility.yul\":980:986   */\n      dup5\n        /* \"#utility.yul\":936:1007   */\n      tag_120\n      jump\t// in\n    tag_190:\n        /* \"#utility.yul\":792:1014   */\n      swap3\n      swap2\n      pop\n      pop\n      jump\t// out\n        /* \"#utility.yul\":1020:1119   */\n    tag_121:\n        /* \"#utility.yul\":1072:1078   */\n      0x00\n        /* \"#utility.yul\":1106:1111   */\n      dup2\n        /* \"#utility.yul\":1100:1112   */\n      mload\n        /* \"#utility.yul\":1090:1112   */\n      swap1\n      pop\n        /* \"#utility.yul\":1020:1119   */\n      swap2\n      swap1\n      pop\n      jump\t// out\n        /* \"#utility.yul\":1125:1294   */\n    tag_122:\n        /* \"#utility.yul\":1209:1220   */\n      0x00\n        /* \"#utility.yul\":1243:1249   */\n      dup3\n        /* \"#utility.yul\":1238:1241   */\n      dup3\n        /* \"#utility.yul\":1231:1250   */\n      mstore\n        /* \"#utility.yul\":1283:1287   */\n      0x20\n        /* \"#utility.yul\":1278:1281   */\n      dup3\n        /* \"#utility.yul\":1274:1288   */\n      add\n        /* \"#utility.yul\":1259:1288   */\n      swap1\n      pop\n        /* \"#utility.yul\":1125:1294   */\n      swap3\n      swap2\n      pop\n      pop\n      jump\t// out\n        /* \"#utility.yul\":1300:1546   */\n    tag_123:\n        /* \"#utility.yul\":1381:1382   */\n      0x00\n        /* \"#utility.yul\":1391:1504   */\n    tag_194:\n        /* \"#utility.yul\":1405:1411   */\n      dup4\n        /* \"#utility.yul\":1402:1403   */\n      dup2\n        /* \"#utility.yul\":1399:1412   */\n      lt\n        /* \"#utility.yul\":1391:1504   */\n      iszero\n      tag_196\n      jumpi\n        /* \"#utility.yul\":1490:1491   */\n      dup1\n        /* \"#utility.yul\":1485:1488   */\n      dup3\n        /* \"#utility.yul\":1481:1492   */\n      add\n        /* \"#utility.yul\":1475:1493   */\n      mload\n        /* \"#utility.yul\":1471:1472   */\n      dup2\n        /* \"#utility.yul\":1466:1469   */\n      dup5\n        /* \"#utility.yul\":1462:1473   */\n      add\n        /* \"#utility.yul\":1455:1494   */\n      mstore\n        /* \"#utility.yul\":1427:1429   */\n      0x20\n        /* \"#utility.yul\":1424:1425   */\n      dup2\n        /* \"#utility.yul\":1420:1430   */\n      add\n        /* \"#utility.yul\":1415:1430   */\n      swap1\n      pop\n        /* \"#utility.yul\":1391:1504   */\n      jump(tag_194)\n    tag_196:\n        /* \"#utility.yul\":1538:1539   */\n      0x00\n        /* \"#utility.yul\":1529:1535   */\n      dup5\n        /* \"#utility.yul\":1524:1527   */\n      dup5\n        /* \"#utility.yul\":1520:1536   */\n      add\n        /* \"#utility.yul\":1513:1540   */\n      mstore\n        /* \"#utility.yul\":1362:1546   */\n      pop\n        /* \"#utility.yul\":1300:1546   */\n      pop\n      pop\n      pop\n      jump\t// out\n        /* \"#utility.yul\":1552:1654   */\n    tag_124:\n        /* \"#utility.yul\":1593:1599   */\n      0x00\n        /* \"#utility.yul\":1644:1646   */\n      0x1f\n        /* \"#utility.yul\":1640:1647   */\n      not\n        /* \"#utility.yul\":1635:1637   */\n      0x1f\n        /* \"#utility.yul\":1628:1633   */\n      dup4\n        /* \"#utility.yul\":1624:1638   */\n      add\n        /* \"#utility.yul\":1620:1648   */\n      and\n        /* \"#utility.yul\":1610:1648   */\n      swap1\n      pop\n        /* \"#utility.yul\":1552:1654   */\n      swap2\n      swap1\n      pop\n      jump\t// out\n        /* \"#utility.yul\":1660:2037   */\n    tag_125:\n        /* \"#utility.yul\":1748:1751   */\n      0x00\n        /* \"#utility.yul\":1776:1815   */\n      tag_199\n        /* \"#utility.yul\":1809:1814   */\n      dup3\n        /* \"#utility.yul\":1776:1815   */\n      tag_121\n      jump\t// in\n    tag_199:\n        /* \"#utility.yul\":1831:1902   */\n      tag_200\n        /* \"#utility.yul\":1895:1901   */\n      dup2\n        /* \"#utility.yul\":1890:1893   */\n      dup6\n        /* \"#utility.yul\":1831:1902   */\n      tag_122\n      jump\t// in\n    tag_200:\n        /* \"#utility.yul\":1824:1902   */\n      swap4\n      pop\n        /* \"#utility.yul\":1911:1976   */\n      tag_201\n        /* \"#utility.yul\":1969:1975   */\n      dup2\n        /* \"#utility.yul\":1964:1967   */\n      dup6\n        /* \"#utility.yul\":1957:1961   */\n      0x20\n        /* \"#utility.yul\":1950:1955   */\n      dup7\n        /* \"#utility.yul\":1946:1962   */\n      add\n        /* \"#utility.yul\":1911:1976   */\n      tag_123\n      jump\t// in\n    tag_201:\n        /* \"#utility.yul\":2001:2030   */\n      tag_202\n        /* \"#utility.yul\":2023:2029   */\n      dup2\n        /* \"#utility.yul\":2001:2030   */\n      tag_124\n      jump\t// in\n    tag_202:\n        /* \"#utility.yul\":1996:1999   */\n      dup5\n        /* \"#utility.yul\":1992:2031   */\n      add\n        /* \"#utility.yul\":1985:2031   */\n      swap2\n      pop\n        /* \"#utility.yul\":1752:2037   */\n      pop\n        /* \"#utility.yul\":1660:2037   */\n      swap3\n      swap2\n      pop\n      pop\n      jump\t// out\n        /* \"#utility.yul\":2043:2356   */\n    tag_28:\n        /* \"#utility.yul\":2156:2160   */\n      0x00\n        /* \"#utility.yul\":2194:2196   */\n      0x20\n        /* \"#utility.yul\":2183:2192   */\n      dup3\n        /* \"#utility.yul\":2179:2197   */\n      add\n        /* \"#utility.yul\":2171:2197   */\n      swap1\n      pop\n        /* \"#utility.yul\":2243:2252   */\n      dup2\n        /* \"#utility.yul\":2237:2241   */\n      dup2\n        /* \"#utility.yul\":2233:2253   */\n      sub\n        /* \"#utility.yul\":2229:2230   */\n      0x00\n        /* \"#utility.yul\":2218:2227   */\n      dup4\n        /* \"#utility.yul\":2214:2231   */\n      add\n        /* \"#utility.yul\":2207:2254   */\n      mstore\n        /* \"#utility.yul\":2271:2349   */\n      tag_204\n        /* \"#utility.yul\":2344:2348   */\n      dup2\n        /* \"#utility.yul\":2335:2341   */\n      dup5\n        /* \"#utility.yul\":2271:2349   */\n      tag_125\n      jump\t// in\n    tag_204:\n        /* \"#utility.yul\":2263:2349   */\n      swap1\n      pop\n        /* \"#utility.yul\":2043:2356   */\n      swap3\n      swap2\n      pop\n      pop\n      jump\t// out\n        /* \"#utility.yul\":2362:2439   */\n    tag_126:\n        /* \"#utility.yul\":2399:2406   */\n      0x00\n        /* \"#utility.yul\":2428:2433   */\n      dup2\n        /* \"#utility.yul\":2417:2433   */\n      swap1\n      pop\n        /* \"#utility.yul\":2362:2439   */\n      swap2\n      swap1\n      pop\n      jump\t// out\n        /* \"#utility.yul\":2445:2563   */\n    tag_127:\n        /* \"#utility.yul\":2532:2556   */\n      tag_207\n        /* \"#utility.yul\":2550:2555   */\n      dup2\n        /* \"#utility.yul\":2532:2556   */\n      tag_126\n      jump\t// in\n    tag_207:\n        /* \"#utility.yul\":2527:2530   */\n      dup3\n        /* \"#utility.yul\":2520:2557   */\n      mstore\n        /* \"#utility.yul\":2445:2563   */\n      pop\n      pop\n      jump\t// out\n        /* \"#utility.yul\":2569:2791   */\n    tag_33:\n        /* \"#utility.yul\":2662:2666   */\n      0x00\n        /* \"#utility.yul\":2700:2702   */\n      0x20\n        /* \"#utility.yul\":2689:2698   */\n      dup3\n        /* \"#utility.yul\":2685:2703   */\n      add\n        /* \"#utility.yul\":2677:2703   */\n      swap1\n      pop\n        /* \"#utility.yul\":2713:2784   */\n      tag_209\n        /* \"#utility.yul\":2781:2782   */\n      0x00\n        /* \"#utility.yul\":2770:2779   */\n      dup4\n        /* \"#utility.yul\":2766:2783   */\n      add\n        /* \"#utility.yul\":2757:2763   */\n      dup5\n        /* \"#utility.yul\":2713:2784   */\n      tag_127\n      jump\t// in\n    tag_209:\n        /* \"#utility.yul\":2569:2791   */\n      swap3\n      swap2\n      pop\n      pop\n      jump\t// out\n        /* \"#utility.yul\":2797:2919   */\n    tag_128:\n        /* \"#utility.yul\":2872:2878   */\n      0x00\n        /* \"#utility.yul\":2906:2911   */\n      dup2\n        /* \"#utility.yul\":2900:2912   */\n      mload\n        /* \"#utility.yul\":2890:2912   */\n      swap1\n      pop\n        /* \"#utility.yul\":2797:2919   */\n      swap2\n      swap1\n      pop\n      jump\t// out\n        /* \"#utility.yul\":2925:3117   */\n    tag_129:\n        /* \"#utility.yul\":3032:3043   */\n      0x00\n        /* \"#utility.yul\":3066:3072   */\n      dup3\n        /* \"#utility.yul\":3061:3064   */\n      dup3\n        /* \"#utility.yul\":3054:3073   */\n      mstore\n        /* \"#utility.yul\":3106:3110   */\n      0x20\n        /* \"#utility.yul\":3101:3104   */\n      dup3\n        /* \"#utility.yul\":3097:3111   */\n      add\n        /* \"#utility.yul\":3082:3111   */\n      swap1\n      pop\n        /* \"#utility.yul\":2925:3117   */\n      swap3\n      swap2\n      pop\n      pop\n      jump\t// out\n        /* \"#utility.yul\":3123:3263   */\n    tag_130:\n        /* \"#utility.yul\":3198:3202   */\n      0x00\n        /* \"#utility.yul\":3221:3224   */\n      dup2\n        /* \"#utility.yul\":3213:3224   */\n      swap1\n      pop\n        /* \"#utility.yul\":3251:3255   */\n      0x20\n        /* \"#utility.yul\":3246:3249   */\n      dup3\n        /* \"#utility.yul\":3242:3256   */\n      add\n        /* \"#utility.yul\":3234:3256   */\n      swap1\n      pop\n        /* \"#utility.yul\":3123:3263   */\n      swap2\n      swap1\n      pop\n      jump\t// out\n        /* \"#utility.yul\":3269:3373   */\n    tag_131:\n        /* \"#utility.yul\":3314:3321   */\n      0x00\n        /* \"#utility.yul\":3343:3367   */\n      tag_214\n        /* \"#utility.yul\":3361:3366   */\n      dup3\n        /* \"#utility.yul\":3343:3367   */\n      tag_118\n      jump\t// in\n    tag_214:\n        /* \"#utility.yul\":3332:3367   */\n      swap1\n      pop\n        /* \"#utility.yul\":3269:3373   */\n      swap2\n      swap1\n      pop\n      jump\t// out\n        /* \"#utility.yul\":3379:3511   */\n    tag_132:\n        /* \"#utility.yul\":3472:3504   */\n      tag_216\n        /* \"#utility.yul\":3498:3503   */\n      dup2\n        /* \"#utility.yul\":3472:3504   */\n      tag_131\n      jump\t// in\n    tag_216:\n        /* \"#utility.yul\":3467:3470   */\n      dup3\n        /* \"#utility.yul\":3460:3505   */\n      mstore\n        /* \"#utility.yul\":3379:3511   */\n      pop\n      pop\n      jump\t// out\n        /* \"#utility.yul\":3517:3728   */\n    tag_133:\n        /* \"#utility.yul\":3602:3612   */\n      0x00\n        /* \"#utility.yul\":3623:3685   */\n      tag_218\n        /* \"#utility.yul\":3681:3684   */\n      dup4\n        /* \"#utility.yul\":3673:3679   */\n      dup4\n        /* \"#utility.yul\":3623:3685   */\n      tag_132\n      jump\t// in\n    tag_218:\n        /* \"#utility.yul\":3717:3721   */\n      0x20\n        /* \"#utility.yul\":3712:3715   */\n      dup4\n        /* \"#utility.yul\":3708:3722   */\n      add\n        /* \"#utility.yul\":3694:3722   */\n      swap1\n      pop\n        /* \"#utility.yul\":3517:3728   */\n      swap3\n      swap2\n      pop\n      pop\n      jump\t// out\n        /* \"#utility.yul\":3734:3855   */\n    tag_134:\n        /* \"#utility.yul\":3812:3816   */\n      0x00\n        /* \"#utility.yul\":3844:3848   */\n      0x20\n        /* \"#utility.yul\":3839:3842   */\n      dup3\n        /* \"#utility.yul\":3835:3849   */\n      add\n        /* \"#utility.yul\":3827:3849   */\n      swap1\n      pop\n        /* \"#utility.yul\":3734:3855   */\n      swap2\n      swap1\n      pop\n      jump\t// out\n        /* \"#utility.yul\":3907:4703   */\n    tag_135:\n        /* \"#utility.yul\":4042:4045   */\n      0x00\n        /* \"#utility.yul\":4071:4133   */\n      tag_221\n        /* \"#utility.yul\":4127:4132   */\n      dup3\n        /* \"#utility.yul\":4071:4133   */\n      tag_128\n      jump\t// in\n    tag_221:\n        /* \"#utility.yul\":4149:4243   */\n      tag_222\n        /* \"#utility.yul\":4236:4242   */\n      dup2\n        /* \"#utility.yul\":4231:4234   */\n      dup6\n        /* \"#utility.yul\":4149:4243   */\n      tag_129\n      jump\t// in\n    tag_222:\n        /* \"#utility.yul\":4142:4243   */\n      swap4\n      pop\n        /* \"#utility.yul\":4267:4331   */\n      tag_223\n        /* \"#utility.yul\":4325:4330   */\n      dup4\n        /* \"#utility.yul\":4267:4331   */\n      tag_130\n      jump\t// in\n    tag_223:\n        /* \"#utility.yul\":4354:4361   */\n      dup1\n        /* \"#utility.yul\":4385:4386   */\n      0x00\n        /* \"#utility.yul\":4370:4678   */\n    tag_224:\n        /* \"#utility.yul\":4395:4401   */\n      dup4\n        /* \"#utility.yul\":4392:4393   */\n      dup2\n        /* \"#utility.yul\":4389:4402   */\n      lt\n        /* \"#utility.yul\":4370:4678   */\n      iszero\n      tag_226\n      jumpi\n        /* \"#utility.yul\":4471:4477   */\n      dup2\n        /* \"#utility.yul\":4465:4478   */\n      mload\n        /* \"#utility.yul\":4498:4577   */\n      tag_227\n        /* \"#utility.yul\":4573:4576   */\n      dup9\n        /* \"#utility.yul\":4558:4571   */\n      dup3\n        /* \"#utility.yul\":4498:4577   */\n      tag_133\n      jump\t// in\n    tag_227:\n        /* \"#utility.yul\":4491:4577   */\n      swap8\n      pop\n        /* \"#utility.yul\":4600:4668   */\n      tag_228\n        /* \"#utility.yul\":4661:4667   */\n      dup4\n        /* \"#utility.yul\":4600:4668   */\n      tag_134\n      jump\t// in\n    tag_228:\n        /* \"#utility.yul\":4590:4668   */\n      swap3\n      pop\n        /* \"#utility.yul\":4430:4678   */\n      pop\n        /* \"#utility.yul\":4417:4418   */\n      0x01\n        /* \"#utility.yul\":4414:4415   */\n      dup2\n        /* \"#utility.yul\":4410:4419   */\n      add\n        /* \"#utility.yul\":4405:4419   */\n      swap1\n      pop\n        /* \"#utility.yul\":4370:4678   */\n      jump(tag_224)\n    tag_226:\n        /* \"#utility.yul\":4374:4388   */\n      pop\n        /* \"#utility.yul\":4694:4697   */\n      dup6\n        /* \"#utility.yul\":4687:4697   */\n      swap4\n      pop\n        /* \"#utility.yul\":4047:4703   */\n      pop\n      pop\n      pop\n        /* \"#utility.yul\":3907:4703   */\n      swap3\n      swap2\n      pop\n      pop\n      jump\t// out\n        /* \"#utility.yul\":4709:5114   */\n    tag_38:\n        /* \"#utility.yul\":4868:4872   */\n      0x00\n        /* \"#utility.yul\":4906:4908   */\n      0x20\n        /* \"#utility.yul\":4895:4904   */\n      dup3\n        /* \"#utility.yul\":4891:4909   */\n      add\n        /* \"#utility.yul\":4883:4909   */\n      swap1\n      pop\n        /* \"#utility.yul\":4955:4964   */\n      dup2\n        /* \"#utility.yul\":4949:4953   */\n      dup2\n        /* \"#utility.yul\":4945:4965   */\n      sub\n        /* \"#utility.yul\":4941:4942   */\n      0x00\n        /* \"#utility.yul\":4930:4939   */\n      dup4\n        /* \"#utility.yul\":4926:4943   */\n      add\n        /* \"#utility.yul\":4919:4966   */\n      mstore\n        /* \"#utility.yul\":4983:5107   */\n      tag_230\n        /* \"#utility.yul\":5102:5106   */\n      dup2\n        /* \"#utility.yul\":5093:5099   */\n      dup5\n        /* \"#utility.yul\":4983:5107   */\n      tag_135\n      jump\t// in\n    tag_230:\n        /* \"#utility.yul\":4975:5107   */\n      swap1\n      pop\n        /* \"#utility.yul\":4709:5114   */\n      swap3\n      swap2\n      pop\n      pop\n      jump\t// out\n        /* \"#utility.yul\":5201:5318   */\n    tag_137:\n        /* \"#utility.yul\":5310:5311   */\n      0x00\n        /* \"#utility.yul\":5307:5308   */\n      dup1\n        /* \"#utility.yul\":5300:5312   */\n      revert\n        /* \"#utility.yul\":5447:5569   */\n    tag_139:\n        /* \"#utility.yul\":5520:5544   */\n      tag_235\n        /* \"#utility.yul\":5538:5543   */\n      dup2\n        /* \"#utility.yul\":5520:5544   */\n      tag_126\n      jump\t// in\n    tag_235:\n        /* \"#utility.yul\":5513:5518   */\n      dup2\n        /* \"#utility.yul\":5510:5545   */\n      eq\n        /* \"#utility.yul\":5500:5563   */\n      tag_236\n      jumpi\n        /* \"#utility.yul\":5559:5560   */\n      0x00\n        /* \"#utility.yul\":5556:5557   */\n      dup1\n        /* \"#utility.yul\":5549:5561   */\n      revert\n        /* \"#utility.yul\":5500:5563   */\n    tag_236:\n        /* \"#utility.yul\":5447:5569   */\n      pop\n      jump\t// out\n        /* \"#utility.yul\":5575:5714   */\n    tag_140:\n        /* \"#utility.yul\":5621:5626   */\n      0x00\n        /* \"#utility.yul\":5659:5665   */\n      dup2\n        /* \"#utility.yul\":5646:5666   */\n      calldataload\n        /* \"#utility.yul\":5637:5666   */\n      swap1\n      pop\n        /* \"#utility.yul\":5675:5708   */\n      tag_238\n        /* \"#utility.yul\":5702:5707   */\n      dup2\n        /* \"#utility.yul\":5675:5708   */\n      tag_139\n      jump\t// in\n    tag_238:\n        /* \"#utility.yul\":5575:5714   */\n      swap3\n      swap2\n      pop\n      pop\n      jump\t// out\n        /* \"#utility.yul\":5720:6049   */\n    tag_44:\n        /* \"#utility.yul\":5779:5785   */\n      0x00\n        /* \"#utility.yul\":5828:5830   */\n      0x20\n        /* \"#utility.yul\":5816:5825   */\n      dup3\n        /* \"#utility.yul\":5807:5814   */\n      dup5\n        /* \"#utility.yul\":5803:5826   */\n      sub\n        /* \"#utility.yul\":5799:5831   */\n      slt\n        /* \"#utility.yul\":5796:5915   */\n      iszero\n      tag_240\n      jumpi\n        /* \"#utility.yul\":5834:5913   */\n      tag_241\n      tag_137\n      jump\t// in\n    tag_241:\n        /* \"#utility.yul\":5796:5915   */\n    tag_240:\n        /* \"#utility.yul\":5954:5955   */\n      0x00\n        /* \"#utility.yul\":5979:6032   */\n      tag_242\n        /* \"#utility.yul\":6024:6031   */\n      dup5\n        /* \"#utility.yul\":6015:6021   */\n      dup3\n        /* \"#utility.yul\":6004:6013   */\n      dup6\n        /* \"#utility.yul\":6000:6022   */\n      add\n        /* \"#utility.yul\":5979:6032   */\n      tag_140\n      jump\t// in\n    tag_242:\n        /* \"#utility.yul\":5969:6032   */\n      swap2\n      pop\n        /* \"#utility.yul\":5925:6042   */\n      pop\n        /* \"#utility.yul\":5720:6049   */\n      swap3\n      swap2\n      pop\n      pop\n      jump\t// out\n        /* \"#utility.yul\":6055:6197   */\n    tag_141:\n        /* \"#utility.yul\":6158:6190   */\n      tag_244\n        /* \"#utility.yul\":6184:6189   */\n      dup2\n        /* \"#utility.yul\":6158:6190   */\n      tag_131\n      jump\t// in\n    tag_244:\n        /* \"#utility.yul\":6153:6156   */\n      dup3\n        /* \"#utility.yul\":6146:6191   */\n      mstore\n        /* \"#utility.yul\":6055:6197   */\n      pop\n      pop\n      jump\t// out\n        /* \"#utility.yul\":6203:6457   */\n    tag_47:\n        /* \"#utility.yul\":6312:6316   */\n      0x00\n        /* \"#utility.yul\":6350:6352   */\n      0x20\n        /* \"#utility.yul\":6339:6348   */\n      dup3\n        /* \"#utility.yul\":6335:6353   */\n      add\n        /* \"#utility.yul\":6327:6353   */\n      swap1\n      pop\n        /* \"#utility.yul\":6363:6450   */\n      tag_246\n        /* \"#utility.yul\":6447:6448   */\n      0x00\n        /* \"#utility.yul\":6436:6445   */\n      dup4\n        /* \"#utility.yul\":6432:6449   */\n      add\n        /* \"#utility.yul\":6423:6429   */\n      dup5\n        /* \"#utility.yul\":6363:6450   */\n      tag_141\n      jump\t// in\n    tag_246:\n        /* \"#utility.yul\":6203:6457   */\n      swap3\n      swap2\n      pop\n      pop\n      jump\t// out\n        /* \"#utility.yul\":6463:6643   */\n    tag_54:\n        /* \"#utility.yul\":6511:6588   */\n      0x4e487b7100000000000000000000000000000000000000000000000000000000\n        /* \"#utility.yul\":6508:6509   */\n      0x00\n        /* \"#utility.yul\":6501:6589   */\n      mstore\n        /* \"#utility.yul\":6608:6612   */\n      0x32\n        /* \"#utility.yul\":6605:6606   */\n      0x04\n        /* \"#utility.yul\":6598:6613   */\n      mstore\n        /* \"#utility.yul\":6632:6636   */\n      0x24\n        /* \"#utility.yul\":6629:6630   */\n      0x00\n        /* \"#utility.yul\":6622:6637   */\n      revert\n        /* \"#utility.yul\":6649:6829   */\n    tag_142:\n        /* \"#utility.yul\":6697:6774   */\n      0x4e487b7100000000000000000000000000000000000000000000000000000000\n        /* \"#utility.yul\":6694:6695   */\n      0x00\n        /* \"#utility.yul\":6687:6775   */\n      mstore\n        /* \"#utility.yul\":6794:6798   */\n      0x11\n        /* \"#utility.yul\":6791:6792   */\n      0x04\n        /* \"#utility.yul\":6784:6799   */\n      mstore\n        /* \"#utility.yul\":6818:6822   */\n      0x24\n        /* \"#utility.yul\":6815:6816   */\n      0x00\n        /* \"#utility.yul\":6808:6823   */\n      revert\n        /* \"#utility.yul\":6835:7068   */\n    tag_58:\n        /* \"#utility.yul\":6874:6877   */\n      0x00\n        /* \"#utility.yul\":6897:6921   */\n      tag_250\n        /* \"#utility.yul\":6915:6920   */\n      dup3\n        /* \"#utility.yul\":6897:6921   */\n      tag_126\n      jump\t// in\n    tag_250:\n        /* \"#utility.yul\":6888:6921   */\n      swap2\n      pop\n        /* \"#utility.yul\":6943:7009   */\n      0xffffffffffffffffffffffffffffffffffffffffffffffffffffffffffffffff\n        /* \"#utility.yul\":6936:6941   */\n      dup3\n        /* \"#utility.yul\":6933:7010   */\n      sub\n        /* \"#utility.yul\":6930:7033   */\n      tag_251\n      jumpi\n        /* \"#utility.yul\":7013:7031   */\n      tag_252\n      tag_142\n      jump\t// in\n    tag_252:\n        /* \"#utility.yul\":6930:7033   */\n    tag_251:\n        /* \"#utility.yul\":7060:7061   */\n      0x01\n        /* \"#utility.yul\":7053:7058   */\n      dup3\n        /* \"#utility.yul\":7049:7062   */\n      add\n        /* \"#utility.yul\":7042:7062   */\n      swap1\n      pop\n        /* \"#utility.yul\":6835:7068   */\n      swap2\n      swap1\n      pop\n      jump\t// out\n        /* \"#utility.yul\":7074:7254   */\n    tag_62:\n        /* \"#utility.yul\":7122:7199   */\n      0x4e487b7100000000000000000000000000000000000000000000000000000000\n        /* \"#utility.yul\":7119:7120   */\n      0x00\n        /* \"#utility.yul\":7112:7200   */\n      mstore\n        /* \"#utility.yul\":7219:7223   */\n      0x41\n        /* \"#utility.yul\":7216:7217   */\n      0x04\n        /* \"#utility.yul\":7209:7224   */\n      mstore\n        /* \"#utility.yul\":7243:7247   */\n      0x24\n        /* \"#utility.yul\":7240:7241   */\n      0x00\n        /* \"#utility.yul\":7233:7248   */\n      revert\n        /* \"#utility.yul\":7260:7440   */\n    tag_143:\n        /* \"#utility.yul\":7400:7432   */\n      0x4f6e6c79206d616e616765722063616e2073656c6563742077696e6e65720000\n        /* \"#utility.yul\":7396:7397   */\n      0x00\n        /* \"#utility.yul\":7388:7394   */\n      dup3\n        /* \"#utility.yul\":7384:7398   */\n      add\n        /* \"#utility.yul\":7377:7433   */\n      mstore\n        /* \"#utility.yul\":7260:7440   */\n      pop\n      jump\t// out\n        /* \"#utility.yul\":7446:7812   */\n    tag_144:\n        /* \"#utility.yul\":7588:7591   */\n      0x00\n        /* \"#utility.yul\":7609:7676   */\n      tag_256\n        /* \"#utility.yul\":7673:7675   */\n      0x1e\n        /* \"#utility.yul\":7668:7671   */\n      dup4\n        /* \"#utility.yul\":7609:7676   */\n      tag_122\n      jump\t// in\n    tag_256:\n        /* \"#utility.yul\":7602:7676   */\n      swap2\n      pop\n        /* \"#utility.yul\":7685:7778   */\n      tag_257\n        /* \"#utility.yul\":7774:7777   */\n      dup3\n        /* \"#utility.yul\":7685:7778   */\n      tag_143\n      jump\t// in\n    tag_257:\n        /* \"#utility.yul\":7803:7805   */\n      0x20\n        /* \"#utility.yul\":7798:7801   */\n      dup3\n        /* \"#utility.yul\":7794:7806   */\n      add\n        /* \"#utility.yul\":7787:7806   */\n      swap1\n      pop\n        /* \"#utility.yul\":7446:7812   */\n      swap2\n      swap1\n      pop\n      jump\t// out\n        /* \"#utility.yul\":7818:8237   */\n    tag_69:\n        /* \"#utility.yul\":7984:7988   */\n      0x00\n        /* \"#utility.yul\":8022:8024   */\n      0x20\n        /* \"#utility.yul\":8011:8020   */\n      dup3\n        /* \"#utility.yul\":8007:8025   */\n      add\n        /* \"#utility.yul\":7999:8025   */\n      swap1\n      pop\n        /* \"#utility.yul\":8071:8080   */\n      dup2\n        /* \"#utility.yul\":8065:8069   */\n      dup2\n        /* \"#utility.yul\":8061:8081   */\n      sub\n        /* \"#utility.yul\":8057:8058   */\n      0x00\n        /* \"#utility.yul\":8046:8055   */\n      dup4\n        /* \"#utility.yul\":8042:8059   */\n      add\n        /* \"#utility.yul\":8035:8082   */\n      mstore\n        /* \"#utility.yul\":8099:8230   */\n      tag_259\n        /* \"#utility.yul\":8225:8229   */\n      dup2\n        /* \"#utility.yul\":8099:8230   */\n      tag_144\n      jump\t// in\n    tag_259:\n        /* \"#utility.yul\":8091:8230   */\n      swap1\n      pop\n        /* \"#utility.yul\":7818:8237   */\n      swap2\n      swap1\n      pop\n      jump\t// out\n        /* \"#utility.yul\":8243:8423   */\n    tag_145:\n        /* \"#utility.yul\":8291:8368   */\n      0x4e487b7100000000000000000000000000000000000000000000000000000000\n        /* \"#utility.yul\":8288:8289   */\n      0x00\n        /* \"#utility.yul\":8281:8369   */\n      mstore\n        /* \"#utility.yul\":8388:8392   */\n      0x12\n        /* \"#utility.yul\":8385:8386   */\n      0x04\n        /* \"#utility.yul\":8378:8393   */\n      mstore\n        /* \"#utility.yul\":8412:8416   */\n      0x24\n        /* \"#utility.yul\":8409:8410   */\n      0x00\n        /* \"#utility.yul\":8402:8417   */\n      revert\n        /* \"#utility.yul\":8429:8605   */\n    tag_72:\n        /* \"#utility.yul\":8461:8462   */\n      0x00\n        /* \"#utility.yul\":8478:8498   */\n      tag_262\n        /* \"#utility.yul\":8496:8497   */\n      dup3\n        /* \"#utility.yul\":8478:8498   */\n      tag_126\n      jump\t// in\n    tag_262:\n        /* \"#utility.yul\":8473:8498   */\n      swap2\n      pop\n        /* \"#utility.yul\":8512:8532   */\n      tag_263\n        /* \"#utility.yul\":8530:8531   */\n      dup4\n        /* \"#utility.yul\":8512:8532   */\n      tag_126\n      jump\t// in\n    tag_263:\n        /* \"#utility.yul\":8507:8532   */\n      swap3\n      pop\n        /* \"#utility.yul\":8551:8552   */\n      dup3\n        /* \"#utility.yul\":8541:8576   */\n      tag_264\n      jumpi\n        /* \"#utility.yul\":8556:8574   */\n      tag_265\n      tag_145\n      jump\t// in\n    tag_265:\n        /* \"#utility.yul\":8541:8576   */\n    tag_264:\n        /* \"#utility.yul\":8597:8598   */\n      dup3\n        /* \"#utility.yul\":8594:8595   */\n      dup3\n        /* \"#utility.yul\":8590:8599   */\n      mod\n        /* \"#utility.yul\":8585:8599   */\n      swap1\n      pop\n        /* \"#utility.yul\":8429:8605   */\n      swap3\n      swap2\n      pop\n      pop\n      jump\t// out\n        /* \"#utility.yul\":8611:8759   */\n    tag_146:\n        /* \"#utility.yul\":8713:8724   */\n      0x00\n        /* \"#utility.yul\":8750:8753   */\n      dup2\n        /* \"#utility.yul\":8735:8753   */\n      swap1\n      pop\n        /* \"#utility.yul\":8611:8759   */\n      swap3\n      swap2\n      pop\n      pop\n      jump\t// out\n        /* \"#utility.yul\":8765:8925   */\n    tag_147:\n        /* \"#utility.yul\":8905:8917   */\n      0x57696e6e65722069732000000000000000000000000000000000000000000000\n        /* \"#utility.yul\":8901:8902   */\n      0x00\n        /* \"#utility.yul\":8893:8899   */\n      dup3\n        /* \"#utility.yul\":8889:8903   */\n      add\n        /* \"#utility.yul\":8882:8918   */\n      mstore\n        /* \"#utility.yul\":8765:8925   */\n      pop\n      jump\t// out\n        /* \"#utility.yul\":8931:9333   */\n    tag_148:\n        /* \"#utility.yul\":9091:9094   */\n      0x00\n        /* \"#utility.yul\":9112:9197   */\n      tag_269\n        /* \"#utility.yul\":9194:9196   */\n      0x0a\n        /* \"#utility.yul\":9189:9192   */\n      dup4\n        /* \"#utility.yul\":9112:9197   */\n      tag_146\n      jump\t// in\n    tag_269:\n        /* \"#utility.yul\":9105:9197   */\n      swap2\n      pop\n        /* \"#utility.yul\":9206:9299   */\n      tag_270\n        /* \"#utility.yul\":9295:9298   */\n      dup3\n        /* \"#utility.yul\":9206:9299   */\n      tag_147\n      jump\t// in\n    tag_270:\n        /* \"#utility.yul\":9324:9326   */\n      0x0a\n        /* \"#utility.yul\":9319:9322   */\n      dup3\n        /* \"#utility.yul\":9315:9327   */\n      add\n        /* \"#utility.yul\":9308:9327   */\n      swap1\n      pop\n        /* \"#utility.yul\":8931:9333   */\n      swap2\n      swap1\n      pop\n      jump\t// out\n        /* \"#utility.yul\":9339:9433   */\n    tag_149:\n        /* \"#utility.yul\":9372:9380   */\n      0x00\n        /* \"#utility.yul\":9420:9425   */\n      dup2\n        /* \"#utility.yul\":9416:9418   */\n      0x60\n        /* \"#utility.yul\":9412:9426   */\n      shl\n        /* \"#utility.yul\":9391:9426   */\n      swap1\n      pop\n        /* \"#utility.yul\":9339:9433   */\n      swap2\n      swap1\n      pop\n      jump\t// out\n        /* \"#utility.yul\":9439:9533   */\n    tag_150:\n        /* \"#utility.yul\":9478:9485   */\n      0x00\n        /* \"#utility.yul\":9507:9527   */\n      tag_273\n        /* \"#utility.yul\":9521:9526   */\n      dup3\n        /* \"#utility.yul\":9507:9527   */\n      tag_149\n      jump\t// in\n    tag_273:\n        /* \"#utility.yul\":9496:9527   */\n      swap1\n      pop\n        /* \"#utility.yul\":9439:9533   */\n      swap2\n      swap1\n      pop\n      jump\t// out\n        /* \"#utility.yul\":9539:9647   */\n    tag_151:\n        /* \"#utility.yul\":9586:9593   */\n      0x00\n        /* \"#utility.yul\":9615:9641   */\n      tag_275\n        /* \"#utility.yul\":9635:9640   */\n      dup3\n        /* \"#utility.yul\":9615:9641   */\n      tag_150\n      jump\t// in\n    tag_275:\n        /* \"#utility.yul\":9604:9641   */\n      swap1\n      pop\n        /* \"#utility.yul\":9539:9647   */\n      swap2\n      swap1\n      pop\n      jump\t// out\n        /* \"#utility.yul\":9653:9842   */\n    tag_152:\n        /* \"#utility.yul\":9774:9835   */\n      tag_277\n        /* \"#utility.yul\":9802:9834   */\n      tag_278\n        /* \"#utility.yul\":9828:9833   */\n      dup3\n        /* \"#utility.yul\":9802:9834   */\n      tag_131\n      jump\t// in\n    tag_278:\n        /* \"#utility.yul\":9774:9835   */\n      tag_151\n      jump\t// in\n    tag_277:\n        /* \"#utility.yul\":9769:9772   */\n      dup3\n        /* \"#utility.yul\":9762:9836   */\n      mstore\n        /* \"#utility.yul\":9653:9842   */\n      pop\n      pop\n      jump\t// out\n        /* \"#utility.yul\":9848:10402   */\n    tag_82:\n        /* \"#utility.yul\":10077:10080   */\n      0x00\n        /* \"#utility.yul\":10099:10247   */\n      tag_280\n        /* \"#utility.yul\":10243:10246   */\n      dup3\n        /* \"#utility.yul\":10099:10247   */\n      tag_148\n      jump\t// in\n    tag_280:\n        /* \"#utility.yul\":10092:10247   */\n      swap2\n      pop\n        /* \"#utility.yul\":10257:10348   */\n      tag_281\n        /* \"#utility.yul\":10344:10347   */\n      dup3\n        /* \"#utility.yul\":10335:10341   */\n      dup5\n        /* \"#utility.yul\":10257:10348   */\n      tag_152\n      jump\t// in\n    tag_281:\n        /* \"#utility.yul\":10373:10375   */\n      0x14\n        /* \"#utility.yul\":10368:10371   */\n      dup3\n        /* \"#utility.yul\":10364:10376   */\n      add\n        /* \"#utility.yul\":10357:10376   */\n      swap2\n      pop\n        /* \"#utility.yul\":10393:10396   */\n      dup2\n        /* \"#utility.yul\":10386:10396   */\n      swap1\n      pop\n        /* \"#utility.yul\":9848:10402   */\n      swap3\n      swap2\n      pop\n      pop\n      jump\t// out\n        /* \"#utility.yul\":10408:10485   */\n    tag_153:\n        /* \"#utility.yul\":10445:10452   */\n      0x00\n        /* \"#utility.yul\":10474:10479   */\n      dup2\n        /* \"#utility.yul\":10463:10479   */\n      swap1\n      pop\n        /* \"#utility.yul\":10408:10485   */\n      swap2\n      swap1\n      pop\n      jump\t// out\n        /* \"#utility.yul\":10491:10570   */\n    tag_154:\n        /* \"#utility.yul\":10530:10537   */\n      0x00\n        /* \"#utility.yul\":10559:10564   */\n      dup2\n        /* \"#utility.yul\":10548:10564   */\n      swap1\n      pop\n        /* \"#utility.yul\":10491:10570   */\n      swap2\n      swap1\n      pop\n      jump\t// out\n        /* \"#utility.yul\":10576:10733   */\n    tag_155:\n        /* \"#utility.yul\":10681:10726   */\n      tag_285\n        /* \"#utility.yul\":10701:10725   */\n      tag_286\n        /* \"#utility.yul\":10719:10724   */\n      dup3\n        /* \"#utility.yul\":10701:10725   */\n      tag_153\n      jump\t// in\n    tag_286:\n        /* \"#utility.yul\":10681:10726   */\n      tag_154\n      jump\t// in\n    tag_285:\n        /* \"#utility.yul\":10676:10679   */\n      dup3\n        /* \"#utility.yul\":10669:10727   */\n      mstore\n        /* \"#utility.yul\":10576:10733   */\n      pop\n      pop\n      jump\t// out\n        /* \"#utility.yul\":10739:10858   */\n    tag_156:\n        /* \"#utility.yul\":10811:10817   */\n      0x00\n        /* \"#utility.yul\":10845:10850   */\n      dup2\n        /* \"#utility.yul\":10839:10851   */\n      sload\n        /* \"#utility.yul\":10829:10851   */\n      swap1\n      pop\n        /* \"#utility.yul\":10739:10858   */\n      swap2\n      swap1\n      pop\n      jump\t// out\n        /* \"#utility.yul\":10864:11035   */\n    tag_157:\n        /* \"#utility.yul\":10989:11000   */\n      0x00\n        /* \"#utility.yul\":11026:11029   */\n      dup2\n        /* \"#utility.yul\":11011:11029   */\n      swap1\n      pop\n        /* \"#utility.yul\":10864:11035   */\n      swap3\n      swap2\n      pop\n      pop\n      jump\t// out\n        /* \"#utility.yul\":11041:11205   */\n    tag_158:\n        /* \"#utility.yul\":11113:11117   */\n      0x00\n        /* \"#utility.yul\":11136:11139   */\n      dup2\n        /* \"#utility.yul\":11128:11139   */\n      swap1\n      pop\n        /* \"#utility.yul\":11159:11162   */\n      dup2\n        /* \"#utility.yul\":11156:11157   */\n      0x00\n        /* \"#utility.yul\":11149:11163   */\n      mstore\n        /* \"#utility.yul\":11193:11197   */\n      0x20\n        /* \"#utility.yul\":11190:11191   */\n      0x00\n        /* \"#utility.yul\":11180:11198   */\n      keccak256\n        /* \"#utility.yul\":11172:11198   */\n      swap1\n      pop\n        /* \"#utility.yul\":11041:11205   */\n      swap2\n      swap1\n      pop\n      jump\t// out\n        /* \"#utility.yul\":11211:11351   */\n    tag_159:\n        /* \"#utility.yul\":11312:11344   */\n      tag_291\n        /* \"#utility.yul\":11338:11343   */\n      dup2\n        /* \"#utility.yul\":11312:11344   */\n      tag_131\n      jump\t// in\n    tag_291:\n        /* \"#utility.yul\":11307:11310   */\n      dup3\n        /* \"#utility.yul\":11300:11345   */\n      mstore\n        /* \"#utility.yul\":11211:11351   */\n      pop\n      pop\n      jump\t// out\n        /* \"#utility.yul\":11357:11584   */\n    tag_160:\n        /* \"#utility.yul\":11450:11460   */\n      0x00\n        /* \"#utility.yul\":11471:11541   */\n      tag_293\n        /* \"#utility.yul\":11537:11540   */\n      dup4\n        /* \"#utility.yul\":11529:11535   */\n      dup4\n        /* \"#utility.yul\":11471:11541   */\n      tag_159\n      jump\t// in\n    tag_293:\n        /* \"#utility.yul\":11573:11577   */\n      0x20\n        /* \"#utility.yul\":11568:11571   */\n      dup4\n        /* \"#utility.yul\":11564:11578   */\n      add\n        /* \"#utility.yul\":11550:11578   */\n      swap1\n      pop\n        /* \"#utility.yul\":11357:11584   */\n      swap3\n      swap2\n      pop\n      pop\n      jump\t// out\n        /* \"#utility.yul\":11590:11692   */\n    tag_161:\n        /* \"#utility.yul\":11632:11640   */\n      0x00\n        /* \"#utility.yul\":11679:11684   */\n      dup2\n        /* \"#utility.yul\":11676:11677   */\n      0x00\n        /* \"#utility.yul\":11672:11685   */\n      shr\n        /* \"#utility.yul\":11651:11685   */\n      swap1\n      pop\n        /* \"#utility.yul\":11590:11692   */\n      swap2\n      swap1\n      pop\n      jump\t// out\n        /* \"#utility.yul\":11698:11845   */\n    tag_162:\n        /* \"#utility.yul\":11756:11763   */\n      0x00\n        /* \"#utility.yul\":11796:11838   */\n      0xffffffffffffffffffffffffffffffffffffffff\n        /* \"#utility.yul\":11789:11794   */\n      dup3\n        /* \"#utility.yul\":11785:11839   */\n      and\n        /* \"#utility.yul\":11774:11839   */\n      swap1\n      pop\n        /* \"#utility.yul\":11698:11845   */\n      swap2\n      swap1\n      pop\n      jump\t// out\n        /* \"#utility.yul\":11851:12033   */\n    tag_163:\n        /* \"#utility.yul\":11928:11933   */\n      0x00\n        /* \"#utility.yul\":11953:12027   */\n      tag_297\n        /* \"#utility.yul\":11992:12026   */\n      tag_298\n        /* \"#utility.yul\":12015:12025   */\n      dup4\n        /* \"#utility.yul\":11992:12026   */\n      tag_161\n      jump\t// in\n    tag_298:\n        /* \"#utility.yul\":11953:12027   */\n      tag_162\n      jump\t// in\n    tag_297:\n        /* \"#utility.yul\":11944:12027   */\n      swap1\n      pop\n        /* \"#utility.yul\":11851:12033   */\n      swap2\n      swap1\n      pop\n      jump\t// out\n        /* \"#utility.yul\":12039:12199   */\n    tag_164:\n        /* \"#utility.yul\":12102:12107   */\n      0x00\n        /* \"#utility.yul\":12127:12192   */\n      tag_300\n        /* \"#utility.yul\":12186:12190   */\n      dup3\n        /* \"#utility.yul\":12180:12191   */\n      sload\n        /* \"#utility.yul\":12127:12192   */\n      tag_163\n      jump\t// in\n    tag_300:\n        /* \"#utility.yul\":12118:12192   */\n      swap1\n      pop\n        /* \"#utility.yul\":12039:12199   */\n      swap2\n      swap1\n      pop\n      jump\t// out\n        /* \"#utility.yul\":12205:12323   */\n    tag_165:\n        /* \"#utility.yul\":12280:12284   */\n      0x00\n        /* \"#utility.yul\":12312:12316   */\n      0x01\n        /* \"#utility.yul\":12307:12310   */\n      dup3\n        /* \"#utility.yul\":12303:12317   */\n      add\n        /* \"#utility.yul\":12295:12317   */\n      swap1\n      pop\n        /* \"#utility.yul\":12205:12323   */\n      swap2\n      swap1\n      pop\n      jump\t// out\n        /* \"#utility.yul\":12375:13242   */\n    tag_166:\n        /* \"#utility.yul\":12525:12528   */\n      0x00\n        /* \"#utility.yul\":12554:12613   */\n      tag_303\n        /* \"#utility.yul\":12607:12612   */\n      dup3\n        /* \"#utility.yul\":12554:12613   */\n      tag_156\n      jump\t// in\n    tag_303:\n        /* \"#utility.yul\":12629:12741   */\n      tag_304\n        /* \"#utility.yul\":12734:12740   */\n      dup2\n        /* \"#utility.yul\":12729:12732   */\n      dup6\n        /* \"#utility.yul\":12629:12741   */\n      tag_157\n      jump\t// in\n    tag_304:\n        /* \"#utility.yul\":12622:12741   */\n      swap4\n      pop\n        /* \"#utility.yul\":12765:12826   */\n      tag_305\n        /* \"#utility.yul\":12820:12825   */\n      dup4\n        /* \"#utility.yul\":12765:12826   */\n      tag_158\n      jump\t// in\n    tag_305:\n        /* \"#utility.yul\":12849:12856   */\n      dup1\n        /* \"#utility.yul\":12880:12881   */\n      0x00\n        /* \"#utility.yul\":12865:13217   */\n    tag_306:\n        /* \"#utility.yul\":12890:12896   */\n      dup4\n        /* \"#utility.yul\":12887:12888   */\n      dup2\n        /* \"#utility.yul\":12884:12897   */\n      lt\n        /* \"#utility.yul\":12865:13217   */\n      iszero\n      tag_308\n      jumpi\n        /* \"#utility.yul\":12960:13012   */\n      tag_309\n        /* \"#utility.yul\":13005:13011   */\n      dup3\n        /* \"#utility.yul\":12960:13012   */\n      tag_164\n      jump\t// in\n    tag_309:\n        /* \"#utility.yul\":13032:13119   */\n      tag_310\n        /* \"#utility.yul\":13115:13118   */\n      dup9\n        /* \"#utility.yul\":13100:13113   */\n      dup3\n        /* \"#utility.yul\":13032:13119   */\n      tag_160\n      jump\t// in\n    tag_310:\n        /* \"#utility.yul\":13025:13119   */\n      swap8\n      pop\n        /* \"#utility.yul\":13142:13207   */\n      tag_311\n        /* \"#utility.yul\":13200:13206   */\n      dup4\n        /* \"#utility.yul\":13142:13207   */\n      tag_165\n      jump\t// in\n    tag_311:\n        /* \"#utility.yul\":13132:13207   */\n      swap3\n      pop\n        /* \"#utility.yul\":12925:13217   */\n      pop\n        /* \"#utility.yul\":12912:12913   */\n      0x01\n        /* \"#utility.yul\":12909:12910   */\n      dup2\n        /* \"#utility.yul\":12905:12914   */\n      add\n        /* \"#utility.yul\":12900:12914   */\n      swap1\n      pop\n        /* \"#utility.yul\":12865:13217   */\n      jump(tag_306)\n    tag_308:\n        /* \"#utility.yul\":12869:12883   */\n      pop\n        /* \"#utility.yul\":13233:13236   */\n      dup6\n        /* \"#utility.yul\":13226:13236   */\n      swap4\n      pop\n        /* \"#utility.yul\":12530:13242   */\n      pop\n      pop\n      pop\n        /* \"#utility.yul\":12375:13242   */\n      swap3\n      swap2\n      pop\n      pop\n      jump\t// out\n        /* \"#utility.yul\":13248:13750   */\n    tag_85:\n        /* \"#utility.yul\":13451:13454   */\n      0x00\n        /* \"#utility.yul\":13466:13541   */\n      tag_313\n        /* \"#utility.yul\":13537:13540   */\n      dup3\n        /* \"#utility.yul\":13528:13534   */\n      dup6\n        /* \"#utility.yul\":13466:13541   */\n      tag_155\n      jump\t// in\n    tag_313:\n        /* \"#utility.yul\":13566:13568   */\n      0x20\n        /* \"#utility.yul\":13561:13564   */\n      dup3\n        /* \"#utility.yul\":13557:13569   */\n      add\n        /* \"#utility.yul\":13550:13569   */\n      swap2\n      pop\n        /* \"#utility.yul\":13586:13724   */\n      tag_314\n        /* \"#utility.yul\":13720:13723   */\n      dup3\n        /* \"#utility.yul\":13711:13717   */\n      dup5\n        /* \"#utility.yul\":13586:13724   */\n      tag_166\n      jump\t// in\n    tag_314:\n        /* \"#utility.yul\":13579:13724   */\n      swap2\n      pop\n        /* \"#utility.yul\":13741:13744   */\n      dup2\n        /* \"#utility.yul\":13734:13744   */\n      swap1\n      pop\n        /* \"#utility.yul\":13248:13750   */\n      swap4\n      swap3\n      pop\n      pop\n      pop\n      jump\t// out\n        /* \"#utility.yul\":13756:13854   */\n    tag_167:\n        /* \"#utility.yul\":13807:13813   */\n      0x00\n        /* \"#utility.yul\":13841:13846   */\n      dup2\n        /* \"#utility.yul\":13835:13847   */\n      mload\n        /* \"#utility.yul\":13825:13847   */\n      swap1\n      pop\n        /* \"#utility.yul\":13756:13854   */\n      swap2\n      swap1\n      pop\n      jump\t// out\n        /* \"#utility.yul\":13860:14007   */\n    tag_168:\n        /* \"#utility.yul\":13961:13972   */\n      0x00\n        /* \"#utility.yul\":13998:14001   */\n      dup2\n        /* \"#utility.yul\":13983:14001   */\n      swap1\n      pop\n        /* \"#utility.yul\":13860:14007   */\n      swap3\n      swap2\n      pop\n      pop\n      jump\t// out\n        /* \"#utility.yul\":14013:14399   */\n    tag_169:\n        /* \"#utility.yul\":14117:14120   */\n      0x00\n        /* \"#utility.yul\":14145:14183   */\n      tag_318\n        /* \"#utility.yul\":14177:14182   */\n      dup3\n        /* \"#utility.yul\":14145:14183   */\n      tag_167\n      jump\t// in\n    tag_318:\n        /* \"#utility.yul\":14199:14287   */\n      tag_319\n        /* \"#utility.yul\":14280:14286   */\n      dup2\n        /* \"#utility.yul\":14275:14278   */\n      dup6\n        /* \"#utility.yul\":14199:14287   */\n      tag_168\n      jump\t// in\n    tag_319:\n        /* \"#utility.yul\":14192:14287   */\n      swap4\n      pop\n        /* \"#utility.yul\":14296:14361   */\n      tag_320\n        /* \"#utility.yul\":14354:14360   */\n      dup2\n        /* \"#utility.yul\":14349:14352   */\n      dup6\n        /* \"#utility.yul\":14342:14346   */\n      0x20\n        /* \"#utility.yul\":14335:14340   */\n      dup7\n        /* \"#utility.yul\":14331:14347   */\n      add\n        /* \"#utility.yul\":14296:14361   */\n      tag_123\n      jump\t// in\n    tag_320:\n        /* \"#utility.yul\":14386:14392   */\n      dup1\n        /* \"#utility.yul\":14381:14384   */\n      dup5\n        /* \"#utility.yul\":14377:14393   */\n      add\n        /* \"#utility.yul\":14370:14393   */\n      swap2\n      pop\n        /* \"#utility.yul\":14121:14399   */\n      pop\n        /* \"#utility.yul\":14013:14399   */\n      swap3\n      swap2\n      pop\n      pop\n      jump\t// out\n        /* \"#utility.yul\":14405:14676   */\n    tag_87:\n        /* \"#utility.yul\":14535:14538   */\n      0x00\n        /* \"#utility.yul\":14557:14650   */\n      tag_322\n        /* \"#utility.yul\":14646:14649   */\n      dup3\n        /* \"#utility.yul\":14637:14643   */\n      dup5\n        /* \"#utility.yul\":14557:14650   */\n      tag_169\n      jump\t// in\n    tag_322:\n        /* \"#utility.yul\":14550:14650   */\n      swap2\n      pop\n        /* \"#utility.yul\":14667:14670   */\n      dup2\n        /* \"#utility.yul\":14660:14670   */\n      swap1\n      pop\n        /* \"#utility.yul\":14405:14676   */\n      swap3\n      swap2\n      pop\n      pop\n      jump\t// out\n        /* \"#utility.yul\":14682:14804   */\n    tag_170:\n        /* \"#utility.yul\":14755:14779   */\n      tag_324\n        /* \"#utility.yul\":14773:14778   */\n      dup2\n        /* \"#utility.yul\":14755:14779   */\n      tag_153\n      jump\t// in\n    tag_324:\n        /* \"#utility.yul\":14748:14753   */\n      dup2\n        /* \"#utility.yul\":14745:14780   */\n      eq\n        /* \"#utility.yul\":14735:14798   */\n      tag_325\n      jumpi\n        /* \"#utility.yul\":14794:14795   */\n      0x00\n        /* \"#utility.yul\":14791:14792   */\n      dup1\n        /* \"#utility.yul\":14784:14796   */\n      revert\n        /* \"#utility.yul\":14735:14798   */\n    tag_325:\n        /* \"#utility.yul\":14682:14804   */\n      pop\n      jump\t// out\n        /* \"#utility.yul\":14810:14953   */\n    tag_171:\n        /* \"#utility.yul\":14867:14872   */\n      0x00\n        /* \"#utility.yul\":14898:14904   */\n      dup2\n        /* \"#utility.yul\":14892:14905   */\n      mload\n        /* \"#utility.yul\":14883:14905   */\n      swap1\n      pop\n        /* \"#utility.yul\":14914:14947   */\n      tag_327\n        /* \"#utility.yul\":14941:14946   */\n      dup2\n        /* \"#utility.yul\":14914:14947   */\n      tag_170\n      jump\t// in\n    tag_327:\n        /* \"#utility.yul\":14810:14953   */\n      swap3\n      swap2\n      pop\n      pop\n      jump\t// out\n        /* \"#utility.yul\":14959:15310   */\n    tag_91:\n        /* \"#utility.yul\":15029:15035   */\n      0x00\n        /* \"#utility.yul\":15078:15080   */\n      0x20\n        /* \"#utility.yul\":15066:15075   */\n      dup3\n        /* \"#utility.yul\":15057:15064   */\n      dup5\n        /* \"#utility.yul\":15053:15076   */\n      sub\n        /* \"#utility.yul\":15049:15081   */\n      slt\n        /* \"#utility.yul\":15046:15165   */\n      iszero\n      tag_329\n      jumpi\n        /* \"#utility.yul\":15084:15163   */\n      tag_330\n      tag_137\n      jump\t// in\n    tag_330:\n        /* \"#utility.yul\":15046:15165   */\n    tag_329:\n        /* \"#utility.yul\":15204:15205   */\n      0x00\n        /* \"#utility.yul\":15229:15293   */\n      tag_331\n        /* \"#utility.yul\":15285:15292   */\n      dup5\n        /* \"#utility.yul\":15276:15282   */\n      dup3\n        /* \"#utility.yul\":15265:15274   */\n      dup6\n        /* \"#utility.yul\":15261:15283   */\n      add\n        /* \"#utility.yul\":15229:15293   */\n      tag_171\n      jump\t// in\n    tag_331:\n        /* \"#utility.yul\":15219:15293   */\n      swap2\n      pop\n        /* \"#utility.yul\":15175:15303   */\n      pop\n        /* \"#utility.yul\":14959:15310   */\n      swap3\n      swap2\n      pop\n      pop\n      jump\t// out\n        /* \"#utility.yul\":15316:15485   */\n    tag_172:\n        /* \"#utility.yul\":15456:15477   */\n      0x4d616e6765722043616e6e6f7420456e74657200000000000000000000000000\n        /* \"#utility.yul\":15452:15453   */\n      0x00\n        /* \"#utility.yul\":15444:15450   */\n      dup3\n        /* \"#utility.yul\":15440:15454   */\n      add\n        /* \"#utility.yul\":15433:15478   */\n      mstore\n        /* \"#utility.yul\":15316:15485   */\n      pop\n      jump\t// out\n        /* \"#utility.yul\":15491:15857   */\n    tag_173:\n        /* \"#utility.yul\":15633:15636   */\n      0x00\n        /* \"#utility.yul\":15654:15721   */\n      tag_334\n        /* \"#utility.yul\":15718:15720   */\n      0x13\n        /* \"#utility.yul\":15713:15716   */\n      dup4\n        /* \"#utility.yul\":15654:15721   */\n      tag_122\n      jump\t// in\n    tag_334:\n        /* \"#utility.yul\":15647:15721   */\n      swap2\n      pop\n        /* \"#utility.yul\":15730:15823   */\n      tag_335\n        /* \"#utility.yul\":15819:15822   */\n      dup3\n        /* \"#utility.yul\":15730:15823   */\n      tag_172\n      jump\t// in\n    tag_335:\n        /* \"#utility.yul\":15848:15850   */\n      0x20\n        /* \"#utility.yul\":15843:15846   */\n      dup3\n        /* \"#utility.yul\":15839:15851   */\n      add\n        /* \"#utility.yul\":15832:15851   */\n      swap1\n      pop\n        /* \"#utility.yul\":15491:15857   */\n      swap2\n      swap1\n      pop\n      jump\t// out\n        /* \"#utility.yul\":15863:16282   */\n    tag_98:\n        /* \"#utility.yul\":16029:16033   */\n      0x00\n        /* \"#utility.yul\":16067:16069   */\n      0x20\n        /* \"#utility.yul\":16056:16065   */\n      dup3\n        /* \"#utility.yul\":16052:16070   */\n      add\n        /* \"#utility.yul\":16044:16070   */\n      swap1\n      pop\n        /* \"#utility.yul\":16116:16125   */\n      dup2\n        /* \"#utility.yul\":16110:16114   */\n      dup2\n        /* \"#utility.yul\":16106:16126   */\n      sub\n        /* \"#utility.yul\":16102:16103   */\n      0x00\n        /* \"#utility.yul\":16091:16100   */\n      dup4\n        /* \"#utility.yul\":16087:16104   */\n      add\n        /* \"#utility.yul\":16080:16127   */\n      mstore\n        /* \"#utility.yul\":16144:16275   */\n      tag_337\n        /* \"#utility.yul\":16270:16274   */\n      dup2\n        /* \"#utility.yul\":16144:16275   */\n      tag_173\n      jump\t// in\n    tag_337:\n        /* \"#utility.yul\":16136:16275   */\n      swap1\n      pop\n        /* \"#utility.yul\":15863:16282   */\n      swap2\n      swap1\n      pop\n      jump\t// out\n        /* \"#utility.yul\":16288:16509   */\n    tag_174:\n        /* \"#utility.yul\":16428:16462   */\n      0x506c617965722043616e6e6f7420656e746572206d6f7265207468616e206f6e\n        /* \"#utility.yul\":16424:16425   */\n      0x00\n        /* \"#utility.yul\":16416:16422   */\n      dup3\n        /* \"#utility.yul\":16412:16426   */\n      add\n        /* \"#utility.yul\":16405:16463   */\n      mstore\n        /* \"#utility.yul\":16497:16501   */\n      0x6365000000000000000000000000000000000000000000000000000000000000\n        /* \"#utility.yul\":16492:16494   */\n      0x20\n        /* \"#utility.yul\":16484:16490   */\n      dup3\n        /* \"#utility.yul\":16480:16495   */\n      add\n        /* \"#utility.yul\":16473:16502   */\n      mstore\n        /* \"#utility.yul\":16288:16509   */\n      pop\n      jump\t// out\n        /* \"#utility.yul\":16515:16881   */\n    tag_175:\n        /* \"#utility.yul\":16657:16660   */\n      0x00\n        /* \"#utility.yul\":16678:16745   */\n      tag_340\n        /* \"#utility.yul\":16742:16744   */\n      0x22\n        /* \"#utility.yul\":16737:16740   */\n      dup4\n        /* \"#utility.yul\":16678:16745   */\n      tag_122\n      jump\t// in\n    tag_340:\n        /* \"#utility.yul\":16671:16745   */\n      swap2\n      pop\n        /* \"#utility.yul\":16754:16847   */\n      tag_341\n        /* \"#utility.yul\":16843:16846   */\n      dup3\n        /* \"#utility.yul\":16754:16847   */\n      tag_174\n      jump\t// in\n    tag_341:\n        /* \"#utility.yul\":16872:16874   */\n      0x40\n        /* \"#utility.yul\":16867:16870   */\n      dup3\n        /* \"#utility.yul\":16863:16875   */\n      add\n        /* \"#utility.yul\":16856:16875   */\n      swap1\n      pop\n        /* \"#utility.yul\":16515:16881   */\n      swap2\n      swap1\n      pop\n      jump\t// out\n        /* \"#utility.yul\":16887:17306   */\n    tag_102:\n        /* \"#utility.yul\":17053:17057   */\n      0x00\n        /* \"#utility.yul\":17091:17093   */\n      0x20\n        /* \"#utility.yul\":17080:17089   */\n      dup3\n        /* \"#utility.yul\":17076:17094   */\n      add\n        /* \"#utility.yul\":17068:17094   */\n      swap1\n      pop\n        /* \"#utility.yul\":17140:17149   */\n      dup2\n        /* \"#utility.yul\":17134:17138   */\n      dup2\n        /* \"#utility.yul\":17130:17150   */\n      sub\n        /* \"#utility.yul\":17126:17127   */\n      0x00\n        /* \"#utility.yul\":17115:17124   */\n      dup4\n        /* \"#utility.yul\":17111:17128   */\n      add\n        /* \"#utility.yul\":17104:17151   */\n      mstore\n        /* \"#utility.yul\":17168:17299   */\n      tag_343\n        /* \"#utility.yul\":17294:17298   */\n      dup2\n        /* \"#utility.yul\":17168:17299   */\n      tag_175\n      jump\t// in\n    tag_343:\n        /* \"#utility.yul\":17160:17299   */\n      swap1\n      pop\n        /* \"#utility.yul\":16887:17306   */\n      swap2\n      swap1\n      pop\n      jump\t// out\n        /* \"#utility.yul\":17312:17490   */\n    tag_176:\n        /* \"#utility.yul\":17452:17482   */\n      0x4d757374206e65656420746f20706179204d696e696d756d2046656500000000\n        /* \"#utility.yul\":17448:17449   */\n      0x00\n        /* \"#utility.yul\":17440:17446   */\n      dup3\n        /* \"#utility.yul\":17436:17450   */\n      add\n        /* \"#utility.yul\":17429:17483   */\n      mstore\n        /* \"#utility.yul\":17312:17490   */\n      pop\n      jump\t// out\n        /* \"#utility.yul\":17496:17862   */\n    tag_177:\n        /* \"#utility.yul\":17638:17641   */\n      0x00\n        /* \"#utility.yul\":17659:17726   */\n      tag_346\n        /* \"#utility.yul\":17723:17725   */\n      0x1c\n        /* \"#utility.yul\":17718:17721   */\n      dup4\n        /* \"#utility.yul\":17659:17726   */\n      tag_122\n      jump\t// in\n    tag_346:\n        /* \"#utility.yul\":17652:17726   */\n      swap2\n      pop\n        /* \"#utility.yul\":17735:17828   */\n      tag_347\n        /* \"#utility.yul\":17824:17827   */\n      dup3\n        /* \"#utility.yul\":17735:17828   */\n      tag_176\n      jump\t// in\n    tag_347:\n        /* \"#utility.yul\":17853:17855   */\n      0x20\n        /* \"#utility.yul\":17848:17851   */\n      dup3\n        /* \"#utility.yul\":17844:17856   */\n      add\n        /* \"#utility.yul\":17837:17856   */\n      swap1\n      pop\n        /* \"#utility.yul\":17496:17862   */\n      swap2\n      swap1\n      pop\n      jump\t// out\n        /* \"#utility.yul\":17868:18287   */\n    tag_105:\n        /* \"#utility.yul\":18034:18038   */\n      0x00\n        /* \"#utility.yul\":18072:18074   */\n      0x20\n        /* \"#utility.yul\":18061:18070   */\n      dup3\n        /* \"#utility.yul\":18057:18075   */\n      add\n        /* \"#utility.yul\":18049:18075   */\n      swap1\n      pop\n        /* \"#utility.yul\":18121:18130   */\n      dup2\n        /* \"#utility.yul\":18115:18119   */\n      dup2\n        /* \"#utility.yul\":18111:18131   */\n      sub\n        /* \"#utility.yul\":18107:18108   */\n      0x00\n        /* \"#utility.yul\":18096:18105   */\n      dup4\n        /* \"#utility.yul\":18092:18109   */\n      add\n        /* \"#utility.yul\":18085:18132   */\n      mstore\n        /* \"#utility.yul\":18149:18280   */\n      tag_349\n        /* \"#utility.yul\":18275:18279   */\n      dup2\n        /* \"#utility.yul\":18149:18280   */\n      tag_177\n      jump\t// in\n    tag_349:\n        /* \"#utility.yul\":18141:18280   */\n      swap1\n      pop\n        /* \"#utility.yul\":17868:18287   */\n      swap2\n      swap1\n      pop\n      jump\t// out\n\n    auxdata: 0xa26469706673582212202b1ef584edf8d6c1d83fb9e911c30e680e7cbcd1251806f164efb353a391e6eb64736f6c63430008120033\n}\n",
				"bytecode": {
					"linkReferences": {},
					"object": "608060405234801561001057600080fd5b50336000806101000a81548173ffffffffffffffffffffffffffffffffffffffff021916908373ffffffffffffffffffffffffffffffffffffffff160217905550611136806100606000396000f3fe60806040526004361061007b5760003560e01c80635ec01e4d1161004e5780635ec01e4d146101185780638b5b9ccc14610143578063e97dcb621461016e578063f71d96cb146101785761007b565b80631db2468b1461008057806330a52d5b146100ab578063481c6a75146100c25780635d495aea146100ed575b600080fd5b34801561008c57600080fd5b506100956101b5565b6040516100a29190610831565b60405180910390f35b3480156100b757600080fd5b506100c0610261565b005b3480156100ce57600080fd5b506100d76102c3565b6040516100e4919061088d565b60405180910390f35b3480156100f957600080fd5b506101026102e7565b60405161010f9190610938565b60405180910390f35b34801561012457600080fd5b5061012d610499565b60405161013a9190610973565b60405180910390f35b34801561014f57600080fd5b50610158610516565b6040516101659190610a5e565b60405180910390f35b6101766105a4565b005b34801561018457600080fd5b5061019f600480360381019061019a9190610ab1565b610730565b6040516101ac9190610aed565b60405180910390f35b600080600090505b600180549050811015610258573373ffffffffffffffffffffffffffffffffffffffff16600182815481106101f5576101f4610b08565b5b9060005260206000200160009054906101000a900473ffffffffffffffffffffffffffffffffffffffff1673ffffffffffffffffffffffffffffffffffffffff160361024557600191505061025e565b808061025090610b66565b9150506101bd565b50600090505b90565b600067ffffffffffffffff81111561027c5761027b610bae565b5b6040519080825280602002602001820160405280156102aa5781602001602082028036833780820191505090505b50600190805190602001906102c092919061076f565b50565b60008054906101000a900473ffffffffffffffffffffffffffffffffffffffff1681565b606060008054906101000a900473ffffffffffffffffffffffffffffffffffffffff1673ffffffffffffffffffffffffffffffffffffffff163373ffffffffffffffffffffffffffffffffffffffff1614610377576040517f08c379a000000000000000000000000000000000000000000000000000000000815260040161036e90610c29565b60405180910390fd5b6000600180549050610387610499565b6103919190610c78565b90506000309050600182815481106103ac576103ab610b08565b5b9060005260206000200160009054906101000a900473ffffffffffffffffffffffffffffffffffffffff1673ffffffffffffffffffffffffffffffffffffffff166108fc8273ffffffffffffffffffffffffffffffffffffffff16319081150290604051600060405180830381858888f19350505050158015610433573d6000803e3d6000fd5b506001828154811061044857610447610b08565b5b9060005260206000200160009054906101000a900473ffffffffffffffffffffffffffffffffffffffff166040516020016104839190610d48565b6040516020818303038152906040529250505090565b60006002434060016040516020016104b2929190610eb7565b6040516020818303038152906040526040516104ce9190610f26565b602060405180830381855afa1580156104eb573d6000803e3d6000fd5b5050506040513d601f19601f8201168201806040525081019061050e9190610f69565b60001c905090565b6060600180548060200260200160405190810160405280929190818152602001828054801561059a57602002820191906000526020600020905b8160009054906101000a900473ffffffffffffffffffffffffffffffffffffffff1673ffffffffffffffffffffffffffffffffffffffff1681526020019060010190808311610550575b5050505050905090565b60008054906101000a900473ffffffffffffffffffffffffffffffffffffffff1673ffffffffffffffffffffffffffffffffffffffff163373ffffffffffffffffffffffffffffffffffffffff1603610632576040517f08c379a000000000000000000000000000000000000000000000000000000000815260040161062990610fe2565b60405180910390fd5b6000151561063e6101b5565b151514610680576040517f08c379a000000000000000000000000000000000000000000000000000000000815260040161067790611074565b60405180910390fd5b670de0b6b3a76400003410156106cb576040517f08c379a00000000000000000000000000000000000000000000000000000000081526004016106c2906110e0565b60405180910390fd5b6001339080600181540180825580915050600190039060005260206000200160009091909190916101000a81548173ffffffffffffffffffffffffffffffffffffffff021916908373ffffffffffffffffffffffffffffffffffffffff160217905550565b6001818154811061074057600080fd5b906000526020600020016000915054906101000a900473ffffffffffffffffffffffffffffffffffffffff1681565b8280548282559060005260206000209081019282156107e8579160200282015b828111156107e75782518260006101000a81548173ffffffffffffffffffffffffffffffffffffffff021916908373ffffffffffffffffffffffffffffffffffffffff1602179055509160200191906001019061078f565b5b5090506107f591906107f9565b5090565b5b808211156108125760008160009055506001016107fa565b5090565b60008115159050919050565b61082b81610816565b82525050565b60006020820190506108466000830184610822565b92915050565b600073ffffffffffffffffffffffffffffffffffffffff82169050919050565b60006108778261084c565b9050919050565b6108878161086c565b82525050565b60006020820190506108a2600083018461087e565b92915050565b600081519050919050565b600082825260208201905092915050565b60005b838110156108e25780820151818401526020810190506108c7565b60008484015250505050565b6000601f19601f8301169050919050565b600061090a826108a8565b61091481856108b3565b93506109248185602086016108c4565b61092d816108ee565b840191505092915050565b6000602082019050818103600083015261095281846108ff565b905092915050565b6000819050919050565b61096d8161095a565b82525050565b60006020820190506109886000830184610964565b92915050565b600081519050919050565b600082825260208201905092915050565b6000819050602082019050919050565b60006109c58261084c565b9050919050565b6109d5816109ba565b82525050565b60006109e783836109cc565b60208301905092915050565b6000602082019050919050565b6000610a0b8261098e565b610a158185610999565b9350610a20836109aa565b8060005b83811015610a51578151610a3888826109db565b9750610a43836109f3565b925050600181019050610a24565b5085935050505092915050565b60006020820190508181036000830152610a788184610a00565b905092915050565b600080fd5b610a8e8161095a565b8114610a9957600080fd5b50565b600081359050610aab81610a85565b92915050565b600060208284031215610ac757610ac6610a80565b5b6000610ad584828501610a9c565b91505092915050565b610ae7816109ba565b82525050565b6000602082019050610b026000830184610ade565b92915050565b7f4e487b7100000000000000000000000000000000000000000000000000000000600052603260045260246000fd5b7f4e487b7100000000000000000000000000000000000000000000000000000000600052601160045260246000fd5b6000610b718261095a565b91507fffffffffffffffffffffffffffffffffffffffffffffffffffffffffffffffff8203610ba357610ba2610b37565b5b600182019050919050565b7f4e487b7100000000000000000000000000000000000000000000000000000000600052604160045260246000fd5b7f4f6e6c79206d616e616765722063616e2073656c6563742077696e6e65720000600082015250565b6000610c13601e836108b3565b9150610c1e82610bdd565b602082019050919050565b60006020820190508181036000830152610c4281610c06565b9050919050565b7f4e487b7100000000000000000000000000000000000000000000000000000000600052601260045260246000fd5b6000610c838261095a565b9150610c8e8361095a565b925082610c9e57610c9d610c49565b5b828206905092915050565b600081905092915050565b7f57696e6e65722069732000000000000000000000000000000000000000000000600082015250565b6000610cea600a83610ca9565b9150610cf582610cb4565b600a82019050919050565b60008160601b9050919050565b6000610d1882610d00565b9050919050565b6000610d2a82610d0d565b9050919050565b610d42610d3d826109ba565b610d1f565b82525050565b6000610d5382610cdd565b9150610d5f8284610d31565b60148201915081905092915050565b6000819050919050565b6000819050919050565b610d93610d8e82610d6e565b610d78565b82525050565b600081549050919050565b600081905092915050565b60008190508160005260206000209050919050565b610dcd816109ba565b82525050565b6000610ddf8383610dc4565b60208301905092915050565b60008160001c9050919050565b600073ffffffffffffffffffffffffffffffffffffffff82169050919050565b6000610e2b610e2683610deb565b610df8565b9050919050565b6000610e3e8254610e18565b9050919050565b6000600182019050919050565b6000610e5d82610d99565b610e678185610da4565b9350610e7283610daf565b8060005b83811015610eaa57610e8782610e32565b610e918882610dd3565b9750610e9c83610e45565b925050600181019050610e76565b5085935050505092915050565b6000610ec38285610d82565b602082019150610ed38284610e52565b91508190509392505050565b600081519050919050565b600081905092915050565b6000610f0082610edf565b610f0a8185610eea565b9350610f1a8185602086016108c4565b80840191505092915050565b6000610f328284610ef5565b915081905092915050565b610f4681610d6e565b8114610f5157600080fd5b50565b600081519050610f6381610f3d565b92915050565b600060208284031215610f7f57610f7e610a80565b5b6000610f8d84828501610f54565b91505092915050565b7f4d616e6765722043616e6e6f7420456e74657200000000000000000000000000600082015250565b6000610fcc6013836108b3565b9150610fd782610f96565b602082019050919050565b60006020820190508181036000830152610ffb81610fbf565b9050919050565b7f506c617965722043616e6e6f7420656e746572206d6f7265207468616e206f6e60008201527f6365000000000000000000000000000000000000000000000000000000000000602082015250565b600061105e6022836108b3565b915061106982611002565b604082019050919050565b6000602082019050818103600083015261108d81611051565b9050919050565b7f4d757374206e65656420746f20706179204d696e696d756d2046656500000000600082015250565b60006110ca601c836108b3565b91506110d582611094565b602082019050919050565b600060208201905081810360008301526110f9816110bd565b905091905056fea26469706673582212202b1ef584edf8d6c1d83fb9e911c30e680e7cbcd1251806f164efb353a391e6eb64736f6c63430008120033",
					"opcodes": "PUSH1 0x80 PUSH1 0x40 MSTORE CALLVALUE DUP1 ISZERO PUSH2 0x10 JUMPI PUSH1 0x0 DUP1 REVERT JUMPDEST POP CALLER PUSH1 0x0 DUP1 PUSH2 0x100 EXP DUP2 SLOAD DUP2 PUSH20 0xFFFFFFFFFFFFFFFFFFFFFFFFFFFFFFFFFFFFFFFF MUL NOT AND SWAP1 DUP4 PUSH20 0xFFFFFFFFFFFFFFFFFFFFFFFFFFFFFFFFFFFFFFFF AND MUL OR SWAP1 SSTORE POP PUSH2 0x1136 DUP1 PUSH2 0x60 PUSH1 0x0 CODECOPY PUSH1 0x0 RETURN INVALID PUSH1 0x80 PUSH1 0x40 MSTORE PUSH1 0x4 CALLDATASIZE LT PUSH2 0x7B JUMPI PUSH1 0x0 CALLDATALOAD PUSH1 0xE0 SHR DUP1 PUSH4 0x5EC01E4D GT PUSH2 0x4E JUMPI DUP1 PUSH4 0x5EC01E4D EQ PUSH2 0x118 JUMPI DUP1 PUSH4 0x8B5B9CCC EQ PUSH2 0x143 JUMPI DUP1 PUSH4 0xE97DCB62 EQ PUSH2 0x16E JUMPI DUP1 PUSH4 0xF71D96CB EQ PUSH2 0x178 JUMPI PUSH2 0x7B JUMP JUMPDEST DUP1 PUSH4 0x1DB2468B EQ PUSH2 0x80 JUMPI DUP1 PUSH4 0x30A52D5B EQ PUSH2 0xAB JUMPI DUP1 PUSH4 0x481C6A75 EQ PUSH2 0xC2 JUMPI DUP1 PUSH4 0x5D495AEA EQ PUSH2 0xED JUMPI JUMPDEST PUSH1 0x0 DUP1 REVERT JUMPDEST CALLVALUE DUP1 ISZERO PUSH2 0x8C JUMPI PUSH1 0x0 DUP1 REVERT JUMPDEST POP PUSH2 0x95 PUSH2 0x1B5 JUMP JUMPDEST PUSH1 0x40 MLOAD PUSH2 0xA2 SWAP2 SWAP1 PUSH2 0x831 JUMP JUMPDEST PUSH1 0x40 MLOAD DUP1 SWAP2 SUB SWAP1 RETURN JUMPDEST CALLVALUE DUP1 ISZERO PUSH2 0xB7 JUMPI PUSH1 0x0 DUP1 REVERT JUMPDEST POP PUSH2 0xC0 PUSH2 0x261 JUMP JUMPDEST STOP JUMPDEST CALLVALUE DUP1 ISZERO PUSH2 0xCE JUMPI PUSH1 0x0 DUP1 REVERT JUMPDEST POP PUSH2 0xD7 PUSH2 0x2C3 JUMP JUMPDEST PUSH1 0x40 MLOAD PUSH2 0xE4 SWAP2 SWAP1 PUSH2 0x88D JUMP JUMPDEST PUSH1 0x40 MLOAD DUP1 SWAP2 SUB SWAP1 RETURN JUMPDEST CALLVALUE DUP1 ISZERO PUSH2 0xF9 JUMPI PUSH1 0x0 DUP1 REVERT JUMPDEST POP PUSH2 0x102 PUSH2 0x2E7 JUMP JUMPDEST PUSH1 0x40 MLOAD PUSH2 0x10F SWAP2 SWAP1 PUSH2 0x938 JUMP JUMPDEST PUSH1 0x40 MLOAD DUP1 SWAP2 SUB SWAP1 RETURN JUMPDEST CALLVALUE DUP1 ISZERO PUSH2 0x124 JUMPI PUSH1 0x0 DUP1 REVERT JUMPDEST POP PUSH2 0x12D PUSH2 0x499 JUMP JUMPDEST PUSH1 0x40 MLOAD PUSH2 0x13A SWAP2 SWAP1 PUSH2 0x973 JUMP JUMPDEST PUSH1 0x40 MLOAD DUP1 SWAP2 SUB SWAP1 RETURN JUMPDEST CALLVALUE DUP1 ISZERO PUSH2 0x14F JUMPI PUSH1 0x0 DUP1 REVERT JUMPDEST POP PUSH2 0x158 PUSH2 0x516 JUMP JUMPDEST PUSH1 0x40 MLOAD PUSH2 0x165 SWAP2 SWAP1 PUSH2 0xA5E JUMP JUMPDEST PUSH1 0x40 MLOAD DUP1 SWAP2 SUB SWAP1 RETURN JUMPDEST PUSH2 0x176 PUSH2 0x5A4 JUMP JUMPDEST STOP JUMPDEST CALLVALUE DUP1 ISZERO PUSH2 0x184 JUMPI PUSH1 0x0 DUP1 REVERT JUMPDEST POP PUSH2 0x19F PUSH1 0x4 DUP1 CALLDATASIZE SUB DUP2 ADD SWAP1 PUSH2 0x19A SWAP2 SWAP1 PUSH2 0xAB1 JUMP JUMPDEST PUSH2 0x730 JUMP JUMPDEST PUSH1 0x40 MLOAD PUSH2 0x1AC SWAP2 SWAP1 PUSH2 0xAED JUMP JUMPDEST PUSH1 0x40 MLOAD DUP1 SWAP2 SUB SWAP1 RETURN JUMPDEST PUSH1 0x0 DUP1 PUSH1 0x0 SWAP1 POP JUMPDEST PUSH1 0x1 DUP1 SLOAD SWAP1 POP DUP2 LT ISZERO PUSH2 0x258 JUMPI CALLER PUSH20 0xFFFFFFFFFFFFFFFFFFFFFFFFFFFFFFFFFFFFFFFF AND PUSH1 0x1 DUP3 DUP2 SLOAD DUP2 LT PUSH2 0x1F5 JUMPI PUSH2 0x1F4 PUSH2 0xB08 JUMP JUMPDEST JUMPDEST SWAP1 PUSH1 0x0 MSTORE PUSH1 0x20 PUSH1 0x0 KECCAK256 ADD PUSH1 0x0 SWAP1 SLOAD SWAP1 PUSH2 0x100 EXP SWAP1 DIV PUSH20 0xFFFFFFFFFFFFFFFFFFFFFFFFFFFFFFFFFFFFFFFF AND PUSH20 0xFFFFFFFFFFFFFFFFFFFFFFFFFFFFFFFFFFFFFFFF AND SUB PUSH2 0x245 JUMPI PUSH1 0x1 SWAP2 POP POP PUSH2 0x25E JUMP JUMPDEST DUP1 DUP1 PUSH2 0x250 SWAP1 PUSH2 0xB66 JUMP JUMPDEST SWAP2 POP POP PUSH2 0x1BD JUMP JUMPDEST POP PUSH1 0x0 SWAP1 POP JUMPDEST SWAP1 JUMP JUMPDEST PUSH1 0x0 PUSH8 0xFFFFFFFFFFFFFFFF DUP2 GT ISZERO PUSH2 0x27C JUMPI PUSH2 0x27B PUSH2 0xBAE JUMP JUMPDEST JUMPDEST PUSH1 0x40 MLOAD SWAP1 DUP1 DUP3 MSTORE DUP1 PUSH1 0x20 MUL PUSH1 0x20 ADD DUP3 ADD PUSH1 0x40 MSTORE DUP1 ISZERO PUSH2 0x2AA JUMPI DUP2 PUSH1 0x20 ADD PUSH1 0x20 DUP3 MUL DUP1 CALLDATASIZE DUP4 CALLDATACOPY DUP1 DUP3 ADD SWAP2 POP POP SWAP1 POP JUMPDEST POP PUSH1 0x1 SWAP1 DUP1 MLOAD SWAP1 PUSH1 0x20 ADD SWAP1 PUSH2 0x2C0 SWAP3 SWAP2 SWAP1 PUSH2 0x76F JUMP JUMPDEST POP JUMP JUMPDEST PUSH1 0x0 DUP1 SLOAD SWAP1 PUSH2 0x100 EXP SWAP1 DIV PUSH20 0xFFFFFFFFFFFFFFFFFFFFFFFFFFFFFFFFFFFFFFFF AND DUP2 JUMP JUMPDEST PUSH1 0x60 PUSH1 0x0 DUP1 SLOAD SWAP1 PUSH2 0x100 EXP SWAP1 DIV PUSH20 0xFFFFFFFFFFFFFFFFFFFFFFFFFFFFFFFFFFFFFFFF AND PUSH20 0xFFFFFFFFFFFFFFFFFFFFFFFFFFFFFFFFFFFFFFFF AND CALLER PUSH20 0xFFFFFFFFFFFFFFFFFFFFFFFFFFFFFFFFFFFFFFFF AND EQ PUSH2 0x377 JUMPI PUSH1 0x40 MLOAD PUSH32 0x8C379A000000000000000000000000000000000000000000000000000000000 DUP2 MSTORE PUSH1 0x4 ADD PUSH2 0x36E SWAP1 PUSH2 0xC29 JUMP JUMPDEST PUSH1 0x40 MLOAD DUP1 SWAP2 SUB SWAP1 REVERT JUMPDEST PUSH1 0x0 PUSH1 0x1 DUP1 SLOAD SWAP1 POP PUSH2 0x387 PUSH2 0x499 JUMP JUMPDEST PUSH2 0x391 SWAP2 SWAP1 PUSH2 0xC78 JUMP JUMPDEST SWAP1 POP PUSH1 0x0 ADDRESS SWAP1 POP PUSH1 0x1 DUP3 DUP2 SLOAD DUP2 LT PUSH2 0x3AC JUMPI PUSH2 0x3AB PUSH2 0xB08 JUMP JUMPDEST JUMPDEST SWAP1 PUSH1 0x0 MSTORE PUSH1 0x20 PUSH1 0x0 KECCAK256 ADD PUSH1 0x0 SWAP1 SLOAD SWAP1 PUSH2 0x100 EXP SWAP1 DIV PUSH20 0xFFFFFFFFFFFFFFFFFFFFFFFFFFFFFFFFFFFFFFFF AND PUSH20 0xFFFFFFFFFFFFFFFFFFFFFFFFFFFFFFFFFFFFFFFF AND PUSH2 0x8FC DUP3 PUSH20 0xFFFFFFFFFFFFFFFFFFFFFFFFFFFFFFFFFFFFFFFF AND BALANCE SWAP1 DUP2 ISZERO MUL SWAP1 PUSH1 0x40 MLOAD PUSH1 0x0 PUSH1 0x40 MLOAD DUP1 DUP4 SUB DUP2 DUP6 DUP9 DUP9 CALL SWAP4 POP POP POP POP ISZERO DUP1 ISZERO PUSH2 0x433 JUMPI RETURNDATASIZE PUSH1 0x0 DUP1 RETURNDATACOPY RETURNDATASIZE PUSH1 0x0 REVERT JUMPDEST POP PUSH1 0x1 DUP3 DUP2 SLOAD DUP2 LT PUSH2 0x448 JUMPI PUSH2 0x447 PUSH2 0xB08 JUMP JUMPDEST JUMPDEST SWAP1 PUSH1 0x0 MSTORE PUSH1 0x20 PUSH1 0x0 KECCAK256 ADD PUSH1 0x0 SWAP1 SLOAD SWAP1 PUSH2 0x100 EXP SWAP1 DIV PUSH20 0xFFFFFFFFFFFFFFFFFFFFFFFFFFFFFFFFFFFFFFFF AND PUSH1 0x40 MLOAD PUSH1 0x20 ADD PUSH2 0x483 SWAP2 SWAP1 PUSH2 0xD48 JUMP JUMPDEST PUSH1 0x40 MLOAD PUSH1 0x20 DUP2 DUP4 SUB SUB DUP2 MSTORE SWAP1 PUSH1 0x40 MSTORE SWAP3 POP POP POP SWAP1 JUMP JUMPDEST PUSH1 0x0 PUSH1 0x2 NUMBER BLOCKHASH PUSH1 0x1 PUSH1 0x40 MLOAD PUSH1 0x20 ADD PUSH2 0x4B2 SWAP3 SWAP2 SWAP1 PUSH2 0xEB7 JUMP JUMPDEST PUSH1 0x40 MLOAD PUSH1 0x20 DUP2 DUP4 SUB SUB DUP2 MSTORE SWAP1 PUSH1 0x40 MSTORE PUSH1 0x40 MLOAD PUSH2 0x4CE SWAP2 SWAP1 PUSH2 0xF26 JUMP JUMPDEST PUSH1 0x20 PUSH1 0x40 MLOAD DUP1 DUP4 SUB DUP2 DUP6 GAS STATICCALL ISZERO DUP1 ISZERO PUSH2 0x4EB JUMPI RETURNDATASIZE PUSH1 0x0 DUP1 RETURNDATACOPY RETURNDATASIZE PUSH1 0x0 REVERT JUMPDEST POP POP POP PUSH1 0x40 MLOAD RETURNDATASIZE PUSH1 0x1F NOT PUSH1 0x1F DUP3 ADD AND DUP3 ADD DUP1 PUSH1 0x40 MSTORE POP DUP2 ADD SWAP1 PUSH2 0x50E SWAP2 SWAP1 PUSH2 0xF69 JUMP JUMPDEST PUSH1 0x0 SHR SWAP1 POP SWAP1 JUMP JUMPDEST PUSH1 0x60 PUSH1 0x1 DUP1 SLOAD DUP1 PUSH1 0x20 MUL PUSH1 0x20 ADD PUSH1 0x40 MLOAD SWAP1 DUP2 ADD PUSH1 0x40 MSTORE DUP1 SWAP3 SWAP2 SWAP1 DUP2 DUP2 MSTORE PUSH1 0x20 ADD DUP3 DUP1 SLOAD DUP1 ISZERO PUSH2 0x59A JUMPI PUSH1 0x20 MUL DUP3 ADD SWAP2 SWAP1 PUSH1 0x0 MSTORE PUSH1 0x20 PUSH1 0x0 KECCAK256 SWAP1 JUMPDEST DUP2 PUSH1 0x0 SWAP1 SLOAD SWAP1 PUSH2 0x100 EXP SWAP1 DIV PUSH20 0xFFFFFFFFFFFFFFFFFFFFFFFFFFFFFFFFFFFFFFFF AND PUSH20 0xFFFFFFFFFFFFFFFFFFFFFFFFFFFFFFFFFFFFFFFF AND DUP2 MSTORE PUSH1 0x20 ADD SWAP1 PUSH1 0x1 ADD SWAP1 DUP1 DUP4 GT PUSH2 0x550 JUMPI JUMPDEST POP POP POP POP POP SWAP1 POP SWAP1 JUMP JUMPDEST PUSH1 0x0 DUP1 SLOAD SWAP1 PUSH2 0x100 EXP SWAP1 DIV PUSH20 0xFFFFFFFFFFFFFFFFFFFFFFFFFFFFFFFFFFFFFFFF AND PUSH20 0xFFFFFFFFFFFFFFFFFFFFFFFFFFFFFFFFFFFFFFFF AND CALLER PUSH20 0xFFFFFFFFFFFFFFFFFFFFFFFFFFFFFFFFFFFFFFFF AND SUB PUSH2 0x632 JUMPI PUSH1 0x40 MLOAD PUSH32 0x8C379A000000000000000000000000000000000000000000000000000000000 DUP2 MSTORE PUSH1 0x4 ADD PUSH2 0x629 SWAP1 PUSH2 0xFE2 JUMP JUMPDEST PUSH1 0x40 MLOAD DUP1 SWAP2 SUB SWAP1 REVERT JUMPDEST PUSH1 0x0 ISZERO ISZERO PUSH2 0x63E PUSH2 0x1B5 JUMP JUMPDEST ISZERO ISZERO EQ PUSH2 0x680 JUMPI PUSH1 0x40 MLOAD PUSH32 0x8C379A000000000000000000000000000000000000000000000000000000000 DUP2 MSTORE PUSH1 0x4 ADD PUSH2 0x677 SWAP1 PUSH2 0x1074 JUMP JUMPDEST PUSH1 0x40 MLOAD DUP1 SWAP2 SUB SWAP1 REVERT JUMPDEST PUSH8 0xDE0B6B3A7640000 CALLVALUE LT ISZERO PUSH2 0x6CB JUMPI PUSH1 0x40 MLOAD PUSH32 0x8C379A000000000000000000000000000000000000000000000000000000000 DUP2 MSTORE PUSH1 0x4 ADD PUSH2 0x6C2 SWAP1 PUSH2 0x10E0 JUMP JUMPDEST PUSH1 0x40 MLOAD DUP1 SWAP2 SUB SWAP1 REVERT JUMPDEST PUSH1 0x1 CALLER SWAP1 DUP1 PUSH1 0x1 DUP2 SLOAD ADD DUP1 DUP3 SSTORE DUP1 SWAP2 POP POP PUSH1 0x1 SWAP1 SUB SWAP1 PUSH1 0x0 MSTORE PUSH1 0x20 PUSH1 0x0 KECCAK256 ADD PUSH1 0x0 SWAP1 SWAP2 SWAP1 SWAP2 SWAP1 SWAP2 PUSH2 0x100 EXP DUP2 SLOAD DUP2 PUSH20 0xFFFFFFFFFFFFFFFFFFFFFFFFFFFFFFFFFFFFFFFF MUL NOT AND SWAP1 DUP4 PUSH20 0xFFFFFFFFFFFFFFFFFFFFFFFFFFFFFFFFFFFFFFFF AND MUL OR SWAP1 SSTORE POP JUMP JUMPDEST PUSH1 0x1 DUP2 DUP2 SLOAD DUP2 LT PUSH2 0x740 JUMPI PUSH1 0x0 DUP1 REVERT JUMPDEST SWAP1 PUSH1 0x0 MSTORE PUSH1 0x20 PUSH1 0x0 KECCAK256 ADD PUSH1 0x0 SWAP2 POP SLOAD SWAP1 PUSH2 0x100 EXP SWAP1 DIV PUSH20 0xFFFFFFFFFFFFFFFFFFFFFFFFFFFFFFFFFFFFFFFF AND DUP2 JUMP JUMPDEST DUP3 DUP1 SLOAD DUP3 DUP3 SSTORE SWAP1 PUSH1 0x0 MSTORE PUSH1 0x20 PUSH1 0x0 KECCAK256 SWAP1 DUP2 ADD SWAP3 DUP3 ISZERO PUSH2 0x7E8 JUMPI SWAP2 PUSH1 0x20 MUL DUP3 ADD JUMPDEST DUP3 DUP2 GT ISZERO PUSH2 0x7E7 JUMPI DUP3 MLOAD DUP3 PUSH1 0x0 PUSH2 0x100 EXP DUP2 SLOAD DUP2 PUSH20 0xFFFFFFFFFFFFFFFFFFFFFFFFFFFFFFFFFFFFFFFF MUL NOT AND SWAP1 DUP4 PUSH20 0xFFFFFFFFFFFFFFFFFFFFFFFFFFFFFFFFFFFFFFFF AND MUL OR SWAP1 SSTORE POP SWAP2 PUSH1 0x20 ADD SWAP2 SWAP1 PUSH1 0x1 ADD SWAP1 PUSH2 0x78F JUMP JUMPDEST JUMPDEST POP SWAP1 POP PUSH2 0x7F5 SWAP2 SWAP1 PUSH2 0x7F9 JUMP JUMPDEST POP SWAP1 JUMP JUMPDEST JUMPDEST DUP1 DUP3 GT ISZERO PUSH2 0x812 JUMPI PUSH1 0x0 DUP2 PUSH1 0x0 SWAP1 SSTORE POP PUSH1 0x1 ADD PUSH2 0x7FA JUMP JUMPDEST POP SWAP1 JUMP JUMPDEST PUSH1 0x0 DUP2 ISZERO ISZERO SWAP1 POP SWAP2 SWAP1 POP JUMP JUMPDEST PUSH2 0x82B DUP2 PUSH2 0x816 JUMP JUMPDEST DUP3 MSTORE POP POP JUMP JUMPDEST PUSH1 0x0 PUSH1 0x20 DUP3 ADD SWAP1 POP PUSH2 0x846 PUSH1 0x0 DUP4 ADD DUP5 PUSH2 0x822 JUMP JUMPDEST SWAP3 SWAP2 POP POP JUMP JUMPDEST PUSH1 0x0 PUSH20 0xFFFFFFFFFFFFFFFFFFFFFFFFFFFFFFFFFFFFFFFF DUP3 AND SWAP1 POP SWAP2 SWAP1 POP JUMP JUMPDEST PUSH1 0x0 PUSH2 0x877 DUP3 PUSH2 0x84C JUMP JUMPDEST SWAP1 POP SWAP2 SWAP1 POP JUMP JUMPDEST PUSH2 0x887 DUP2 PUSH2 0x86C JUMP JUMPDEST DUP3 MSTORE POP POP JUMP JUMPDEST PUSH1 0x0 PUSH1 0x20 DUP3 ADD SWAP1 POP PUSH2 0x8A2 PUSH1 0x0 DUP4 ADD DUP5 PUSH2 0x87E JUMP JUMPDEST SWAP3 SWAP2 POP POP JUMP JUMPDEST PUSH1 0x0 DUP2 MLOAD SWAP1 POP SWAP2 SWAP1 POP JUMP JUMPDEST PUSH1 0x0 DUP3 DUP3 MSTORE PUSH1 0x20 DUP3 ADD SWAP1 POP SWAP3 SWAP2 POP POP JUMP JUMPDEST PUSH1 0x0 JUMPDEST DUP4 DUP2 LT ISZERO PUSH2 0x8E2 JUMPI DUP1 DUP3 ADD MLOAD DUP2 DUP5 ADD MSTORE PUSH1 0x20 DUP2 ADD SWAP1 POP PUSH2 0x8C7 JUMP JUMPDEST PUSH1 0x0 DUP5 DUP5 ADD MSTORE POP POP POP POP JUMP JUMPDEST PUSH1 0x0 PUSH1 0x1F NOT PUSH1 0x1F DUP4 ADD AND SWAP1 POP SWAP2 SWAP1 POP JUMP JUMPDEST PUSH1 0x0 PUSH2 0x90A DUP3 PUSH2 0x8A8 JUMP JUMPDEST PUSH2 0x914 DUP2 DUP6 PUSH2 0x8B3 JUMP JUMPDEST SWAP4 POP PUSH2 0x924 DUP2 DUP6 PUSH1 0x20 DUP7 ADD PUSH2 0x8C4 JUMP JUMPDEST PUSH2 0x92D DUP2 PUSH2 0x8EE JUMP JUMPDEST DUP5 ADD SWAP2 POP POP SWAP3 SWAP2 POP POP JUMP JUMPDEST PUSH1 0x0 PUSH1 0x20 DUP3 ADD SWAP1 POP DUP2 DUP2 SUB PUSH1 0x0 DUP4 ADD MSTORE PUSH2 0x952 DUP2 DUP5 PUSH2 0x8FF JUMP JUMPDEST SWAP1 POP SWAP3 SWAP2 POP POP JUMP JUMPDEST PUSH1 0x0 DUP2 SWAP1 POP SWAP2 SWAP1 POP JUMP JUMPDEST PUSH2 0x96D DUP2 PUSH2 0x95A JUMP JUMPDEST DUP3 MSTORE POP POP JUMP JUMPDEST PUSH1 0x0 PUSH1 0x20 DUP3 ADD SWAP1 POP PUSH2 0x988 PUSH1 0x0 DUP4 ADD DUP5 PUSH2 0x964 JUMP JUMPDEST SWAP3 SWAP2 POP POP JUMP JUMPDEST PUSH1 0x0 DUP2 MLOAD SWAP1 POP SWAP2 SWAP1 POP JUMP JUMPDEST PUSH1 0x0 DUP3 DUP3 MSTORE PUSH1 0x20 DUP3 ADD SWAP1 POP SWAP3 SWAP2 POP POP JUMP JUMPDEST PUSH1 0x0 DUP2 SWAP1 POP PUSH1 0x20 DUP3 ADD SWAP1 POP SWAP2 SWAP1 POP JUMP JUMPDEST PUSH1 0x0 PUSH2 0x9C5 DUP3 PUSH2 0x84C JUMP JUMPDEST SWAP1 POP SWAP2 SWAP1 POP JUMP JUMPDEST PUSH2 0x9D5 DUP2 PUSH2 0x9BA JUMP JUMPDEST DUP3 MSTORE POP POP JUMP JUMPDEST PUSH1 0x0 PUSH2 0x9E7 DUP4 DUP4 PUSH2 0x9CC JUMP JUMPDEST PUSH1 0x20 DUP4 ADD SWAP1 POP SWAP3 SWAP2 POP POP JUMP JUMPDEST PUSH1 0x0 PUSH1 0x20 DUP3 ADD SWAP1 POP SWAP2 SWAP1 POP JUMP JUMPDEST PUSH1 0x0 PUSH2 0xA0B DUP3 PUSH2 0x98E JUMP JUMPDEST PUSH2 0xA15 DUP2 DUP6 PUSH2 0x999 JUMP JUMPDEST SWAP4 POP PUSH2 0xA20 DUP4 PUSH2 0x9AA JUMP JUMPDEST DUP1 PUSH1 0x0 JUMPDEST DUP4 DUP2 LT ISZERO PUSH2 0xA51 JUMPI DUP2 MLOAD PUSH2 0xA38 DUP9 DUP3 PUSH2 0x9DB JUMP JUMPDEST SWAP8 POP PUSH2 0xA43 DUP4 PUSH2 0x9F3 JUMP JUMPDEST SWAP3 POP POP PUSH1 0x1 DUP2 ADD SWAP1 POP PUSH2 0xA24 JUMP JUMPDEST POP DUP6 SWAP4 POP POP POP POP SWAP3 SWAP2 POP POP JUMP JUMPDEST PUSH1 0x0 PUSH1 0x20 DUP3 ADD SWAP1 POP DUP2 DUP2 SUB PUSH1 0x0 DUP4 ADD MSTORE PUSH2 0xA78 DUP2 DUP5 PUSH2 0xA00 JUMP JUMPDEST SWAP1 POP SWAP3 SWAP2 POP POP JUMP JUMPDEST PUSH1 0x0 DUP1 REVERT JUMPDEST PUSH2 0xA8E DUP2 PUSH2 0x95A JUMP JUMPDEST DUP2 EQ PUSH2 0xA99 JUMPI PUSH1 0x0 DUP1 REVERT JUMPDEST POP JUMP JUMPDEST PUSH1 0x0 DUP2 CALLDATALOAD SWAP1 POP PUSH2 0xAAB DUP2 PUSH2 0xA85 JUMP JUMPDEST SWAP3 SWAP2 POP POP JUMP JUMPDEST PUSH1 0x0 PUSH1 0x20 DUP3 DUP5 SUB SLT ISZERO PUSH2 0xAC7 JUMPI PUSH2 0xAC6 PUSH2 0xA80 JUMP JUMPDEST JUMPDEST PUSH1 0x0 PUSH2 0xAD5 DUP5 DUP3 DUP6 ADD PUSH2 0xA9C JUMP JUMPDEST SWAP2 POP POP SWAP3 SWAP2 POP POP JUMP JUMPDEST PUSH2 0xAE7 DUP2 PUSH2 0x9BA JUMP JUMPDEST DUP3 MSTORE POP POP JUMP JUMPDEST PUSH1 0x0 PUSH1 0x20 DUP3 ADD SWAP1 POP PUSH2 0xB02 PUSH1 0x0 DUP4 ADD DUP5 PUSH2 0xADE JUMP JUMPDEST SWAP3 SWAP2 POP POP JUMP JUMPDEST PUSH32 0x4E487B7100000000000000000000000000000000000000000000000000000000 PUSH1 0x0 MSTORE PUSH1 0x32 PUSH1 0x4 MSTORE PUSH1 0x24 PUSH1 0x0 REVERT JUMPDEST PUSH32 0x4E487B7100000000000000000000000000000000000000000000000000000000 PUSH1 0x0 MSTORE PUSH1 0x11 PUSH1 0x4 MSTORE PUSH1 0x24 PUSH1 0x0 REVERT JUMPDEST PUSH1 0x0 PUSH2 0xB71 DUP3 PUSH2 0x95A JUMP JUMPDEST SWAP2 POP PUSH32 0xFFFFFFFFFFFFFFFFFFFFFFFFFFFFFFFFFFFFFFFFFFFFFFFFFFFFFFFFFFFFFFFF DUP3 SUB PUSH2 0xBA3 JUMPI PUSH2 0xBA2 PUSH2 0xB37 JUMP JUMPDEST JUMPDEST PUSH1 0x1 DUP3 ADD SWAP1 POP SWAP2 SWAP1 POP JUMP JUMPDEST PUSH32 0x4E487B7100000000000000000000000000000000000000000000000000000000 PUSH1 0x0 MSTORE PUSH1 0x41 PUSH1 0x4 MSTORE PUSH1 0x24 PUSH1 0x0 REVERT JUMPDEST PUSH32 0x4F6E6C79206D616E616765722063616E2073656C6563742077696E6E65720000 PUSH1 0x0 DUP3 ADD MSTORE POP JUMP JUMPDEST PUSH1 0x0 PUSH2 0xC13 PUSH1 0x1E DUP4 PUSH2 0x8B3 JUMP JUMPDEST SWAP2 POP PUSH2 0xC1E DUP3 PUSH2 0xBDD JUMP JUMPDEST PUSH1 0x20 DUP3 ADD SWAP1 POP SWAP2 SWAP1 POP JUMP JUMPDEST PUSH1 0x0 PUSH1 0x20 DUP3 ADD SWAP1 POP DUP2 DUP2 SUB PUSH1 0x0 DUP4 ADD MSTORE PUSH2 0xC42 DUP2 PUSH2 0xC06 JUMP JUMPDEST SWAP1 POP SWAP2 SWAP1 POP JUMP JUMPDEST PUSH32 0x4E487B7100000000000000000000000000000000000000000000000000000000 PUSH1 0x0 MSTORE PUSH1 0x12 PUSH1 0x4 MSTORE PUSH1 0x24 PUSH1 0x0 REVERT JUMPDEST PUSH1 0x0 PUSH2 0xC83 DUP3 PUSH2 0x95A JUMP JUMPDEST SWAP2 POP PUSH2 0xC8E DUP4 PUSH2 0x95A JUMP JUMPDEST SWAP3 POP DUP3 PUSH2 0xC9E JUMPI PUSH2 0xC9D PUSH2 0xC49 JUMP JUMPDEST JUMPDEST DUP3 DUP3 MOD SWAP1 POP SWAP3 SWAP2 POP POP JUMP JUMPDEST PUSH1 0x0 DUP2 SWAP1 POP SWAP3 SWAP2 POP POP JUMP JUMPDEST PUSH32 0x57696E6E65722069732000000000000000000000000000000000000000000000 PUSH1 0x0 DUP3 ADD MSTORE POP JUMP JUMPDEST PUSH1 0x0 PUSH2 0xCEA PUSH1 0xA DUP4 PUSH2 0xCA9 JUMP JUMPDEST SWAP2 POP PUSH2 0xCF5 DUP3 PUSH2 0xCB4 JUMP JUMPDEST PUSH1 0xA DUP3 ADD SWAP1 POP SWAP2 SWAP1 POP JUMP JUMPDEST PUSH1 0x0 DUP2 PUSH1 0x60 SHL SWAP1 POP SWAP2 SWAP1 POP JUMP JUMPDEST PUSH1 0x0 PUSH2 0xD18 DUP3 PUSH2 0xD00 JUMP JUMPDEST SWAP1 POP SWAP2 SWAP1 POP JUMP JUMPDEST PUSH1 0x0 PUSH2 0xD2A DUP3 PUSH2 0xD0D JUMP JUMPDEST SWAP1 POP SWAP2 SWAP1 POP JUMP JUMPDEST PUSH2 0xD42 PUSH2 0xD3D DUP3 PUSH2 0x9BA JUMP JUMPDEST PUSH2 0xD1F JUMP JUMPDEST DUP3 MSTORE POP POP JUMP JUMPDEST PUSH1 0x0 PUSH2 0xD53 DUP3 PUSH2 0xCDD JUMP JUMPDEST SWAP2 POP PUSH2 0xD5F DUP3 DUP5 PUSH2 0xD31 JUMP JUMPDEST PUSH1 0x14 DUP3 ADD SWAP2 POP DUP2 SWAP1 POP SWAP3 SWAP2 POP POP JUMP JUMPDEST PUSH1 0x0 DUP2 SWAP1 POP SWAP2 SWAP1 POP JUMP JUMPDEST PUSH1 0x0 DUP2 SWAP1 POP SWAP2 SWAP1 POP JUMP JUMPDEST PUSH2 0xD93 PUSH2 0xD8E DUP3 PUSH2 0xD6E JUMP JUMPDEST PUSH2 0xD78 JUMP JUMPDEST DUP3 MSTORE POP POP JUMP JUMPDEST PUSH1 0x0 DUP2 SLOAD SWAP1 POP SWAP2 SWAP1 POP JUMP JUMPDEST PUSH1 0x0 DUP2 SWAP1 POP SWAP3 SWAP2 POP POP JUMP JUMPDEST PUSH1 0x0 DUP2 SWAP1 POP DUP2 PUSH1 0x0 MSTORE PUSH1 0x20 PUSH1 0x0 KECCAK256 SWAP1 POP SWAP2 SWAP1 POP JUMP JUMPDEST PUSH2 0xDCD DUP2 PUSH2 0x9BA JUMP JUMPDEST DUP3 MSTORE POP POP JUMP JUMPDEST PUSH1 0x0 PUSH2 0xDDF DUP4 DUP4 PUSH2 0xDC4 JUMP JUMPDEST PUSH1 0x20 DUP4 ADD SWAP1 POP SWAP3 SWAP2 POP POP JUMP JUMPDEST PUSH1 0x0 DUP2 PUSH1 0x0 SHR SWAP1 POP SWAP2 SWAP1 POP JUMP JUMPDEST PUSH1 0x0 PUSH20 0xFFFFFFFFFFFFFFFFFFFFFFFFFFFFFFFFFFFFFFFF DUP3 AND SWAP1 POP SWAP2 SWAP1 POP JUMP JUMPDEST PUSH1 0x0 PUSH2 0xE2B PUSH2 0xE26 DUP4 PUSH2 0xDEB JUMP JUMPDEST PUSH2 0xDF8 JUMP JUMPDEST SWAP1 POP SWAP2 SWAP1 POP JUMP JUMPDEST PUSH1 0x0 PUSH2 0xE3E DUP3 SLOAD PUSH2 0xE18 JUMP JUMPDEST SWAP1 POP SWAP2 SWAP1 POP JUMP JUMPDEST PUSH1 0x0 PUSH1 0x1 DUP3 ADD SWAP1 POP SWAP2 SWAP1 POP JUMP JUMPDEST PUSH1 0x0 PUSH2 0xE5D DUP3 PUSH2 0xD99 JUMP JUMPDEST PUSH2 0xE67 DUP2 DUP6 PUSH2 0xDA4 JUMP JUMPDEST SWAP4 POP PUSH2 0xE72 DUP4 PUSH2 0xDAF JUMP JUMPDEST DUP1 PUSH1 0x0 JUMPDEST DUP4 DUP2 LT ISZERO PUSH2 0xEAA JUMPI PUSH2 0xE87 DUP3 PUSH2 0xE32 JUMP JUMPDEST PUSH2 0xE91 DUP9 DUP3 PUSH2 0xDD3 JUMP JUMPDEST SWAP8 POP PUSH2 0xE9C DUP4 PUSH2 0xE45 JUMP JUMPDEST SWAP3 POP POP PUSH1 0x1 DUP2 ADD SWAP1 POP PUSH2 0xE76 JUMP JUMPDEST POP DUP6 SWAP4 POP POP POP POP SWAP3 SWAP2 POP POP JUMP JUMPDEST PUSH1 0x0 PUSH2 0xEC3 DUP3 DUP6 PUSH2 0xD82 JUMP JUMPDEST PUSH1 0x20 DUP3 ADD SWAP2 POP PUSH2 0xED3 DUP3 DUP5 PUSH2 0xE52 JUMP JUMPDEST SWAP2 POP DUP2 SWAP1 POP SWAP4 SWAP3 POP POP POP JUMP JUMPDEST PUSH1 0x0 DUP2 MLOAD SWAP1 POP SWAP2 SWAP1 POP JUMP JUMPDEST PUSH1 0x0 DUP2 SWAP1 POP SWAP3 SWAP2 POP POP JUMP JUMPDEST PUSH1 0x0 PUSH2 0xF00 DUP3 PUSH2 0xEDF JUMP JUMPDEST PUSH2 0xF0A DUP2 DUP6 PUSH2 0xEEA JUMP JUMPDEST SWAP4 POP PUSH2 0xF1A DUP2 DUP6 PUSH1 0x20 DUP7 ADD PUSH2 0x8C4 JUMP JUMPDEST DUP1 DUP5 ADD SWAP2 POP POP SWAP3 SWAP2 POP POP JUMP JUMPDEST PUSH1 0x0 PUSH2 0xF32 DUP3 DUP5 PUSH2 0xEF5 JUMP JUMPDEST SWAP2 POP DUP2 SWAP1 POP SWAP3 SWAP2 POP POP JUMP JUMPDEST PUSH2 0xF46 DUP2 PUSH2 0xD6E JUMP JUMPDEST DUP2 EQ PUSH2 0xF51 JUMPI PUSH1 0x0 DUP1 REVERT JUMPDEST POP JUMP JUMPDEST PUSH1 0x0 DUP2 MLOAD SWAP1 POP PUSH2 0xF63 DUP2 PUSH2 0xF3D JUMP JUMPDEST SWAP3 SWAP2 POP POP JUMP JUMPDEST PUSH1 0x0 PUSH1 0x20 DUP3 DUP5 SUB SLT ISZERO PUSH2 0xF7F JUMPI PUSH2 0xF7E PUSH2 0xA80 JUMP JUMPDEST JUMPDEST PUSH1 0x0 PUSH2 0xF8D DUP5 DUP3 DUP6 ADD PUSH2 0xF54 JUMP JUMPDEST SWAP2 POP POP SWAP3 SWAP2 POP POP JUMP JUMPDEST PUSH32 0x4D616E6765722043616E6E6F7420456E74657200000000000000000000000000 PUSH1 0x0 DUP3 ADD MSTORE POP JUMP JUMPDEST PUSH1 0x0 PUSH2 0xFCC PUSH1 0x13 DUP4 PUSH2 0x8B3 JUMP JUMPDEST SWAP2 POP PUSH2 0xFD7 DUP3 PUSH2 0xF96 JUMP JUMPDEST PUSH1 0x20 DUP3 ADD SWAP1 POP SWAP2 SWAP1 POP JUMP JUMPDEST PUSH1 0x0 PUSH1 0x20 DUP3 ADD SWAP1 POP DUP2 DUP2 SUB PUSH1 0x0 DUP4 ADD MSTORE PUSH2 0xFFB DUP2 PUSH2 0xFBF JUMP JUMPDEST SWAP1 POP SWAP2 SWAP1 POP JUMP JUMPDEST PUSH32 0x506C617965722043616E6E6F7420656E746572206D6F7265207468616E206F6E PUSH1 0x0 DUP3 ADD MSTORE PUSH32 0x6365000000000000000000000000000000000000000000000000000000000000 PUSH1 0x20 DUP3 ADD MSTORE POP JUMP JUMPDEST PUSH1 0x0 PUSH2 0x105E PUSH1 0x22 DUP4 PUSH2 0x8B3 JUMP JUMPDEST SWAP2 POP PUSH2 0x1069 DUP3 PUSH2 0x1002 JUMP JUMPDEST PUSH1 0x40 DUP3 ADD SWAP1 POP SWAP2 SWAP1 POP JUMP JUMPDEST PUSH1 0x0 PUSH1 0x20 DUP3 ADD SWAP1 POP DUP2 DUP2 SUB PUSH1 0x0 DUP4 ADD MSTORE PUSH2 0x108D DUP2 PUSH2 0x1051 JUMP JUMPDEST SWAP1 POP SWAP2 SWAP1 POP JUMP JUMPDEST PUSH32 0x4D757374206E65656420746F20706179204D696E696D756D2046656500000000 PUSH1 0x0 DUP3 ADD MSTORE POP JUMP JUMPDEST PUSH1 0x0 PUSH2 0x10CA PUSH1 0x1C DUP4 PUSH2 0x8B3 JUMP JUMPDEST SWAP2 POP PUSH2 0x10D5 DUP3 PUSH2 0x1094 JUMP JUMPDEST PUSH1 0x20 DUP3 ADD SWAP1 POP SWAP2 SWAP1 POP JUMP JUMPDEST PUSH1 0x0 PUSH1 0x20 DUP3 ADD SWAP1 POP DUP2 DUP2 SUB PUSH1 0x0 DUP4 ADD MSTORE PUSH2 0x10F9 DUP2 PUSH2 0x10BD JUMP JUMPDEST SWAP1 POP SWAP2 SWAP1 POP JUMP INVALID LOG2 PUSH5 0x6970667358 0x22 SLT KECCAK256 0x2B 0x1E CREATE2 DUP5 0xED 0xF8 0xD6 0xC1 0xD8 EXTCODEHASH 0xB9 0xE9 GT 0xC3 0xE PUSH9 0xE7CBCD1251806F164 0xEF 0xB3 MSTORE8 LOG3 SWAP2 0xE6 0xEB PUSH5 0x736F6C6343 STOP ADDMOD SLT STOP CALLER "
				},
				"gasEstimates": {
					"creation": {
						"codeDepositCost": "881200",
						"executionCost": "25182",
						"totalCost": "906382"
					},
					"external": {
						"alreadyEntered()": "infinite",
						"enter()": "infinite",
						"getPlayers()": "infinite",
						"manager()": "2556",
						"pickWinner()": "infinite",
						"players(uint256)": "5022",
						"random()": "infinite",
						"restartContract()": "infinite"
					}
				},
				"methodIdentifiers": {
					"alreadyEntered()": "1db2468b",
					"enter()": "e97dcb62",
					"getPlayers()": "8b5b9ccc",
					"manager()": "481c6a75",
					"pickWinner()": "5d495aea",
					"players(uint256)": "f71d96cb",
					"random()": "5ec01e4d",
					"restartContract()": "30a52d5b"
				}
			},
			"storageLayout": {
				"storage": [
					{
						"astId": 3,
						"contract": "44_lottery.sol:Lottery",
						"label": "manager",
						"offset": 0,
						"slot": "0",
						"type": "t_address"
					},
					{
						"astId": 6,
						"contract": "44_lottery.sol:Lottery",
						"label": "players",
						"offset": 0,
						"slot": "1",
						"type": "t_array(t_address_payable)dyn_storage"
					}
				],
				"types": {
					"t_address": {
						"encoding": "inplace",
						"label": "address",
						"numberOfBytes": "20"
					},
					"t_address_payable": {
						"encoding": "inplace",
						"label": "address payable",
						"numberOfBytes": "20"
					},
					"t_array(t_address_payable)dyn_storage": {
						"base": "t_address_payable",
						"encoding": "dynamic_array",
						"label": "address payable[]",
						"numberOfBytes": "32"
					}
				}
			},
			"userdoc": {
				"kind": "user",
				"methods": {},
				"version": 1
			}
		}
	}
}