{
	"structprac.sol": {
		"abc": {
			"abi": [
				{
					"inputs": [],
					"name": "getStudent",
					"outputs": [
						{
							"internalType": "uint256",
							"name": "",
							"type": "uint256"
						}
					],
					"stateMutability": "view",
					"type": "function"
				},
				{
					"inputs": [],
					"name": "s",
					"outputs": [
						{
							"internalType": "string",
							"name": "sname",
							"type": "string"
						},
						{
							"internalType": "uint256",
							"name": "sid",
							"type": "uint256"
						}
					],
					"stateMutability": "view",
					"type": "function"
				},
				{
					"inputs": [],
					"name": "setStudent",
					"outputs": [],
					"stateMutability": "nonpayable",
					"type": "function"
				}
			],
			"devdoc": {
				"kind": "dev",
				"methods": {},
				"version": 1
			},
			"evm": {
				"assembly": "    /* \"structprac.sol\":68:345  contract abc {... */\n  mstore(0x40, 0x80)\n  callvalue\n  dup1\n  iszero\n  tag_1\n  jumpi\n  0x00\n  dup1\n  revert\ntag_1:\n  pop\n  dataSize(sub_0)\n  dup1\n  dataOffset(sub_0)\n  0x00\n  codecopy\n  0x00\n  return\nstop\n\nsub_0: assembly {\n        /* \"structprac.sol\":68:345  contract abc {... */\n      mstore(0x40, 0x80)\n      callvalue\n      dup1\n      iszero\n      tag_1\n      jumpi\n      0x00\n      dup1\n      revert\n    tag_1:\n      pop\n      jumpi(tag_2, lt(calldatasize, 0x04))\n      shr(0xe0, calldataload(0x00))\n      dup1\n      0x23e898e9\n      eq\n      tag_3\n      jumpi\n      dup1\n      0x86b714e2\n      eq\n      tag_4\n      jumpi\n      dup1\n      0xb439548d\n      eq\n      tag_5\n      jumpi\n    tag_2:\n      0x00\n      dup1\n      revert\n        /* \"structprac.sol\":183:254  function setStudent() public {... */\n    tag_3:\n      tag_6\n      tag_7\n      jump\t// in\n    tag_6:\n      stop\n        /* \"structprac.sol\":160:176  student public s */\n    tag_4:\n      tag_8\n      tag_9\n      jump\t// in\n    tag_8:\n      mload(0x40)\n      tag_10\n      swap3\n      swap2\n      swap1\n      tag_11\n      jump\t// in\n    tag_10:\n      mload(0x40)\n      dup1\n      swap2\n      sub\n      swap1\n      return\n        /* \"structprac.sol\":262:342  function getStudent() public view returns (uint) {... */\n    tag_5:\n      tag_12\n      tag_13\n      jump\t// in\n    tag_12:\n      mload(0x40)\n      tag_14\n      swap2\n      swap1\n      tag_15\n      jump\t// in\n    tag_14:\n      mload(0x40)\n      dup1\n      swap2\n      sub\n      swap1\n      return\n        /* \"structprac.sol\":183:254  function setStudent() public {... */\n    tag_7:\n        /* \"structprac.sol\":227:246  student(\"omkar\",20) */\n      mload(0x40)\n      dup1\n      0x40\n      add\n      0x40\n      mstore\n      dup1\n      mload(0x40)\n      dup1\n      0x40\n      add\n      0x40\n      mstore\n      dup1\n      0x05\n      dup2\n      mstore\n      0x20\n      add\n      0x6f6d6b6172000000000000000000000000000000000000000000000000000000\n      dup2\n      mstore\n      pop\n      dup2\n      mstore\n      0x20\n      add\n        /* \"structprac.sol\":243:245  20 */\n      0x14\n        /* \"structprac.sol\":227:246  student(\"omkar\",20) */\n      dup2\n      mstore\n      pop\n        /* \"structprac.sol\":223:224  s */\n      0x00\n        /* \"structprac.sol\":223:246  s = student(\"omkar\",20) */\n      dup1\n      dup3\n      add\n      mload\n      dup2\n      0x00\n      add\n      swap1\n      dup2\n      tag_17\n      swap2\n      swap1\n      tag_18\n      jump\t// in\n    tag_17:\n      pop\n      0x20\n      dup3\n      add\n      mload\n      dup2\n      0x01\n      add\n      sstore\n      swap1\n      pop\n      pop\n        /* \"structprac.sol\":183:254  function setStudent() public {... */\n      jump\t// out\n        /* \"structprac.sol\":160:176  student public s */\n    tag_9:\n      0x00\n      dup1\n      0x00\n      add\n      dup1\n      sload\n      tag_19\n      swap1\n      tag_20\n      jump\t// in\n    tag_19:\n      dup1\n      0x1f\n      add\n      0x20\n      dup1\n      swap2\n      div\n      mul\n      0x20\n      add\n      mload(0x40)\n      swap1\n      dup2\n      add\n      0x40\n      mstore\n      dup1\n      swap3\n      swap2\n      swap1\n      dup2\n      dup2\n      mstore\n      0x20\n      add\n      dup3\n      dup1\n      sload\n      tag_21\n      swap1\n      tag_20\n      jump\t// in\n    tag_21:\n      dup1\n      iszero\n      tag_22\n      jumpi\n      dup1\n      0x1f\n      lt\n      tag_23\n      jumpi\n      0x0100\n      dup1\n      dup4\n      sload\n      div\n      mul\n      dup4\n      mstore\n      swap2\n      0x20\n      add\n      swap2\n      jump(tag_22)\n    tag_23:\n      dup3\n      add\n      swap2\n      swap1\n      0x00\n      mstore\n      keccak256(0x00, 0x20)\n      swap1\n    tag_24:\n      dup2\n      sload\n      dup2\n      mstore\n      swap1\n      0x01\n      add\n      swap1\n      0x20\n      add\n      dup1\n      dup4\n      gt\n      tag_24\n      jumpi\n      dup3\n      swap1\n      sub\n      0x1f\n      and\n      dup3\n      add\n      swap2\n    tag_22:\n      pop\n      pop\n      pop\n      pop\n      pop\n      swap1\n      dup1\n      0x01\n      add\n      sload\n      swap1\n      pop\n      dup3\n      jump\t// out\n        /* \"structprac.sol\":262:342  function getStudent() public view returns (uint) {... */\n    tag_13:\n        /* \"structprac.sol\":305:309  uint */\n      0x00\n        /* \"structprac.sol\":329:330  s */\n      dup1\n        /* \"structprac.sol\":329:334  s.sid */\n      0x01\n      add\n      sload\n        /* \"structprac.sol\":322:334  return s.sid */\n      swap1\n      pop\n        /* \"structprac.sol\":262:342  function getStudent() public view returns (uint) {... */\n      swap1\n      jump\t// out\n        /* \"#utility.yul\":7:106   */\n    tag_26:\n        /* \"#utility.yul\":59:65   */\n      0x00\n        /* \"#utility.yul\":93:98   */\n      dup2\n        /* \"#utility.yul\":87:99   */\n      mload\n        /* \"#utility.yul\":77:99   */\n      swap1\n      pop\n        /* \"#utility.yul\":7:106   */\n      swap2\n      swap1\n      pop\n      jump\t// out\n        /* \"#utility.yul\":112:281   */\n    tag_27:\n        /* \"#utility.yul\":196:207   */\n      0x00\n        /* \"#utility.yul\":230:236   */\n      dup3\n        /* \"#utility.yul\":225:228   */\n      dup3\n        /* \"#utility.yul\":218:237   */\n      mstore\n        /* \"#utility.yul\":270:274   */\n      0x20\n        /* \"#utility.yul\":265:268   */\n      dup3\n        /* \"#utility.yul\":261:275   */\n      add\n        /* \"#utility.yul\":246:275   */\n      swap1\n      pop\n        /* \"#utility.yul\":112:281   */\n      swap3\n      swap2\n      pop\n      pop\n      jump\t// out\n        /* \"#utility.yul\":287:533   */\n    tag_28:\n        /* \"#utility.yul\":368:369   */\n      0x00\n        /* \"#utility.yul\":378:491   */\n    tag_54:\n        /* \"#utility.yul\":392:398   */\n      dup4\n        /* \"#utility.yul\":389:390   */\n      dup2\n        /* \"#utility.yul\":386:399   */\n      lt\n        /* \"#utility.yul\":378:491   */\n      iszero\n      tag_56\n      jumpi\n        /* \"#utility.yul\":477:478   */\n      dup1\n        /* \"#utility.yul\":472:475   */\n      dup3\n        /* \"#utility.yul\":468:479   */\n      add\n        /* \"#utility.yul\":462:480   */\n      mload\n        /* \"#utility.yul\":458:459   */\n      dup2\n        /* \"#utility.yul\":453:456   */\n      dup5\n        /* \"#utility.yul\":449:460   */\n      add\n        /* \"#utility.yul\":442:481   */\n      mstore\n        /* \"#utility.yul\":414:416   */\n      0x20\n        /* \"#utility.yul\":411:412   */\n      dup2\n        /* \"#utility.yul\":407:417   */\n      add\n        /* \"#utility.yul\":402:417   */\n      swap1\n      pop\n        /* \"#utility.yul\":378:491   */\n      jump(tag_54)\n    tag_56:\n        /* \"#utility.yul\":525:526   */\n      0x00\n        /* \"#utility.yul\":516:522   */\n      dup5\n        /* \"#utility.yul\":511:514   */\n      dup5\n        /* \"#utility.yul\":507:523   */\n      add\n        /* \"#utility.yul\":500:527   */\n      mstore\n        /* \"#utility.yul\":349:533   */\n      pop\n        /* \"#utility.yul\":287:533   */\n      pop\n      pop\n      pop\n      jump\t// out\n        /* \"#utility.yul\":539:641   */\n    tag_29:\n        /* \"#utility.yul\":580:586   */\n      0x00\n        /* \"#utility.yul\":631:633   */\n      0x1f\n        /* \"#utility.yul\":627:634   */\n      not\n        /* \"#utility.yul\":622:624   */\n      0x1f\n        /* \"#utility.yul\":615:620   */\n      dup4\n        /* \"#utility.yul\":611:625   */\n      add\n        /* \"#utility.yul\":607:635   */\n      and\n        /* \"#utility.yul\":597:635   */\n      swap1\n      pop\n        /* \"#utility.yul\":539:641   */\n      swap2\n      swap1\n      pop\n      jump\t// out\n        /* \"#utility.yul\":647:1024   */\n    tag_30:\n        /* \"#utility.yul\":735:738   */\n      0x00\n        /* \"#utility.yul\":763:802   */\n      tag_59\n        /* \"#utility.yul\":796:801   */\n      dup3\n        /* \"#utility.yul\":763:802   */\n      tag_26\n      jump\t// in\n    tag_59:\n        /* \"#utility.yul\":818:889   */\n      tag_60\n        /* \"#utility.yul\":882:888   */\n      dup2\n        /* \"#utility.yul\":877:880   */\n      dup6\n        /* \"#utility.yul\":818:889   */\n      tag_27\n      jump\t// in\n    tag_60:\n        /* \"#utility.yul\":811:889   */\n      swap4\n      pop\n        /* \"#utility.yul\":898:963   */\n      tag_61\n        /* \"#utility.yul\":956:962   */\n      dup2\n        /* \"#utility.yul\":951:954   */\n      dup6\n        /* \"#utility.yul\":944:948   */\n      0x20\n        /* \"#utility.yul\":937:942   */\n      dup7\n        /* \"#utility.yul\":933:949   */\n      add\n        /* \"#utility.yul\":898:963   */\n      tag_28\n      jump\t// in\n    tag_61:\n        /* \"#utility.yul\":988:1017   */\n      tag_62\n        /* \"#utility.yul\":1010:1016   */\n      dup2\n        /* \"#utility.yul\":988:1017   */\n      tag_29\n      jump\t// in\n    tag_62:\n        /* \"#utility.yul\":983:986   */\n      dup5\n        /* \"#utility.yul\":979:1018   */\n      add\n        /* \"#utility.yul\":972:1018   */\n      swap2\n      pop\n        /* \"#utility.yul\":739:1024   */\n      pop\n        /* \"#utility.yul\":647:1024   */\n      swap3\n      swap2\n      pop\n      pop\n      jump\t// out\n        /* \"#utility.yul\":1030:1107   */\n    tag_31:\n        /* \"#utility.yul\":1067:1074   */\n      0x00\n        /* \"#utility.yul\":1096:1101   */\n      dup2\n        /* \"#utility.yul\":1085:1101   */\n      swap1\n      pop\n        /* \"#utility.yul\":1030:1107   */\n      swap2\n      swap1\n      pop\n      jump\t// out\n        /* \"#utility.yul\":1113:1231   */\n    tag_32:\n        /* \"#utility.yul\":1200:1224   */\n      tag_65\n        /* \"#utility.yul\":1218:1223   */\n      dup2\n        /* \"#utility.yul\":1200:1224   */\n      tag_31\n      jump\t// in\n    tag_65:\n        /* \"#utility.yul\":1195:1198   */\n      dup3\n        /* \"#utility.yul\":1188:1225   */\n      mstore\n        /* \"#utility.yul\":1113:1231   */\n      pop\n      pop\n      jump\t// out\n        /* \"#utility.yul\":1237:1660   */\n    tag_11:\n        /* \"#utility.yul\":1378:1382   */\n      0x00\n        /* \"#utility.yul\":1416:1418   */\n      0x40\n        /* \"#utility.yul\":1405:1414   */\n      dup3\n        /* \"#utility.yul\":1401:1419   */\n      add\n        /* \"#utility.yul\":1393:1419   */\n      swap1\n      pop\n        /* \"#utility.yul\":1465:1474   */\n      dup2\n        /* \"#utility.yul\":1459:1463   */\n      dup2\n        /* \"#utility.yul\":1455:1475   */\n      sub\n        /* \"#utility.yul\":1451:1452   */\n      0x00\n        /* \"#utility.yul\":1440:1449   */\n      dup4\n        /* \"#utility.yul\":1436:1453   */\n      add\n        /* \"#utility.yul\":1429:1476   */\n      mstore\n        /* \"#utility.yul\":1493:1571   */\n      tag_67\n        /* \"#utility.yul\":1566:1570   */\n      dup2\n        /* \"#utility.yul\":1557:1563   */\n      dup6\n        /* \"#utility.yul\":1493:1571   */\n      tag_30\n      jump\t// in\n    tag_67:\n        /* \"#utility.yul\":1485:1571   */\n      swap1\n      pop\n        /* \"#utility.yul\":1581:1653   */\n      tag_68\n        /* \"#utility.yul\":1649:1651   */\n      0x20\n        /* \"#utility.yul\":1638:1647   */\n      dup4\n        /* \"#utility.yul\":1634:1652   */\n      add\n        /* \"#utility.yul\":1625:1631   */\n      dup5\n        /* \"#utility.yul\":1581:1653   */\n      tag_32\n      jump\t// in\n    tag_68:\n        /* \"#utility.yul\":1237:1660   */\n      swap4\n      swap3\n      pop\n      pop\n      pop\n      jump\t// out\n        /* \"#utility.yul\":1666:1888   */\n    tag_15:\n        /* \"#utility.yul\":1759:1763   */\n      0x00\n        /* \"#utility.yul\":1797:1799   */\n      0x20\n        /* \"#utility.yul\":1786:1795   */\n      dup3\n        /* \"#utility.yul\":1782:1800   */\n      add\n        /* \"#utility.yul\":1774:1800   */\n      swap1\n      pop\n        /* \"#utility.yul\":1810:1881   */\n      tag_70\n        /* \"#utility.yul\":1878:1879   */\n      0x00\n        /* \"#utility.yul\":1867:1876   */\n      dup4\n        /* \"#utility.yul\":1863:1880   */\n      add\n        /* \"#utility.yul\":1854:1860   */\n      dup5\n        /* \"#utility.yul\":1810:1881   */\n      tag_32\n      jump\t// in\n    tag_70:\n        /* \"#utility.yul\":1666:1888   */\n      swap3\n      swap2\n      pop\n      pop\n      jump\t// out\n        /* \"#utility.yul\":1894:2074   */\n    tag_33:\n        /* \"#utility.yul\":1942:2019   */\n      0x4e487b7100000000000000000000000000000000000000000000000000000000\n        /* \"#utility.yul\":1939:1940   */\n      0x00\n        /* \"#utility.yul\":1932:2020   */\n      mstore\n        /* \"#utility.yul\":2039:2043   */\n      0x41\n        /* \"#utility.yul\":2036:2037   */\n      0x04\n        /* \"#utility.yul\":2029:2044   */\n      mstore\n        /* \"#utility.yul\":2063:2067   */\n      0x24\n        /* \"#utility.yul\":2060:2061   */\n      0x00\n        /* \"#utility.yul\":2053:2068   */\n      revert\n        /* \"#utility.yul\":2080:2260   */\n    tag_34:\n        /* \"#utility.yul\":2128:2205   */\n      0x4e487b7100000000000000000000000000000000000000000000000000000000\n        /* \"#utility.yul\":2125:2126   */\n      0x00\n        /* \"#utility.yul\":2118:2206   */\n      mstore\n        /* \"#utility.yul\":2225:2229   */\n      0x22\n        /* \"#utility.yul\":2222:2223   */\n      0x04\n        /* \"#utility.yul\":2215:2230   */\n      mstore\n        /* \"#utility.yul\":2249:2253   */\n      0x24\n        /* \"#utility.yul\":2246:2247   */\n      0x00\n        /* \"#utility.yul\":2239:2254   */\n      revert\n        /* \"#utility.yul\":2266:2586   */\n    tag_20:\n        /* \"#utility.yul\":2310:2316   */\n      0x00\n        /* \"#utility.yul\":2347:2348   */\n      0x02\n        /* \"#utility.yul\":2341:2345   */\n      dup3\n        /* \"#utility.yul\":2337:2349   */\n      div\n        /* \"#utility.yul\":2327:2349   */\n      swap1\n      pop\n        /* \"#utility.yul\":2394:2395   */\n      0x01\n        /* \"#utility.yul\":2388:2392   */\n      dup3\n        /* \"#utility.yul\":2384:2396   */\n      and\n        /* \"#utility.yul\":2415:2433   */\n      dup1\n        /* \"#utility.yul\":2405:2486   */\n      tag_74\n      jumpi\n        /* \"#utility.yul\":2471:2475   */\n      0x7f\n        /* \"#utility.yul\":2463:2469   */\n      dup3\n        /* \"#utility.yul\":2459:2476   */\n      and\n        /* \"#utility.yul\":2449:2476   */\n      swap2\n      pop\n        /* \"#utility.yul\":2405:2486   */\n    tag_74:\n        /* \"#utility.yul\":2533:2535   */\n      0x20\n        /* \"#utility.yul\":2525:2531   */\n      dup3\n        /* \"#utility.yul\":2522:2536   */\n      lt\n        /* \"#utility.yul\":2502:2520   */\n      dup2\n        /* \"#utility.yul\":2499:2537   */\n      sub\n        /* \"#utility.yul\":2496:2580   */\n      tag_75\n      jumpi\n        /* \"#utility.yul\":2552:2570   */\n      tag_76\n      tag_34\n      jump\t// in\n    tag_76:\n        /* \"#utility.yul\":2496:2580   */\n    tag_75:\n        /* \"#utility.yul\":2317:2586   */\n      pop\n        /* \"#utility.yul\":2266:2586   */\n      swap2\n      swap1\n      pop\n      jump\t// out\n        /* \"#utility.yul\":2592:2733   */\n    tag_35:\n        /* \"#utility.yul\":2641:2645   */\n      0x00\n        /* \"#utility.yul\":2664:2667   */\n      dup2\n        /* \"#utility.yul\":2656:2667   */\n      swap1\n      pop\n        /* \"#utility.yul\":2687:2690   */\n      dup2\n        /* \"#utility.yul\":2684:2685   */\n      0x00\n        /* \"#utility.yul\":2677:2691   */\n      mstore\n        /* \"#utility.yul\":2721:2725   */\n      0x20\n        /* \"#utility.yul\":2718:2719   */\n      0x00\n        /* \"#utility.yul\":2708:2726   */\n      keccak256\n        /* \"#utility.yul\":2700:2726   */\n      swap1\n      pop\n        /* \"#utility.yul\":2592:2733   */\n      swap2\n      swap1\n      pop\n      jump\t// out\n        /* \"#utility.yul\":2739:2832   */\n    tag_36:\n        /* \"#utility.yul\":2776:2782   */\n      0x00\n        /* \"#utility.yul\":2823:2825   */\n      0x20\n        /* \"#utility.yul\":2818:2820   */\n      0x1f\n        /* \"#utility.yul\":2811:2816   */\n      dup4\n        /* \"#utility.yul\":2807:2821   */\n      add\n        /* \"#utility.yul\":2803:2826   */\n      div\n        /* \"#utility.yul\":2793:2826   */\n      swap1\n      pop\n        /* \"#utility.yul\":2739:2832   */\n      swap2\n      swap1\n      pop\n      jump\t// out\n        /* \"#utility.yul\":2838:2945   */\n    tag_37:\n        /* \"#utility.yul\":2882:2890   */\n      0x00\n        /* \"#utility.yul\":2932:2937   */\n      dup3\n        /* \"#utility.yul\":2926:2930   */\n      dup3\n        /* \"#utility.yul\":2922:2938   */\n      shl\n        /* \"#utility.yul\":2901:2938   */\n      swap1\n      pop\n        /* \"#utility.yul\":2838:2945   */\n      swap3\n      swap2\n      pop\n      pop\n      jump\t// out\n        /* \"#utility.yul\":2951:3344   */\n    tag_38:\n        /* \"#utility.yul\":3020:3026   */\n      0x00\n        /* \"#utility.yul\":3070:3071   */\n      0x08\n        /* \"#utility.yul\":3058:3068   */\n      dup4\n        /* \"#utility.yul\":3054:3072   */\n      mul\n        /* \"#utility.yul\":3093:3190   */\n      tag_81\n        /* \"#utility.yul\":3123:3189   */\n      0xffffffffffffffffffffffffffffffffffffffffffffffffffffffffffffffff\n        /* \"#utility.yul\":3112:3121   */\n      dup3\n        /* \"#utility.yul\":3093:3190   */\n      tag_37\n      jump\t// in\n    tag_81:\n        /* \"#utility.yul\":3211:3250   */\n      tag_82\n        /* \"#utility.yul\":3241:3249   */\n      dup7\n        /* \"#utility.yul\":3230:3239   */\n      dup4\n        /* \"#utility.yul\":3211:3250   */\n      tag_37\n      jump\t// in\n    tag_82:\n        /* \"#utility.yul\":3199:3250   */\n      swap6\n      pop\n        /* \"#utility.yul\":3283:3287   */\n      dup1\n        /* \"#utility.yul\":3279:3288   */\n      not\n        /* \"#utility.yul\":3272:3277   */\n      dup5\n        /* \"#utility.yul\":3268:3289   */\n      and\n        /* \"#utility.yul\":3259:3289   */\n      swap4\n      pop\n        /* \"#utility.yul\":3332:3336   */\n      dup1\n        /* \"#utility.yul\":3322:3330   */\n      dup7\n        /* \"#utility.yul\":3318:3337   */\n      and\n        /* \"#utility.yul\":3311:3316   */\n      dup5\n        /* \"#utility.yul\":3308:3338   */\n      or\n        /* \"#utility.yul\":3298:3338   */\n      swap3\n      pop\n        /* \"#utility.yul\":3027:3344   */\n      pop\n      pop\n        /* \"#utility.yul\":2951:3344   */\n      swap4\n      swap3\n      pop\n      pop\n      pop\n      jump\t// out\n        /* \"#utility.yul\":3350:3410   */\n    tag_39:\n        /* \"#utility.yul\":3378:3381   */\n      0x00\n        /* \"#utility.yul\":3399:3404   */\n      dup2\n        /* \"#utility.yul\":3392:3404   */\n      swap1\n      pop\n        /* \"#utility.yul\":3350:3410   */\n      swap2\n      swap1\n      pop\n      jump\t// out\n        /* \"#utility.yul\":3416:3558   */\n    tag_40:\n        /* \"#utility.yul\":3466:3475   */\n      0x00\n        /* \"#utility.yul\":3499:3552   */\n      tag_85\n        /* \"#utility.yul\":3517:3551   */\n      tag_86\n        /* \"#utility.yul\":3526:3550   */\n      tag_87\n        /* \"#utility.yul\":3544:3549   */\n      dup5\n        /* \"#utility.yul\":3526:3550   */\n      tag_31\n      jump\t// in\n    tag_87:\n        /* \"#utility.yul\":3517:3551   */\n      tag_39\n      jump\t// in\n    tag_86:\n        /* \"#utility.yul\":3499:3552   */\n      tag_31\n      jump\t// in\n    tag_85:\n        /* \"#utility.yul\":3486:3552   */\n      swap1\n      pop\n        /* \"#utility.yul\":3416:3558   */\n      swap2\n      swap1\n      pop\n      jump\t// out\n        /* \"#utility.yul\":3564:3639   */\n    tag_41:\n        /* \"#utility.yul\":3607:3610   */\n      0x00\n        /* \"#utility.yul\":3628:3633   */\n      dup2\n        /* \"#utility.yul\":3621:3633   */\n      swap1\n      pop\n        /* \"#utility.yul\":3564:3639   */\n      swap2\n      swap1\n      pop\n      jump\t// out\n        /* \"#utility.yul\":3645:3914   */\n    tag_42:\n        /* \"#utility.yul\":3755:3794   */\n      tag_90\n        /* \"#utility.yul\":3786:3793   */\n      dup4\n        /* \"#utility.yul\":3755:3794   */\n      tag_40\n      jump\t// in\n    tag_90:\n        /* \"#utility.yul\":3816:3907   */\n      tag_91\n        /* \"#utility.yul\":3865:3906   */\n      tag_92\n        /* \"#utility.yul\":3889:3905   */\n      dup3\n        /* \"#utility.yul\":3865:3906   */\n      tag_41\n      jump\t// in\n    tag_92:\n        /* \"#utility.yul\":3857:3863   */\n      dup5\n        /* \"#utility.yul\":3850:3854   */\n      dup5\n        /* \"#utility.yul\":3844:3855   */\n      sload\n        /* \"#utility.yul\":3816:3907   */\n      tag_38\n      jump\t// in\n    tag_91:\n        /* \"#utility.yul\":3810:3814   */\n      dup3\n        /* \"#utility.yul\":3803:3908   */\n      sstore\n        /* \"#utility.yul\":3721:3914   */\n      pop\n        /* \"#utility.yul\":3645:3914   */\n      pop\n      pop\n      pop\n      jump\t// out\n        /* \"#utility.yul\":3920:3993   */\n    tag_43:\n        /* \"#utility.yul\":3965:3968   */\n      0x00\n        /* \"#utility.yul\":3920:3993   */\n      swap1\n      jump\t// out\n        /* \"#utility.yul\":3999:4188   */\n    tag_44:\n        /* \"#utility.yul\":4076:4108   */\n      tag_95\n      tag_43\n      jump\t// in\n    tag_95:\n        /* \"#utility.yul\":4117:4182   */\n      tag_96\n        /* \"#utility.yul\":4175:4181   */\n      dup2\n        /* \"#utility.yul\":4167:4173   */\n      dup5\n        /* \"#utility.yul\":4161:4165   */\n      dup5\n        /* \"#utility.yul\":4117:4182   */\n      tag_42\n      jump\t// in\n    tag_96:\n        /* \"#utility.yul\":4052:4188   */\n      pop\n        /* \"#utility.yul\":3999:4188   */\n      pop\n      pop\n      jump\t// out\n        /* \"#utility.yul\":4194:4380   */\n    tag_45:\n        /* \"#utility.yul\":4254:4374   */\n    tag_98:\n        /* \"#utility.yul\":4271:4274   */\n      dup2\n        /* \"#utility.yul\":4264:4269   */\n      dup2\n        /* \"#utility.yul\":4261:4275   */\n      lt\n        /* \"#utility.yul\":4254:4374   */\n      iszero\n      tag_100\n      jumpi\n        /* \"#utility.yul\":4325:4364   */\n      tag_101\n        /* \"#utility.yul\":4362:4363   */\n      0x00\n        /* \"#utility.yul\":4355:4360   */\n      dup3\n        /* \"#utility.yul\":4325:4364   */\n      tag_44\n      jump\t// in\n    tag_101:\n        /* \"#utility.yul\":4298:4299   */\n      0x01\n        /* \"#utility.yul\":4291:4296   */\n      dup2\n        /* \"#utility.yul\":4287:4300   */\n      add\n        /* \"#utility.yul\":4278:4300   */\n      swap1\n      pop\n        /* \"#utility.yul\":4254:4374   */\n      jump(tag_98)\n    tag_100:\n        /* \"#utility.yul\":4194:4380   */\n      pop\n      pop\n      jump\t// out\n        /* \"#utility.yul\":4386:4929   */\n    tag_46:\n        /* \"#utility.yul\":4487:4489   */\n      0x1f\n        /* \"#utility.yul\":4482:4485   */\n      dup3\n        /* \"#utility.yul\":4479:4490   */\n      gt\n        /* \"#utility.yul\":4476:4922   */\n      iszero\n      tag_103\n      jumpi\n        /* \"#utility.yul\":4521:4559   */\n      tag_104\n        /* \"#utility.yul\":4553:4558   */\n      dup2\n        /* \"#utility.yul\":4521:4559   */\n      tag_35\n      jump\t// in\n    tag_104:\n        /* \"#utility.yul\":4605:4634   */\n      tag_105\n        /* \"#utility.yul\":4623:4633   */\n      dup5\n        /* \"#utility.yul\":4605:4634   */\n      tag_36\n      jump\t// in\n    tag_105:\n        /* \"#utility.yul\":4595:4603   */\n      dup2\n        /* \"#utility.yul\":4591:4635   */\n      add\n        /* \"#utility.yul\":4788:4790   */\n      0x20\n        /* \"#utility.yul\":4776:4786   */\n      dup6\n        /* \"#utility.yul\":4773:4791   */\n      lt\n        /* \"#utility.yul\":4770:4819   */\n      iszero\n      tag_106\n      jumpi\n        /* \"#utility.yul\":4809:4817   */\n      dup2\n        /* \"#utility.yul\":4794:4817   */\n      swap1\n      pop\n        /* \"#utility.yul\":4770:4819   */\n    tag_106:\n        /* \"#utility.yul\":4832:4912   */\n      tag_107\n        /* \"#utility.yul\":4888:4910   */\n      tag_108\n        /* \"#utility.yul\":4906:4909   */\n      dup6\n        /* \"#utility.yul\":4888:4910   */\n      tag_36\n      jump\t// in\n    tag_108:\n        /* \"#utility.yul\":4878:4886   */\n      dup4\n        /* \"#utility.yul\":4874:4911   */\n      add\n        /* \"#utility.yul\":4861:4872   */\n      dup3\n        /* \"#utility.yul\":4832:4912   */\n      tag_45\n      jump\t// in\n    tag_107:\n        /* \"#utility.yul\":4491:4922   */\n      pop\n      pop\n        /* \"#utility.yul\":4476:4922   */\n    tag_103:\n        /* \"#utility.yul\":4386:4929   */\n      pop\n      pop\n      pop\n      jump\t// out\n        /* \"#utility.yul\":4935:5052   */\n    tag_47:\n        /* \"#utility.yul\":4989:4997   */\n      0x00\n        /* \"#utility.yul\":5039:5044   */\n      dup3\n        /* \"#utility.yul\":5033:5037   */\n      dup3\n        /* \"#utility.yul\":5029:5045   */\n      shr\n        /* \"#utility.yul\":5008:5045   */\n      swap1\n      pop\n        /* \"#utility.yul\":4935:5052   */\n      swap3\n      swap2\n      pop\n      pop\n      jump\t// out\n        /* \"#utility.yul\":5058:5227   */\n    tag_48:\n        /* \"#utility.yul\":5102:5108   */\n      0x00\n        /* \"#utility.yul\":5135:5186   */\n      tag_111\n        /* \"#utility.yul\":5183:5184   */\n      0x00\n        /* \"#utility.yul\":5179:5185   */\n      not\n        /* \"#utility.yul\":5171:5176   */\n      dup5\n        /* \"#utility.yul\":5168:5169   */\n      0x08\n        /* \"#utility.yul\":5164:5177   */\n      mul\n        /* \"#utility.yul\":5135:5186   */\n      tag_47\n      jump\t// in\n    tag_111:\n        /* \"#utility.yul\":5131:5187   */\n      not\n        /* \"#utility.yul\":5216:5220   */\n      dup1\n        /* \"#utility.yul\":5210:5214   */\n      dup4\n        /* \"#utility.yul\":5206:5221   */\n      and\n        /* \"#utility.yul\":5196:5221   */\n      swap2\n      pop\n        /* \"#utility.yul\":5109:5227   */\n      pop\n        /* \"#utility.yul\":5058:5227   */\n      swap3\n      swap2\n      pop\n      pop\n      jump\t// out\n        /* \"#utility.yul\":5232:5527   */\n    tag_49:\n        /* \"#utility.yul\":5308:5312   */\n      0x00\n        /* \"#utility.yul\":5454:5483   */\n      tag_113\n        /* \"#utility.yul\":5479:5482   */\n      dup4\n        /* \"#utility.yul\":5473:5477   */\n      dup4\n        /* \"#utility.yul\":5454:5483   */\n      tag_48\n      jump\t// in\n    tag_113:\n        /* \"#utility.yul\":5446:5483   */\n      swap2\n      pop\n        /* \"#utility.yul\":5516:5519   */\n      dup3\n        /* \"#utility.yul\":5513:5514   */\n      0x02\n        /* \"#utility.yul\":5509:5520   */\n      mul\n        /* \"#utility.yul\":5503:5507   */\n      dup3\n        /* \"#utility.yul\":5500:5521   */\n      or\n        /* \"#utility.yul\":5492:5521   */\n      swap1\n      pop\n        /* \"#utility.yul\":5232:5527   */\n      swap3\n      swap2\n      pop\n      pop\n      jump\t// out\n        /* \"#utility.yul\":5532:6927   */\n    tag_18:\n        /* \"#utility.yul\":5649:5686   */\n      tag_115\n        /* \"#utility.yul\":5682:5685   */\n      dup3\n        /* \"#utility.yul\":5649:5686   */\n      tag_26\n      jump\t// in\n    tag_115:\n        /* \"#utility.yul\":5751:5769   */\n      0xffffffffffffffff\n        /* \"#utility.yul\":5743:5749   */\n      dup2\n        /* \"#utility.yul\":5740:5770   */\n      gt\n        /* \"#utility.yul\":5737:5793   */\n      iszero\n      tag_116\n      jumpi\n        /* \"#utility.yul\":5773:5791   */\n      tag_117\n      tag_33\n      jump\t// in\n    tag_117:\n        /* \"#utility.yul\":5737:5793   */\n    tag_116:\n        /* \"#utility.yul\":5817:5855   */\n      tag_118\n        /* \"#utility.yul\":5849:5853   */\n      dup3\n        /* \"#utility.yul\":5843:5854   */\n      sload\n        /* \"#utility.yul\":5817:5855   */\n      tag_20\n      jump\t// in\n    tag_118:\n        /* \"#utility.yul\":5902:5969   */\n      tag_119\n        /* \"#utility.yul\":5962:5968   */\n      dup3\n        /* \"#utility.yul\":5954:5960   */\n      dup3\n        /* \"#utility.yul\":5948:5952   */\n      dup6\n        /* \"#utility.yul\":5902:5969   */\n      tag_46\n      jump\t// in\n    tag_119:\n        /* \"#utility.yul\":5996:5997   */\n      0x00\n        /* \"#utility.yul\":6020:6024   */\n      0x20\n        /* \"#utility.yul\":6007:6024   */\n      swap1\n      pop\n        /* \"#utility.yul\":6052:6054   */\n      0x1f\n        /* \"#utility.yul\":6044:6050   */\n      dup4\n        /* \"#utility.yul\":6041:6055   */\n      gt\n        /* \"#utility.yul\":6069:6070   */\n      0x01\n        /* \"#utility.yul\":6064:6682   */\n      dup2\n      eq\n      tag_121\n      jumpi\n        /* \"#utility.yul\":6726:6727   */\n      0x00\n        /* \"#utility.yul\":6743:6749   */\n      dup5\n        /* \"#utility.yul\":6740:6817   */\n      iszero\n      tag_122\n      jumpi\n        /* \"#utility.yul\":6792:6801   */\n      dup3\n        /* \"#utility.yul\":6787:6790   */\n      dup8\n        /* \"#utility.yul\":6783:6802   */\n      add\n        /* \"#utility.yul\":6777:6803   */\n      mload\n        /* \"#utility.yul\":6768:6803   */\n      swap1\n      pop\n        /* \"#utility.yul\":6740:6817   */\n    tag_122:\n        /* \"#utility.yul\":6843:6910   */\n      tag_123\n        /* \"#utility.yul\":6903:6909   */\n      dup6\n        /* \"#utility.yul\":6896:6901   */\n      dup3\n        /* \"#utility.yul\":6843:6910   */\n      tag_49\n      jump\t// in\n    tag_123:\n        /* \"#utility.yul\":6837:6841   */\n      dup7\n        /* \"#utility.yul\":6830:6911   */\n      sstore\n        /* \"#utility.yul\":6699:6921   */\n      pop\n        /* \"#utility.yul\":6034:6921   */\n      jump(tag_120)\n        /* \"#utility.yul\":6064:6682   */\n    tag_121:\n        /* \"#utility.yul\":6116:6120   */\n      0x1f\n        /* \"#utility.yul\":6112:6121   */\n      not\n        /* \"#utility.yul\":6104:6110   */\n      dup5\n        /* \"#utility.yul\":6100:6122   */\n      and\n        /* \"#utility.yul\":6150:6187   */\n      tag_124\n        /* \"#utility.yul\":6182:6186   */\n      dup7\n        /* \"#utility.yul\":6150:6187   */\n      tag_35\n      jump\t// in\n    tag_124:\n        /* \"#utility.yul\":6209:6210   */\n      0x00\n        /* \"#utility.yul\":6223:6431   */\n    tag_125:\n        /* \"#utility.yul\":6237:6244   */\n      dup3\n        /* \"#utility.yul\":6234:6235   */\n      dup2\n        /* \"#utility.yul\":6231:6245   */\n      lt\n        /* \"#utility.yul\":6223:6431   */\n      iszero\n      tag_127\n      jumpi\n        /* \"#utility.yul\":6316:6325   */\n      dup5\n        /* \"#utility.yul\":6311:6314   */\n      dup10\n        /* \"#utility.yul\":6307:6326   */\n      add\n        /* \"#utility.yul\":6301:6327   */\n      mload\n        /* \"#utility.yul\":6293:6299   */\n      dup3\n        /* \"#utility.yul\":6286:6328   */\n      sstore\n        /* \"#utility.yul\":6367:6368   */\n      0x01\n        /* \"#utility.yul\":6359:6365   */\n      dup3\n        /* \"#utility.yul\":6355:6369   */\n      add\n        /* \"#utility.yul\":6345:6369   */\n      swap2\n      pop\n        /* \"#utility.yul\":6414:6416   */\n      0x20\n        /* \"#utility.yul\":6403:6412   */\n      dup6\n        /* \"#utility.yul\":6399:6417   */\n      add\n        /* \"#utility.yul\":6386:6417   */\n      swap5\n      pop\n        /* \"#utility.yul\":6260:6264   */\n      0x20\n        /* \"#utility.yul\":6257:6258   */\n      dup2\n        /* \"#utility.yul\":6253:6265   */\n      add\n        /* \"#utility.yul\":6248:6265   */\n      swap1\n      pop\n        /* \"#utility.yul\":6223:6431   */\n      jump(tag_125)\n    tag_127:\n        /* \"#utility.yul\":6459:6465   */\n      dup7\n        /* \"#utility.yul\":6450:6457   */\n      dup4\n        /* \"#utility.yul\":6447:6466   */\n      lt\n        /* \"#utility.yul\":6444:6623   */\n      iszero\n      tag_128\n      jumpi\n        /* \"#utility.yul\":6517:6526   */\n      dup5\n        /* \"#utility.yul\":6512:6515   */\n      dup10\n        /* \"#utility.yul\":6508:6527   */\n      add\n        /* \"#utility.yul\":6502:6528   */\n      mload\n        /* \"#utility.yul\":6560:6608   */\n      tag_129\n        /* \"#utility.yul\":6602:6606   */\n      0x1f\n        /* \"#utility.yul\":6594:6600   */\n      dup10\n        /* \"#utility.yul\":6590:6607   */\n      and\n        /* \"#utility.yul\":6579:6588   */\n      dup3\n        /* \"#utility.yul\":6560:6608   */\n      tag_48\n      jump\t// in\n    tag_129:\n        /* \"#utility.yul\":6552:6558   */\n      dup4\n        /* \"#utility.yul\":6545:6609   */\n      sstore\n        /* \"#utility.yul\":6467:6623   */\n      pop\n        /* \"#utility.yul\":6444:6623   */\n    tag_128:\n        /* \"#utility.yul\":6669:6670   */\n      0x01\n        /* \"#utility.yul\":6665:6666   */\n      0x02\n        /* \"#utility.yul\":6657:6663   */\n      dup9\n        /* \"#utility.yul\":6653:6667   */\n      mul\n        /* \"#utility.yul\":6649:6671   */\n      add\n        /* \"#utility.yul\":6643:6647   */\n      dup9\n        /* \"#utility.yul\":6636:6672   */\n      sstore\n        /* \"#utility.yul\":6071:6682   */\n      pop\n      pop\n      pop\n        /* \"#utility.yul\":6034:6921   */\n    tag_120:\n      pop\n        /* \"#utility.yul\":5624:6927   */\n      pop\n      pop\n      pop\n        /* \"#utility.yul\":5532:6927   */\n      pop\n      pop\n      jump\t// out\n\n    auxdata: 0xa26469706673582212201cc23ac69604c47a941eb63015189af7dc6d616a69ebe90e1b6d09273b15d69064736f6c63430008120033\n}\n",
				"bytecode": {
					"linkReferences": {},
					"object": "608060405234801561001057600080fd5b506105db806100206000396000f3fe608060405234801561001057600080fd5b50600436106100415760003560e01c806323e898e91461004657806386b714e214610050578063b439548d1461006f575b600080fd5b61004e61008d565b005b6100586100fe565b60405161006692919061024d565b60405180910390f35b610077610198565b604051610084919061027d565b60405180910390f35b60405180604001604052806040518060400160405280600581526020017f6f6d6b6172000000000000000000000000000000000000000000000000000000815250815260200160148152506000808201518160000190816100ee91906104d3565b5060208201518160010155905050565b600080600001805461010f906102f6565b80601f016020809104026020016040519081016040528092919081815260200182805461013b906102f6565b80156101885780601f1061015d57610100808354040283529160200191610188565b820191906000526020600020905b81548152906001019060200180831161016b57829003601f168201915b5050505050908060010154905082565b60008060010154905090565b600081519050919050565b600082825260208201905092915050565b60005b838110156101de5780820151818401526020810190506101c3565b60008484015250505050565b6000601f19601f8301169050919050565b6000610206826101a4565b61021081856101af565b93506102208185602086016101c0565b610229816101ea565b840191505092915050565b6000819050919050565b61024781610234565b82525050565b6000604082019050818103600083015261026781856101fb565b9050610276602083018461023e565b9392505050565b6000602082019050610292600083018461023e565b92915050565b7f4e487b7100000000000000000000000000000000000000000000000000000000600052604160045260246000fd5b7f4e487b7100000000000000000000000000000000000000000000000000000000600052602260045260246000fd5b6000600282049050600182168061030e57607f821691505b602082108103610321576103206102c7565b5b50919050565b60008190508160005260206000209050919050565b60006020601f8301049050919050565b600082821b905092915050565b6000600883026103897fffffffffffffffffffffffffffffffffffffffffffffffffffffffffffffffff8261034c565b610393868361034c565b95508019841693508086168417925050509392505050565b6000819050919050565b60006103d06103cb6103c684610234565b6103ab565b610234565b9050919050565b6000819050919050565b6103ea836103b5565b6103fe6103f6826103d7565b848454610359565b825550505050565b600090565b610413610406565b61041e8184846103e1565b505050565b5b818110156104425761043760008261040b565b600181019050610424565b5050565b601f8211156104875761045881610327565b6104618461033c565b81016020851015610470578190505b61048461047c8561033c565b830182610423565b50505b505050565b600082821c905092915050565b60006104aa6000198460080261048c565b1980831691505092915050565b60006104c38383610499565b9150826002028217905092915050565b6104dc826101a4565b67ffffffffffffffff8111156104f5576104f4610298565b5b6104ff82546102f6565b61050a828285610446565b600060209050601f83116001811461053d576000841561052b578287015190505b61053585826104b7565b86555061059d565b601f19841661054b86610327565b60005b828110156105735784890151825560018201915060208501945060208101905061054e565b86831015610590578489015161058c601f891682610499565b8355505b6001600288020188555050505b50505050505056fea26469706673582212201cc23ac69604c47a941eb63015189af7dc6d616a69ebe90e1b6d09273b15d69064736f6c63430008120033",
					"opcodes": "PUSH1 0x80 PUSH1 0x40 MSTORE CALLVALUE DUP1 ISZERO PUSH2 0x10 JUMPI PUSH1 0x0 DUP1 REVERT JUMPDEST POP PUSH2 0x5DB DUP1 PUSH2 0x20 PUSH1 0x0 CODECOPY PUSH1 0x0 RETURN INVALID PUSH1 0x80 PUSH1 0x40 MSTORE CALLVALUE DUP1 ISZERO PUSH2 0x10 JUMPI PUSH1 0x0 DUP1 REVERT JUMPDEST POP PUSH1 0x4 CALLDATASIZE LT PUSH2 0x41 JUMPI PUSH1 0x0 CALLDATALOAD PUSH1 0xE0 SHR DUP1 PUSH4 0x23E898E9 EQ PUSH2 0x46 JUMPI DUP1 PUSH4 0x86B714E2 EQ PUSH2 0x50 JUMPI DUP1 PUSH4 0xB439548D EQ PUSH2 0x6F JUMPI JUMPDEST PUSH1 0x0 DUP1 REVERT JUMPDEST PUSH2 0x4E PUSH2 0x8D JUMP JUMPDEST STOP JUMPDEST PUSH2 0x58 PUSH2 0xFE JUMP JUMPDEST PUSH1 0x40 MLOAD PUSH2 0x66 SWAP3 SWAP2 SWAP1 PUSH2 0x24D JUMP JUMPDEST PUSH1 0x40 MLOAD DUP1 SWAP2 SUB SWAP1 RETURN JUMPDEST PUSH2 0x77 PUSH2 0x198 JUMP JUMPDEST PUSH1 0x40 MLOAD PUSH2 0x84 SWAP2 SWAP1 PUSH2 0x27D JUMP JUMPDEST PUSH1 0x40 MLOAD DUP1 SWAP2 SUB SWAP1 RETURN JUMPDEST PUSH1 0x40 MLOAD DUP1 PUSH1 0x40 ADD PUSH1 0x40 MSTORE DUP1 PUSH1 0x40 MLOAD DUP1 PUSH1 0x40 ADD PUSH1 0x40 MSTORE DUP1 PUSH1 0x5 DUP2 MSTORE PUSH1 0x20 ADD PUSH32 0x6F6D6B6172000000000000000000000000000000000000000000000000000000 DUP2 MSTORE POP DUP2 MSTORE PUSH1 0x20 ADD PUSH1 0x14 DUP2 MSTORE POP PUSH1 0x0 DUP1 DUP3 ADD MLOAD DUP2 PUSH1 0x0 ADD SWAP1 DUP2 PUSH2 0xEE SWAP2 SWAP1 PUSH2 0x4D3 JUMP JUMPDEST POP PUSH1 0x20 DUP3 ADD MLOAD DUP2 PUSH1 0x1 ADD SSTORE SWAP1 POP POP JUMP JUMPDEST PUSH1 0x0 DUP1 PUSH1 0x0 ADD DUP1 SLOAD PUSH2 0x10F SWAP1 PUSH2 0x2F6 JUMP JUMPDEST DUP1 PUSH1 0x1F ADD PUSH1 0x20 DUP1 SWAP2 DIV MUL PUSH1 0x20 ADD PUSH1 0x40 MLOAD SWAP1 DUP2 ADD PUSH1 0x40 MSTORE DUP1 SWAP3 SWAP2 SWAP1 DUP2 DUP2 MSTORE PUSH1 0x20 ADD DUP3 DUP1 SLOAD PUSH2 0x13B SWAP1 PUSH2 0x2F6 JUMP JUMPDEST DUP1 ISZERO PUSH2 0x188 JUMPI DUP1 PUSH1 0x1F LT PUSH2 0x15D JUMPI PUSH2 0x100 DUP1 DUP4 SLOAD DIV MUL DUP4 MSTORE SWAP2 PUSH1 0x20 ADD SWAP2 PUSH2 0x188 JUMP JUMPDEST DUP3 ADD SWAP2 SWAP1 PUSH1 0x0 MSTORE PUSH1 0x20 PUSH1 0x0 KECCAK256 SWAP1 JUMPDEST DUP2 SLOAD DUP2 MSTORE SWAP1 PUSH1 0x1 ADD SWAP1 PUSH1 0x20 ADD DUP1 DUP4 GT PUSH2 0x16B JUMPI DUP3 SWAP1 SUB PUSH1 0x1F AND DUP3 ADD SWAP2 JUMPDEST POP POP POP POP POP SWAP1 DUP1 PUSH1 0x1 ADD SLOAD SWAP1 POP DUP3 JUMP JUMPDEST PUSH1 0x0 DUP1 PUSH1 0x1 ADD SLOAD SWAP1 POP SWAP1 JUMP JUMPDEST PUSH1 0x0 DUP2 MLOAD SWAP1 POP SWAP2 SWAP1 POP JUMP JUMPDEST PUSH1 0x0 DUP3 DUP3 MSTORE PUSH1 0x20 DUP3 ADD SWAP1 POP SWAP3 SWAP2 POP POP JUMP JUMPDEST PUSH1 0x0 JUMPDEST DUP4 DUP2 LT ISZERO PUSH2 0x1DE JUMPI DUP1 DUP3 ADD MLOAD DUP2 DUP5 ADD MSTORE PUSH1 0x20 DUP2 ADD SWAP1 POP PUSH2 0x1C3 JUMP JUMPDEST PUSH1 0x0 DUP5 DUP5 ADD MSTORE POP POP POP POP JUMP JUMPDEST PUSH1 0x0 PUSH1 0x1F NOT PUSH1 0x1F DUP4 ADD AND SWAP1 POP SWAP2 SWAP1 POP JUMP JUMPDEST PUSH1 0x0 PUSH2 0x206 DUP3 PUSH2 0x1A4 JUMP JUMPDEST PUSH2 0x210 DUP2 DUP6 PUSH2 0x1AF JUMP JUMPDEST SWAP4 POP PUSH2 0x220 DUP2 DUP6 PUSH1 0x20 DUP7 ADD PUSH2 0x1C0 JUMP JUMPDEST PUSH2 0x229 DUP2 PUSH2 0x1EA JUMP JUMPDEST DUP5 ADD SWAP2 POP POP SWAP3 SWAP2 POP POP JUMP JUMPDEST PUSH1 0x0 DUP2 SWAP1 POP SWAP2 SWAP1 POP JUMP JUMPDEST PUSH2 0x247 DUP2 PUSH2 0x234 JUMP JUMPDEST DUP3 MSTORE POP POP JUMP JUMPDEST PUSH1 0x0 PUSH1 0x40 DUP3 ADD SWAP1 POP DUP2 DUP2 SUB PUSH1 0x0 DUP4 ADD MSTORE PUSH2 0x267 DUP2 DUP6 PUSH2 0x1FB JUMP JUMPDEST SWAP1 POP PUSH2 0x276 PUSH1 0x20 DUP4 ADD DUP5 PUSH2 0x23E JUMP JUMPDEST SWAP4 SWAP3 POP POP POP JUMP JUMPDEST PUSH1 0x0 PUSH1 0x20 DUP3 ADD SWAP1 POP PUSH2 0x292 PUSH1 0x0 DUP4 ADD DUP5 PUSH2 0x23E JUMP JUMPDEST SWAP3 SWAP2 POP POP JUMP JUMPDEST PUSH32 0x4E487B7100000000000000000000000000000000000000000000000000000000 PUSH1 0x0 MSTORE PUSH1 0x41 PUSH1 0x4 MSTORE PUSH1 0x24 PUSH1 0x0 REVERT JUMPDEST PUSH32 0x4E487B7100000000000000000000000000000000000000000000000000000000 PUSH1 0x0 MSTORE PUSH1 0x22 PUSH1 0x4 MSTORE PUSH1 0x24 PUSH1 0x0 REVERT JUMPDEST PUSH1 0x0 PUSH1 0x2 DUP3 DIV SWAP1 POP PUSH1 0x1 DUP3 AND DUP1 PUSH2 0x30E JUMPI PUSH1 0x7F DUP3 AND SWAP2 POP JUMPDEST PUSH1 0x20 DUP3 LT DUP2 SUB PUSH2 0x321 JUMPI PUSH2 0x320 PUSH2 0x2C7 JUMP JUMPDEST JUMPDEST POP SWAP2 SWAP1 POP JUMP JUMPDEST PUSH1 0x0 DUP2 SWAP1 POP DUP2 PUSH1 0x0 MSTORE PUSH1 0x20 PUSH1 0x0 KECCAK256 SWAP1 POP SWAP2 SWAP1 POP JUMP JUMPDEST PUSH1 0x0 PUSH1 0x20 PUSH1 0x1F DUP4 ADD DIV SWAP1 POP SWAP2 SWAP1 POP JUMP JUMPDEST PUSH1 0x0 DUP3 DUP3 SHL SWAP1 POP SWAP3 SWAP2 POP POP JUMP JUMPDEST PUSH1 0x0 PUSH1 0x8 DUP4 MUL PUSH2 0x389 PUSH32 0xFFFFFFFFFFFFFFFFFFFFFFFFFFFFFFFFFFFFFFFFFFFFFFFFFFFFFFFFFFFFFFFF DUP3 PUSH2 0x34C JUMP JUMPDEST PUSH2 0x393 DUP7 DUP4 PUSH2 0x34C JUMP JUMPDEST SWAP6 POP DUP1 NOT DUP5 AND SWAP4 POP DUP1 DUP7 AND DUP5 OR SWAP3 POP POP POP SWAP4 SWAP3 POP POP POP JUMP JUMPDEST PUSH1 0x0 DUP2 SWAP1 POP SWAP2 SWAP1 POP JUMP JUMPDEST PUSH1 0x0 PUSH2 0x3D0 PUSH2 0x3CB PUSH2 0x3C6 DUP5 PUSH2 0x234 JUMP JUMPDEST PUSH2 0x3AB JUMP JUMPDEST PUSH2 0x234 JUMP JUMPDEST SWAP1 POP SWAP2 SWAP1 POP JUMP JUMPDEST PUSH1 0x0 DUP2 SWAP1 POP SWAP2 SWAP1 POP JUMP JUMPDEST PUSH2 0x3EA DUP4 PUSH2 0x3B5 JUMP JUMPDEST PUSH2 0x3FE PUSH2 0x3F6 DUP3 PUSH2 0x3D7 JUMP JUMPDEST DUP5 DUP5 SLOAD PUSH2 0x359 JUMP JUMPDEST DUP3 SSTORE POP POP POP POP JUMP JUMPDEST PUSH1 0x0 SWAP1 JUMP JUMPDEST PUSH2 0x413 PUSH2 0x406 JUMP JUMPDEST PUSH2 0x41E DUP2 DUP5 DUP5 PUSH2 0x3E1 JUMP JUMPDEST POP POP POP JUMP JUMPDEST JUMPDEST DUP2 DUP2 LT ISZERO PUSH2 0x442 JUMPI PUSH2 0x437 PUSH1 0x0 DUP3 PUSH2 0x40B JUMP JUMPDEST PUSH1 0x1 DUP2 ADD SWAP1 POP PUSH2 0x424 JUMP JUMPDEST POP POP JUMP JUMPDEST PUSH1 0x1F DUP3 GT ISZERO PUSH2 0x487 JUMPI PUSH2 0x458 DUP2 PUSH2 0x327 JUMP JUMPDEST PUSH2 0x461 DUP5 PUSH2 0x33C JUMP JUMPDEST DUP2 ADD PUSH1 0x20 DUP6 LT ISZERO PUSH2 0x470 JUMPI DUP2 SWAP1 POP JUMPDEST PUSH2 0x484 PUSH2 0x47C DUP6 PUSH2 0x33C JUMP JUMPDEST DUP4 ADD DUP3 PUSH2 0x423 JUMP JUMPDEST POP POP JUMPDEST POP POP POP JUMP JUMPDEST PUSH1 0x0 DUP3 DUP3 SHR SWAP1 POP SWAP3 SWAP2 POP POP JUMP JUMPDEST PUSH1 0x0 PUSH2 0x4AA PUSH1 0x0 NOT DUP5 PUSH1 0x8 MUL PUSH2 0x48C JUMP JUMPDEST NOT DUP1 DUP4 AND SWAP2 POP POP SWAP3 SWAP2 POP POP JUMP JUMPDEST PUSH1 0x0 PUSH2 0x4C3 DUP4 DUP4 PUSH2 0x499 JUMP JUMPDEST SWAP2 POP DUP3 PUSH1 0x2 MUL DUP3 OR SWAP1 POP SWAP3 SWAP2 POP POP JUMP JUMPDEST PUSH2 0x4DC DUP3 PUSH2 0x1A4 JUMP JUMPDEST PUSH8 0xFFFFFFFFFFFFFFFF DUP2 GT ISZERO PUSH2 0x4F5 JUMPI PUSH2 0x4F4 PUSH2 0x298 JUMP JUMPDEST JUMPDEST PUSH2 0x4FF DUP3 SLOAD PUSH2 0x2F6 JUMP JUMPDEST PUSH2 0x50A DUP3 DUP3 DUP6 PUSH2 0x446 JUMP JUMPDEST PUSH1 0x0 PUSH1 0x20 SWAP1 POP PUSH1 0x1F DUP4 GT PUSH1 0x1 DUP2 EQ PUSH2 0x53D JUMPI PUSH1 0x0 DUP5 ISZERO PUSH2 0x52B JUMPI DUP3 DUP8 ADD MLOAD SWAP1 POP JUMPDEST PUSH2 0x535 DUP6 DUP3 PUSH2 0x4B7 JUMP JUMPDEST DUP7 SSTORE POP PUSH2 0x59D JUMP JUMPDEST PUSH1 0x1F NOT DUP5 AND PUSH2 0x54B DUP7 PUSH2 0x327 JUMP JUMPDEST PUSH1 0x0 JUMPDEST DUP3 DUP2 LT ISZERO PUSH2 0x573 JUMPI DUP5 DUP10 ADD MLOAD DUP3 SSTORE PUSH1 0x1 DUP3 ADD SWAP2 POP PUSH1 0x20 DUP6 ADD SWAP5 POP PUSH1 0x20 DUP2 ADD SWAP1 POP PUSH2 0x54E JUMP JUMPDEST DUP7 DUP4 LT ISZERO PUSH2 0x590 JUMPI DUP5 DUP10 ADD MLOAD PUSH2 0x58C PUSH1 0x1F DUP10 AND DUP3 PUSH2 0x499 JUMP JUMPDEST DUP4 SSTORE POP JUMPDEST PUSH1 0x1 PUSH1 0x2 DUP9 MUL ADD DUP9 SSTORE POP POP POP JUMPDEST POP POP POP POP POP POP JUMP INVALID LOG2 PUSH5 0x6970667358 0x22 SLT KECCAK256 SHR 0xC2 GASPRICE 0xC6 SWAP7 DIV 0xC4 PUSH27 0x941EB63015189AF7DC6D616A69EBE90E1B6D09273B15D69064736F PUSH13 0x63430008120033000000000000 "
				},
				"gasEstimates": {
					"creation": {
						"codeDepositCost": "299800",
						"executionCost": "337",
						"totalCost": "300137"
					},
					"external": {
						"getStudent()": "2465",
						"s()": "infinite",
						"setStudent()": "infinite"
					}
				},
				"methodIdentifiers": {
					"getStudent()": "b439548d",
					"s()": "86b714e2",
					"setStudent()": "23e898e9"
				}
			},
			"storageLayout": {
				"storage": [
					{
						"astId": 9,
						"contract": "structprac.sol:abc",
						"label": "s",
						"offset": 0,
						"slot": "0",
						"type": "t_struct(student)6_storage"
					}
				],
				"types": {
					"t_string_storage": {
						"encoding": "bytes",
						"label": "string",
						"numberOfBytes": "32"
					},
					"t_struct(student)6_storage": {
						"encoding": "inplace",
						"label": "struct abc.student",
						"members": [
							{
								"astId": 3,
								"contract": "structprac.sol:abc",
								"label": "sname",
								"offset": 0,
								"slot": "0",
								"type": "t_string_storage"
							},
							{
								"astId": 5,
								"contract": "structprac.sol:abc",
								"label": "sid",
								"offset": 0,
								"slot": "1",
								"type": "t_uint256"
							}
						],
						"numberOfBytes": "64"
					},
					"t_uint256": {
						"encoding": "inplace",
						"label": "uint256",
						"numberOfBytes": "32"
					}
				}
			},
			"userdoc": {
				"kind": "user",
				"methods": {},
				"version": 1
			}
		}
	}
}