{
	"40_send.sol": {
		"sendXmpl": {
			"abi": [
				{
					"anonymous": false,
					"inputs": [
						{
							"indexed": false,
							"internalType": "uint256",
							"name": "val",
							"type": "uint256"
						}
					],
					"name": "ev",
					"type": "event"
				},
				{
					"inputs": [
						{
							"internalType": "address payable",
							"name": "add",
							"type": "address"
						}
					],
					"name": "callEth",
					"outputs": [],
					"stateMutability": "payable",
					"type": "function"
				},
				{
					"inputs": [],
					"name": "chechBal",
					"outputs": [
						{
							"internalType": "uint256",
							"name": "",
							"type": "uint256"
						}
					],
					"stateMutability": "view",
					"type": "function"
				},
				{
					"inputs": [
						{
							"internalType": "address payable",
							"name": "add",
							"type": "address"
						}
					],
					"name": "sendEth",
					"outputs": [],
					"stateMutability": "payable",
					"type": "function"
				},
				{
					"inputs": [
						{
							"internalType": "address payable",
							"name": "add",
							"type": "address"
						}
					],
					"name": "transferEth",
					"outputs": [],
					"stateMutability": "payable",
					"type": "function"
				},
				{
					"stateMutability": "payable",
					"type": "receive"
				}
			],
			"devdoc": {
				"kind": "dev",
				"methods": {},
				"version": 1
			},
			"evm": {
				"assembly": "    /* \"40_send.sol\":60:854  contract sendXmpl{... */\n  mstore(0x40, 0x80)\n  callvalue\n  dup1\n  iszero\n  tag_1\n  jumpi\n  0x00\n  dup1\n  revert\ntag_1:\n  pop\n  dataSize(sub_0)\n  dup1\n  dataOffset(sub_0)\n  0x00\n  codecopy\n  0x00\n  return\nstop\n\nsub_0: assembly {\n        /* \"40_send.sol\":60:854  contract sendXmpl{... */\n      mstore(0x40, 0x80)\n      jumpi(tag_1, lt(calldatasize, 0x04))\n      shr(0xe0, calldataload(0x00))\n      dup1\n      0x30df47af\n      eq\n      tag_3\n      jumpi\n      dup1\n      0x76a54c60\n      eq\n      tag_4\n      jumpi\n      dup1\n      0xd9e8cf91\n      eq\n      tag_5\n      jumpi\n      dup1\n      0xf01c6560\n      eq\n      tag_6\n      jumpi\n      jump(tag_2)\n    tag_1:\n      jumpi(tag_2, calldatasize)\n      stop\n    tag_2:\n      0x00\n      dup1\n      revert\n        /* \"40_send.sol\":523:651  function transferEth(address payable add) public payable {... */\n    tag_3:\n      tag_9\n      0x04\n      dup1\n      calldatasize\n      sub\n      dup2\n      add\n      swap1\n      tag_10\n      swap2\n      swap1\n      tag_11\n      jump\t// in\n    tag_10:\n      tag_12\n      jump\t// in\n    tag_9:\n      stop\n        /* \"40_send.sol\":337:515  function sendEth(address payable add) payable public  {... */\n    tag_4:\n      tag_13\n      0x04\n      dup1\n      calldatasize\n      sub\n      dup2\n      add\n      swap1\n      tag_14\n      swap2\n      swap1\n      tag_11\n      jump\t// in\n    tag_14:\n      tag_15\n      jump\t// in\n    tag_13:\n      stop\n        /* \"40_send.sol\":659:849  function callEth(address payable add) public payable  {... */\n    tag_5:\n      tag_16\n      0x04\n      dup1\n      calldatasize\n      sub\n      dup2\n      add\n      swap1\n      tag_17\n      swap2\n      swap1\n      tag_11\n      jump\t// in\n    tag_17:\n      tag_18\n      jump\t// in\n    tag_16:\n      stop\n        /* \"40_send.sol\":234:329  function chechBal () public view returns (uint) {... */\n    tag_6:\n      callvalue\n      dup1\n      iszero\n      tag_19\n      jumpi\n      0x00\n      dup1\n      revert\n    tag_19:\n      pop\n      tag_20\n      tag_21\n      jump\t// in\n    tag_20:\n      mload(0x40)\n      tag_22\n      swap2\n      swap1\n      tag_23\n      jump\t// in\n    tag_22:\n      mload(0x40)\n      dup1\n      swap2\n      sub\n      swap1\n      return\n        /* \"40_send.sol\":523:651  function transferEth(address payable add) public payable {... */\n    tag_12:\n        /* \"40_send.sol\":596:609  ev(msg.value) */\n      0x2d4dd5fe18ada5a020a9f5591539a8dc3010a5c074ba6a70e1c956659f02786a\n        /* \"40_send.sol\":599:608  msg.value */\n      callvalue\n        /* \"40_send.sol\":596:609  ev(msg.value) */\n      mload(0x40)\n      tag_25\n      swap2\n      swap1\n      tag_23\n      jump\t// in\n    tag_25:\n      mload(0x40)\n      dup1\n      swap2\n      sub\n      swap1\n      log1\n        /* \"40_send.sol\":620:623  add */\n      dup1\n        /* \"40_send.sol\":620:632  add.transfer */\n      0xffffffffffffffffffffffffffffffffffffffff\n      and\n        /* \"40_send.sol\":620:643  add.transfer(msg.value) */\n      0x08fc\n        /* \"40_send.sol\":633:642  msg.value */\n      callvalue\n        /* \"40_send.sol\":620:643  add.transfer(msg.value) */\n      swap1\n      dup2\n      iszero\n      mul\n      swap1\n      mload(0x40)\n      0x00\n      mload(0x40)\n      dup1\n      dup4\n      sub\n      dup2\n      dup6\n      dup9\n      dup9\n      call\n      swap4\n      pop\n      pop\n      pop\n      pop\n      iszero\n      dup1\n      iszero\n      tag_27\n      jumpi\n      returndatasize\n      0x00\n      dup1\n      returndatacopy\n      revert(0x00, returndatasize)\n    tag_27:\n      pop\n        /* \"40_send.sol\":523:651  function transferEth(address payable add) public payable {... */\n      pop\n      jump\t// out\n        /* \"40_send.sol\":337:515  function sendEth(address payable add) payable public  {... */\n    tag_15:\n        /* \"40_send.sol\":407:420  ev(msg.value) */\n      0x2d4dd5fe18ada5a020a9f5591539a8dc3010a5c074ba6a70e1c956659f02786a\n        /* \"40_send.sol\":410:419  msg.value */\n      callvalue\n        /* \"40_send.sol\":407:420  ev(msg.value) */\n      mload(0x40)\n      tag_29\n      swap2\n      swap1\n      tag_23\n      jump\t// in\n    tag_29:\n      mload(0x40)\n      dup1\n      swap2\n      sub\n      swap1\n      log1\n        /* \"40_send.sol\":431:440  bool sent */\n      0x00\n        /* \"40_send.sol\":443:446  add */\n      dup2\n        /* \"40_send.sol\":443:451  add.send */\n      0xffffffffffffffffffffffffffffffffffffffff\n      and\n        /* \"40_send.sol\":443:462  add.send(msg.value) */\n      0x08fc\n        /* \"40_send.sol\":452:461  msg.value */\n      callvalue\n        /* \"40_send.sol\":443:462  add.send(msg.value) */\n      swap1\n      dup2\n      iszero\n      mul\n      swap1\n      mload(0x40)\n      0x00\n      mload(0x40)\n      dup1\n      dup4\n      sub\n      dup2\n      dup6\n      dup9\n      dup9\n      call\n      swap4\n      pop\n      pop\n      pop\n      pop\n        /* \"40_send.sol\":431:462  bool sent = add.send(msg.value) */\n      swap1\n      pop\n        /* \"40_send.sol\":481:485  sent */\n      dup1\n        /* \"40_send.sol\":473:507  require(sent,'Transaction Failed') */\n      tag_31\n      jumpi\n      mload(0x40)\n      0x08c379a000000000000000000000000000000000000000000000000000000000\n      dup2\n      mstore\n      0x04\n      add\n      tag_32\n      swap1\n      tag_33\n      jump\t// in\n    tag_32:\n      mload(0x40)\n      dup1\n      swap2\n      sub\n      swap1\n      revert\n    tag_31:\n        /* \"40_send.sol\":391:515  {... */\n      pop\n        /* \"40_send.sol\":337:515  function sendEth(address payable add) payable public  {... */\n      pop\n      jump\t// out\n        /* \"40_send.sol\":659:849  function callEth(address payable add) public payable  {... */\n    tag_18:\n        /* \"40_send.sol\":729:742  ev(msg.value) */\n      0x2d4dd5fe18ada5a020a9f5591539a8dc3010a5c074ba6a70e1c956659f02786a\n        /* \"40_send.sol\":732:741  msg.value */\n      callvalue\n        /* \"40_send.sol\":729:742  ev(msg.value) */\n      mload(0x40)\n      tag_35\n      swap2\n      swap1\n      tag_23\n      jump\t// in\n    tag_35:\n      mload(0x40)\n      dup1\n      swap2\n      sub\n      swap1\n      log1\n        /* \"40_send.sol\":753:762  bool sent */\n      0x00\n        /* \"40_send.sol\":767:770  add */\n      dup2\n        /* \"40_send.sol\":767:775  add.call */\n      0xffffffffffffffffffffffffffffffffffffffff\n      and\n        /* \"40_send.sol\":782:791  msg.value */\n      callvalue\n        /* \"40_send.sol\":767:796  add.call{value:msg.value}('') */\n      mload(0x40)\n      tag_36\n      swap1\n      tag_37\n      jump\t// in\n    tag_36:\n      0x00\n      mload(0x40)\n      dup1\n      dup4\n      sub\n      dup2\n      dup6\n      dup8\n      gas\n      call\n      swap3\n      pop\n      pop\n      pop\n      returndatasize\n      dup1\n      0x00\n      dup2\n      eq\n      tag_40\n      jumpi\n      mload(0x40)\n      swap2\n      pop\n      and(add(returndatasize, 0x3f), not(0x1f))\n      dup3\n      add\n      0x40\n      mstore\n      returndatasize\n      dup3\n      mstore\n      returndatasize\n      0x00\n      0x20\n      dup5\n      add\n      returndatacopy\n      jump(tag_39)\n    tag_40:\n      0x60\n      swap2\n      pop\n    tag_39:\n      pop\n        /* \"40_send.sol\":752:796  (bool sent,) = add.call{value:msg.value}('') */\n      pop\n      swap1\n      pop\n        /* \"40_send.sol\":815:819  sent */\n      dup1\n        /* \"40_send.sol\":807:841  require(sent,'Transaction Failed') */\n      tag_41\n      jumpi\n      mload(0x40)\n      0x08c379a000000000000000000000000000000000000000000000000000000000\n      dup2\n      mstore\n      0x04\n      add\n      tag_42\n      swap1\n      tag_33\n      jump\t// in\n    tag_42:\n      mload(0x40)\n      dup1\n      swap2\n      sub\n      swap1\n      revert\n    tag_41:\n        /* \"40_send.sol\":713:849  {... */\n      pop\n        /* \"40_send.sol\":659:849  function callEth(address payable add) public payable  {... */\n      pop\n      jump\t// out\n        /* \"40_send.sol\":234:329  function chechBal () public view returns (uint) {... */\n    tag_21:\n        /* \"40_send.sol\":276:280  uint */\n      0x00\n        /* \"40_send.sol\":300:321  address(this).balance */\n      selfbalance\n        /* \"40_send.sol\":293:321  return address(this).balance */\n      swap1\n      pop\n        /* \"40_send.sol\":234:329  function chechBal () public view returns (uint) {... */\n      swap1\n      jump\t// out\n        /* \"#utility.yul\":88:205   */\n    tag_45:\n        /* \"#utility.yul\":197:198   */\n      0x00\n        /* \"#utility.yul\":194:195   */\n      dup1\n        /* \"#utility.yul\":187:199   */\n      revert\n        /* \"#utility.yul\":334:460   */\n    tag_47:\n        /* \"#utility.yul\":371:378   */\n      0x00\n        /* \"#utility.yul\":411:453   */\n      0xffffffffffffffffffffffffffffffffffffffff\n        /* \"#utility.yul\":404:409   */\n      dup3\n        /* \"#utility.yul\":400:454   */\n      and\n        /* \"#utility.yul\":389:454   */\n      swap1\n      pop\n        /* \"#utility.yul\":334:460   */\n      swap2\n      swap1\n      pop\n      jump\t// out\n        /* \"#utility.yul\":466:570   */\n    tag_48:\n        /* \"#utility.yul\":511:518   */\n      0x00\n        /* \"#utility.yul\":540:564   */\n      tag_65\n        /* \"#utility.yul\":558:563   */\n      dup3\n        /* \"#utility.yul\":540:564   */\n      tag_47\n      jump\t// in\n    tag_65:\n        /* \"#utility.yul\":529:564   */\n      swap1\n      pop\n        /* \"#utility.yul\":466:570   */\n      swap2\n      swap1\n      pop\n      jump\t// out\n        /* \"#utility.yul\":576:714   */\n    tag_49:\n        /* \"#utility.yul\":657:689   */\n      tag_67\n        /* \"#utility.yul\":683:688   */\n      dup2\n        /* \"#utility.yul\":657:689   */\n      tag_48\n      jump\t// in\n    tag_67:\n        /* \"#utility.yul\":650:655   */\n      dup2\n        /* \"#utility.yul\":647:690   */\n      eq\n        /* \"#utility.yul\":637:708   */\n      tag_68\n      jumpi\n        /* \"#utility.yul\":704:705   */\n      0x00\n        /* \"#utility.yul\":701:702   */\n      dup1\n        /* \"#utility.yul\":694:706   */\n      revert\n        /* \"#utility.yul\":637:708   */\n    tag_68:\n        /* \"#utility.yul\":576:714   */\n      pop\n      jump\t// out\n        /* \"#utility.yul\":720:875   */\n    tag_50:\n        /* \"#utility.yul\":774:779   */\n      0x00\n        /* \"#utility.yul\":812:818   */\n      dup2\n        /* \"#utility.yul\":799:819   */\n      calldataload\n        /* \"#utility.yul\":790:819   */\n      swap1\n      pop\n        /* \"#utility.yul\":828:869   */\n      tag_70\n        /* \"#utility.yul\":863:868   */\n      dup2\n        /* \"#utility.yul\":828:869   */\n      tag_49\n      jump\t// in\n    tag_70:\n        /* \"#utility.yul\":720:875   */\n      swap3\n      swap2\n      pop\n      pop\n      jump\t// out\n        /* \"#utility.yul\":881:1226   */\n    tag_11:\n        /* \"#utility.yul\":948:954   */\n      0x00\n        /* \"#utility.yul\":997:999   */\n      0x20\n        /* \"#utility.yul\":985:994   */\n      dup3\n        /* \"#utility.yul\":976:983   */\n      dup5\n        /* \"#utility.yul\":972:995   */\n      sub\n        /* \"#utility.yul\":968:1000   */\n      slt\n        /* \"#utility.yul\":965:1084   */\n      iszero\n      tag_72\n      jumpi\n        /* \"#utility.yul\":1003:1082   */\n      tag_73\n      tag_45\n      jump\t// in\n    tag_73:\n        /* \"#utility.yul\":965:1084   */\n    tag_72:\n        /* \"#utility.yul\":1123:1124   */\n      0x00\n        /* \"#utility.yul\":1148:1209   */\n      tag_74\n        /* \"#utility.yul\":1201:1208   */\n      dup5\n        /* \"#utility.yul\":1192:1198   */\n      dup3\n        /* \"#utility.yul\":1181:1190   */\n      dup6\n        /* \"#utility.yul\":1177:1199   */\n      add\n        /* \"#utility.yul\":1148:1209   */\n      tag_50\n      jump\t// in\n    tag_74:\n        /* \"#utility.yul\":1138:1209   */\n      swap2\n      pop\n        /* \"#utility.yul\":1094:1219   */\n      pop\n        /* \"#utility.yul\":881:1226   */\n      swap3\n      swap2\n      pop\n      pop\n      jump\t// out\n        /* \"#utility.yul\":1232:1309   */\n    tag_51:\n        /* \"#utility.yul\":1269:1276   */\n      0x00\n        /* \"#utility.yul\":1298:1303   */\n      dup2\n        /* \"#utility.yul\":1287:1303   */\n      swap1\n      pop\n        /* \"#utility.yul\":1232:1309   */\n      swap2\n      swap1\n      pop\n      jump\t// out\n        /* \"#utility.yul\":1315:1433   */\n    tag_52:\n        /* \"#utility.yul\":1402:1426   */\n      tag_77\n        /* \"#utility.yul\":1420:1425   */\n      dup2\n        /* \"#utility.yul\":1402:1426   */\n      tag_51\n      jump\t// in\n    tag_77:\n        /* \"#utility.yul\":1397:1400   */\n      dup3\n        /* \"#utility.yul\":1390:1427   */\n      mstore\n        /* \"#utility.yul\":1315:1433   */\n      pop\n      pop\n      jump\t// out\n        /* \"#utility.yul\":1439:1661   */\n    tag_23:\n        /* \"#utility.yul\":1532:1536   */\n      0x00\n        /* \"#utility.yul\":1570:1572   */\n      0x20\n        /* \"#utility.yul\":1559:1568   */\n      dup3\n        /* \"#utility.yul\":1555:1573   */\n      add\n        /* \"#utility.yul\":1547:1573   */\n      swap1\n      pop\n        /* \"#utility.yul\":1583:1654   */\n      tag_79\n        /* \"#utility.yul\":1651:1652   */\n      0x00\n        /* \"#utility.yul\":1640:1649   */\n      dup4\n        /* \"#utility.yul\":1636:1653   */\n      add\n        /* \"#utility.yul\":1627:1633   */\n      dup5\n        /* \"#utility.yul\":1583:1654   */\n      tag_52\n      jump\t// in\n    tag_79:\n        /* \"#utility.yul\":1439:1661   */\n      swap3\n      swap2\n      pop\n      pop\n      jump\t// out\n        /* \"#utility.yul\":1667:1836   */\n    tag_53:\n        /* \"#utility.yul\":1751:1762   */\n      0x00\n        /* \"#utility.yul\":1785:1791   */\n      dup3\n        /* \"#utility.yul\":1780:1783   */\n      dup3\n        /* \"#utility.yul\":1773:1792   */\n      mstore\n        /* \"#utility.yul\":1825:1829   */\n      0x20\n        /* \"#utility.yul\":1820:1823   */\n      dup3\n        /* \"#utility.yul\":1816:1830   */\n      add\n        /* \"#utility.yul\":1801:1830   */\n      swap1\n      pop\n        /* \"#utility.yul\":1667:1836   */\n      swap3\n      swap2\n      pop\n      pop\n      jump\t// out\n        /* \"#utility.yul\":1842:2010   */\n    tag_54:\n        /* \"#utility.yul\":1982:2002   */\n      0x5472616e73616374696f6e204661696c65640000000000000000000000000000\n        /* \"#utility.yul\":1978:1979   */\n      0x00\n        /* \"#utility.yul\":1970:1976   */\n      dup3\n        /* \"#utility.yul\":1966:1980   */\n      add\n        /* \"#utility.yul\":1959:2003   */\n      mstore\n        /* \"#utility.yul\":1842:2010   */\n      pop\n      jump\t// out\n        /* \"#utility.yul\":2016:2382   */\n    tag_55:\n        /* \"#utility.yul\":2158:2161   */\n      0x00\n        /* \"#utility.yul\":2179:2246   */\n      tag_83\n        /* \"#utility.yul\":2243:2245   */\n      0x12\n        /* \"#utility.yul\":2238:2241   */\n      dup4\n        /* \"#utility.yul\":2179:2246   */\n      tag_53\n      jump\t// in\n    tag_83:\n        /* \"#utility.yul\":2172:2246   */\n      swap2\n      pop\n        /* \"#utility.yul\":2255:2348   */\n      tag_84\n        /* \"#utility.yul\":2344:2347   */\n      dup3\n        /* \"#utility.yul\":2255:2348   */\n      tag_54\n      jump\t// in\n    tag_84:\n        /* \"#utility.yul\":2373:2375   */\n      0x20\n        /* \"#utility.yul\":2368:2371   */\n      dup3\n        /* \"#utility.yul\":2364:2376   */\n      add\n        /* \"#utility.yul\":2357:2376   */\n      swap1\n      pop\n        /* \"#utility.yul\":2016:2382   */\n      swap2\n      swap1\n      pop\n      jump\t// out\n        /* \"#utility.yul\":2388:2807   */\n    tag_33:\n        /* \"#utility.yul\":2554:2558   */\n      0x00\n        /* \"#utility.yul\":2592:2594   */\n      0x20\n        /* \"#utility.yul\":2581:2590   */\n      dup3\n        /* \"#utility.yul\":2577:2595   */\n      add\n        /* \"#utility.yul\":2569:2595   */\n      swap1\n      pop\n        /* \"#utility.yul\":2641:2650   */\n      dup2\n        /* \"#utility.yul\":2635:2639   */\n      dup2\n        /* \"#utility.yul\":2631:2651   */\n      sub\n        /* \"#utility.yul\":2627:2628   */\n      0x00\n        /* \"#utility.yul\":2616:2625   */\n      dup4\n        /* \"#utility.yul\":2612:2629   */\n      add\n        /* \"#utility.yul\":2605:2652   */\n      mstore\n        /* \"#utility.yul\":2669:2800   */\n      tag_86\n        /* \"#utility.yul\":2795:2799   */\n      dup2\n        /* \"#utility.yul\":2669:2800   */\n      tag_55\n      jump\t// in\n    tag_86:\n        /* \"#utility.yul\":2661:2800   */\n      swap1\n      pop\n        /* \"#utility.yul\":2388:2807   */\n      swap2\n      swap1\n      pop\n      jump\t// out\n        /* \"#utility.yul\":2813:2960   */\n    tag_56:\n        /* \"#utility.yul\":2914:2925   */\n      0x00\n        /* \"#utility.yul\":2951:2954   */\n      dup2\n        /* \"#utility.yul\":2936:2954   */\n      swap1\n      pop\n        /* \"#utility.yul\":2813:2960   */\n      swap3\n      swap2\n      pop\n      pop\n      jump\t// out\n        /* \"#utility.yul\":2966:3080   */\n    tag_57:\n      pop\n      jump\t// out\n        /* \"#utility.yul\":3086:3484   */\n    tag_58:\n        /* \"#utility.yul\":3245:3248   */\n      0x00\n        /* \"#utility.yul\":3266:3349   */\n      tag_90\n        /* \"#utility.yul\":3347:3348   */\n      0x00\n        /* \"#utility.yul\":3342:3345   */\n      dup4\n        /* \"#utility.yul\":3266:3349   */\n      tag_56\n      jump\t// in\n    tag_90:\n        /* \"#utility.yul\":3259:3349   */\n      swap2\n      pop\n        /* \"#utility.yul\":3358:3451   */\n      tag_91\n        /* \"#utility.yul\":3447:3450   */\n      dup3\n        /* \"#utility.yul\":3358:3451   */\n      tag_57\n      jump\t// in\n    tag_91:\n        /* \"#utility.yul\":3476:3477   */\n      0x00\n        /* \"#utility.yul\":3471:3474   */\n      dup3\n        /* \"#utility.yul\":3467:3478   */\n      add\n        /* \"#utility.yul\":3460:3478   */\n      swap1\n      pop\n        /* \"#utility.yul\":3086:3484   */\n      swap2\n      swap1\n      pop\n      jump\t// out\n        /* \"#utility.yul\":3490:3869   */\n    tag_37:\n        /* \"#utility.yul\":3674:3677   */\n      0x00\n        /* \"#utility.yul\":3696:3843   */\n      tag_93\n        /* \"#utility.yul\":3839:3842   */\n      dup3\n        /* \"#utility.yul\":3696:3843   */\n      tag_58\n      jump\t// in\n    tag_93:\n        /* \"#utility.yul\":3689:3843   */\n      swap2\n      pop\n        /* \"#utility.yul\":3860:3863   */\n      dup2\n        /* \"#utility.yul\":3853:3863   */\n      swap1\n      pop\n        /* \"#utility.yul\":3490:3869   */\n      swap2\n      swap1\n      pop\n      jump\t// out\n\n    auxdata: 0xa26469706673582212205df038f78561a48780567f7e288b2f5d440863ea854200c3f8209198b03de52464736f6c63430008120033\n}\n",
				"bytecode": {
					"linkReferences": {},
					"object": "608060405234801561001057600080fd5b506104af806100206000396000f3fe6080604052600436106100435760003560e01c806330df47af1461004f57806376a54c601461006b578063d9e8cf9114610087578063f01c6560146100a35761004a565b3661004a57005b600080fd5b61006960048036038101906100649190610355565b6100ce565b005b61008560048036038101906100809190610355565b61014f565b005b6100a1600480360381019061009c9190610355565b610203565b005b3480156100af57600080fd5b506100b86102ea565b6040516100c5919061039b565b60405180910390f35b7f2d4dd5fe18ada5a020a9f5591539a8dc3010a5c074ba6a70e1c956659f02786a346040516100fd919061039b565b60405180910390a18073ffffffffffffffffffffffffffffffffffffffff166108fc349081150290604051600060405180830381858888f1935050505015801561014b573d6000803e3d6000fd5b5050565b7f2d4dd5fe18ada5a020a9f5591539a8dc3010a5c074ba6a70e1c956659f02786a3460405161017e919061039b565b60405180910390a160008173ffffffffffffffffffffffffffffffffffffffff166108fc349081150290604051600060405180830381858888f193505050509050806101ff576040517f08c379a00000000000000000000000000000000000000000000000000000000081526004016101f690610413565b60405180910390fd5b5050565b7f2d4dd5fe18ada5a020a9f5591539a8dc3010a5c074ba6a70e1c956659f02786a34604051610232919061039b565b60405180910390a160008173ffffffffffffffffffffffffffffffffffffffff163460405161026090610464565b60006040518083038185875af1925050503d806000811461029d576040519150601f19603f3d011682016040523d82523d6000602084013e6102a2565b606091505b50509050806102e6576040517f08c379a00000000000000000000000000000000000000000000000000000000081526004016102dd90610413565b60405180910390fd5b5050565b600047905090565b600080fd5b600073ffffffffffffffffffffffffffffffffffffffff82169050919050565b6000610322826102f7565b9050919050565b61033281610317565b811461033d57600080fd5b50565b60008135905061034f81610329565b92915050565b60006020828403121561036b5761036a6102f2565b5b600061037984828501610340565b91505092915050565b6000819050919050565b61039581610382565b82525050565b60006020820190506103b0600083018461038c565b92915050565b600082825260208201905092915050565b7f5472616e73616374696f6e204661696c65640000000000000000000000000000600082015250565b60006103fd6012836103b6565b9150610408826103c7565b602082019050919050565b6000602082019050818103600083015261042c816103f0565b9050919050565b600081905092915050565b50565b600061044e600083610433565b91506104598261043e565b600082019050919050565b600061046f82610441565b915081905091905056fea26469706673582212205df038f78561a48780567f7e288b2f5d440863ea854200c3f8209198b03de52464736f6c63430008120033",
					"opcodes": "PUSH1 0x80 PUSH1 0x40 MSTORE CALLVALUE DUP1 ISZERO PUSH2 0x10 JUMPI PUSH1 0x0 DUP1 REVERT JUMPDEST POP PUSH2 0x4AF DUP1 PUSH2 0x20 PUSH1 0x0 CODECOPY PUSH1 0x0 RETURN INVALID PUSH1 0x80 PUSH1 0x40 MSTORE PUSH1 0x4 CALLDATASIZE LT PUSH2 0x43 JUMPI PUSH1 0x0 CALLDATALOAD PUSH1 0xE0 SHR DUP1 PUSH4 0x30DF47AF EQ PUSH2 0x4F JUMPI DUP1 PUSH4 0x76A54C60 EQ PUSH2 0x6B JUMPI DUP1 PUSH4 0xD9E8CF91 EQ PUSH2 0x87 JUMPI DUP1 PUSH4 0xF01C6560 EQ PUSH2 0xA3 JUMPI PUSH2 0x4A JUMP JUMPDEST CALLDATASIZE PUSH2 0x4A JUMPI STOP JUMPDEST PUSH1 0x0 DUP1 REVERT JUMPDEST PUSH2 0x69 PUSH1 0x4 DUP1 CALLDATASIZE SUB DUP2 ADD SWAP1 PUSH2 0x64 SWAP2 SWAP1 PUSH2 0x355 JUMP JUMPDEST PUSH2 0xCE JUMP JUMPDEST STOP JUMPDEST PUSH2 0x85 PUSH1 0x4 DUP1 CALLDATASIZE SUB DUP2 ADD SWAP1 PUSH2 0x80 SWAP2 SWAP1 PUSH2 0x355 JUMP JUMPDEST PUSH2 0x14F JUMP JUMPDEST STOP JUMPDEST PUSH2 0xA1 PUSH1 0x4 DUP1 CALLDATASIZE SUB DUP2 ADD SWAP1 PUSH2 0x9C SWAP2 SWAP1 PUSH2 0x355 JUMP JUMPDEST PUSH2 0x203 JUMP JUMPDEST STOP JUMPDEST CALLVALUE DUP1 ISZERO PUSH2 0xAF JUMPI PUSH1 0x0 DUP1 REVERT JUMPDEST POP PUSH2 0xB8 PUSH2 0x2EA JUMP JUMPDEST PUSH1 0x40 MLOAD PUSH2 0xC5 SWAP2 SWAP1 PUSH2 0x39B JUMP JUMPDEST PUSH1 0x40 MLOAD DUP1 SWAP2 SUB SWAP1 RETURN JUMPDEST PUSH32 0x2D4DD5FE18ADA5A020A9F5591539A8DC3010A5C074BA6A70E1C956659F02786A CALLVALUE PUSH1 0x40 MLOAD PUSH2 0xFD SWAP2 SWAP1 PUSH2 0x39B JUMP JUMPDEST PUSH1 0x40 MLOAD DUP1 SWAP2 SUB SWAP1 LOG1 DUP1 PUSH20 0xFFFFFFFFFFFFFFFFFFFFFFFFFFFFFFFFFFFFFFFF AND PUSH2 0x8FC CALLVALUE SWAP1 DUP2 ISZERO MUL SWAP1 PUSH1 0x40 MLOAD PUSH1 0x0 PUSH1 0x40 MLOAD DUP1 DUP4 SUB DUP2 DUP6 DUP9 DUP9 CALL SWAP4 POP POP POP POP ISZERO DUP1 ISZERO PUSH2 0x14B JUMPI RETURNDATASIZE PUSH1 0x0 DUP1 RETURNDATACOPY RETURNDATASIZE PUSH1 0x0 REVERT JUMPDEST POP POP JUMP JUMPDEST PUSH32 0x2D4DD5FE18ADA5A020A9F5591539A8DC3010A5C074BA6A70E1C956659F02786A CALLVALUE PUSH1 0x40 MLOAD PUSH2 0x17E SWAP2 SWAP1 PUSH2 0x39B JUMP JUMPDEST PUSH1 0x40 MLOAD DUP1 SWAP2 SUB SWAP1 LOG1 PUSH1 0x0 DUP2 PUSH20 0xFFFFFFFFFFFFFFFFFFFFFFFFFFFFFFFFFFFFFFFF AND PUSH2 0x8FC CALLVALUE SWAP1 DUP2 ISZERO MUL SWAP1 PUSH1 0x40 MLOAD PUSH1 0x0 PUSH1 0x40 MLOAD DUP1 DUP4 SUB DUP2 DUP6 DUP9 DUP9 CALL SWAP4 POP POP POP POP SWAP1 POP DUP1 PUSH2 0x1FF JUMPI PUSH1 0x40 MLOAD PUSH32 0x8C379A000000000000000000000000000000000000000000000000000000000 DUP2 MSTORE PUSH1 0x4 ADD PUSH2 0x1F6 SWAP1 PUSH2 0x413 JUMP JUMPDEST PUSH1 0x40 MLOAD DUP1 SWAP2 SUB SWAP1 REVERT JUMPDEST POP POP JUMP JUMPDEST PUSH32 0x2D4DD5FE18ADA5A020A9F5591539A8DC3010A5C074BA6A70E1C956659F02786A CALLVALUE PUSH1 0x40 MLOAD PUSH2 0x232 SWAP2 SWAP1 PUSH2 0x39B JUMP JUMPDEST PUSH1 0x40 MLOAD DUP1 SWAP2 SUB SWAP1 LOG1 PUSH1 0x0 DUP2 PUSH20 0xFFFFFFFFFFFFFFFFFFFFFFFFFFFFFFFFFFFFFFFF AND CALLVALUE PUSH1 0x40 MLOAD PUSH2 0x260 SWAP1 PUSH2 0x464 JUMP JUMPDEST PUSH1 0x0 PUSH1 0x40 MLOAD DUP1 DUP4 SUB DUP2 DUP6 DUP8 GAS CALL SWAP3 POP POP POP RETURNDATASIZE DUP1 PUSH1 0x0 DUP2 EQ PUSH2 0x29D JUMPI PUSH1 0x40 MLOAD SWAP2 POP PUSH1 0x1F NOT PUSH1 0x3F RETURNDATASIZE ADD AND DUP3 ADD PUSH1 0x40 MSTORE RETURNDATASIZE DUP3 MSTORE RETURNDATASIZE PUSH1 0x0 PUSH1 0x20 DUP5 ADD RETURNDATACOPY PUSH2 0x2A2 JUMP JUMPDEST PUSH1 0x60 SWAP2 POP JUMPDEST POP POP SWAP1 POP DUP1 PUSH2 0x2E6 JUMPI PUSH1 0x40 MLOAD PUSH32 0x8C379A000000000000000000000000000000000000000000000000000000000 DUP2 MSTORE PUSH1 0x4 ADD PUSH2 0x2DD SWAP1 PUSH2 0x413 JUMP JUMPDEST PUSH1 0x40 MLOAD DUP1 SWAP2 SUB SWAP1 REVERT JUMPDEST POP POP JUMP JUMPDEST PUSH1 0x0 SELFBALANCE SWAP1 POP SWAP1 JUMP JUMPDEST PUSH1 0x0 DUP1 REVERT JUMPDEST PUSH1 0x0 PUSH20 0xFFFFFFFFFFFFFFFFFFFFFFFFFFFFFFFFFFFFFFFF DUP3 AND SWAP1 POP SWAP2 SWAP1 POP JUMP JUMPDEST PUSH1 0x0 PUSH2 0x322 DUP3 PUSH2 0x2F7 JUMP JUMPDEST SWAP1 POP SWAP2 SWAP1 POP JUMP JUMPDEST PUSH2 0x332 DUP2 PUSH2 0x317 JUMP JUMPDEST DUP2 EQ PUSH2 0x33D JUMPI PUSH1 0x0 DUP1 REVERT JUMPDEST POP JUMP JUMPDEST PUSH1 0x0 DUP2 CALLDATALOAD SWAP1 POP PUSH2 0x34F DUP2 PUSH2 0x329 JUMP JUMPDEST SWAP3 SWAP2 POP POP JUMP JUMPDEST PUSH1 0x0 PUSH1 0x20 DUP3 DUP5 SUB SLT ISZERO PUSH2 0x36B JUMPI PUSH2 0x36A PUSH2 0x2F2 JUMP JUMPDEST JUMPDEST PUSH1 0x0 PUSH2 0x379 DUP5 DUP3 DUP6 ADD PUSH2 0x340 JUMP JUMPDEST SWAP2 POP POP SWAP3 SWAP2 POP POP JUMP JUMPDEST PUSH1 0x0 DUP2 SWAP1 POP SWAP2 SWAP1 POP JUMP JUMPDEST PUSH2 0x395 DUP2 PUSH2 0x382 JUMP JUMPDEST DUP3 MSTORE POP POP JUMP JUMPDEST PUSH1 0x0 PUSH1 0x20 DUP3 ADD SWAP1 POP PUSH2 0x3B0 PUSH1 0x0 DUP4 ADD DUP5 PUSH2 0x38C JUMP JUMPDEST SWAP3 SWAP2 POP POP JUMP JUMPDEST PUSH1 0x0 DUP3 DUP3 MSTORE PUSH1 0x20 DUP3 ADD SWAP1 POP SWAP3 SWAP2 POP POP JUMP JUMPDEST PUSH32 0x5472616E73616374696F6E204661696C65640000000000000000000000000000 PUSH1 0x0 DUP3 ADD MSTORE POP JUMP JUMPDEST PUSH1 0x0 PUSH2 0x3FD PUSH1 0x12 DUP4 PUSH2 0x3B6 JUMP JUMPDEST SWAP2 POP PUSH2 0x408 DUP3 PUSH2 0x3C7 JUMP JUMPDEST PUSH1 0x20 DUP3 ADD SWAP1 POP SWAP2 SWAP1 POP JUMP JUMPDEST PUSH1 0x0 PUSH1 0x20 DUP3 ADD SWAP1 POP DUP2 DUP2 SUB PUSH1 0x0 DUP4 ADD MSTORE PUSH2 0x42C DUP2 PUSH2 0x3F0 JUMP JUMPDEST SWAP1 POP SWAP2 SWAP1 POP JUMP JUMPDEST PUSH1 0x0 DUP2 SWAP1 POP SWAP3 SWAP2 POP POP JUMP JUMPDEST POP JUMP JUMPDEST PUSH1 0x0 PUSH2 0x44E PUSH1 0x0 DUP4 PUSH2 0x433 JUMP JUMPDEST SWAP2 POP PUSH2 0x459 DUP3 PUSH2 0x43E JUMP JUMPDEST PUSH1 0x0 DUP3 ADD SWAP1 POP SWAP2 SWAP1 POP JUMP JUMPDEST PUSH1 0x0 PUSH2 0x46F DUP3 PUSH2 0x441 JUMP JUMPDEST SWAP2 POP DUP2 SWAP1 POP SWAP2 SWAP1 POP JUMP INVALID LOG2 PUSH5 0x6970667358 0x22 SLT KECCAK256 0x5D CREATE CODESIZE 0xF7 DUP6 PUSH2 0xA487 DUP1 JUMP PUSH32 0x7E288B2F5D440863EA854200C3F8209198B03DE52464736F6C63430008120033 "
				},
				"gasEstimates": {
					"creation": {
						"codeDepositCost": "239800",
						"executionCost": "281",
						"totalCost": "240081"
					},
					"external": {
						"callEth(address)": "infinite",
						"chechBal()": "383",
						"sendEth(address)": "infinite",
						"transferEth(address)": "infinite"
					}
				},
				"methodIdentifiers": {
					"callEth(address)": "d9e8cf91",
					"chechBal()": "f01c6560",
					"sendEth(address)": "76a54c60",
					"transferEth(address)": "30df47af"
				}
			},
			"storageLayout": {
				"storage": [],
				"types": null
			},
			"userdoc": {
				"kind": "user",
				"methods": {},
				"version": 1
			}
		}
	}
}