{
	"data": {
		"bytecode": {
			"linkReferences": {},
			"object": "6080604052600f6000556018600155601560025534801561001f57600080fd5b506101848061002f6000396000f3fe608060405234801561001057600080fd5b50600436106100575760003560e01c80630c1b7c1e1461005c5780630e38fe1e1461007a578063119552a1146100985780636b4cd7ae146100b6578063ddf32683146100d4575b600080fd5b6100646100f2565b6040516100719190610133565b60405180910390f35b6100826100fc565b60405161008f9190610133565b60405180910390f35b6100a0610101565b6040516100ad9190610133565b60405180910390f35b6100be610107565b6040516100cb9190610133565b60405180910390f35b6100dc610111565b6040516100e99190610133565b60405180910390f35b6000600254905090565b600090565b60005481565b6000600154905090565b60008054905090565b6000819050919050565b61012d8161011a565b82525050565b60006020820190506101486000830184610124565b9291505056fea2646970667358221220f2442c5e69778411f874dce99d828f7f5299f839ee01f69bed080263f88663d664736f6c63430008120033",
			"opcodes": "PUSH1 0x80 PUSH1 0x40 MSTORE PUSH1 0xF PUSH1 0x0 SSTORE PUSH1 0x18 PUSH1 0x1 SSTORE PUSH1 0x15 PUSH1 0x2 SSTORE CALLVALUE DUP1 ISZERO PUSH2 0x1F JUMPI PUSH1 0x0 DUP1 REVERT JUMPDEST POP PUSH2 0x184 DUP1 PUSH2 0x2F PUSH1 0x0 CODECOPY PUSH1 0x0 RETURN INVALID PUSH1 0x80 PUSH1 0x40 MSTORE CALLVALUE DUP1 ISZERO PUSH2 0x10 JUMPI PUSH1 0x0 DUP1 REVERT JUMPDEST POP PUSH1 0x4 CALLDATASIZE LT PUSH2 0x57 JUMPI PUSH1 0x0 CALLDATALOAD PUSH1 0xE0 SHR DUP1 PUSH4 0xC1B7C1E EQ PUSH2 0x5C JUMPI DUP1 PUSH4 0xE38FE1E EQ PUSH2 0x7A JUMPI DUP1 PUSH4 0x119552A1 EQ PUSH2 0x98 JUMPI DUP1 PUSH4 0x6B4CD7AE EQ PUSH2 0xB6 JUMPI DUP1 PUSH4 0xDDF32683 EQ PUSH2 0xD4 JUMPI JUMPDEST PUSH1 0x0 DUP1 REVERT JUMPDEST PUSH2 0x64 PUSH2 0xF2 JUMP JUMPDEST PUSH1 0x40 MLOAD PUSH2 0x71 SWAP2 SWAP1 PUSH2 0x133 JUMP JUMPDEST PUSH1 0x40 MLOAD DUP1 SWAP2 SUB SWAP1 RETURN JUMPDEST PUSH2 0x82 PUSH2 0xFC JUMP JUMPDEST PUSH1 0x40 MLOAD PUSH2 0x8F SWAP2 SWAP1 PUSH2 0x133 JUMP JUMPDEST PUSH1 0x40 MLOAD DUP1 SWAP2 SUB SWAP1 RETURN JUMPDEST PUSH2 0xA0 PUSH2 0x101 JUMP JUMPDEST PUSH1 0x40 MLOAD PUSH2 0xAD SWAP2 SWAP1 PUSH2 0x133 JUMP JUMPDEST PUSH1 0x40 MLOAD DUP1 SWAP2 SUB SWAP1 RETURN JUMPDEST PUSH2 0xBE PUSH2 0x107 JUMP JUMPDEST PUSH1 0x40 MLOAD PUSH2 0xCB SWAP2 SWAP1 PUSH2 0x133 JUMP JUMPDEST PUSH1 0x40 MLOAD DUP1 SWAP2 SUB SWAP1 RETURN JUMPDEST PUSH2 0xDC PUSH2 0x111 JUMP JUMPDEST PUSH1 0x40 MLOAD PUSH2 0xE9 SWAP2 SWAP1 PUSH2 0x133 JUMP JUMPDEST PUSH1 0x40 MLOAD DUP1 SWAP2 SUB SWAP1 RETURN JUMPDEST PUSH1 0x0 PUSH1 0x2 SLOAD SWAP1 POP SWAP1 JUMP JUMPDEST PUSH1 0x0 SWAP1 JUMP JUMPDEST PUSH1 0x0 SLOAD DUP2 JUMP JUMPDEST PUSH1 0x0 PUSH1 0x1 SLOAD SWAP1 POP SWAP1 JUMP JUMPDEST PUSH1 0x0 DUP1 SLOAD SWAP1 POP SWAP1 JUMP JUMPDEST PUSH1 0x0 DUP2 SWAP1 POP SWAP2 SWAP1 POP JUMP JUMPDEST PUSH2 0x12D DUP2 PUSH2 0x11A JUMP JUMPDEST DUP3 MSTORE POP POP JUMP JUMPDEST PUSH1 0x0 PUSH1 0x20 DUP3 ADD SWAP1 POP PUSH2 0x148 PUSH1 0x0 DUP4 ADD DUP5 PUSH2 0x124 JUMP JUMPDEST SWAP3 SWAP2 POP POP JUMP INVALID LOG2 PUSH5 0x6970667358 0x22 SLT KECCAK256 CALLCODE PREVRANDAO 0x2C 0x5E PUSH10 0x778411F874DCE99D828F PUSH32 0x5299F839EE01F69BED080263F88663D664736F6C634300081200330000000000 "
		},
		"gasEstimates": {
			"creation": {
				"codeDepositCost": "77600",
				"executionCost": "66447",
				"totalCost": "144047"
			},
			"external": {
				"a1()": "2451",
				"display()": "2415",
				"display1()": "2503",
				"display2()": "2481",
				"display3()": "329"
			}
		},
		"methodIdentifiers": {
			"a1()": "119552a1",
			"display()": "0c1b7c1e",
			"display1()": "ddf32683",
			"display2()": "6b4cd7ae",
			"display3()": "0e38fe1e"
		}
	},
	"abi": [
		{
			"inputs": [],
			"name": "a1",
			"outputs": [
				{
					"internalType": "int256",
					"name": "",
					"type": "int256"
				}
			],
			"stateMutability": "view",
			"type": "function"
		},
		{
			"inputs": [],
			"name": "display",
			"outputs": [
				{
					"internalType": "int256",
					"name": "",
					"type": "int256"
				}
			],
			"stateMutability": "view",
			"type": "function"
		},
		{
			"inputs": [],
			"name": "display1",
			"outputs": [
				{
					"internalType": "int256",
					"name": "",
					"type": "int256"
				}
			],
			"stateMutability": "view",
			"type": "function"
		},
		{
			"inputs": [],
			"name": "display2",
			"outputs": [
				{
					"internalType": "int256",
					"name": "",
					"type": "int256"
				}
			],
			"stateMutability": "view",
			"type": "function"
		},
		{
			"inputs": [],
			"name": "display3",
			"outputs": [
				{
					"internalType": "int256",
					"name": "",
					"type": "int256"
				}
			],
			"stateMutability": "view",
			"type": "function"
		}
	]
}